:1000000000308A00DC2A0000FF00030E8301A100FB
:100010000A08A0008A0106308A000B2E09008B1303
:100020008B1B0F28203085000130860087011F3090
:1000300083168500D03086001930870003178801A9
:10004000890103139501960171308F0014308312DA
:10005000C60083160F1935288312C608031D3228DF
:1000600083163528C6032928831683128A110A129B
:10007000F32A6400460803178D0083168C130C14B2
:1000800083120C08F80003138A110A12F62A831649
:100090002008831203178D0083160313210883128F
:1000A00003178F00031083160313A40CA501240863
:1000B000250203188828640003178C170C1400000D
:1000C000000003132308FA002208A20A0319A30A56
:1000D000840083137A188317831203170C08800097
:1000E000831603132308FA002208A20A0319A30A9D
:1000F000840083137A188317831203170E08800075
:100100008D0A8D0803198F0A83160313A50A572831
:10011000831200346400550803178D00031356083A
:1001200003178C0083168C130C15831203130B0812
:10013000F7008B138316031755308D00AA308D00FE
:100140008C148C18A1280C117708831203138B04CC
:10015000640000340630D000CF01D10150081E3CAD
:10016000031CCE28031DB8284F08FE3C031CCE28D4
:1001700050088316A10083124F088316A000A30124
:100180005230A2000230A400831247205208D10747
:100190005308D107CF0A0319D00AAE28D108031D8E
:1001A000D5280130F800E028E0285109D400D40A0D
:1001B000F330D5005408D6008A200030F800E0283B
:1001C00000344210C301C4019130C50000349412C0
:1001D000163094003C30831693000130910080303B
:1001E0009400831294160034D3080319CF294F08C2
:1001F0000F398316A000A1010310200DF900210D75
:10020000FA007908F60083124F08F039FC00500814
:10021000FD00F608031D102953081F3C031C1C2970
:100220007D088316A1007C08A000A3015430A20021
:100230002030A40083124720F5015430F4007608E2
:10024000F4070318F50A76081F3C031C4D29D30850
:1002500003194D297508FA007408F40A0319F50A00
:100260008316A0007A08A10083125208FA005108F0
:10027000D10A0319D20A840083137A18831700085D
:100280008316A200200884008313211883172208F4
:100290008000F60A8312D30323294F080F388316F0
:1002A000A000831250088316A1000130200783129A
:1002B000CF00831621088312D0000318D00A7C08CF
:1002C00003178D007D088F00F5015430F400F6010E
:1002D0007608073C031C96297508FA007408F40A8E
:1002E0000319F50A840083137A18831700088C0019
:1002F0007508FA007408F40A0319F50A84008313D8
:100300007A18831700088E0083168C170C15553049
:100310008D00AA308D008C14000000000C11831297
:100320008D0A8D0803198F0AF60A68290830FC0720
:100330000318FD0A7C088D007D088F00F601760801
:10034000073C031CCD297508FA007408F40A031948
:10035000F50A840083137A18831700088C00750847
:10036000FA007408F40A0319F50A840083137A1852
:10037000831700088E0083168C170C1555308D00DE
:10038000AA308D008C14000000000C1183128D0A1D
:100390008D0803198F0AF60A9F290313F4280034E5
:1003A00064008101FF3083168100831203178501E9
:1003B0004D3003139200F9308316920083128C1093
:1003C00083168C108312E120E7208C1CF0298C10FE
:1003D000A10BEF291430A100141FEF29E720D72A21
:1003E0008C1DD72A831614088312C6001308C70071
:1003F0008C11141BD62A46082539013A0319102AF4
:10040000203A0319122A253A0319B52A013A031989
:10041000B52A213A0319B52A043A0319D32AD42A52
:100420001416D52A4708C8004808C90044081F3CCC
:10043000031CB12A4408C40A223E840083134908DD
:100440008000440B262A4908C300B02A0530430720
:100450004402031DB02A4408CA004A08203C03187D
:10046000342A9A30C500B02ACD01CE014A084E0286
:100470000318422A22304E07840083130008CD0758
:10048000CE0A362ACD080319482A9530C500B02A6D
:10049000250803194F2A013A0319992AAD2A031096
:1004A000230CCC00240CCB004C08053C0318962AE6
:1004B0004C081E3C031C962A0310220C4B07CF004D
:1004C0004C08D0000318D00A01304F02D100500868
:1004D000D2000030031C0130D20252081E3C031C23
:1004E0007C2A4C08D0004B08CF00D2012630D10026
:1004F0002208D300F420962A4B08003CCF001F307E
:10050000D0004C08031C4C0FD00203104F0DF90013
:10051000500DFA007908CE004C08D0004B08CF00EF
:10052000D2012630D1004E08D300F420AA30C500F5
:10053000B02AA208031DA92AA308031DA92AA408FA
:10054000031DA92AAA20780BA92AAA30C5004214A3
:10055000AC2A9530C5004210B02A9230C500B02AAE
:10056000B32A9A30C5001416D52A4508C800831648
:100570001418B82A8312941348089300941BBB2ABA
:10058000C12A00001416421CD12A4508AA3C031DAA
:10059000D12AF130D500AA30D6008A208A0100285D
:1005A000D22AE120D52AD52AD62AD72AE7206400E4
:1005B000E5298A110A12012B840183131F30830558
:1005C000831603170908C039890003131F129F12ED
:1005D00000300317880083128701880189011430D5
:1005E0000313A1000F28F130C60039287808553CC4
:1005F0000319FD2AAA20F8080319D02906308A0019
:1006000082018A0100286300FF2EFF2EFF2EFF2E9D
:10061000FF2EFF2EFF2EFF2EFF2EFF2EFF2EFF2E72
:10062000FF2EFF2EFF2EFF2EFF2EFF2EFF2EFF2E62
:10063000FF2EFF2EFF2EFF2EFF2EFF2EFF2EFF2E52
:10064000FF2EFF2EFF2EFF2EFF2EFF2EFF2EFF2E42
:100C000000308A00402E000006128316061283125E
:100C10000034083083160317E802031C1B2EE8304B
:100C2000840083170310800C000803191B2E192E53
:100C30000000800B182E831203130034831606164F
:100C4000831200349412163094003C3083169300C3
:100C50000130910080309400831294160034FF2EEE
:100C6000FF2EFF2EFF2EFF2EFF2EFF2EFF2EFF2E1C
:100C7000FF2EFF2EFF2EFF2EFF2EFF2EFF2EFF2E0C
:100C8000840183131F308305831603170908C039B5
:100C9000890003131F129F1200300317880083126C
:100CA00087018801890114300313AA00AD01AE0148
:100CB000AF01AB142B158A1500288A116300FF2E93
:100CC000FF2EFF2EFF2EFF2EFF2EFF2EFF2EFF2EBC
:100CD000FF2EFF2EFF2EFF2EFF2EFF2EFF2EFF2EAC
:100CE000FF2EFF2EFF2EFF2EFF2EFF2EFF2EFF2E9C
:100CF000FF2EFF2EFF2EFF2EFF2EFF2EFF2EFF2E8C
:100D000064000426023083160317E700EE30E80083
:100D100083120313092683160317E70B862E83120B
:100D200003131E262E30F700F70B942E00008316B7
:100D30000317661083120313061EA32E83160317D0
:100D4000661483120313023083160317E700CB30B7
:100D5000E80083120313092683160317E70BA72E57
:100D6000003066180130F800831203130034640069
:100D700083160317E7016708073C031CEC2E66087F
:100D80000139E8006808E900E9080319D82E831240
:100D9000031304260330F700F70BCC2ECF2E1E26AC
:100DA0002A30F700F70BD22E0000E62E8316031729
:100DB0008312031304262730F700F70BDD2EE02EF5
:100DC0001E260630F700F70BE32E000003108316F3
:100DD0000317E60CE70ABB2E831203130034FF2E21
:100DE000FF2EFF2EFF2EFF2EFF2EFF2EFF2EFF2E9B
:100DF000FF2EFF2EFF2EFF2EFF2EFF2EFF2EFF2E8B
:100E0000640083160317670883128D008316680831
:100E100083128C0083168C130C15831203130B089A
:100E2000F7008B138316031755308D00AA308D0001
:100E30008C148C18192F0C117708831203138B0450
:100E400064000034FF2EFF2EFF2EFF2EFF2EFF2EFC
:100E5000FF2EFF2EFF2EFF2EFF2EFF2EFF2EFF2E2A
:100E6000FF2EFF2EFF2EFF2EFF2EFF2EFF2EFF2E1A
:100E7000FF2EFF2EFF2EFF2EFF2EFF2EFF2EFF2E0A
:100E8000FF2EFF2EFF2EFF2EFF2EFF2EFF2EFF2EFA
:100E9000FF2EFF2EFF2EFF2EFF2EFF2EFF2EFF2EEA
:100EA000FF2EFF2EFF2EFF2EFF2EFF2EFF2EFF2EDA
:100EB000FF2EFF2EFF2EFF2EFF2EFF2EFF2EFF2ECA
:100EC000FF2EFF2EFF2EFF2EFF2EFF2EFF2EFF2EBA
:100ED000FF2EFF2EFF2EFF2EFF2EFF2EFF2EFF2EAA
:100EE000FF2EFF2EFF2EFF2EFF2EFF2EFF2EFF2E9A
:100EF000FF2EFF2EFF2EFF2EFF2EFF2EFF2EFF2E8A
:100F0000FF2EFF2EFF2EFF2EFF2EFF2EFF2EFF2E79
:100F1000FF2EFF2EFF2EFF2EFF2EFF2EFF2EFF2E69
:100F2000FF2EFF2EFF2EFF2EFF2EFF2EFF2EFF2E59
:100F3000FF2EFF2EFF2EFF2EFF2EFF2EFF2EFF2E49
:100F4000FF2EFF2EFF2EFF2EFF2EFF2EFF2EFF2E39
:100F5000FF2EFF2EFF2EFF2EFF2EFF2EFF2EFF2E29
:100F6000FF2EFF2EFF2EFF2EFF2EFF2EFF2EFF2E19
:100F7000FF2EFF2EFF2EFF2EFF2EFF2EFF2EFF2E09
:100F8000FF2EFF2EFF2EFF2EFF2EFF2EFF2EFF2EF9
:100F9000FF2EFF2EFF2EFF2EFF2EFF2EFF2EFF2EE9
:100FA000FF2EFF2EFF2EFF2EFF2EFF2EFF2EFF2ED9
:100FB000FF2EFF2EFF2EFF2EFF2EFF2EFF2EFF2EC9
:100FC000FF2EFF2EFF2EFF2EFF2EFF2EFF2EFF2EB9
:100FD000FF2EFF2EFF2EFF2EFF2EFF2EFF2EFF2EA9
:100FE000FF2EFF2EFF2EFF2EFF2EFF2EFF2EFF2E99
:100FF000FF2EFF2EFF2EFF2EFF2EFF2EFF2EFF2E89
:101000008B138B1B0028713083168F00143003174D
:10101000E00003130F1915280317E008031D122819
:1010200003131528E00309280313203083128500D9
:101030000130860087011F3083168500D03086007E
:101040001930870003178801890103139501960160
:1010500083122B10AC0120308400831383160317F6
:10106000E0010A30E100610803193B2860088000B4
:10107000840AE10B3628023083120313A1000130E9
:10108000A2000330A30064008101FF3083168100B9
:101090008312031785014D3003139200F930831634
:1010A000920083128C1083168C108312B001831669
:1010B0000317E20162084F3C031C6F28A03062074F
:1010C000840083138001103062078400831780013D
:1010D00090306207840083178001E20A5A28E101F8
:1010E0006108023C031C82288A11831203138026A4
:1010F0008A1583160317601078186014601C822804
:10110000E10A70286108033C03198828601C8F28B5
:10111000023083120313B000972983160317E101ED
:101120006108023C031C8829CC30E6008A11831236
:101130000313B7268A15F03083160317E6008A11C9
:1011400083120313B7268A1583160317E6018A1143
:1011500083120313B7268A1583160317E6018A1133
:1011600083120313B7268A15B10183160317E4010E
:10117000E2016208EF3C031C6929E7016400E60113
:101180006608073C031CF4280310E70C8A1183123D
:10119000031304268A150330F700F70BCD28D02857
:1011A0008A111E268A150530F700F70BD528D82896
:1011B00083160317681083120313061EE428831690
:1011C00003176814831203132430F700F70BE62883
:1011D000000000308316031768180130F800F80883
:1011E000031DE717E60AC0286708F8007808E5003D
:1011F0006208E6006508E7006608EF3C031801296D
:101200001F2966084F3C031C0C29A0306607840088
:101210008313670880001F2966089F3C031C182958
:1012200050306602103E84008317670880001F2933
:10123000A0306602903E8400831767088000E408AF
:1012400003192A29013064076202031D2A2965084F
:10125000E30069296208EF3C031C4A296508E6009F
:10126000660883120313B10683160317E7016708A4
:10127000073C031C4A2983120313311C4429031021
:10128000310C8C3AB10046290310B10C83160317B8
:10129000E70A3729620B67296508E4006408F03C17
:1012A00003185C29033083120313B0008A118026CF
:1012B0008A15831603176929E408031D67298A1113
:1012C0008312031380268A15831603176929E20AFD
:1012D000B9288A118312031380268A1531088316D0
:1012E0000317630203197F29043083120313B0002C
:1012F0008A1180268A1584298329831603170130D1
:1013000083120313B000972983160317E10A90286C
:101310006108033C031D992983120313B0080319C4
:1013200094298316031799290530B000972983164D
:1013300003178A118312031322268A158C1CAA29EB
:101340008C10AA0BAA291430AA00141FAA298A11EA
:1013500022268A158C1D712B831614080317E000B2
:1013600083120313130883160317E1008312031378
:101370008C11141B6E2B8316031760082539013A54
:10138000831203130319D429203A0319DE29253ABD
:101390000319962A013A0319962A213A0319962A23
:1013A000043A0319672B6A2B1416AD01831614191E
:1013B000DD298312AB102B1183166C2B1416AD088C
:1013C000031DEC2983160317610883120313AE0073
:1013D000AB140130AD00942A2D0BF82983160317A6
:1013E000610883120313AF002B150230AD00942A5D
:1013F0002E0883160317E200831203132F088316A7
:101400000317E3006108E400620883120313031961
:10141000162A013A0319352A023A03196C2A073AA7
:101420000319732A013A0319762A8C2A83160317A3
:101430006308E5006408E6006508BF3C031C342A25
:10144000831203132418272A83160317342A8316BA
:1014500003176508E7006608E8008A118312031382
:1014600000278A15831603178F2A8316031763082C
:10147000E5006408E6006508043A831203130319C3
:10148000452A013A03194D2A682A8316031766086C
:10149000013983120313A400692A2B1C672A2C0824
:1014A000FF3A831603176602031D642AF130E70032
:1014B0005530E8008A118312031300278A158A0128
:1014C0000028672A83160317831203132B10692A37
:1014D000692A831603178F2A831603176308E5000A
:1014E0006408E6008F2A831603178F2A83160317D2
:1014F0006308E5006408E600E508031D892A66081C
:10150000053C031C892A660883120313B000831666
:1015100003178F2A83120313831603178F2A83124C
:101520000313AF0F942AAE0A83166C2BAB1C4C2B03
:101530002B1D4C2B2E0883160317E2008312031376
:101540002F0883160317E30062088312031303199D
:10155000B02A013A0319C52A023A0319E82A3E2B98
:10156000831603176308E5006508E6006400660853
:1015700083128D0083168C130C1483120C08F80050
:10158000780878088316E400422B83160317630853
:10159000E5006508093C031CE22A6508053C031DBB
:1015A000DB2A831203132B140E08AC002C088316BD
:1015B0000317E600E12A2030650784008313000842
:1015C000E600E32AE6016608F8007808E400422B0A
:1015D000831603176308E500E508031DF72A831245
:1015E00003133008F800372B372B831603176508D1
:1015F000F03C031C322B01306502E7006708E8006D
:101600006808EF3C0318072B0030F800282B680807
:101610004F3C031C132BA030680784008313000881
:10162000F800282B282B68089F3C031C202B5030E7
:101630006802103E840083170008F800282B282B2E
:10164000A0306802903E840083170008F800282B21
:101650007808E6006608F80083120313372B372B4F
:10166000831603170030F80083120313372B780812
:1016700083160317E400422B831203138316031708
:10168000E401422B6408F8007808E1008312031398
:10169000AF0F4B2BAE0A512B83160317E1018312B8
:1016A0000313831603176108E20003131418562B63
:1016B0008312941383160317620883120313930093
:1016C000941B592B632B0000141683166C2B831666
:1016D0006C2B83126E2B8316722B83128A11222697
:1016E0008A158316640083129E298A110A125D2EC0
:1016F000FF2EFF2EFF2EFF2EFF2EFF2EFF2EFF2E82
:10170000FF2EFF2EFF2EFF2EFF2EFF2EFF2EFF2E71
:10171000FF2EFF2EFF2EFF2EFF2EFF2EFF2EFF2E61
:10172000FF2EFF2EFF2EFF2EFF2EFF2EFF2EFF2E51
:020DFE00FF2EC6
:021DFE00FF2EB6
:023DFC0027009E
:1042000001000100000002000D0000000000EF00AE
:104210000100010001000000000000000000FD009E
:1042200001000B001900200044005000C2004800AB
:104230005000E7004800500020004C006F00630071
:104240006100740069006F006E0020004400690086
:10425000730063006F007600650072007900200033
:10426000530065007200760069006300650073000A
:10427000200020002000200020002000200020003E
:104280002000C000CA003000310033003500380083
:1042900038002D00300030003100C80030003200FE
:1042A0002F00320033002F00310032000300D20013
:1042B000410030000600D300690019001000B00072
:1042C0000100C10000000000000000000000A50087
:1042D000010007001900C20048005000E700480034
:1042E000500020004C006F00630061007400690002
:1042F0006F006E00200044006900730063006F00CF
:10430000760065007200790020005300650072009D
:104310007600690063006500730020002000200023
:10432000200020002000200020002000C000C0004D
:10433000C00000000000C1000000000000005000AC
:10434000000000000000000000000000000000006D
:10435000000000000000000000000000000000005D
:10436000000000000000000000000000000000004D
:10437000000000000000000000000000000000003D
:10438000000000000000000000000000000000002D
:10439000000000000000000000000000000000001D
:1043A000000000000000000000000000000000000D
:1043B00000000000000000000000000000000000FD
:1043C00000000000000000000000000000000000ED
:1043D00000000000000000000000000000000000DD
:1043E00000000000000000000000000000000000CD
:1043F00000000000000000000000000000000000BD
:04400E00EC2FFF3E56
:0840000002000C0007000F0094
:00000001FF
