:1000000000308A000B2B0000FF00030E8301A100CB
:100010007F08A0000A08A8008A01A00E0408A20018
:100020007708A3007808A4007908A5007A08A6003C
:100030007B08A700831383128C308400801D222844
:100040008C193528220884002308F7002408F800BA
:100050002508F9002608FA002708FB0028088A006E
:10006000210E8300FF0E7F0E09008A114928941289
:100070003030831693003630831294008316941325
:10008000141383122E10AF01AE10B101B2012E1164
:10009000003483161408F20083121308B000B20172
:1000A000141F54283720AE2872082539013A031945
:1000B0006628203A03196828253A03198028203A2F
:1000C00003198028043A0319AA28AB282E10AE2859
:1000D0002E186E283008AF002E147F282F08033A00
:1000E000031D7D28AE1C7C283108FF3A3002031D19
:1000F0007B282E157C28AE107E287E28AF0AAE28DD
:100100002F08033C031C94282F08033C031D8E2852
:10011000AE140E08B1003108F30093282F082A3ED0
:1001200084000008F3009528F3018316141C9A2814
:10013000831295288312941373089300941FA228A6
:1001400083169A280000000000000000000014162A
:10015000AF0AAE28AE2894123720AE288C118A112F
:100160002228A53090009E308F0058308E008A11D2
:100170001E2B0330AA00AB01AC008A111F2B9E304E
:100180008F0058308E00141EC728141FCD28B20AC5
:100190003208053C03193720CE28B2010C108A1111
:1001A000312B6730840000080319E7280130F8007C
:1001B000BF30F7006400F70BDA28F80BD8284A3074
:1001C000F700F70BE12800006400800BD62800340C
:1001D0000830F80000006400051183160511640062
:1001E0008312EF0D8510031CF828831685148312E3
:1001F0000318FD28831685108312831605158312B4
:10020000051904298316FF28F80BEA286400051154
:10021000831605110000851464006400051583121F
:100220000519142983160F29F8016400851878141C
:10023000051183160511831285108316851083120C
:10024000003483168514640005156400831285103C
:10025000831685106400831205118316051183121D
:100260006608EF00E8206708EF00E8208316851095
:1002700000000515831205193F2983163A296400E9
:10028000000000000000831685146400831200340F
:100290000830EF007708F000831685146400051518
:1002A0008312051955298316502985180314851CB6
:1002B0000310F80D64008316051183120511EF0B6E
:1002C0004C29831685146400831285107008031965
:1002D0006C2983168510831200008316051583127E
:1002E0000519742983166F296400051183160511F9
:1002F00064008312851083168510831200348316E0
:10030000851464000515640083128510831685101A
:1003100064008312051183160511FC308312EF006F
:10032000E8207808781896296810972968146818C2
:10033000CD296608EF00E8208316851464000515B2
:10034000640083120519A6298316A1298510831636
:10035000851064008312051183160511FD30831288
:10036000EF00E82078087818B7296810B8296814D1
:100370006818CD296708E703003A0319C529013039
:10038000F70048217808E900BA29F70148217808E0
:100390007818CC296810CD296814831685100000C0
:1003A000051583120519D6298316D129640000008A
:1003B0000000000083168514640083126908F800A9
:1003C00000348316851464000515640083128510BB
:1003D000831685106400831205118316051183129C
:1003E0006908EF00E82078087818F8296C10F929D6
:1003F0006C146C182C2A6A08EF00E8208316851408
:1004000064000515640083120519082A8316032A5F
:10041000851083168510640083120511831605115B
:10042000831269080138ED00EF00E8207808781899
:100430001B2A6C101C2A6C146C182C2A6B08840064
:100440000130F70048217808800001306B078400F4
:10045000F7014821780880008316851000000515F3
:1004600083120519352A8316302A64000000000023
:100470000000831685146400003083126C1801306C
:10048000F800003483168514640005156400831297
:1004900085108316851064008312051183160511DB
:1004A00083126A08EF00E82078087818592A6D103E
:1004B0005A2A6D146D18802A6B08EF00E82078081E
:1004C0007818642A6D10652A6D146D18802A6C08DE
:1004D00084000008EE00EF00E82078087818722AFF
:1004E0006D10732A6D1401306C0784000008EE0053
:1004F000EF00E820780878187F2A6D10802A6D14A4
:10050000831685100000051583120519892A8316A4
:10051000842A640000000000000083168514640033
:10052000003083126D180130F80000346608E900CD
:100530001A30EA006730EB00E121E7156710660822
:10054000EA001A30EB006730EC0042226608E9004E
:100550001B30EA006730EB00E1210F30E805660848
:10056000EA001B30EB006730EC0042226608E9002D
:100570001030EA006730EB00E1210330E704E811B6
:100580006608EA001030EB006730EC004222E70119
:10059000E8016608EA001630EB006730EC00422202
:1005A0006608E900EA016730EB00E121E71767120E
:1005B0006608EA00EB016730EC004222003466086E
:1005C000E700E8010130E9006708EA001630EB00B7
:1005D0006830EC0042221930E8004030E90067083A
:1005E000EA00EB016830EC0042226608E700E8010F
:1005F000E9016708EA001630EB006830EC0042229F
:100600001930E8004030E9006708EA00EB01683083
:10061000EC004222003484011F30830560308316D1
:100620008F001F129F121B0880399B0007309C000F
:10063000FF308312D800D900DA01B128B928372059
:1006400083168C1583120B178B1783161F129F129C
:100650001B0880399B0083122E19162E0C1C312B7F
:10066000BF286400DA08031D5F2B6430E700D12047
:10067000FF30D800D900E030E600E7012121013049
:10068000E600E7007F217808DB005B084039031DA6
:100690004D2B0130F800502B502B0030F800502B20
:1006A0007808DA00831605128312051683160513DF
:1006B000831205138316851383128513132E5A0B89
:1006C000942C8316051383120517831605128312C3
:1006D000051283168513831285130230DB009630D2
:1006E000E700D120DB0B6F2BDD01DE010130E600DE
:1006F000E7007F217808DB005B1F812B0030F800CA
:10070000912C3330DF003030E0003330E1001B301B
:10071000E6000330E7005F30E800EB016608EA001E
:1007200083168514640005156400831285108316F2
:10073000851064008312051183160511FC308312A5
:10074000EF00E82078087818A72B6910A82B691407
:100750006918C52B6608EF00E8206708E703003A30
:100760000319C02B6B08680784000008EC00EF0039
:10077000E8206B08680784000008EA07EB0AAD2B45
:10078000EA09EA0A6A08EF00E820831685100000EB
:10079000051583120519CE2B8316C92B64000000A2
:1007A0000000000083168514640000308312691C69
:1007B0000130F8007818DE2B6310DF2B6314013052
:1007C000DC005C08103C031C882C8230E400E6301E
:1007D000E5005C08083C031CF52B5C1CF22B803008
:1007E000E400F42B8230E400FC2B5C1CFA2B8430F8
:1007F000E400FC2B8630E4005C0BFF2B0B2C5C0828
:10080000023C03190B2C5C08093C03190B2C5C08F7
:100810000A3C031D0E2CE630E500362C5C08033C38
:1008200003191E2C5C08043C03191E2C5C080B3CAD
:1008300003191E2C5C080C3C031D212CE230E50042
:10084000362C5C08053C0319312C5C08063C031966
:10085000312C5C080D3C0319312C5C080E3C031D47
:10086000342CE030E500362CE430E5005C0B392C0C
:10087000452C5C08033C0319452C5C08053C031916
:10088000452C5C08073C031D4A2C6508E6000F3028
:10089000E70021216408E60096226408E600DF22D2
:1008A0005C080A3C0319602C5C080C3C0319602CA2
:1008B0005C080E3C0319602C5C08103C031D642C82
:1008C0006508E600E70121215C08023C0319742C4D
:1008D0005C08043C0319742C5C08063C0319742C56
:1008E0005C08083C031D772C0630DC07852C5C086F
:1008F0000A3C0319832C5C080C3C0319832C5C080C
:100900000E3C031D852C0830DC020130DC07E12B96
:100910000230E600FA30E700D120E60B8A2C0230E4
:10092000F8007808DA00132E5A08023C031D0D2E39
:1009300083168513831285178316051383120513F7
:100940008316051283120512DB01DC01DD01DE01D5
:10095000DF010130E600E7007F217808DE005E1F3E
:10096000B42C0030F8000A2E0130E6000430E70015
:100970007F217808DE005E1DC02CDB01DC01CE2C5F
:100980000130E6000330E7007F217808DB0001300A
:10099000E6000730E7007F217808DC000130DF0047
:1009A0005F08103C031C042E5F08083C031CF82C55
:1009B00001305F02F8005B08E000F8080319E42C3E
:1009C0000310E00CF80BE02C01305F02F80059082E
:1009D000E100F8080319F02C0310E10CF80BEC2CE3
:1009E0005F1CF52C8030E200F72C8230E200172DDE
:1009F00009305F02F8005C08E000F8080319042DD4
:100A00000310E00CF80B002D09305F02F8005808C5
:100A1000E100F8080319102D0310E10CF80B0C2D60
:100A20005F1C152D8430E200172D8630E200013066
:100A3000E005E1055F0B1D2D292D5F08023C031920
:100A4000292D5F08093C0319292D5F080A3C031D65
:100A50002C2DE630E300542D5F08033C03193C2D98
:100A60005F08043C03193C2D5F080B3C03193C2D27
:100A70005F080C3C031D3F2DE230E300542D5F085E
:100A8000053C03194F2D5F08063C03194F2D5F08E5
:100A90000D3C03194F2D5F080E3C031D522DE03015
:100AA000E300542DE430E3005F0B572D632D5F0806
:100AB000033C0319632D5F08053C0319632D5F0890
:100AC000073C031D682D6308E6000F30E700212175
:100AD000E00803196F2D6208E600DF22CC2DE10843
:100AE0000319762D6208E6009622CC2D6208E400F8
:100AF0006710E5010130E6006408EA001630EB00FB
:100B00006530EC0042226408E9001330EA006530E9
:100B1000EB00E121650CF700F70C3F30F705770893
:100B20000139F8007818962D6710972D671400305A
:100B300067180130F800F8080319CC2D6208E400AA
:100B40006710E5010130E6006408EA001630EB00AA
:100B50006530EC0042226408E9001130EA0065309B
:100B6000EB00E121650CF700F70C3F30F705770843
:100B70000139F8007818BE2D6710BF2D67140030BA
:100B800067180130F800F808031DCC2D6208E60054
:100B9000DF226208E60096225F080A3C0319DC2D7A
:100BA0005F080C3C0319DC2D5F080E3C0319DC2D9B
:100BB0005F08103C031DE02D6308E600E7012121DA
:100BC0005F08023C0319F02D5F08043C0319F02D67
:100BD0005F08063C0319F02D5F08083C031DF32D48
:100BE0000630DF07012E5F080A3C0319FF2D5F085E
:100BF0000C3C0319FF2D5F080E3C031D012E08302D
:100C0000DF020130DF07D02C5C08D8005B08D90078
:100C10000230F8007808DA00132E5A08023C031854
:100C2000132E0230DA0083162B2B83128B136400F1
:100C30000B308A00803082006300FF2EFF2EFF2ED3
:100C4000FF2EFF2EFF2EFF2EFF2EFF2EFF2EFF2E3C
:100C5000FF2EFF2EFF2EFF2EFF2EFF2EFF2EFF2E2C
:100C6000FF2EFF2EFF2EFF2EFF2EFF2EFF2EFF2E1C
:100C7000FF2EFF2EFF2EFF2EFF2EFF2EFF2EFF2E0C
:10170000E225A924AE110C18DB258C19892564006B
:10171000832B0034FF2EFF2EFF2EFF2EFF2EFF2ED9
:101720005708AD3C031DB02B831622088312031704
:101730008D00831603132308FA01831203178F0009
:101740006400943083168C0055308D00AA308D00D3
:101750008C14000000000C110C126400831203139F
:10176000003483162208831203178D008316031397
:101770002308831203178F0083160313A60125087D
:1017800026020318E32B6400813003178C0000004D
:10179000000003132408A40A8400831203170C0812
:1017A0008000831603132408A40A840083120317FD
:1017B0000E08800064008D0A8D0803198F0A8316B5
:1017C0000313A60ABF2B831200345708BE3C031D27
:1017D000822C831603178C17031322088312031716
:1017E0008D00831603132308831203178F000D083F
:1017F000033983160313A700A7080319242CFC3010
:10180000831203178D0583160313A60127082602EA
:101810000318242C640003170C14000000000C159E
:1018200055308D00AA308D008C14000000008C18FB
:10183000172C0C11640083128D0A8D0803198F0A6E
:1018400083160313A60A062CA6010310250C2602F4
:101850000318512C2408A40A8400000883120317DB
:101860008C00831603132408A40A84000008831242
:1018700003178E00640083160C1555308D00AA30B6
:101880008D008C14000000008C18442C0C11640096
:1018900083128D0A8D0803198F0A83160313A60A73
:1018A000252C831203170D08033983160313A70091
:1018B000A7080319812C2708043CA700FF308312D6
:1018C00003178C008E0083160313A6012708260237
:1018D0000318812C640003170C1555308D00AA30B5
:1018E0008D008C14000000008C18742C0C11640006
:1018F00083128D0A8D0803198F0A83160313A60A13
:10190000662C831200348316141C882C8312832CBB
:101910008312941355089300941F902C8316882CDF
:10192000000000000000000000001416AE1DA42CF2
:101930005508AA3C031DA42C5430F700F70B9E2C2D
:10194000000000008A0100285130D500D401D301E5
:1019500000340E308316A300F930A2003330A40007
:101960000330A5008312B123AD30D7008316A30145
:10197000A20183129023BE30D7008316A301A201D7
:101980003330A4000630A5008312E523DE30D700F3
:1019900000348316A001A101210883125402031C04
:1019A000DA2C33308316210784000008A007A10A2F
:1019B000CC2C83128316A0080319E32C5530831214
:1019C000D500692D8316831236080319EB2C013AD2
:1019D00003192D2D662D34088316A30083123508B4
:1019E0008316A2000310230CFE00220CFD007E08CB
:1019F0000B3C031C292D031D012D7D087F3C031C7E
:101A0000292D7D081F39A200A301A208031D162D50
:101A1000A308031D162DAD308312D7007E08831650
:101A2000A3007D08A200831290238316BE30831288
:101A3000D7007E088316A3007D08A2003730A400DB
:101A4000831233088316A5008312E523DE30D70006
:101A50008316AA308312D500692DFE01FD0183167D
:101A6000A0017E080B3C031C572D031D3B2D7D0858
:101A70007F3C031C572D7E08A3007D08A200333055
:101A8000A4000830A5008312B1238316A101210808
:101A90000F3C031C522D3330210784000008A0079F
:101AA000A10A472D0830FD070318FE0A312DA008B2
:101AB000031D602DAA308312D500AE15652D831647
:101AC0008312A9245530D500AE11692D5230D500AE
:101AD000692DD401D3010034941230308316930061
:101AE0003630831294008316941314138312D40196
:101AF000D3015130D500D6010034141E812D141F9E
:101B0000872DD60A5608053C03196C25882DD60169
:101B1000003483161408F50083121308F6008C11A4
:101B2000D601141F952D6C25C72D75082539013A4E
:101B30000319A72D203A0319A82D253A0319C12D01
:101B4000203A0319C12D043A0319C32DC42DC72D02
:101B500054081F3C031CBE2D333054078400760804
:101B60008000D408031DB72D7608D300BC2D0430A7
:101B7000530754020319C924D40AC02D5A30D50082
:101B8000C72D8324C72DC72D94126C25C72D003473
:101B9000723083168F0083128D131430F500831674
:101BA0000F19D92DF5080319D92DF5038312CF2D5F
:101BB0008316831200343C308F00B0308E007D25B8
:101BC0000C1000348B13C825DE30D70083161F128B
:101BD0009F121B0880399B00FF3065006600A5300E
:101BE000831290003C308F00B0308E006C250034A2
:101BF000FF2EFF2EFF2EFF2EFF2EFF2EFF2EFF2E7D
:101C0000FF2EFF2EFF2EFF2EFF2EFF2EFF2EFF2E6C
:101C1000FF2EFF2EFF2EFF2EFF2EFF2EFF2EFF2E5C
:101C2000FF2EFF2EFF2EFF2EFF2EFF2EFF2EFF2E4C
:101C3000FF2EFF2EFF2EFF2EFF2EFF2EFF2EFF2E3C
:101C4000FF2EFF2EFF2EFF2EFF2EFF2EFF2EFF2E2C
:101C5000FF2EFF2EFF2EFF2EFF2EFF2EFF2EFF2E1C
:101C6000FF2EFF2EFF2EFF2EFF2EFF2EFF2EFF2E0C
:101C7000FF2EFF2EFF2EFF2EFF2EFF2EFF2EFF2EFC
:101C8000FF2EFF2EFF2EFF2EFF2EFF2EFF2EFF2EEC
:101C9000FF2EFF2EFF2EFF2EFF2EFF2EFF2EFF2EDC
:101CA000FF2EFF2EFF2EFF2EFF2EFF2EFF2EFF2ECC
:101CB000FF2EFF2EFF2EFF2EFF2EFF2EFF2EFF2EBC
:101CC000FF2EFF2EFF2EFF2EFF2EFF2EFF2EFF2EAC
:101CD000FF2EFF2EFF2EFF2EFF2EFF2EFF2EFF2E9C
:101CE000FF2EFF2EFF2EFF2EFF2EFF2EFF2EFF2E8C
:101CF000FF2EFF2EFF2EFF2EFF2EFF2EFF2EFF2E7C
:101D0000FF2EFF2EFF2EFF2EFF2EFF2EFF2EFF2E6B
:101D1000FF2EFF2EFF2EFF2EFF2EFF2EFF2EFF2E5B
:101D2000FF2EFF2EFF2EFF2EFF2EFF2EFF2EFF2E4B
:101D3000FF2EFF2EFF2EFF2EFF2EFF2EFF2EFF2E3B
:101D4000FF2EFF2EFF2EFF2EFF2EFF2EFF2EFF2E2B
:101D5000FF2EFF2EFF2EFF2EFF2EFF2EFF2EFF2E1B
:101D6000FF2EFF2EFF2EFF2EFF2EFF2EFF2EFF2E0B
:101D7000FF2EFF2EFF2EFF2EFF2EFF2EFF2EFF2EFB
:101D8000FF2EFF2EFF2EFF2EFF2EFF2EFF2EFF2EEB
:101D9000FF2EFF2EFF2EFF2EFF2EFF2EFF2EFF2EDB
:101DA000FF2EFF2EFF2EFF2EFF2EFF2EFF2EFF2ECB
:101DB000FF2EFF2EFF2EFF2EFF2EFF2EFF2EFF2EBB
:101DC000FF2EFF2EFF2EFF2EFF2EFF2EFF2EFF2EAB
:101DD000FF2EFF2EFF2EFF2EFF2EFF2EFF2EFF2E9B
:101DE000FF2EFF2EFF2EFF2EFF2EFF2EFF2EFF2E8B
:101DF000FF2E0A128A15802B0034FF2EFF2EFF2E95
:101E0000FF2EFF2EFF2EFF2EFF2EFF2EFF2EFF2E6A
:101E1000FF2EFF2EFF2EFF2EFF2EFF2EFF2EFF2E5A
:101E2000FF2EFF2EFF2EFF2EFF2EFF2EFF2EFF2E4A
:101E3000FF2EFF2EFF2EFF2EFF2EFF2EFF2EFF2E3A
:101E4000FF2EFF2EFF2EFF2EFF2EFF2EFF2EFF2E2A
:101E5000FF2EFF2EFF2EFF2EFF2EFF2EFF2EFF2E1A
:101E6000FF2EFF2EFF2EFF2EFF2EFF2EFF2EFF2E0A
:101E7000FF2EFF2EFF2EFF2EFF2EFF2EFF2EFF2EFA
:101E8000FF2EFF2EFF2EFF2EFF2EFF2EFF2EFF2EEA
:101E9000FF2EFF2EFF2EFF2EFF2EFF2EFF2EFF2EDA
:101EA000FF2EFF2EFF2EFF2EFF2EFF2EFF2EFF2ECA
:101EB000FF2EFF2EFF2EFF2EFF2EFF2EFF2EFF2EBA
:101EC000FF2EFF2EFF2EFF2EFF2EFF2EFF2EFF2EAA
:101ED000FF2EFF2EFF2EFF2EFF2EFF2EFF2EFF2E9A
:101EE000FF2EFF2EFF2EFF2EFF2EFF2EFF2EFF2E8A
:101EF000FF2EFF2EFF2EFF2EFF2EFF2EFF2EFF2E7A
:101F0000FF2EFF2EFF2EFF2EFF2EFF2EFF2EFF2E69
:101F1000FF2EFF2EFF2EFF2EFF2EFF2EFF2EFF2E59
:101F2000FF2EFF2EFF2EFF2EFF2EFF2EFF2EFF2E49
:101F3000FF2EFF2EFF2EFF2EFF2EFF2EFF2EFF2E39
:101F4000FF2EFF2EFF2EFF2EFF2EFF2EFF2EFF2E29
:101F5000FF2EFF2EFF2EFF2EFF2EFF2EFF2EFF2E19
:101F6000FF2EFF2EFF2EFF2EFF2EFF2EFF2EFF2E09
:101F7000FF2EFF2EFF2EFF2EFF2EFF2EFF2EFF2EF9
:101F8000FF2EFF2EFF2EFF2EFF2EFF2EFF2EFF2EE9
:101F9000FF2EFF2EFF2EFF2EFF2EFF2EFF2EFF2ED9
:101FA000FF2EFF2EFF2EFF2EFF2EFF2EFF2EFF2EC9
:101FB000FF2EFF2EFF2EFF2EFF2EFF2EFF2EFF2EB9
:101FC000FF2EFF2EFF2EFF2EFF2EFF2EFF2EFF2EA9
:101FD000FF2EFF2EFF2EFF2EFF2EFF2EFF2EFF2E99
:101FE000FF2EFF2EFF2EFF2EFF2EFF2EFF2EFF2E89
:101FF000FF2EFF2EFF2EFF2EFF2EFF2EFF2EFF2E79
:020DFE00FF2EC6
:021DFE00FF2EB6
:0216FE000000EA
:04400E00343FFF3FFD
:00000001FF
