:1000000000308A00B12C0000FF00030E8301A10024
:100010000A08A0008A0105308A000B2D09008B1305
:1000200085010430860046308700D3308316850072
:10003000E1308600193087000330031788008901FA
:1000400003139501960171308F0014308312D5008F
:1000500083160F1934288312D508031D31288316FF
:100060003428D5032828831640308312D500553014
:1000700084008313000803194A280230F800F701AE
:10008000F70B4028F80B3F289730F700F70B46286E
:10009000800B3D288A110A12CD2C83164508831245
:1000A00003178D00831603134608831203178F006E
:1000B000031083160313C90CCA0149084A02031826
:1000C0008E28640003178C170C1400000000031323
:1000D0004808FA004708C70A0319C80A84008313AE
:1000E0007A188317831203170C08800083160313F2
:1000F0004808FA004708C70A0319C80A840083138E
:100100007A188317831203170E0880008D0A8D0852
:1001100003198F0A83160313CA0A5D288312003459
:100120000530DE00DD01DF015E081E3C031CB42843
:10013000031D9E285D08FE3C031CB4285E08831640
:10014000C60083125D088316C500C8016030C70071
:100150000230C90083124D206008DF076108DF0705
:10016000DD0A0319DE0A9428DF08031DBB280130CD
:10017000F800BE28BE280030F800BE2800345A0817
:10018000A6005908A5001712251817169712A518CA
:100190009716260CFA00250CF900FA0CF90C3F30E2
:1001A000FA0579087F39950000345A08AA005908E1
:1001B000A9001D12291C1D169D12A91C9D162A0C92
:1001C000FA00290CF900FA0CF90C3F30FA0579080D
:1001D000FF3A7F399B000034AF10D001D10171305C
:1001E000D2000034941230308316930036308312DC
:1001F00094008316910194178312D3010034DD011A
:100200005608DC00DC0DDD0DDC0DDD0DFC30DC0501
:1002100057080339DC04DB01DA015D08D9005C080A
:10022000D8005B08E1005A08E0005908DF005808D0
:10023000DE00E501E401E301E130E2002030EA0004
:10024000E601E701E801E9016108FA006008F90048
:100250005F08F8005E08F7000310771C3D2962086C
:10026000E60763080318630FE70764080318640FC1
:10027000E80765080318650FE907E90CE80CE70CC7
:10028000E60CFA0CF90CF80CF70CEA0B2C297A089E
:10029000DB007908DA007808D9007708D800590817
:1002A000D8005A08D9005B08DA00DB015908DD00E4
:1002B0005808DC000310DD0CDC0C5C08F8005D085D
:1002C000F90000342B08D6002C08D700FF2079084D
:1002D000A4007808A3002408A8002308A70000347D
:1002E0005A085802031C8929031D7A295708590204
:1002F0000318892959085702F7005808FA005A08C4
:10030000031C5A0FFA027708F8007A08F9009729B7
:10031000972957085902F7005A08FA005808031C91
:10032000580FFA027708F8007A08F9009729003484
:100330005C085A02031CA829031DA22959085B0264
:100340000318A8295B08F8005C08F900AD29AD295D
:100350005908F8005A08F900AD290034E1080319DA
:100360008D2A5D080F39E700E8010310670DF900D9
:10037000680DFA007908E6005D08F039E4005E08CF
:10038000E500E608031DC82961081F3C031CD629A7
:1003900065088316C600831264088316C500C80169
:1003A000A030C7002030C90083124D20E301A030E7
:1003B000E2006608E2070318E30A66081F3C031C14
:1003C000032AE1080319032A6308FA006208E20A13
:1003D0000319E30AE7007A08E8006008FA005F08FA
:1003E000DF0A0319E00A840083137A1883170008D0
:1003F000E900670884008313681883176908800080
:10040000E60AE103DD295D080F38E7005E08E80031
:1004100001306707DD005E08DE000318DE0A6408AD
:1004200003178D000313650803178F000313E301FF
:10043000A030E200E6016608073C031C4D2A630871
:10044000FA006208E20A0319E30A840083137A18A7
:100450008317000803178C0003136308FA0062086F
:10046000E20A0319E30A840083137A188317000849
:1004700003178E0083168C170C1555308D00AA308B
:100480008D008C14000000000C1183128D0A8D0861
:1004900003198F0A0313E60A1B2A0830E40703181E
:1004A000E50A640803178D000313650803178F001E
:1004B0000313E6016608073C031C8C2A6308FA0054
:1004C0006208E20A0319E30A840083137A18831787
:1004D000000803178C0003136308FA006208E20A9D
:1004E0000319E30A840083137A188317000803179B
:1004F0008E0083168C170C1555308D00AA308D0098
:100500008C14000000000C1183128D0A8D08031951
:100510008F0A0313E60A5A2AAE290034F93003176A
:100520008D0083168C130C1483120C080313AB007C
:10053000F83003178D0083168C130C1483120C08EB
:1005400003390313AC00FB3003178D0083168C13A3
:100550000C1483120C080313AD00FA3003178D003E
:1005600083168C130C1483120C0803390313AE008A
:1005700064008101FF308316810083120317850117
:100580000630031390008F018E01073090007C30FD
:100590008316920083129200A401A301A801A7016F
:1005A000DA01D901BF20DA01D901D5200E30970038
:1005B0000C309D00EC20F220622183168614031774
:1005C0000915831203138C1CB32BA20BB12BA10BA7
:1005D000AF2BD40BF02A071387160A30D400F62A63
:1005E0005408053C031DF62A07138712141EFA2A25
:1005F000141F002BD30A5308053C0319F220012BCA
:10060000D3015510861A551455082F0601390319C0
:100610001D2B2F1055182F142F1C1C2B2D08D60006
:100620002E08D700FF207908A4007808A30024082A
:10063000A8002308A7001D2B622125082302031D03
:10064000252B260824020319652B2408D80023082B
:10065000D7002608DA002508D90070217908D800CB
:100660007808D7007908DA007808D900DC0114305E
:10067000DB0098217908D6007808D50026082402E6
:10068000031C572B031D482B230825020318572B47
:1006900055082507D7002608D80056080318560F16
:1006A000D8075808DA005708D900BF20652B55082D
:1006B0002502D7002608D8005608031C560FD8027A
:1006C0005808DA005708D900BF2029082702031D5F
:1006D0006D2B2A0828020319AD2B2808D8002708FB
:1006E000D7002A08DA002908D90070217908D80033
:1006F0007808D7007908DA007808D900DC011430CE
:10070000DB0098217908D6007808D5002A0828024D
:10071000031C9F2B031D902B2708290203189F2BD6
:1007200055082907D7002A08D80056080318560F7D
:10073000D8075808DA005708D900D520AD2B55083E
:100740002902D7002A08D8005608031C560FD802E1
:100750005808DA005708D900D5201930A100043014
:10076000A2008C10AC2C8C1DAC2C831614088312A8
:10077000D5001308D6008C11D301141FC22BF22010
:10078000AC2CAC2C55082539013A0319D72B203A4B
:100790000319D82B253A0319782C013A0319782C20
:1007A000213A0319782C043A0319AA2CAB2CAC2C4F
:1007B0005608D70051081F3C031C752C5108D10A5C
:1007C000303E8400831357088000510BEA2B5708F2
:1007D000D000742C053050075102031D742C5108B1
:1007E000D8005808203C0318F82B7A30D200742C1B
:1007F000DB01DC0158085C020318062C30305C0772
:10080000840083130008DB07DC0AFA2BDB080319DA
:100810000C2C7530D200742C33080319132C013AB8
:1008200003195D2C712C0310310CDA00320CD90045
:100830005A08043C03185A2C5A081E3C031C5A2C14
:100840000310300C5907DD005A08DE000318DE0AD9
:1008500001305D02DF005E08E0000030031C013063
:10086000E00260081E3C031C402C5A08DE005908B8
:10087000DD00E0013430DF003008E100AE215A2C09
:100880005908003CDD001F30DE005A08031C5A0FD7
:10089000DE0203105D0DF9005E0DFA007908DC0040
:1008A0005A08DE005908DD00E0013430DF005C0842
:1008B000E100AE21AA30D200742CB008031D6D2CCB
:1008C000B108031D6D2CB208031D6D2C9020780B10
:1008D0006D2CAA30D200AF14702C7530D200AF103E
:1008E000742C7230D200742C772C7A30D200AC2C5D
:1008F00083161418792C8312941352089300941BB6
:100900007C2C822C832C1416AF1CA82C5208AA3CD9
:10091000031DA82CF53003178D00AA308C00831618
:100920008C130C15831203130B08F7008B1383161B
:10093000031755308D00AA308D008C148C189E2C16
:100940000C117708831203138B048A010028A92C49
:10095000EC20AC2CAC2CBF2B6400E32A8A110A12C9
:10096000E32C840183131F308305831603170908C2
:10097000C039890003131F129F120030031788002B
:10098000831287018801890119300313A100043003
:10099000A2002F100A30D4000F28F53003178D0065
:1009A00083168C130C1483120C08553C0319DE2C8F
:1009B00003139020F808031DE02C031703138E2A5D
:1009C00005308A0082018A0100286300FF2EFF2E75
:1009D000FF2EFF2EFF2EFF2EFF2EFF2EFF2EFF2EAF
:1009E000FF2EFF2EFF2EFF2EFF2EFF2EFF2EFF2E9F
:1009F000FF2EFF2EFF2EFF2EFF2EFF2EFF2EFF2E8F
:100A000000308A00402D00000A148A100A1582075F
:100A1000E43406348F34073440340834F73408346F
:100A2000B43409340A148A100A158207593406347A
:100A30003434063410340634ED340534CC34053403
:100A40008316031709118312031386108316861069
:100A5000861C2C2D8610282D8312861C312D861085
:100A60002D2D00348316A6148312AE120034D61333
:100A7000831626100330A50083120034FF2EFF2EAC
:100A8000840183131F308305831603170908C039B7
:100A9000890003131F129F1200300317880083126E
:100AA00087018801890119300313A0000430A100D7
:100AB000D9015612DA01E701FC01FD01FE0183169E
:100AC0002611B0013C30B200B3000A168312382C54
:100AD0000A126300FF2EFF2EFF2EFF2EFF2EFF2E89
:100AE000FF2EFF2EFF2EFF2EFF2EFF2EFF2EFF2E9E
:100AF0000A148A100A158207B8340B34A0340F3454
:100B0000883413347034173458341B3440341F3451
:100B10002834233410342734F8342A34E0342E3483
:100B2000C8343234B034363498343A3480343E34B5
:100B300068344234503446340A148A100A15820745
:100B400058340034723400348E340034AE340034FF
:100B5000D2340034FE3400342A3401345C3401349D
:100B600096340134D2340134083402343E34023431
:100B70007C340234BC340234063403345634033437
:100B8000640083164908831203178D0083168C13A3
:100B90000C1483120C08F8000313003483164A085F
:100BA0008312DE00831649088312DD0017125D18D8
:100BB00017169712DD1897165E0CFA005D0CF900F7
:100BC000FA0CF90C3F30FA0579087F3995000034AA
:100BD00083164A088312E200831649088312E10053
:100BE0001D12611C1D169D12E11C9D16620CFA005F
:100BF000610CF900FA0CF90C3F30FA057908FF3A5C
:100C00007F399B00003494123030831693003630C5
:100C1000831294008316910194171114AE01AD0153
:100C2000AF018312003410308316D200F701FA01AD
:100C3000CF0CCE0C031C222E5008F7070318FA0A1B
:100C40005108FA07FA0CF70CF90CF80CD20B182E15
:100C5000831200348316CC0183122C088316CB0038
:100C60004C08CF004B08CE00D1010C30D0008312CD
:100C700013267908E5007808E40000348316A618E6
:100C8000482E8312AE1A472EAD1ABD16AE16831625
:100C9000831200348316A618542E83122E1A532E54
:100CA0002D1A3D162E168316831200348316451016
:100CB0008312061C5E2E831645148312F7018316D9
:100CC000261977144508770601390319742E261161
:100CD00045182615451C702E8312AE12722E8316EF
:100CE00083123E26571483160317091D8E2E831276
:100CF000071F842E003003132E1A0130F800F80865
:100D000003194A268C2E0317003003132E1A0130C4
:100D1000F800780B8C2E2E12831603170313831200
:100D20008A110A16B42D640083164B088312031728
:100D30008D00831603134C08831203178C0083164F
:100D40008C130C15831203130B08F7008B138316F7
:100D5000031755308D00AA308D008C148C18AE2EE0
:100D60000C117708831203138B04640000340326EC
:100D70002E19BC2E2D193D152E150034D710BD0887
:100D80000319C42E0611C52E0615003420254A2647
:100D9000003483168614031709150630F700F70B85
:100DA000CF2E00008312071BD82E03132E12031719
:100DB00003130034831659085702031CEB2E031D3E
:100DC000E52E560858020318EB2E5808F80059086B
:100DD000F900F02EF02E5608F8005708F900F02E12
:100DE00083120034D61AF92E2E18F82E2D183D1421
:100DF0002E140034FF2EFF2EFF2EFF2EFF2EFF2E6F
:100E0000831651084F02031C1A2F031D0B2F4E0887
:100E1000500203181A2F50084E02F7004F08FA002C
:100E20005108031C510FFA027708F8007A08F900FC
:100E3000282F282F4E085002F7005108FA004F08BB
:100E4000031C4F0FFA027708F8007A08F900282FE0
:100E500083120034F801F901F701FA0183165108F1
:100E6000031D352F500803194F2F1030D2000310E7
:100E7000CE0DCF0DF70DFA0D51087A02031D422F4A
:100E800050087702031C4B2F5008F702031CFA038B
:100E90005108FA020314F80DF90DD20B372F831203
:100EA000003420308316ED00E901EA01EB01EC018A
:100EB0006408FA006308F9006208F8006108F700A6
:100EC0000310771C712F6508E90766080318660F81
:100ED000EA0767080318670FEB0768080318680F2D
:100EE000EC07EC0CEB0CEA0CE90CFA0CF90CF80C26
:100EF000F70CED0B602F831200348316640868062C
:100F00008039EE00E41F8F2FE109E209E309E409CB
:100F1000E10A0319E20A0319E30A0319E40AE81FC4
:100F20009C2FE509E609E709E809E50A0319E60A3D
:100F30000319E70A0319E80AF701F801F901FA01B0
:100F4000E901EA01EB01EC01680867046604650445
:100F50000319DA2F2030ED000310E10DE20DE30D4F
:100F6000E40DE90DEA0DEB0DEC0D68086C02031DB4
:100F7000C32F67086B02031DC32F66086A02031D97
:100F8000C32F65086902031CD42F6508E9026608AF
:100F9000031C660FEA026708031C670FEB02680870
:100FA000031C680FEC020314F70DF80DF90DFA0D90
:100FB000ED0BAC2FEE1FE72FF709F809F909FA0935
:100FC000F70A0319F80A0319F90A0319FA0AE930AA
:100FD00084008313831200348316CA01C90183126B
:100FE000CE25DC01DB01BB01BC0100348316CA0144
:100FF000C9018312E825E001DF01BB01BC01003417
:1010000083164908E43E03182F291C3E8312332916
:1010100083164A088312A6005614571483162F29E4
:1010200083164A0803398312A700561457148316EF
:101030002F29B81C2C2883164A088312A800FB30DD
:101040008316CB00831228088316CC008A118312E2
:1010500093268A155615571483162F29B81C422833
:1010600083164A0803398312A900FA308316CB008D
:10107000831229088316CC008A11831293268A15BD
:101080005615571483162F2983164A088312AC006D
:101090008A112A268A1583162F2983164A08831255
:1010A000AD002D08BD058A11BE268A1583162F298D
:1010B00083164A080639FF3A8312AE0583164A089A
:1010C0000639FF3A8312BD058A11BE268A1583169A
:1010D0002F2983164A0803398312AF0083162F295C
:1010E000D61D89283208FF3A83164A02031D872835
:1010F00083128B13F5308316CB005530CC008A1148
:10110000831293268A158A01002889288316831260
:10111000D61183162F29360883164A060339031978
:101120009E284A1C97288312D61499288316831266
:1011300056145714B6113611AE138316831236089F
:10114000FC398316CB004A0803394B048312B600DE
:1011500083162F2983164A0801398312370603198B
:10116000C02883164A0801398312B700B70803194B
:10117000BD288A11C6268A15C0288A11C9268A1553
:1011800083162F2983164A0807398312B80083165D
:101190002F29B81CDA2883164A088312B900F930BF
:1011A0008316CB00831239088316CC008A11831270
:1011B00093268A1583162F29B81CEE2883164A0811
:1011C00003398312BA00F8308316CB0083123A0831
:1011D0008316CC008A11831293268A1583162F2931
:1011E00083164A08FF3A8312BD0583162F298316FA
:1011F0004A088312DA0083162F295A08BE00831684
:101200004A088312BF00DA01D614571483162F2917
:10121000B81C192983164A088312C000F6308316B9
:10122000CB00831240088316CC008A1183129326C8
:101230008A1583162F29B81C2C2983164A08831275
:10124000C100F7308316CB00831241088316CC000F
:101250008A11831293268A1583162F2983168312E7
:101260008A150A120E2A0A148A100A1182070828FF
:10127000102819282E282E292E2944284D28582890
:1012800069282E292E2970282E292E292E298B28CF
:10129000AA28C228C928DC282E292E29F028F728B8
:1012A000FD2808291B2983161408C500831213087A
:1012B0008316C60083128C11141F63298A11B72666
:1012C0008A15A22AA22A831645082539013A8312D3
:1012D00003197A29203A03197F29253A0319152A77
:1012E000013A0319152A213A0319152A043A031958
:1012F0009D2A9E2A8316AF0183121416A22A8316F2
:10130000AF08031D88294608B0000130AF00122A3B
:101310002F0B91293008AE004608AD000230AF0017
:10132000122A4608C7002D08C8002E088312031988
:101330009D29013A0319072A0E2A83164808C90075
:101340004708CA004908DF3C031C052A8312381CE1
:10135000CA2983164908831203178D0083160313C5
:101360004A08831203178C0083168C130C15831202
:1013700003130B08F7008B138316031755308D00EA
:10138000AA308D008C148C18C3290C117708831295
:1013900003138B04381D042A831649082B3A831241
:1013A0000319E229073A0319E229013A0319E2294C
:1013B000713A0319E229013A0319E229023A0319A1
:1013C000E229042A83164908831203178D00831625
:1013D00003134A08831203178C0083168C130C1511
:1013E000831203130B08F7008B1383160317553072
:1013F0008D00AA308D008C148C18FC290C117708F4
:10140000831203138B04042A831683120E2A831675
:101410004808C9004708CA00831200288316AD0A8D
:101420000319AE0A83121416A22A83162D08C800C7
:101430002E0883120319232A013A03192E2A033A8C
:101440000319722A892A83164808C9008A1183124F
:10145000C0258A1578088316C7008C2A8316480889
:10146000C900CA014908233C031C6A2A49080C3CEC
:10147000031D422A8312D6150E08B20032088316C5
:10148000CA00672A4908043C031D4E2A83122B0810
:10149000D90056162A088316CA00672A4908053C4F
:1014A000031D612A8312561E5B2A59088316CA003F
:1014B000831256125F2A2B088316CA008312682AE9
:1014C000831626304907840083130008CA0083125C
:1014D0006C2A8316CA01831283164A08F80078081A
:1014E000C7008C2A83164808C900CA014908073C6E
:1014F000031C822A24304907263E840083130008F7
:10150000CA00832ACA014A08F8007808C7008C2A52
:1015100083128316C7018C2A8312941383164708FB
:1015200083129300941B8D2A952A962A14168316EB
:10153000AD0A0319AE0A8312A22AA22A8A11B7267B
:101540008A15A22A8A110A16862E83164F08063C8F
:10155000031CB52A031DB02A4E08E33C031CB52A20
:101560000630DA005930D900062C4F08083C031821
:10157000C52AFF3A031DC02A4E08B43C0318C52AE9
:101580000530DA00CC30D900062CD0015008033CDD
:10159000031C062C0310500DDB005B0A8A1183121A
:1015A00004258A15FA0083165B088A118312042524
:1015B0008A158316DC007A08DD004F02031C042C18
:1015C000031DE62A5C084E02031C042C0130500760
:1015D000F7000310F70D7708DF005F0A8A11831206
:1015E00004258A15FA0083165F088A1183120425E0
:1015F0008A15F80083164F087A02031C042C031D79
:10160000052B4E087802031C042CF901FA017A0814
:10161000D4007908D3004F08D2004E08D10003103F
:10162000500DDB005B0A8A11831204258A15FA002B
:1016300083165B088A11831204258A158316D1024A
:101640007A08031C7A0FD2020030031C0130D30247
:101650000030031C0130D40201305007F7000310A2
:10166000F70D7708DC005C0A8A11831212258A15AF
:10167000FA0083165C088A11831212258A15F70076
:101680007A08F800F901FA017A088316D800790877
:10169000D7007808D6007708D5000310500DDB007E
:1016A0005B0A8A11831212258A15FA0083165B08D9
:1016B0008A11831212258A158316D5027A08031C13
:1016C0007A0FD6020030031C0130D7020030031C11
:1016D0000130D8025408E4005308E3005208E20045
:1016E0005108E1005808E8005708E7005608E600EE
:1016F0005508E5008A11831251278A157A08831646
:10170000D4007908D3007808D2007708D1000130DE
:101710005007F7000310F70D7708DC005C0A8A1108
:10172000831204258A15FA0083165C088A11831235
:1017300004258A15F7007A08F800F901FA017A08F9
:101740008316D8007908D7007808D6007708D50026
:101750000310500DDB005B0A8A11831204258A15E1
:10176000FA0083165B088A11831204258A158316F2
:10177000D5027A08031C7A0FD6020030031C013010
:10178000D7020030031C0130D8025408E40053088B
:10179000E3005208E2005108E1005808E800570849
:1017A000E7005608E6005508E5008A1183127D27F8
:1017B0008A157A088316D4007908D3007808D200F5
:1017C0007708D1000310500DDB005B0A8A118312E9
:1017D00012258A15FA0083165B088A1183121225D6
:1017E0008A158316D1077A0803187A0FD2070030BA
:1017F00003180130D307003003180130D407520812
:10180000DA005108D900062CD00AC62AF901FA01DB
:101810007A08D4007908D3004F08D2004E08D100CE
:101820005908F7005A08F800F901FA017A08DE00B1
:101830007908DD005A08DC005908DB005408E40090
:101840005308E3005208E2005108E1005E08E80096
:101850005D08E7005C08E6005B08E5008A1183127A
:1018600051278A157A088316D4007908D30078089E
:10187000D2007708D1005408E4005308E30052086E
:10188000E2005108E100E801E7010430E600E5016B
:101890008A1183127D278A157A088316D400790865
:1018A000D3007808D2007708D1005108F800520818
:1018B000F900831200348A11EC278A158A11F62761
:1018C0008A15BB01BC01003483165508D7005408A3
:1018D000D6000330D900E830D8008A118312DA2606
:1018E0008A157908DC007808DB000530E300003455
:1018F00083165508D7005408D6000330D900E830C5
:10190000D8008A118312DA268A157908E00078084F
:10191000DF000530E3000034831655080B3C031C40
:101920009B2C031D972C5408B73C031C9B2CE001F7
:101930005830DF00EC2D5508453C0318AB2CFF3A1E
:10194000031DA62C5408503C0318AB2C0330E000B8
:101950005630DF00EC2DD60156080E3C031CEC2D52
:101960000310560DE100610A8A11831278258A1549
:10197000FA00831661088A11831278258A15831666
:10198000E2007A08E3005502031CEA2D031DCC2C6B
:1019900062085402031CEA2D01305607F7000310B9
:1019A000F70D7708E500650A8A11831278258A15F4
:1019B000FA00831665088A11831278258A15F800C3
:1019C000831655087A02031CEA2D031DEB2C5408DC
:1019D0007802031CEA2DF901FA017A08DA00790885
:1019E000D9005508D8005408D7000310560DE1005F
:1019F000610A8A11831278258A15FA008316610814
:101A00008A11831278258A158316D7027A08031C57
:101A10007A0FD8020030031C0130D9020030031CB9
:101A20000130DA0201305607F7000310F70D77088E
:101A3000E200620A8A1183129C258A15FA00831635
:101A400062088A1183129C258A15F7007A08F8002B
:101A5000F901FA017A088316DE007908DD007808BA
:101A6000DC007708DB000310560DE100610A8A11E3
:101A700083129C258A15FA00831661088A11831245
:101A80009C258A158316DB027A08031C7A0FDC0278
:101A90000030031C0130DD020030031C0130DE0287
:101AA0005A08E4005908E3005808E2005708E1002A
:101AB0005E08E8005D08E7005C08E6005B08E500FA
:101AC0008A11831251278A157A088316DA00790859
:101AD000D9007808D8007708D70001305607F700FA
:101AE0000310F70D7708E200620A8A118312782545
:101AF0008A15FA00831662088A11831278258A15DE
:101B0000F7007A08F800F901FA017A088316DE0076
:101B10007908DD007808DC007708DB000310560D3B
:101B2000E100610A8A11831278258A15FA0083166A
:101B300061088A11831278258A158316DB027A08D8
:101B4000031C7A0FDC020030031C0130DD02003080
:101B5000031C0130DE025A08E4005908E30058086B
:101B6000E2005708E1005E08E8005D08E7005C0855
:101B7000E6005B08E5008A1183127D278A157A0842
:101B80008316DA007908D9007808D8007708D700DA
:101B90000310560DE100610A8A1183129C258A15F3
:101BA000FA00831661088A1183129C258A15831610
:101BB000D7077A0803187A0FD807003003180130C6
:101BC000D907003003180130DA075808E000570839
:101BD000DF00EC2DD60AAC2C5F08F8006008F90095
:101BE000831200348316530855068039D700D31F5B
:101BF000FE2DD209D309D20A0319D30AD51F052E07
:101C0000D409D509D40A0319D50AF801F901F70155
:101C1000FA015508031D0F2E54080319292E103000
:101C2000D6000310D20DD30DF70DFA0D55087A0228
:101C3000031D1C2E54087702031C252E5408F7029E
:101C4000031CFA035508FA020314F80DF90DD60B1C
:101C5000112ED71F302EF809F909F80A0319F90ACD
:101C60008312003483165308023C0318422EFF3AB5
:101C7000031D3E2E5208E83C0318422E0330D300C9
:101C8000E830D200D308031D4C2E52084F3C031CF1
:101C90004C2ED3015030D200261C532E5308A400E2
:101CA0005208A300642E520803398312BC00831625
:101CB000530CD500520CD400D50CD40C3F30D505B4
:101CC00054088312BB0083160310D30CD20C251CBE
:101CD000702E5308D5005208D40083126424831652
:101CE000A51C792E5308D5005208D40083127824FD
:101CF0008316831200346308F800F808031DF42EDD
:101D0000F408031D862E7308013C031CF42E831671
:101D1000261C8F2E2208CA002108C900972E831284
:101D20003F088316CA0083123E088316C90075084F
:101D30004902F7004A08FA007608031C760FFA02F7
:101D40007708C5007A08C600C61BAD2EC608031D5D
:101D5000B92E4508323C031CB92EC61FEB2E46088F
:101D6000FF3C031CEB2E031DB92E4508CD3C031C84
:101D7000EB2E4608D3004508D200D5012030D40010
:101D80008312F22579088316C6007808C500261C40
:101D9000CE2E2408C8002308C700E42ECC018312ED
:101DA0003B088316CB004B0DCD004C0DCE00CD0D66
:101DB000CE0DFC30CD054D0883123C04F700831690
:101DC0007708C7004E08C8004508C707460803182B
:101DD000460FC807EE2E8312F42E83164808D30050
:101DE0004708D200831232260034FF2EFF2EFF2E2A
:101DF000FF2EFF2EFF2EFF2EFF2EFF2EFF2EFF2E7B
:101E00008316261C0F2F2208D5002108D400831228
:101E10008C2479088316D1007808D000922F831281
:101E20003F088316D30083123E088316D20075083C
:101E30005202F7005308FA007608031C760FFA02E4
:101E40007708CE007A08CF00CF1F302F4F08FE3C16
:101E5000031C302F031D3D2F4E080B3C03183D2F54
:101E6000CF1B512F4F08003C0318512FFF3A031D81
:101E70003D2F4E08F43C0318512F83123F08831660
:101E8000D30083123E088316D2005308D5005208AF
:101E9000D40083128C2479088316D1007808D000EE
:101EA000922FCF1B5A2FCF08031D662F4E08323CAE
:101EB000031C662FCF1F912F4F08FF3C031C912F4F
:101EC000031D662F4E08CD3C031C912F4F08D300F5
:101ED0004E08D200D5012030D4008312F2257908B3
:101EE0008316CF007808CE00D30183123B088316F7
:101EF000D200520DD400530DD500D40DD50DFC30B9
:101F0000D405540883123C04F70083167708D000E8
:101F10005508D1004E08D0074F0803184F0FD107BE
:101F2000922F992F5108D3005008D20083123226E5
:101F300083168312003483164B08023C031DA42F22
:101F40008312D617A62F83168312D61383164D0835
:101F5000A2004C08A10026144B08A50083120027FC
:101F60000034FF2EFF2EFF2EFF2EFF2EFF2EFF2E02
:101F7000FF2EFF2EFF2EFF2EFF2EFF2EFF2EFF2EF9
:101F8000FF2EFF2EFF2EFF2EFF2EFF2EFF2EFF2EE9
:101F9000FF2EFF2EFF2EFF2EFF2EFF2EFF2EFF2ED9
:101FA000FF2EFF2EFF2EFF2EFF2EFF2EFF2EFF2EC9
:101FB000FF2EFF2EFF2EFF2EFF2EFF2EFF2EFF2EB9
:101FC000FF2EFF2EFF2EFF2EFF2EFF2EFF2EFF2EA9
:101FD000FF2EFF2EFF2EFF2EFF2EFF2EFF2EFF2E99
:101FE000FF2EFF2EFF2EFF2EFF2EFF2EFF2EFF2E89
:101FF000FF2EFF2EFF2EFF2EFF2EFF2EFF2EFF2E79
:10200000571C352C571083162808831203191228E1
:10201000013A03190829033A0319B42A013A0319AA
:10202000EB2B302C83162908103A83120319282829
:10203000013A03193B28033A03194928013A0319C5
:102040007928073A0319A028013A0319BA28042964
:102050000A1232250A16D6162E100A12C6260A169B
:102060000A128A155B240A168A1105308316A70006
:102070001130A90007298316A708031D48280A1252
:102080008312C9260A1605308316A7001230A9004C
:1020900007298316A708031D7628A610003083128F
:1020A00006180130F800780B562859280A123E26E7
:1020B0000A16003006180130F800780B60287228E4
:1020C000D612E60803196A28E308031D6A280A12D3
:1020D000F2260A1603308316A8004130AC008312A2
:1020E000571477288316A6151330A9008312831678
:1020F0000729003006180130F800780B8028922854
:10210000D612E60803198A28E308031D8A280A1252
:10211000F2260A1603308316A8004130AC00831261
:1021200057149E2800308316261A0130F800F8084C
:1021300003199F281430A900831257148316072906
:102140008316D5016430D4000A128A1583126424E0
:102150000A168A118316D5016430D4000A128A1532
:10216000831278240A168A1132308316A70015309C
:10217000A9000729003006180130F800780BC128A3
:10218000D328D612E6080319CB28E308031DCB2871
:102190000A12F2260A1603308316A8004130AC005A
:1021A0008312571401296608F800F808031DEB286C
:1021B000D612E6080319E228E308031DE2280A12F2
:1021C000F2260A168316A7010130A8002030AA00C3
:1021D0008312571401298316A708031D02298312AD
:1021E000D612E6080319FA28E308031DFA280A1292
:1021F000F2260A1602308316A8003130AB00831293
:102200005714831607298312042983160729332CB0
:10221000003006180130F800780B0F291729033019
:102220008316A8004130AC0083125714B22A660806
:10223000F800F8080319242902308316A800313069
:10224000AB0083125714B22A83162A08203A83124D
:1022500003193429013A03194129033A03198E2934
:10226000013A0319EF29B02A861AEA29361C3A29BD
:1022700089293B293C29B22A561421308316AA0009
:102280008312861AEA2936188929561C8529561080
:102290002608BB002708BC003B088316C500831234
:1022A0003C088316C600C8014508C700C70DC80D05
:1022B000C70DC80DFC30C7054608C7044808023CD6
:1022C00003186D29FF3A031D69294708E83C0318E4
:1022D0006D290330C800E830C7000310C80CC70CD4
:1022E0004808D5004708D4000A128A1583126424CE
:1022F0000A168A1183164808D5004708D4000A1226
:102300008A15831278240A168A11561F88295613B3
:10231000B22AD61422308316AA0083120A12372555
:102320000A16861AEA29361C3C29D61CE129D61041
:10233000AE13B61136113F088316C60083123E084D
:102340008316C50083125308FA005208F80083165A
:1023500046087A02031CB929031DB22978084502F0
:102360000318B92983125208BE005308BF00D629AA
:10237000831683123F088316C60083123E08831615
:10238000C50083125508FA005408F8007A0883162D
:102390004602031CD729031DD129450878020318DA
:1023A000D72983125408BE005508BF0083160A12AD
:1023B0008A15831200270A168A113C308316A00062
:1023C0008312561FE92956130A128A157B260A160C
:1023D0008A11B22A561523308316AA008312861A50
:1023E000FD290A1237250A16361CFC294008BE00B2
:1023F0004108BF008929FD293C29561DA72A5611ED
:102400008316C801C701C601831228088316C500B8
:10241000C50DC60DC70DC80DC50DC60DC70DC80D20
:10242000FC30C505831229088316C5044808E4005A
:102430004708E3004608E2004508E100E801E7013B
:102440003E30E6008030E5000A12831251270A165A
:102450007A088316C8007908C7007808C60077088C
:10246000C5004808CE004708CD004608CC00450806
:10247000CB00D201D1010330D000FF30CF00F701F3
:10248000F801F901FA01D301D401D501D6015208AE
:10249000510450044F0403197D2A2030D700031043
:1024A000CB0DCC0DCD0DCE0DD30DD40DD50DD60D40
:1024B00052085602031D662A51085502031D662A5A
:1024C00050085402031D662A4F085302031C772A42
:1024D0004F08D3025008031C500FD4025108031CAC
:1024E000510FD5025208031C520FD6020314F70DE8
:1024F000F80DF90DFA0DD70B4F2AD3308400831352
:102500007A08C8007908C7007808C6007708C500AF
:10251000C430C507093003180A30C6070030031855
:102520000130C707003003180130C8074608CA0049
:102530004508C9000330CB004A08CD004908CC004B
:102540000A128A1583129B270A168A115613561FE0
:10255000AF2A56130A128A157B260A168A11B22A46
:10256000B02AB22A8316332C003006180130F80046
:10257000780BBB2AC32A03308316A8004130AC0075
:1025800083125714E92B83162B08313A831203194F
:10259000DC2A033A03192D2B013A03194B2B073A76
:1025A00003196D2B013A03198B2B033A0319AD2B39
:1025B000013A0319CA2BE52B64308316A700831256
:1025C0006608F8007808013A0319F02A033A03195B
:1025D000082B013A0319202B033A0319292B292B25
:1025E0000A12EC270A1646308316C6005030C50082
:1025F0000230CB004608CD004508CC000A128A15EF
:1026000083129B270A168A1132308316AB002C2BBB
:102610000A12F6270A1646308316C6005030C50047
:102620000130CB004608CD004508CC000A128A15BF
:1026300083129B270A168A1134308316AB002C2B89
:102640000A128A155B240A168A1136308316AB00EB
:102650002C2B292B83162C2BE82B8316A708031D64
:10266000402BD5016430D4000A128A1583126424E9
:102670000A168A1132308316A7003330AB004A2B7A
:102680008312561F492B56130A128A157B260A16E7
:102690008A118316E82B6608F800F808031D5D2BE5
:1026A0000A1237250A1630308316AB000130A80015
:1026B0002030AA00831257146B2B561F652B56131C
:1026C0000A128A157B260A168A118316A708031D8B
:1026D0006C2B8312DC2A8316E82B8316A708031DB4
:1026E000802BD5016430D4000A128A158312782415
:1026F0000A168A1132308316A7003530AB008A2BB8
:102700008312561F892B56130A128A157B260A1626
:102710008A118316E82B6608F800F808031D9D2B24
:102720000A1237250A1630308316AB000130A80094
:102730002030AA0083125714AB2B561FA52B56131B
:102740000A128A157B260A168A118316A708031D0A
:10275000AC2B8312DC2A8316E82B8316A708031DF3
:10276000C92BD5016430D4000A128A15831264245F
:102770000A168A118316D5016430D4000A128A150C
:10278000831278240A168A1132308316A700373054
:10279000AB00E82B6608F800F808031DDC2B0A12D2
:1027A00037250A1630308316AB000130A8002030E0
:1027B000AA0083125714E22B8316A708031DE32BEC
:1027C0008312DC2A8316E82B8312E52B8316E82B71
:1027D00083128316332C83162C08413A8312031973
:1027E000FB2B033A0319082C013A03190F2C033A67
:1027F00003192B2C2B2C0A128A155B240A168A111A
:102800008316071587141430A7004230AC002E2C15
:102810008316A708031D2E2C4330AC008312003012
:1028200006180130F800780B292C83160711871041
:102830004030AC00A8010030261A0130F800F8083A
:102840000319252C1430A900272C1030A90083125D
:10285000571483162E2C2B2C83162E2C332C8312DC
:10286000302C8316332C831200288A150A167D2BF0
:10287000D801D7010A308316B100873083120317BD
:1028800087008916A8308316031397000A12831253
:1028900020250A160A1232250A16D6115610D6100D
:1028A00056112630840083138316C5012C30C600D0
:1028B00046080319602C45088000840AC60B5B2C6F
:1028C0000C30C9000A128312C0250A167808D200FB
:1028D0000D308316C9000A128312C0250A16780823
:1028E000D3000E308316C9000A128312C0250A16BF
:1028F0007808D4000F308316C9000A128312C0254D
:102900000A167808D500F93003178D0083168C134A
:102910000C1483120C080313A600F83003178D0063
:1029200083168C130C1483120C0803390313A700AD
:10293000FB3003178D0083168C130C1483120C08C4
:102940000313A800FA3003178D0083168C130C14A0
:1029500083120C0803390313A90010308316C90031
:102960000A128312C0250A167808AC00FF30AD00A9
:102970000230AE00B3000330B4000430B5003614AA
:102980002608B9002708BA000230BD00F630031748
:102990008D0083168C130C1483120C080313BE00D5
:1029A000F73003178D0083168C130C1483120C0858
:1029B0000313BF003F088316C60083123E08831628
:1029C000C50083125508FA005408F8007A088316E7
:1029D0004602031CF72C031DF12C4508780203184E
:1029E000F72C83125508BF005408BE0083168312CB
:1029F0003F088316C60083123E088316C500831263
:102A00005308FA005208F800831646087A02031C9D
:102A1000152D031D0F2D780845020318152D83125F
:102A20005308BF005208BE00831683123E08C00040
:102A30003F08C100FF3003178D0083168C130C1460
:102A400083120C080313C200FE3003178D00831697
:102A50008C130C1483120C080313C300FD300317EE
:102A60008D0083168C130C1483120C080313C400FE
:102A7000FC3003178D0083168C130C1483120C0882
:102A80000313C500803083169F00813083129F009E
:102A90008316A6112612640083128101FF3083166B
:102AA00081008312031785010630031390008F0104
:102AB0008E01073090007C308316920083129200C2
:102AC000DC01DB01E001DF018316CA01C9010A1242
:102AD0008312CE250A168316CA01C9010A1283126F
:102AE000E8250A160E3097000C309D008316A801C9
:102AF0001030A9002030AA003030AB004030AC00CC
:102B0000A7010A12831237250A1657145613831683
:102B1000C5014508043C031C982D0310450D683E73
:102B200084008313840A800184038001C50A892DEF
:102B3000F401F301F601F5018312A301A201F201F0
:102B4000A501A401D6130A1203260A160530E300D4
:102B5000D6120A122A260A16E6018316A00183124B
:102B6000061164000A12562E0A168C1C3C2EA10B6C
:102B70003A2EA00B382E8316B10B212E8312101083
:102B80000F08A3000E08A2008F018E011014010887
:102B90008316C50083120B1DD42DF20A0B110108F8
:102BA0008316C500CA2D831281010B117208A5007E
:102BB000831645088312A400F201D715D7175815BC
:102BC0000A308316B100B20B202E3C30B200B30B9A
:102BD000202E3C30B3008312C20FF32DC30FF32D10
:102BE000C40FF32DC50AFF308316CB0083124208B1
:102BF0008316CC000A12831293260A16FE3083161F
:102C0000CB00831243088316CC000A12831293264A
:102C10000A16FD308316CB00831244088316CC00BD
:102C20000A12831293260A16FC308316CB008312F5
:102C300045088316CC000A12831293260A168316BF
:102C4000292E3108053C031D292E83125717D8144D
:102C50008316A7080319312EA70B312E83125714A0
:102C600083168312D8155816D714D8161930A00019
:102C70000430A1008C10862E0B1D412EF20A0B1180
:102C8000862E0C1F782E0C131E08FA0083161E08C1
:102C9000B4077A0803187A0FB5070030031801301B
:102CA000B607003003180130B707B80B752E831232
:102CB0001F08813C031D682E83163708C0003608A4
:102CC000BF003508BE003408BD0083125716732EAE
:102CD00083163708BC003608BB003508BA00340834
:102CE000B9008312D716772E831683129F14862E6F
:102CF0008C1D7F2E0A128A1553290A168A1157082D
:102D000058040319862E8A1500288A11B12D8A11BC
:102D10000A12682DFF2EFF2EFF2EFF2EFF2EFF2EF4
:102D2000FF2EFF2EFF2EFF2EFF2EFF2EFF2EFF2E3B
:102D3000FF2EFF2EFF2EFF2EFF2EFF2EFF2EFF2E2B
:102D4000FF2EFF2EFF2EFF2EFF2EFF2EFF2EFF2E1B
:102D5000FF2EFF2EFF2EFF2EFF2EFF2EFF2EFF2E0B
:10300000D81D0B28D811141F0A280A128A11B726B6
:103010000A168A157D2B581EEF2858125D085B0290
:10302000031D16285E085C0203197E285C088316BF
:10303000CF0083125B088316CE0083125E088316CE
:10304000D10083125D088316D0000A128A11831200
:1030500000270A168A1579088316C8007808C70061
:103060004808D7004708D600D9011430D8000A1202
:103070008A118312DA260A168A1579088316C60081
:103080007808C50083125E085C02031C6628031DD5
:103090004D285B085D0203186628831645088312D5
:1030A0005D078316C70083125E088316C8004608B2
:1030B0000318460FC8074808CA004708C9000A1283
:1030C0008A118312CE250A168A157E288316450892
:1030D00083125D028316C70083125E088316C80040
:1030E0004608031C460FC8024808CA004708C90022
:1030F0000A128A118312CE250A168A1561085F0208
:10310000031D8628620860020319EE2860088316F2
:10311000CF0083125F088316CE00831262088316E5
:10312000D100831261088316D0000A128A1183121B
:1031300000270A168A1579088316C8007808C70080
:103140004808D7004708D600D9011430D8000A1221
:103150008A118312DA260A168A1579088316C600A0
:103160007808C500831262086002031CD628031D7C
:10317000BD285F0861020318D6288316450883120C
:1031800061078316C700831262088316C8004608C9
:103190000318460FC8074808CA004708C9000A12A2
:1031A0008A118312E8250A168A15EE288316450827
:1031B000831261028316C700831262088316C80057
:1031C0004608031C460FC8024808CA004708C90041
:1031D0000A128A118312E8250A168A157D2BD81E39
:1031E0001929D812831645108312861EFA288316D1
:1031F000451483120030831645180130C600003094
:103200008312AE190130F8007808831646020319BC
:103210001729451C13298312AE191129AD19BD15A3
:10322000AE15152983168312AE11571483167E2B03
:103230008312D71C21290A128A11BE260A168A1562
:103240007D2BD71D642AD711A20DA30DA20DA30DAE
:10325000FC30A20523088316CF00831222088316B0
:10326000CE00D1010330D0000A128A1183122A271E
:103270000A168A157908A3007808A200A40DA50DE6
:10328000A40DA50DFC30A40525088316CF008312DC
:1032900024088316CE00D1010330D0000A128A110F
:1032A00083122A270A168A157908A5007808A4002F
:1032B00023088316CF00831222088316CE00D10183
:1032C0000530D0000A128A11831213260A168A15B5
:1032D00079088316CB007808CA004A088312CE000A
:1032E00083164B088312CF0025088316CF00831264
:1032F00024088316CE00D1010530D0000A128A11AD
:10330000831213260A168A1579088316C9007808CD
:10331000C80048088312D000831649088312D100E0
:1033200023088316CF00831222088316CE000A12C8
:103330008312A5220A167908A3007808A20025089E
:103340008316CF00831224088316CE000A1283123C
:10335000A5220A167908A5007808A40083164D084E
:10336000FE004C08FD008312D61BBF2923088316DC
:10337000CD00831222088316CC00C62983122508AB
:103380008316CD00831224088316CC004D08CF008D
:103390004C08CE00D1010530D0000A128A118312E8
:1033A00013260A168A157908F6007808F5007E08B3
:1033B0008316CF007D08CE004D08D1004C08D00008
:1033C0000A128A11831200270A168A157908F40056
:1033D0007808F30023088316CF008312220883168F
:1033E000CE00D1010530D0000A128A1183121326B3
:1033F0000A168A1579088316CB007808CA004A088D
:103400008312CA0083164B088312CB00250883164B
:10341000CF00831224088316CE00D1010530D000DE
:103420000A128A11831213260A168A15790883163E
:10343000C9007808C80048088312CC0083164908E0
:103440008312CD007C08FC0AF7000310F70D770803
:10345000683E84008313840A2308800084032208C2
:1034600080007C08053C0319FC018316C701C601D6
:10347000C5014708043C031C4E2A0310470D683E53
:1034800084008313840A0008FA0084030008C50737
:103490007A0803187A0FC607C70A392A8312660802
:1034A000F800F808031D5D2A831646088312AB0056
:1034B000831645088312AA005F2AAB01AA0156179A
:1034C0005714571558147D2B571D932A5711E60191
:1034D00023086502031C722A031D712A6408220254
:1034E000031C661425086502031C7C2A031D7B2A25
:1034F00064082402031CE614E308031D912A6608ED
:1035000067020319862A6608E7005714E7080319BB
:103510008F2A0A128A11F2260A168A15902A2E106C
:10352000922AE3037D2B581CDD2A5810361CD72A1B
:103530000030AE190130F800F808031DD72A3F0803
:103540008316C60083123E088316C5004608CF00C6
:103550004508CE007608D1007508D0000A128A11FD
:10356000831200270A168A1579088316C70078087F
:10357000C600C708031DC62A4608313C031CC62ADC
:103580008312B615AE138316A001C92A8312B61191
:103590008316A0080319D52AA00BD52A8312AE1BC7
:1035A000D42AAD1BBD17AE178316DB2A8312B611C2
:1035B000AE138316A0017E2B8312571CE22A8A11B8
:1035C00000288A15D81CF42AD81081309F00283092
:1035D0008316B800B701B601B501B401EF2AF02A8D
:1035E000F12A83129F147D2B571E382B57128316F6
:1035F000A61D082BA6114008C4003F08C3003E08C2
:10360000C2003D08C100261683125714372B8316BB
:10361000261E202B40084402031C242B031D202BB4
:103620003F084302031C242B031D202B3E084202AB
:10363000031C242B031D202B41083D020318242BBF
:103640008312B001372B83164108BD024208031CC8
:10365000420FBE024308031C430FBF024408031C71
:10366000440FC0023E088312B0000230B0077D2B29
:10367000581D4A2B581185309F0025308316B800FD
:10368000B701B601B501B401452B462B472B831278
:103690009F147D2BD71E522BD71283163A08831204
:1036A000B1007D2B571F682B57132E185B2BAE1ABA
:1036B0005B2BAF1C5E2B07138716672BAE19622B93
:1036C0002F1C652B07138712672B071787127D2B7B
:1036D000D71F7D2BD7132E18712BAE1A712BAF1C51
:1036E000742B071387167D2BAE19782B2F1C7B2B81
:1036F000071387167D2B07178712831683128A11EB
:103700000A16862EFF2EFF2EFF2EFF2EFF2EFF2ED7
:10371000FF2EFF2EFF2EFF2EFF2EFF2EFF2EFF2E41
:10372000FF2EFF2EFF2EFF2EFF2EFF2EFF2EFF2E31
:10373000FF2EFF2EFF2EFF2EFF2EFF2EFF2EFF2E21
:10374000FF2EFF2EFF2EFF2EFF2EFF2EFF2EFF2E11
:020DFE00FF2EC6
:021DFE00FF2EB6
:022DFE00FF2EA6
:023DFE00FF2E96
:023DFC00B40011
:1042000001000100000005000C0012000000DB00AE
:104210000100040001000200B8000B00500046003D
:104220000A005500020001000000030000003500F4
:1042300037003B003D00440046004E0053005F0045
:10424000620076007B0000000000000000007900A2
:10425000010007001900200044005000C20048007F
:104260005000D300410063007400690076006500CF
:10427000200043006F006F006C0020003100300010
:1042800030002000460061006E00C000CA0035000A
:10429000300037003500320031002D003000300092
:1042A0003100C800310030002F00320038002F00EC
:1042B000300038000300D20041003000C10033005C
:1042C000010006001900C20048005000D300410060
:1042D00063007400690076006500200043006F00F1
:1042E0006F006C00200031003000300020004600DC
:1042F00061006E00CA003500300037003000380021
:1043000032002D00420032003100C000C000000029
:104310000000C10000000000000000000000B1002B
:10432000020082000D00D2009D000000B0000400D9
:1043300074000400EC00040000000000E20004002F
:10434000F400380000000000000000000000000041
:10435000000000000000000000000000000000005D
:10436000000000000000000000000000000000004D
:10437000000000000000000000000000000000003D
:10438000000000000000000000000000000000002D
:10439000000000000000000000000000000000001D
:1043A000000000000000000000000000000000000D
:1043B00000000000000000000000000000000000FD
:1043C00000000000000000000000000000000000ED
:1043D00000000000000000000000FF00FF0040009F
:1043E00010001000080060004000AA002800230010
:1043F000000071000000D00000000000000000007C
:04400E00FC2FFF3F45
:08400000000008000B000C0099
:00000001FF
