:1000000000308A00002F0000FF00030E8301A100D2
:100010007F08A0000A08A8008A01A00E0408A20018
:100020007708A3007808A4007908A5007A08A6003C
:100030007B08A700831383128C308400801D222844
:100040008C193528220884002308F7002408F800BA
:100050002508F9002608FA002708FB0028088A006E
:10006000210E8300FF0E7F0E09008A117028941262
:100070003030831693003630831294008316941325
:1000800014138312E301E601E5012A12E801E901F4
:10009000AA12EA0100346400031710088D00110849
:1000A0008C0083168C130C15831203130B08F700B6
:1000B0008B138316031755308D00AA308D008C14D6
:1000C0008C1860280C117708831203138B046400CA
:1000D0000034C20803196E2806116F280615003473
:1000E00083161408EE0083121308E700E901141FB9
:1000F0007B2837200D2A83166E082539013A831292
:1001000003198F28203A03199128253A0319BE298B
:10011000203A0319BE29043A0319092A0A2AE301DD
:100120000D2AE308031D99286708E4000130E30065
:10013000BD29630BA2286408E6006708E5000230C9
:10014000E300BD29E608031DB8286508EF3C031C41
:10015000B8283D1CB82865088316EF0083120317E2
:100160009000031367080317910003134B20BA296B
:100170006608013C031DBA296508003A0319F728EF
:10018000013A0319FD28033A03190429013A031916
:100190001329053A03192329013A031926290F3A8D
:1001A00003192C29013A03193629053A03193A296A
:1001B0001C3A03194529013A03195F29033A031927
:1001C0006E29013A03197229073A03198029033A63
:1001D00003198F290F3A03199329013A0319962914
:1001E000033A03199D29013A0319AB29B929670874
:1001F000AB00AA143B1C3B11BA2967080339AC00B9
:10020000AA143B1C3B11BA29BD1C12296708AD007A
:10021000FB300317900003132D08031791000313FD
:100220004B20AA14BA29BD1C222967080339AE0045
:10023000FA300317900003132E08031791000313DD
:100240004B20AA14BA296708B100BA296708B2007E
:100250003208C2056920BA2967080639FF3AB30592
:1002600067080639FF3AC2056920BA2967080339C9
:10027000B400BA292A1E44296808FF3A6702031D00
:100280004329AA1644292A12BA293B0867060339CA
:10029000003A03195329671C4F292A155029AA141B
:1002A000BB113B11B3133B08FC398316EF008312DB
:1002B0006708033983166F048312BB00BA296708E5
:1002C0000139BC00BC0803196A29051383160513FC
:1002D0006C298312831605178312BA29670803391C
:1002E000BD00BA29BD1C7F296708BE00F93003177D
:1002F000900003133E080317910003134B20BA2903
:10030000BD1C8E2967080339BF00F8300317900021
:1003100003133F080317910003134B20BA29670802
:10032000FF3AC205BA296708EA00BA296A08C30079
:100330006708C400EA012A15BA29BD1CAA29670862
:10034000C500F6300317900003134508031791000A
:1003500003134B20BA29BD1CB8296708C600F73023
:1003600003179000031346080317910003134B2053
:10037000BA29BA29E50A0319E60A0D2A6608031DF7
:10038000D02964006508031790008D0083168C1334
:100390000C1483120C0883160313EF00F329831245
:1003A0006608013C031DF1296508233C031CED2967
:1003B00065080C3C031DE4292A160E08E8006808AD
:1003C0008316EF00EB29831265082B3E840083130C
:1003D00000088316EF00EF2983128316EF01F3293B
:1003E00083128316EF011418F329831294138316D2
:1003F0006F0883129300941FFF298316F5290000CC
:1004000000000000000000001416E50A0319E60AC7
:100410000D2A0D2A941237200D2A8C118A112228B8
:100420002A18202A83166608831203178D00831664
:100430008C130C1483120C08F800452A452A031368
:10044000583083166607E9000B30EA000318EA0A01
:100450006908831203178D00831603136A08831239
:1004600003178F0083168C170C14000000008312F2
:100470000E08FA000C0883160313E7007A08E80058
:100480006708F80083120317452A031300347230FB
:1004900083168F0083128D1314308316CB000F192F
:1004A000562ACB080319562ACB034F2AA5308312AC
:1004B00090003C30EC00B030EB00331B612A321B63
:1004C00042173317003485118316851183120034C7
:1004D000331C732AC108031D702AC0080319732A2C
:1004E000C101C001842AAA1C942A861E7C2A2D08D8
:1004F000C0002E08C100842A3B18842A3B19842A94
:100500002B08C0002C08C100400895009509411C2B
:100510008B2A17128C2A1716C11C902A9712912A1F
:1005200097160530CF00AA1000348B138316CB0129
:100530004B08233C031CA32A2B304B078400831356
:100540008001CB0A982A83122A108316CD01CC0190
:100550004D08273C031CBA2A4D08831203178D004F
:1005600083168C130C1483120C0883160313CC0708
:10057000CD0AA82ACC080319C02A83122A1483168C
:10058000F930831203178D0083168C130C14831219
:100590000C080313AB00F83003178D0083168C137F
:1005A0000C1483120C0803390313AC00FB3003173F
:1005B0008D0083168C130C1483120C080313AD00EA
:1005C000FA3003178D0083168C130C1483120C0859
:1005D00003390313AE000C308316E6008312102299
:1005E0007808D0000D308316E600831210227808B8
:1005F000D1000E308316E600831210227808D20054
:100600000F308316E600831210227808D3001030D2
:100610008316E600831210227808B100FF30B20082
:100620000230B300C2002B08BE002C08BF0002300D
:10063000B8000730B9000430BA00F63003178D0057
:1006400083168C130C1483120C080313C500F730A7
:1006500003178D0083168C130C1483120C080313DC
:10066000C60046088316CD00831245088316CC00C9
:1006700083125308FA005208F8007A0883164D02D4
:10068000031C482B031D602B4C087802031C602BB5
:10069000831246088316CF00831245088316CE00C6
:1006A00083125108FA005008F80083164F087A02A6
:1006B000031C662B031D602B78084E020318662B63
:1006C00023308312C6002830C500831683124508E4
:1006D000C3004608C4003B142A18BB17FF30031799
:1006E0008D0083168C130C1483120C080313C7009F
:1006F000FE3003178D0083168C130C1483120C0824
:100700000313C800FD3003178D0083168C130C14DF
:1007100083120C080313C900FC3003178D008316E5
:100720008C130C1483120C080313CA008D1F9A2B10
:100730004722A02BB53090006D30EC008430EB00E8
:10074000033083169B00FB306500F3306600831294
:1007500005156322AA11861AAA15AA1DB12BB31575
:10076000C21541309F00C03083169F004030F40016
:10077000F301F201F101F0011430E60083121022BE
:1007800078088316CB001330E60083121022780815
:100790008316CC001230E6008312102278088316EC
:1007A000CD001130E6008312102278088316CE00A7
:1007B0004B08A3004C08A2004D08A1004E08A00061
:1007C0001530E600831210227808F5008316010820
:1007D000C0392838810083128101D4016C088F0050
:1007E0006B088E000A30ED003C30EE00EF00003068
:1007F000F80006389200FA308316920086118312B0
:1008000086110C309700AA1468220B30F7000730CD
:1008100081018130840083130008F039073880009B
:1008200064000008F03977048000D601D5012A154C
:10083000E2010530CF00D7008316CB014B08043C02
:10084000031C2D2C03104B0D583E84008313840A87
:10085000800184038001CB0A1E2C831237201F15D0
:10086000061183168C1583120B178B178A11112F03
:1008700083168515831200341030F700FA018316B1
:10088000ED01EA0CE90C031C4B2C6B08FA0703186A
:10089000ED0A6C08ED07ED0CFA0CF90CF80CF70BEF
:1008A000412C83120034F801F901F701FA01831693
:1008B0006C08031D5E2C6B080319782C1030ED00BA
:1008C0000310E90DEA0DF70DFA0D6C087A02031D0D
:1008D0006B2C6B087702031C742C6B08F702031C4B
:1008E000FA036C08FA020314F80DF90DED0B602CF5
:1008F00000008312003416308316E0006008E00A1E
:10090000E500E6008312102278088316E100E20178
:10091000610862020318202D6008E00AE500E60085
:100920008312102278088316E600E8016608E700C3
:100930006808EA006608E900EC016430EB00831205
:100940003C2479088316DD007808DC006008E00AA2
:10095000E500E6008312102278088316E600E8011D
:100960006608E7006808EA006608E900EC01643000
:10097000EB0083123C2479088316DF007808DE0040
:100980005D0883125602031C1D2D031DCF2C550834
:1009900083165C02031CCE2C83121D2D8312560875
:1009A00083165F020318D62C83121D2D031DDE2C27
:1009B0005E088312550203181D2D8316E40183126D
:1009C00040088316E300630DE500640DE600E50DC5
:1009D000E60DFC30E5056508831241048316E3004B
:1009E0006608E4008312550883165E02E5005F087E
:1009F000E60083125608031C560FFF2C022D8316A7
:100A0000E6028312083083166507E7006608E800EF
:100A10000318E80A6808EA006708E900EC011130E9
:100A2000EB008312532478088316E3070318E40AC3
:100A30007908E40783123B15222D8316E20A882CDD
:100A4000442D83128316E41F282DE401E301322D87
:100A5000E41B322D6408033C0318322D0330E400FC
:100A6000FF30E300630803398312C1008316640C6E
:100A7000E600630CE500E60CE50C3F30E605650892
:100A80008312C000AA14831683128A15B72883160E
:100A90005D085F068039E100DD1F532DDC09DD09AB
:100AA000DC0A0319DD0ADF1F5A2DDE09DF09DE0A21
:100AB0000319DF0AF801F901F701FA015F08031DC4
:100AC000642D5E0803197E2D1030E0000310DC0D4C
:100AD000DD0DF70DFA0D5F087A02031D712D5E081A
:100AE0007702031C7A2D5E08F702031CFA035F08E5
:100AF000FA020314F80DF90DE00B662D0000E11F5A
:100B0000862DF809F909F80A0319F90A83128A15DA
:100B1000702AC70F902DC80F902DC90F902DCA0AAB
:100B2000A9018B1BA9178B13FF3003179000031328
:100B300047080317910003134B20A91B8B17A9012A
:100B40008B1BA9178B13FE30031790000313480863
:100B50000317910003134B20A91B8B17A9018B1BB3
:100B6000A9178B13FD3003179000031349080317CF
:100B7000910003134B20A91B8B17A9018B1BA917ED
:100B80008B13FC300317900003134A0803179100DE
:100B900003134B20A91B8B178A115A2F2030831661
:100BA000D700D301D401D501D6014E08FA004D0873
:100BB000F9004C08F8004B08F7000310771CEE2DE5
:100BC0004F08D30750080318500FD40751080318D3
:100BD000510FD50752080318520FD607D60CD50C63
:100BE000D40CD30CFA0CF90CF80CF70CD70BDD2D48
:100BF00083128A116D2EF701F801F901FA018316AB
:100C0000D301D401D501D6015208510450044F0438
:100C100003193A2E2030D7000310CB0DCC0DCD0D8B
:100C2000CE0DD30DD40DD50DD60D52085602031D91
:100C3000232E51085502031D232E50085402031D74
:100C4000232E4F085302031C342E4F08D3025008A2
:100C5000031C500FD4025108031C510FD502520837
:100C6000031C520FD6020314F70DF80DF90DFA0DFF
:100C7000D70B0C2E0000D3308400831383128A110B
:100C8000882E1E08FA0083161E08F0077A0803183B
:100C90007A0FF107003003180130F2070030031813
:100CA0000130F307F403F40803195A2E83121F15B9
:100CB0009F2E831683129F198F2E73088316CE00E2
:100CC0007208CD007108CC007008CB00D201D101B0
:100CD000D001C830CF008312CE2D7A08F3007908F6
:100CE000F2007808F1007708F00073088316CE0050
:100CF0007208CD007108CC007008CB002308D20028
:100D00002208D1002108D0002008CF008312FB2D3B
:100D100075087707B5009F154B30F4009B2E031024
:100D2000FA01730CF900720CF800710CF700B600B0
:100D30009F114030F400F301F201F101F0010C13B6
:100D40008A11982FFF2EFF2EFF2EFF2EFF2EFF2E33
:100D5000FF2EFF2EFF2EFF2EFF2EFF2EFF2EFF2E2B
:100D6000FF2EFF2EFF2EFF2EFF2EFF2EFF2EFF2E1B
:100D7000FF2EFF2EFF2EFF2EFF2EFF2EFF2EFF2E0B
:100D8000FF2EFF2EFF2EFF2EFF2EFF2EFF2EFF2EFB
:100D9000FF2EFF2EFF2EFF2EFF2EFF2EFF2EFF2EEB
:100DA000FF2EFF2EFF2EFF2EFF2EFF2EFF2EFF2EDB
:100DB000FF2EFF2EFF2EFF2EFF2EFF2EFF2EFF2ECB
:100DC000FF2EFF2EFF2EFF2EFF2EFF2EFF2EFF2EBB
:100DD000FF2EFF2EFF2EFF2EFF2EFF2EFF2EFF2EAB
:100DE000FF2EFF2EFF2EFF2EFF2EFF2EFF2EFF2E9B
:100DF000FF2EFF2EFF2EFF2EFF2EFF2EFF2EFF2E8B
:100E0000840183131F30830583161F129F121B0852
:100E100080390F389B0007309C001C0883120D138B
:100E2000952AAA1A9C2F0B1D172FD40A0B110C1CE4
:100E3000952F6C088F006B088E00ED036D08053C44
:100E4000031D362F1F153318292FB31A292FB41C51
:100E50002C2F05113824352FB319302F341C332F84
:100E600005116322352F051563225A2FED08031D46
:100E70005A2F0A30ED001F158A1500288A113318E1
:100E8000452FB31A452FB41C482F05113824512F74
:100E9000B3194C2F341C4F2F05113824512F051531
:100EA0006322EE0B5A2F3C30EE00EF0B5A2F3C30F2
:100EB000EF00892DF701AA19F716060877062039E1
:100EC00003196F2F861A6D2FAA11B3113B1C6B2FBC
:100ED0002A15AA106C2FAA146F2F8B136E2F68225D
:100EE000061C742FB312792FB31A782FB21AC216B8
:100EF000B316051F7D2F3312822F331A812F321A1A
:100F000042163316141E862F141F922FE90A690801
:100F1000053C031D912F37203319902F32194215AC
:100F20003315932FE90169200C100C1F982F412EC7
:100F30008D1B47226400112F8B1364000B308A0035
:100F4000803082006300FF2EFF2EFF2EFF2EFF2E2B
:100F5000FF2EFF2EFF2EFF2EFF2EFF2EFF2EFF2E29
:100F6000FF2EFF2EFF2EFF2EFF2EFF2EFF2EFF2E19
:100F7000FF2EFF2EFF2EFF2EFF2EFF2EFF2EFF2E09
:100F8000FF2EFF2EFF2EFF2EFF2EFF2EFF2EFF2EF9
:100F9000FF2EFF2EFF2EFF2EFF2EFF2EFF2EFF2EE9
:100FA000FF2EFF2EFF2EFF2EFF2EFF2EFF2EFF2ED9
:100FB000FF2EFF2EFF2EFF2EFF2EFF2EFF2EFF2EC9
:100FC000FF2EFF2EFF2EFF2EFF2EFF2EFF2EFF2EB9
:100FD000FF2EFF2EFF2EFF2EFF2EFF2EFF2EFF2EA9
:100FE000FF2EFF2EFF2EFF2EFF2EFF2EFF2EFF2E99
:100FF000FF2EFF2EFF2EFF2EFF2EFF2EFF2EFF2E89
:1010000054088316D300831201088316D20083127A
:101010008101D401D7030310570D583E8400831378
:10102000840A8316530880008403520880008312C8
:10103000D708031D1D280530D7008316D901D80114
:10104000D1015108043C031C36280310510D583EB1
:1010500084008313840A0008FA0084030008D80778
:101060000318D90A7A08D907D10A21285908831206
:10107000B000831658088312AF00CF08031DCF03BA
:10108000CF08031D71288316DD01831231088316F2
:10109000DC005D08EA005C08E900EC010C30EB00C4
:1010A0008A1183123C248A157908FA00780883167D
:1010B00053087A02031C6A28031D6228780852022A
:1010C00003186A288312331867283218421433141D
:1010D000712883168312331C7028AA142A15CF0195
:1010E000331056088316D700831255088316D6008E
:1010F000520DDC00530DDD00DC0DDD0DFC30DC0598
:1011000052085C078312D50083165D088312D6004F
:101110000318D60A831653088312D6075508831678
:10112000D60283125608031C560F97289A28831656
:10113000D70283128316D71FA228D609D709D60A49
:101140000319D70A83123B18B928CF08031D982A20
:101150008316D608031DAF28D7080319B2288312B7
:10116000982A83168312BB18B8288A117B2C8A15FB
:10117000982ABB19C528E2080319C528E20BC5281F
:10118000B31BC428B21BC217B3172A1DDF292A11AB
:10119000B313BB113C30E20044088316DD00831218
:1011A00043088316DC0083125108FA005008F80047
:1011B00083165D087A02031CEA28031DE3287808D9
:1011C0005C020318EA2883125008C3005108C400C7
:1011D00007298316831244088316DD00831243080F
:1011E0008316DC0083125308FA005208F8007A08CC
:1011F00083165D02031C0829031D02295C0878027E
:101200000318082983125208C3005308C400831628
:1012100083123B11BB188C2916308316CF004F0860
:10122000CF0ADC00E6008A11831210228A157808A2
:101230008316D000D1015008510203188B294F08A2
:10124000CF0ADC00E6008A11831210228A15780882
:101250008316DD00DF015D08DE005F08EA005E083E
:10126000E900EC016430EB008A1183123C248A15FA
:1012700079088316CC007808CB004F08CF0ADC0031
:10128000E6008A11831210228A1578088316DD0081
:10129000DF015D08DE005F08EA005E08E900EC019E
:1012A0006430EB008A1183123C248A157908831676
:1012B000CE007808CD00831244088316DD00831227
:1012C00043088316DC004C085D02031C8929031DBA
:1012D0006D295C084B020318892983124408831680
:1012E000DF00831243088316DE005F084E02031CF2
:1012F0008929031D7F294D085E02031889294D089D
:101300008312C30083164E088312C4003B15831654
:101310008B29D10A1B29831244088316DD0083120E
:1013200043088316DC008312550883165C02F7001D
:101330005D08FA0083125608031C560FFA0277085C
:101340008316D4007A08D500D51FAB29D409D50956
:10135000D40A0319D50AD51BDE295508003C031809
:10136000DE29FF3A031DB8295408F43C0318DE298E
:10137000831244088316DD00831243088316DC00C1
:101380005D08EA005C08E900EC011130EB008A110D
:10139000831253248A1579088316DE007808DD004D
:1013A00056305D02F7005E08FA000030031C013081
:1013B000FA027708DA007A08DB00782A8312CF086D
:1013C000031D982A8316D71BEF29D708031DEC2984
:1013D00056080A3C0318EF298312982A8316DB016A
:1013E000831240088316DA005A0DDC005B0DDD0025
:1013F000DC0DDD0DFC30DC055C0883124104831636
:10140000DA005D08DB00831244088316DD008312D6
:1014100043088316DC008312550883165C02F7002C
:101420005D08FA0083125608031C560FFA0277086B
:101430008316D4007A08D500D51B252AD508031DAC
:10144000382A5408183C031C382AD51F322A55085C
:10145000FE3C0318382AFF3A031D322A5408E73CA1
:101460000318382A8312BB15B313E201412A8316ED
:101470008312B31B402AE208031D402A3C30E200DD
:10148000BB118316D51B502AD508031D4B2A5408BF
:101490000B3C0318502A0830D4070318D50A662AD3
:1014A000D51F632A5508FF3C031C632A031D5C2AD1
:1014B0005408F43C031C632A0830D4020030031C97
:1014C0000130D502662A8312982A83165508DD005A
:1014D0005408DC00DF011130DE008A118312472D31
:1014E0008A1578088316DA070318DB0A7908DB0700
:1014F000DB1F7D2ADB01DA01872ADB1B872A5B08D9
:10150000033C0318872A0330DB00FF30DA005A0857
:1015100003398312C10083165B0CDD005A0CDC001A
:10152000DD0CDC0C3F30DD055C088312C000AA1422
:101530008A113E2FFF2EFF2EFF2EFF2EFF2EFF2E95
:10154000FF2EFF2EFF2EFF2EFF2EFF2EFF2EFF2E33
:10155000FF2EFF2EFF2EFF2EFF2EFF2EFF2EFF2E23
:10156000FF2EFF2EFF2EFF2EFF2EFF2EFF2EFF2E13
:10157000FF2EFF2EFF2EFF2EFF2EFF2EFF2EFF2E03
:10158000FF2EFF2EFF2EFF2EFF2EFF2EFF2EFF2EF3
:10159000FF2EFF2EFF2EFF2EFF2EFF2EFF2EFF2EE3
:1015A000FF2EFF2EFF2EFF2EFF2EFF2EFF2EFF2ED3
:1015B000FF2EFF2EFF2EFF2EFF2EFF2EFF2EFF2EC3
:1015C000FF2EFF2EFF2EFF2EFF2EFF2EFF2EFF2EB3
:1015D000FF2EFF2EFF2EFF2EFF2EFF2EFF2EFF2EA3
:1015E000FF2EFF2EFF2EFF2EFF2EFF2EFF2EFF2E93
:1015F000FF2EFF2EFF2EFF2EFF2EFF2EFF2EFF2E83
:10160000FF2EFF2EFF2EFF2EFF2EFF2EFF2EFF2E72
:10161000FF2EFF2EFF2EFF2EFF2EFF2EFF2EFF2E62
:10162000FF2EFF2EFF2EFF2EFF2EFF2EFF2EFF2E52
:10163000FF2EFF2EFF2EFF2EFF2EFF2EFF2EFF2E42
:10164000FF2EFF2EFF2EFF2EFF2EFF2EFF2EFF2E32
:10165000FF2EFF2EFF2EFF2EFF2EFF2EFF2EFF2E22
:10166000FF2EFF2EFF2EFF2EFF2EFF2EFF2EFF2E12
:10167000FF2EFF2EFF2EFF2EFF2EFF2EFF2EFF2E02
:10168000FF2EFF2EFF2EFF2EFF2EFF2EFF2EFF2EF2
:10169000FF2EFF2EFF2EFF2EFF2EFF2EFF2EFF2EE2
:1016A000FF2EFF2EFF2EFF2EFF2EFF2EFF2EFF2ED2
:1016B000FF2EFF2EFF2EFF2EFF2EFF2EFF2EFF2EC2
:1016C000FF2EFF2EFF2EFF2EFF2EFF2EFF2EFF2EB2
:1016D000FF2EFF2EFF2EFF2EFF2EFF2EFF2EFF2EA2
:1016E000FF2EFF2EFF2EFF2EFF2EFF2EFF2EFF2E92
:1016F000FF2EFF2EFF2EFF2EFF2EFF2EFF2EFF2E82
:10170000462696242A130C1814268C1997258D1B0F
:10171000F1256400832B0034FF2EFF2EFF2EFF2EB9
:1017200083164A08AD3C031DAB2B831203175408E4
:101730008D005508FA018F006400943083168C00E8
:1017400055308D00AA308D008C14000000000C1163
:101750000C126400031383120034031754088D0025
:1017600055088F00D901580859020318DD2B640071
:10177000813083168C000000000083125708FA00A5
:101780005608D60A0319D70A840083137A188317D8
:101790000C0880005708FA005608D60A0319D70A21
:1017A000840083137A1883170E08800064008D0A62
:1017B0008D0803198F0AD90AB32B0313003483163B
:1017C0004A08BE3C031D6B2C03178C178312540868
:1017D0008D0055088F000D080339DA00DA08031967
:1017E000102CFC308D05D9015A0859020318102C11
:1017F000640083160C14000000000C1555308D0099
:10180000AA308D008C14000000008C18052C0C11DF
:10181000640083128D0A8D0803198F0AD90AF42BEC
:10182000D9010310580C59020318432C5708FA0029
:101830005608D60A0319D70A840083137A18831727
:1018400000088C005708FA005608D60A0319D70A70
:10185000840083137A18831700088E0064008316AF
:101860000C1555308D00AA308D008C14000000003E
:101870008C18382C0C11640083128D0A8D08031902
:101880008F0AD90A112C0D080339DA00DA08031976
:10189000692C5A08043CDA00FF308C008E00D90114
:1018A0005A0859020318692C640083160C15553028
:1018B0008D00AA308D008C14000000008C185E2C66
:1018C0000C11640083128D0A8D0803198F0AD90A3E
:1018D000502C83160313831200348511831685114F
:1018E0008312003483168515831200348316141C6A
:1018F0007B2C8312762C831294137D089300941F03
:10190000832C83167B2C00000000000000000000E8
:1019100014162A1F912C7D08AA3C031D912C6400EB
:10192000902C5130FD00FC01F60100340E300317FD
:10193000D500F930D400D701A430D6000330D80048
:101940000313AD23AD308316CA0083120317D501EC
:10195000D40103139023BE308316CA0083120317E9
:10196000D501D401D701A430D6000630D800031326
:10197000DF23DE308316CA00831200340317D2013E
:10198000D30153087C02031CCD2CA43053078400E0
:1019900083130008D207D30AC12CD2080319D32C11
:1019A0005530FD006F2D831603132708003A83126C
:1019B0000319DE2C013A03192E2D6B2D83162508F1
:1019C00083120317D5008316031326088312031707
:1019D000D4000310550CD100540CD00051080B3C1E
:1019E000031C2B2D031DF82C50087F3C031C2B2DB2
:1019F00050081F39D40051080039D500D408031D00
:101A0000112DD508031D112DAD3083160313CA0007
:101A1000831203175108D5005008D40003139023F4
:101A20000317BE3083160313CA008312031751082D
:101A3000D5005008D400D701A830D6008316031370
:101A4000240883120317D8000313DF23DE30831624
:101A5000CA0083120317AA30FD006F2D0317D101AE
:101A6000D001D20151080B3C031C5A2D031D3C2D03
:101A700050087F3C031C5A2D5108D5005008D40053
:101A8000D701A430D6000830D8000313AD230317C4
:101A9000D30153080F3C031C552DA4305307840079
:101AA00083130008D207D30A492D0830D007031842
:101AB000D10A322DD208031D632DAA30FD00031375
:101AC0002A17682D0317031396245530FD002A1397
:101AD00003176F2D03135230FD0003176F2DFC0108
:101AE000F60103130034941230308316930036301D
:101AF00083129400831694131413FC01F6015130E1
:101B0000FD00C50183120034141E882D141F932D6F
:101B10008316C50A4508053C031D912D83127325C4
:101B20008316952D83128316C50183120034831604
:101B3000140883120317CE00031313080317CF00F2
:101B400003138C118316C5018312141FA92D73254D
:101B5000E52D03174E082539013A03130319BD2D4E
:101B6000203A0319BE2D253A0319DF2D203A031917
:101B7000DF2D043A0319E12DE22DE52D7C081F3CF1
:101B8000031CDA2DA4307C078400831303174F084D
:101B90008000FC08031DCF2D4F08F600D72D043020
:101BA00076077C02031DD72D0313BE240317FC0AFE
:101BB000DD2D03135A30FD0003170313E52D7624A2
:101BC000E52DE52D94127325E52D0034AA1BF02D8B
:101BD000B53090006D308316C8008430C700831282
:101BE0000034723083168F0083128D131430031764
:101BF000CE00831603130F19092E83120317CE0884
:101C0000031D052E83160313092ECE03F92D83160B
:101C10000313A530831290003C308316C800B03007
:101C2000C7008312AA1700348316480883128F0056
:101C30008316470883128E008316C9034908053CA2
:101C4000031D262E83126D242D2E8316C908031D15
:101C50002E2E0A30C9008312722483168312861A2C
:101C6000382E7E089500950983164610422E831261
:101C70008316461C412E4408831295009509432E75
:101C80008316412E831284250C1000348B13AA1363
:101C90008D1B512E83160F080339003A0319532E5A
:101CA0008312F12583160F30F7000730831281016C
:101CB0008130840083130008F03907388000640005
:101CC0000008F03977048000DE308316CA00033044
:101CD0009B00FB306500F33066008312051172240F
:101CE000E6258316480883128F008316470883125F
:101CF0008E000A308316C9000030F80006388312BF
:101D00009200FA3083169200F930831203178D0087
:101D100083168C130C1483120C08FE00FB308D000C
:101D200083168C130C1483120C0883160313C4003F
:101D30008611831286110C309700171697167E08AD
:101D400095009509831646108312861EAA2E8316C7
:101D50004614831273250034FF2EFF2EFF2EFF2E14
:101D6000FF2EFF2EFF2EFF2EFF2EFF2EFF2EFF2E0B
:101D7000FF2EFF2EFF2EFF2EFF2EFF2EFF2EFF2EFB
:101D8000FF2EFF2EFF2EFF2EFF2EFF2EFF2EFF2EEB
:101D9000FF2EFF2EFF2EFF2EFF2EFF2EFF2EFF2EDB
:101DA000FF2EFF2EFF2EFF2EFF2EFF2EFF2EFF2ECB
:101DB000FF2EFF2EFF2EFF2EFF2EFF2EFF2EFF2EBB
:101DC000FF2EFF2EFF2EFF2EFF2EFF2EFF2EFF2EAB
:101DD000FF2EFF2EFF2EFF2EFF2EFF2EFF2EFF2E9B
:101DE000FF2EFF2EFF2EFF2EFF2EFF2EFF2EFF2E8B
:101DF000FF2E0A128A15802B0034FF2EFF2EFF2E95
:101E0000FF2EFF2EFF2EFF2EFF2EFF2EFF2EFF2E6A
:101E1000FF2EFF2EFF2EFF2EFF2EFF2EFF2EFF2E5A
:101E2000FF2EFF2EFF2EFF2EFF2EFF2EFF2EFF2E4A
:101E3000FF2EFF2EFF2EFF2EFF2EFF2EFF2EFF2E3A
:101E4000FF2EFF2EFF2EFF2EFF2EFF2EFF2EFF2E2A
:101E5000FF2EFF2EFF2EFF2EFF2EFF2EFF2EFF2E1A
:101E6000FF2EFF2EFF2EFF2EFF2EFF2EFF2EFF2E0A
:101E7000FF2EFF2EFF2EFF2EFF2EFF2EFF2EFF2EFA
:101E8000FF2EFF2EFF2EFF2EFF2EFF2EFF2EFF2EEA
:101E9000FF2EFF2EFF2EFF2EFF2EFF2EFF2EFF2EDA
:101EA000FF2EFF2EFF2EFF2EFF2EFF2EFF2EFF2ECA
:101EB000FF2EFF2EFF2EFF2EFF2EFF2EFF2EFF2EBA
:101EC000FF2EFF2EFF2EFF2EFF2EFF2EFF2EFF2EAA
:101ED000FF2EFF2EFF2EFF2EFF2EFF2EFF2EFF2E9A
:101EE000FF2EFF2EFF2EFF2EFF2EFF2EFF2EFF2E8A
:101EF000FF2EFF2EFF2EFF2EFF2EFF2EFF2EFF2E7A
:101F0000FF2EFF2EFF2EFF2EFF2EFF2EFF2EFF2E69
:101F1000FF2EFF2EFF2EFF2EFF2EFF2EFF2EFF2E59
:101F2000FF2EFF2EFF2EFF2EFF2EFF2EFF2EFF2E49
:101F3000FF2EFF2EFF2EFF2EFF2EFF2EFF2EFF2E39
:101F4000FF2EFF2EFF2EFF2EFF2EFF2EFF2EFF2E29
:101F5000FF2EFF2EFF2EFF2EFF2EFF2EFF2EFF2E19
:101F6000FF2EFF2EFF2EFF2EFF2EFF2EFF2EFF2E09
:101F7000FF2EFF2EFF2EFF2EFF2EFF2EFF2EFF2EF9
:101F8000FF2EFF2EFF2EFF2EFF2EFF2EFF2EFF2EE9
:101F9000FF2EFF2EFF2EFF2EFF2EFF2EFF2EFF2ED9
:101FA000FF2EFF2EFF2EFF2EFF2EFF2EFF2EFF2EC9
:101FB000FF2EFF2EFF2EFF2EFF2EFF2EFF2EFF2EB9
:101FC000FF2EFF2EFF2EFF2EFF2EFF2EFF2EFF2EA9
:101FD000FF2EFF2EFF2EFF2EFF2EFF2EFF2EFF2E99
:101FE000FF2EFF2EFF2EFF2EFF2EFF2EFF2EFF2E89
:101FF000FF2EFF2EFF2EFF2EFF2EFF2EFF2EFF2E79
:1016C0000100040001000000B8000B0050004600BB
:1016D0000A00550002000100000003000300520050
:1016E00057006F007300A100AD0000000000000073
:0E16F0000000000000000000000000000000EC
:020DFE00FF2EC6
:021DFE00FF2EB6
:0216FE000000EA
:04400E00672FFF3FDA
:084000000800050004000D009A
:1042000001000100000005000b0011000000dd00ae
:104210000100040001000000b8000b00500046003f
:104220000a005500020001000000030003005200d4
:1042300057006f007300a100ad00000000000000f7
:10424000000000000000000000000000000060000e
:10425000010006001900200044005000c200480080
:104260005000d70042006c006100640065005300fc
:1042700079007300740065006d00200063002d005c
:1042800043006c0061007300730020006600610051
:104290006e00c000c000c200300031000300d20038
:1042a00041003000c1000000000000000000f900e3
:1042b000010006001900c20048005000d70042006b
:1042c0006c006100640065005300790073007400a5
:1042d00065006d00200063002d0043006c0061004c
:1042e000730073002000660061006e00ca00340095
:1042f000310032003100340030002d004200320025
:104300003100c000c00000000000c10000004e00ed
:10431000020082000d00d2009d000000b0000400e9
:1043200074000400ec00040000000000e20004003f
:10433000f400380000000000000000000000000051
:10434000000000000000000000000000000000006d
:10435000000000000000000000000000000000005d
:10436000000000000000000000000000000000004d
:10437000000000000000000000000000000000003d
:10438000000000000000000000000000000000002d
:10439000000000000000000000000000000000001d
:1043a000000000000000000000000000000000000d
:1043b00000000000000000000000000000000000fd
:1043c00000000000000000000000000000000000ed
:1043d00000000000000000000000000000000000dd
:1043e0000000000000000000000000002800230082
:1043f000000071000000d00000000000000000007c
:00000001FF
;PIC16F88
