:1000000000308A009F2F0000FF00030E8301A10033
:100010007F08A0000A08A8008A01A00E0408A20018
:100020007708A3007808A4007908A5007A08A6003C
:100030007B08A700831383128C308400801D222844
:100040008C193528220884002308F7002408F800BA
:100050002508F9002608FA002708FB0028088A006E
:10006000210E8300FF0E7F0E09008A11832894124F
:100070003030831693003630831294008316941325
:1000800014138312E301E601E5012A12E801E901F4
:10009000AA12EA01EB012A130034640003171508C1
:1000A0008D0016088C0083168C130C158312031315
:1000B0000B08F7008B138316031755308D00AA30F9
:1000C0008D008C148C1862280C117708831203138E
:1000D0008B0464000034C2080319702806117128CB
:1000E000061500340513831605138312331A7A2874
:1000F000321A421633168A1177298316051783128E
:1001000033128A1177298316140883120317930078
:1001100003131308E700E901141F90283720302A41
:10012000031713082539013A03130319A428203AA9
:100130000319A628253A0319C829203A0319C82902
:10014000043A03192C2A2D2AE301302AE308031D5F
:10015000AE286708E4000130E300C729630BB72825
:100160006408E6006708E5000230E300C729E608F6
:10017000031DCB286508EF3C031CCB283D1CCB2876
:10018000650803179400950003136708031796008A
:1001900003134D20C4296608013C031DC4296508CA
:1001A00003190929013A03190F29033A03191629DA
:1001B000013A03192529053A03193529013A03198A
:1001C00038290F3A03193E29013A03194829053AFB
:1001D00003194C291C3A03195729013A03197029AC
:1001E000033A03197829013A03197C29073A0319BC
:1001F0008A29033A031999290F3A03199D29013ACB
:100200000319A029033A0319A729013A0319B529AB
:10021000C3296708AB00AA143B1C3B11C42967081B
:100220000339AC00AA143B1C3B11C429BD1C242972
:100230006708AD00FB300317950003132D08031763
:10024000960003134D20AA14C429BD1C3429670845
:100250000339AE00FA300317950003132E08031775
:10026000960003134D20AA14C4296708B100C429BD
:100270006708B2003208C2056B20C4296708063936
:10028000FF3AB30567080639FF3AC2056B20C42957
:1002900067080339B400C4292A1E56296808FF3AA2
:1002A0006702031D5529AA1656292A12C4293B089C
:1002B0006706033903196429671C60292A15612917
:1002C000AA14BB113B11B3133B08FC39031794006C
:1002D000031367080339031714040313BB00C4296D
:1002E00067080139BC00BC08031D72287D28C42999
:1002F00067080339BD00C429BD1C89296708BE00F1
:10030000F9300317950003133E08031796000313F3
:100310004D20C429BD1C982967080339BF00F83057
:100320000317950003133F080317960003134D208E
:10033000C4296708FF3AC205C4296708EA00C4292E
:100340006A08C3006708C400EA012A15C429BD1C55
:10035000B4296708C500F630031795000313450854
:100360000317960003134D20C429BD1CC22967083A
:10037000C600F730031795000313460803179600CD
:1003800003134D20C429C429E50A0319E60A302ABB
:100390006608031DD82964006508031795008D00C1
:1003A00083168C130C1483120C089400182A031360
:1003B0006608013C031D162A6508233C031C122A0B
:1003C00065080C3C031DEC292A160E08E800680895
:1003D00003179400102A03136508043C031DF82931
:1003E0003008EB002A172F0803179400102A031374
:1003F0006508053C031D092A2A1F042A6B080317F8
:10040000940003132A13082A3008031794000313D7
:10041000112A65082B3E84008313000803179400FB
:100420000313152A031794010313192A03179401C0
:100430000313831614181A2A83129413031714082B
:1004400003139300941B1D2A252A262A0000141644
:10045000E50A0319E60A302A302A94123720302A96
:100460008C118A1122282A108316CE01CD014E0844
:10047000273C031C492A4E08831203178D0083165C
:100480008C130C1483120C0883160313CD07CE0AA9
:10049000372ACD0803194F2A83122A148316831290
:1004A0008A11972A2A18622A83166B088312031767
:1004B0008D0083168C130C1483120C08F800862A06
:1004C000862A0313583083166B07EE000B30EF00BB
:1004D0000318EF0A6E08831203178D0083160313A7
:1004E0006F08831203178F0083168C170C14782A59
:1004F00083120E08FA000C0883160313EC007A0826
:10050000ED006C08F80083120317862A03130034E9
:100510008316CC014C08233C031C952A2B304C0736
:10052000840083138001CC0A8A2A8312332AF9308B
:1005300003178D0083168C130C1483120C080313FD
:10054000AB00F83003178D0083168C130C14831244
:100550000C0803390313AC00FB3003178D0083161E
:100560008C130C1483120C080313AD00FA3003171C
:100570008D0083168C130C1483120C08033903139B
:10058000AE000C308316EB00831252227808D000A4
:100590000D308316EB00831252227808D1000E3002
:1005A0008316EB00831252227808D2000F30831694
:1005B000EB00831252227808D30010308316EB0030
:1005C000831252227808B100FF30B2000230B3002B
:1005D000C2002B08BE002C08BF000230B800083053
:1005E000B9000430BA00F63003178D0083168C135F
:1005F0000C1483120C080313C500F73003178D0089
:1006000083168C130C1483120C080313C6004608BF
:100610008316CE00831245088316CD00831253083B
:10062000FA005208F8007A0883164E02031C1E2BAB
:10063000031D362B4D087802031C362B8312460807
:100640008316D000831245088316CF008312510809
:10065000FA005008F800831650087A02031C3C2B5D
:10066000031D362B78084F0203183C2B23308312CE
:10067000C6002830C500831683124508C30046080B
:10068000C4003B142A18BB17FF3003178D008316D4
:100690008C130C1483120C080313C700FE300317CD
:1006A0008D0083168C130C1483120C080313C800DE
:1006B000FD3003178D0083168C130C1483120C0865
:1006C0000313C900FC3003178D0083168C130C1420
:1006D00083120C080313CA008A116A2C7230831625
:1006E0008F0083128D1314308316CC000F197D2BCD
:1006F000CC0803197D2BCC03762BA53083129000F8
:100700003C30ED00B030EC00331B882B321B42171D
:1007100033170034B53090006D30ED008430EC00BC
:100720008A116F2C851183168511831200340330D2
:1007300083169B00FB308500F3308600831205157D
:100740009223AA11861AAA15AA1DA82BB315C215A1
:100750008A11702C41309F00C03083169F004030BA
:10076000F500F401F301F201F1011430EB00831202
:10077000522278088316CC001330EB0083125222E9
:1007800078088316CD001230EB00831252227808CD
:100790008316CE001130EB008312522278088316A4
:1007A000CF004C08A3004D08A2004E08A1004F083E
:1007B000A0001530EB00831252227808F6008A114F
:1007C000712C83160108C7392838810083128101F2
:1007D000D4018A11722C6D088F006C088E000A30CB
:1007E000EE003C30EF00F0008A11732C40089500B9
:1007F0009509411CFD2B1712FE2B1716C11C022C4C
:100800009712032C97160530CF008A11242C331C25
:10081000122CC108031D0F2CC0080319122CC10192
:10082000C001232CAA1C252C861E1B2C2D08C000C1
:100830002E08C100232C3B18232C3B19232C2B08FA
:10084000C0002C08C100F62BAA1000340030F800BC
:1008500006389200FF3083169200861183128611AB
:100860000C309700AA1407248A11742C03178501F1
:100870000B30F700073003138101813084008313AC
:100880000008F0390738800064000008F739F719CC
:10089000F039770480008A11752CD601D5012A150C
:1008A000E2010530CF00D7008316CC014C08043C90
:1008B000031C652C03104C0D583E84008313840ADE
:1008C000800184038001CC0A562C83128A11762C75
:1008D0008B13882A8D1F6E2C6E236F2C8A2B972BDF
:1008E000AA2BE12BEB2B262C362C4D2C37201F1559
:1008F000061183168C1583120B178B178A11AD2FD7
:10090000831685158312003433188A2CB31A8A2C67
:10091000B41C8D2C05118024962CB319912C341CF9
:10092000942C05119223962C051592238A119A2C4A
:100930001F15842C8A11F22E103003179200F70134
:10094000FA0183160313EF0CEE0C031CB12C831277
:1009500003171008F7070318FA0A1108FA07831695
:100960000313FA0CF70CF90CF80C83120317920B13
:10097000A12C03130034F801F901F701FA01031760
:100980001108031DC62C10080319E42C1030920026
:10099000031083160313EE0DEF0DF70DFA0D8312FE
:1009A000031711087A02031DD72C10087702031CC5
:1009B000E02C1008F702031CFA031108FA020314D2
:1009C000F80DF90D920BC82C03138A11852D1630E2
:1009D0008316E5006508E50AEA00EB00831252225F
:1009E00078088316E600E701660867020318922D6F
:1009F0006508E50AEA00EB008312522278088316A4
:100A0000EB00ED016B08EC006D08EF006B08EE00E9
:100A10008312031791016430900003139C2479081A
:100A20008316E2007808E1006508E50AEA00EB00B9
:100A30008312522278088316EB00ED016B08EC005C
:100A40006D08EF006B08EE0083120317910164300C
:100A5000900003139C2479088316E4007808E300CF
:100A6000620883125602031C8F2D031D3F2D55086B
:100A700083166102031C3E2D83128F2D83125608AC
:100A8000831664020318462D83128F2D031D4E2DED
:100A900063088312550203188F2D8316E901831210
:100AA00040088316E800680DEA00690DEB00EA0DC6
:100AB000EB0DFC30EA056A08831241048316E80056
:100AC0006B08E9008312550883166302EA00640884
:100AD000EB0083125608031C560F6F2D722D8316E0
:100AE000EB028312083083166A07EC006B08ED00F6
:100AF0000318ED0A6D08EF006C08EE00831203176F
:100B00009101113090000313BB2C78088316E8077D
:100B100079080318790FE90783123B15942D831682
:100B2000E70AF42CB62D83128316E91F9A2DE901EA
:100B3000E801A42DE91BA42D6908033C0318A42D8A
:100B40000330E900FF30E800680803398312C10070
:100B50008316690CEB00680CEA00EB0CEA0C3F30E2
:100B6000EB056A088312C000AA14831683128A1543
:100B7000C928F701F801F901FA018316E901EA0130
:100B8000EB01EC0168086704660465040319F82D9D
:100B90002030ED000310E10DE20DE30DE40DE90D51
:100BA000EA0DEB0DEC0D68086C02031DE12D6708E2
:100BB0006B02031DE12D66086A02031DE12D650825
:100BC0006902031CF22D6508E9026608031C660F22
:100BD000EA026708031C670FEB026808031C680F32
:100BE000EC020314F70DF80DF90DFA0DED0BCA2DFB
:100BF000E93084008313831200348316620864068C
:100C00008039E600E21F092EE109E209E10A031931
:100C1000E20AE41F102EE309E409E30A0319E40AD7
:100C2000F801F901F701FA016408031D1A2E63089F
:100C30000319342E1030E5000310E10DE20DF70D1D
:100C4000FA0D64087A02031D272E63087702031C3D
:100C5000302E6308F702031CFA036408FA02031437
:100C6000F80DF90DE50B1C2EE61F3B2EF809F909CE
:100C7000F80A0319F90A83128A15A72A3318442E91
:100C8000B31A442EB41C472E05118024502EB319DC
:100C90004B2E341C4E2E05118024502E0515922308
:100CA0008A11572E1F158A1500288A113E2E8A1187
:100CB000E92EC70F602EC80F602EC90F602ECA0A1A
:100CC000A9018B1BA9178B13FF3003179500031382
:100CD00047080317960003134D20A91B8B17A90182
:100CE0008B1BA9178B13FE300317950003134808BD
:100CF0000317960003134D20A91B8B17A9018B1B0B
:100D0000A9178B13FD300317950003134908031728
:100D1000960003134D20A91B8B17A9018B1BA91744
:100D20008B13FC300317950003134A080317960032
:100D300003134D20A91B8B178A11F22EF701AA1954
:100D4000F7160608770620390319B32E861AB12E36
:100D5000AA11B3113B1CAF2E2A15AA10B02EAA144B
:100D6000B32E8B13B22E8A11D42E061CB92EB312B9
:100D7000BE2EB31ABD2EB21AC216B3168A11D62EC3
:100D8000141EC42E141FD02EE90A6908053C031D49
:100D9000CF2E37203319CE2E321942153315D12ECE
:100DA000E9018A11D72E9E2E0724B52EC02E6B2066
:100DB0008A11F32E6D088F006C088E00EE036E080A
:100DC000053C0319982CEE08031DF22E0A30EE00A4
:100DD000522EEF0BF22E3C30EF00F00BF22E3C3097
:100DE000F000592ED32E0C108A11B62FFF2EFF2E95
:100DF000FF2EFF2EFF2EFF2EFF2EFF2EFF2EFF2E8B
:100E000020308316D800D401D501D601D7014F0870
:100E1000FA004E08F9004D08F8004C08F7000310DE
:100E2000771C202F5008D40751080318510FD507FD
:100E300052080318520FD60753080318530FD70749
:100E4000D70CD60CD50CD40CFA0CF90CF80CF70C0A
:100E5000D80B0F2F83128A11592F1E08FA00831600
:100E60001E08F1077A0803187A0FF20700300318FA
:100E70000130F307003003180130F407F503F508DB
:100E80000319462F83121F159C2F831683129F1957
:100E90008C2F74088316CF007308CE007208CD0023
:100EA0007108CC00D301D201D101C830D000831227
:100EB000002F7A08F4007908F3007808F200770828
:100EC000F10074088316E4007308E3007208E2007E
:100ED0007108E1002308E8002208E7002108E60085
:100EE0002008E5008312B9257708B500F61F852F85
:100EF0007608003C803AF7003508803A77020319FB
:100F0000852F031C852FB501882F76083507B5007E
:100F10009F154B30F500982F0310FA01740CF9005F
:100F2000730CF800720CF700B6009F114030F5000A
:100F3000F401F301F201F1010C138A11B92F8401BC
:100F400083131F30830583161F129F121B088039DD
:100F50009B0007309C008312682CAA1ABD2F0B1D22
:100F6000B32FD40A0B110C1CB62FDA2E0C1FB92F7D
:100F70002D2F8D1B6E236400AD2F8B1364000B305F
:100F80008A00803082006300FF2EFF2EFF2EFF2E8E
:100F9000FF2EFF2EFF2EFF2EFF2EFF2EFF2EFF2EE9
:100FA000FF2EFF2EFF2EFF2EFF2EFF2EFF2EFF2ED9
:100FB000FF2EFF2EFF2EFF2EFF2EFF2EFF2EFF2EC9
:100FC000FF2EFF2EFF2EFF2EFF2EFF2EFF2EFF2EB9
:100FD000FF2EFF2EFF2EFF2EFF2EFF2EFF2EFF2EA9
:100FE000FF2EFF2EFF2EFF2EFF2EFF2EFF2EFF2E99
:100FF000FF2EFF2EFF2EFF2EFF2EFF2EFF2EFF2E89
:101000008B1354088316D400831201088316D3006F
:1010100083120B1D0E28D40A0B11012881010B111C
:10102000D4018B17D7030310570D583E8400831348
:10103000840A8316540880008403530880008312B6
:10104000D708031D25280530D7008316DA01D901FA
:10105000D2015208043C031C3E280310520D583E96
:1010600084008313840A0008FA0084030008D90767
:101070007A0803187A0FDA07D20A292883128B1309
:1010800083165A088312B000831659088312AF00E2
:101090008B17CF08031DCF03CF08031D7F288316AE
:1010A000E201831231088316E1006208EF00610853
:1010B000EE008312031791010C3090008A11031384
:1010C0009C248A157908FA007808831654087A0255
:1010D000031C7828031D7028780853020318782809
:1010E0008312331875283218421433147F2883165C
:1010F0008312331C7E28AA142A15CF0133105608F8
:101100008316D800831255088316D700530DE100CB
:10111000540DE200E10DE20DFC30E10553086107DA
:101120008312D500831662088312D60083165408F2
:101130000318540F9C289F288312D6078316831206
:1011400055088316D70283125608031C560FA92888
:10115000AC288316D80283128316D81FB428D70967
:10116000D809D70A0319D80A83123B18CB28CF080D
:10117000031DCF2A8316D708031DC128D8080319D9
:10118000C4288312CF2A83168312BB18CA288A1157
:10119000E72C8A15CF2ABB19D728E2080319D728CC
:1011A000E20BD728B31BD628B21BC217B3172A1DD0
:1011B000162A2A11B313BB113C30E20044088316EF
:1011C000E200831243088316E10083125108FA00FB
:1011D0005008F800831662087A02031CFC28031DDD
:1011E000F528780861020318FC2883125008C30010
:1011F0005108C40019298316831244088316E2009B
:10120000831243088316E10083125308FA00520840
:10121000F8007A0883166202031C1A29031D142998
:101220006108780203181A2983125208C300530870
:10123000C400831683123B11BB18A22916308316F3
:10124000D0005008D00AE100EB008A11831252222C
:101250008A1578088316D100D2015108520203186A
:10126000A1295008D00AE100EB008A118312522212
:101270008A1578088316E200E4016208E300640836
:10128000EF006308EE0083120317910164309000B1
:101290008A1103139C248A1579088316CD007808D7
:1012A000CC005008D00AE100EB008A1183125222D0
:1012B0008A1578088316E200E4016208E3006408F6
:1012C000EF006308EE008312031791016430900071
:1012D0008A1103139C248A1579088316CF00780895
:1012E000CE00831244088316E2008312430883165B
:1012F000E1004D086202031C9F29031D8329610838
:101300004C0203189F29831244088316E4008312B9
:1013100043088316E30064084F02031C9F29031D42
:1013200095294E08630203189F294E088312C300B3
:1013300083164F088312C4003B158316A129D20AD5
:101340002D29831244088316E20083124308831672
:10135000E1008312550883166102F7006208FA0063
:1013600083125608031C560FFA0277088316D5001D
:101370007A08D600D61FC129D509D609D50A03197E
:10138000D60AD61B152A5608003C0318152AFF3A20
:10139000031DCE295508F43C0318152AE001DF018E
:1013A000831244088316DE00831243088316DD008F
:1013B000C430DD020930031C0A30DE020030031C99
:1013C0000130DF020030031C0130E0025F08E00062
:1013D0005E08DF005D08DE00DD01DE0DDF0DE00DE3
:1013E000DE0DDF0DE00DFC30DE056008E4005F0877
:1013F000E3005E08E2005D08E100E801E7013E303D
:10140000E6008030E5008A118312B9258A157A0832
:101410008316E0007908DF007808DE007708DD0039
:101420005E08DC005D08DB00AF2A8312CF08031DD5
:10143000CF2A8316D81B262AD808031D232A57082B
:10144000053C0318262A8312CF2A8316DC01831257
:1014500040088316DB005B0DE1005C0DE200E10D4E
:10146000E20DFC30E1056108831241048316DB00C4
:101470006208DC00831244088316E20083124308EA
:101480008316E1008312550883166102F700620893
:10149000FA0083125608031C560FFA0277088316C7
:1014A000D5007A08D600D61B5C2AD608031D6F2A01
:1014B0005508183C031C6F2AD61F692A5608FE3CA3
:1014C00003186F2AFF3A031D692A5508E73C0318E1
:1014D0006F2A8312BB15B313E201782A8316831295
:1014E000B31B772AE208031D772A3C30E200BB11C8
:1014F0008316D61B872AD608031D822A55080B3C63
:101500000318872A0830D5070318D60A9D2AD61F44
:101510009A2A5608FF3C031C9A2A031D932A550851
:10152000F43C031C9A2A0830D5020030031C013019
:10153000D6029D2A8312CF2A83165608E200550848
:10154000E100E4011030E3008A118312FD2D8A15B9
:1015500078088316DB0779080318790FDC07DC1F8E
:10156000B42ADC01DB01BE2ADC1BBE2A5C08033C7A
:101570000318BE2A0330DC00FF30DB005B080339B0
:101580008312C10083165C0CE2005B0CE100E20CEC
:10159000E10C3F30E20561088312C000AA148A11F1
:1015A000552EFF2EFF2EFF2EFF2EFF2EFF2EFF2E7D
:1015B000FF2EFF2EFF2EFF2EFF2EFF2EFF2EFF2EC3
:1015C000FF2EFF2EFF2EFF2EFF2EFF2EFF2EFF2EB3
:1015D000FF2EFF2EFF2EFF2EFF2EFF2EFF2EFF2EA3
:1015E000FF2EFF2EFF2EFF2EFF2EFF2EFF2EFF2E93
:1015F000FF2EFF2EFF2EFF2EFF2EFF2EFF2EFF2E83
:10160000FF2EFF2EFF2EFF2EFF2EFF2EFF2EFF2E72
:10161000FF2EFF2EFF2EFF2EFF2EFF2EFF2EFF2E62
:10162000FF2EFF2EFF2EFF2EFF2EFF2EFF2EFF2E52
:10163000FF2EFF2EFF2EFF2EFF2EFF2EFF2EFF2E42
:10164000FF2EFF2EFF2EFF2EFF2EFF2EFF2EFF2E32
:10165000FF2EFF2EFF2EFF2EFF2EFF2EFF2EFF2E22
:10166000FF2EFF2EFF2EFF2EFF2EFF2EFF2EFF2E12
:10167000FF2EFF2EFF2EFF2EFF2EFF2EFF2EFF2E02
:10168000FF2EFF2EFF2EFF2EFF2EFF2EFF2EFF2EF2
:10169000FF2EFF2EFF2EFF2EFF2EFF2EFF2EFF2EE2
:1016A000FF2EFF2EFF2EFF2EFF2EFF2EFF2EFF2ED2
:1016B000FF2EFF2EFF2EFF2EFF2EFF2EFF2EFF2EC2
:1016C000FF2EFF2EFF2EFF2EFF2EFF2EFF2EFF2EB2
:1016D000FF2EFF2EFF2EFF2EFF2EFF2EFF2EFF2EA2
:1016E000FF2EFF2EFF2EFF2EFF2EFF2EFF2EFF2E92
:1016F000FF2EFF2EFF2EFF2EFF2EFF2EFF2EFF2E82
:1017000041269024AA130C180D268C198E258D1BAA
:10171000EA256400832B0034FF2EFF2EFF2EFF2EC0
:1017200083164B08AD3C031DAB2B831203171D081A
:101730008D001E08FA018F006400943083168C001F
:1017400055308D00AA308D008C14000000000C1163
:101750000C12640003138312003403171D088D005C
:101760001E088F00A201210822020318DD2B64004D
:10177000813083168C000000000083122008FA00DC
:101780001F089F0A0319A00A840083137A1883177D
:101790000C0880002008FA001F089F0A0319A00AFD
:1017A000840083137A1883170E08800064008D0A62
:1017B0008D0803198F0AA20AB32B03130034831672
:1017C0004B08BE3C031D6B2C03178C1783121D089E
:1017D0008D001E088F000D080339A300A30803190C
:1017E000102CFC308D05A201230822020318102CB6
:1017F000640083160C14000000000C1555308D0099
:10180000AA308D008C14000000008C18052C0C11DF
:10181000640083128D0A8D0803198F0AA20AF42B23
:10182000A2010310210C22020318432C2008FA0005
:101830001F089F0A0319A00A840083137A188317CC
:1018400000088C002008FA001F089F0A0319A00A4C
:10185000840083137A18831700088E0064008316AF
:101860000C1555308D00AA308D008C14000000003E
:101870008C18382C0C11640083128D0A8D08031902
:101880008F0AA20A112C0D080339A300A30803191B
:10189000692C2308043CA300FF308C008E00A201B9
:1018A000230822020318692C640083160C15553096
:1018B0008D00AA308D008C14000000008C185E2C66
:1018C0000C11640083128D0A8D0803198F0AA20A75
:1018D000502C83160313831200348511831685114F
:1018E000831200348316851583120034831614186E
:1018F000772C831294137E089300941B7A2C802CEF
:10190000812C00001416AA1F8B2C7E08AA3C031DF4
:101910008B2C64008A2C5130FE00FD01FC01003448
:101920000E3003179E00F9309D00A001A4309F00E7
:101930000330A1000313AD23AD308316CB00831217
:1019400003179E019D0103139023BE308316CB0025
:10195000831203179E019D01A001A4309F00063051
:10196000A1000313DF23DE308316CB008312003483
:1019700003179B019C011C087D02031CC72CA4308B
:101980001C078400831300089B079C0ABB2C9B0840
:101990000319CD2C5530FE00662D8316031327083E
:1019A00083120319D72C013A0319252D622D8316B2
:1019B0002508831203179E0083160313260883123B
:1019C00003179D0003101E0C9A001D0C99001A08A5
:1019D0000B3C031C222D031DF12C19087F3C031C1A
:1019E000222D19081F399D009E019D08031D082DF9
:1019F0009E08031D082DAD3083160313CB00831200
:101A000003171A089E0019089D000313902303175B
:101A1000BE3083160313CB00831203171A089E00EF
:101A200019089D00A001A8309F0083160313240805
:101A300083120317A1000313DF23DE308316CB00CC
:101A400083120317AA30FE00662D03179A0199012D
:101A50009B011A080B3C031C512D031D332D190843
:101A60007F3C031C512D1A089E0019089D00A001FF
:101A7000A4309F000830A1000313AD2303179C017D
:101A80001C080F3C031C4C2DA4301C07840083133E
:101A900000089B079C0A402D0830990703189A0AF2
:101AA000292D9B08031D5A2DAA30FE000313AA17E7
:101AB0005F2D0317031390245530FE00AA1303175C
:101AC000662D03135230FE000317662DFD01FC0145
:101AD000031300349412303083169300363083128F
:101AE0009400831694131413FD01FC015130FE0081
:101AF000C60183120034141E7F2D141F8A2D8316F5
:101B0000C60A4608053C031D882D83126A258316E4
:101B10008C2D83128316C601831200348316140899
:101B20008312031797000313130803179800031376
:101B30008C118316C6018312141FA02D6A25DC2D7B
:101B4000031717082539013A03130319B42D203A56
:101B50000319B52D253A0319D62D203A0319D62D90
:101B6000043A0319D82DD92DDC2D7D081F3C031C08
:101B7000D12DA4307D07840083130317180880003B
:101B8000FD08031DC62D1808FC00CE2D04307C076F
:101B90007D02031DCE2D0313B8240317FD0AD42D97
:101BA00003135A30FE0003170313DC2D7624DC2DBB
:101BB000DC2D94126A25DC2D003483164718E82D9D
:101BC000B530831290006D308316C9008430C80090
:101BD00083120034723083168F0083128D131430F9
:101BE00003179700831603130F19022E831203178E
:101BF0009708031DFE2D83160313022E9703F22D63
:101C000083160313A530831290003C308316C9005D
:101C1000B030C80047148312003483164908831279
:101C20008F008316480883128E008316CA034A0861
:101C3000053C031D1F2E83126D24262E8316CA0811
:101C4000031D272E0A30CA008312722483168312C2
:101C5000861A332E8316440883129500950983163D
:101C6000C7103D2E83128316C71C3C2E45088312D5
:101C7000950095093E2E83163C2E83127B250C1071
:101C800000348B138316471083128D1B4D2E831641
:101C90000F08033903194F2E8312EA258316831286
:101CA000031785010F30F7000730031381018130DE
:101CB000840083130008F0390738800064000008AE
:101CC000F739F719F03977048000DE308316CB003E
:101CD00003309B00FB308500F33086008312051132
:101CE0007224DD258316490883128F008316480865
:101CF00083128E000A308316CA000030F8000638BE
:101D000083129200FA3083169200F930831203177F
:101D10008D0083168C130C1483120C088316031386
:101D2000C400FB30831203178D0083168C130C1430
:101D300083120C0883160313C500861183128611C3
:101D40000C309700171697168316440883129500D7
:101D500095098316C7108312861EB12E8316C714E9
:101D600083126A250034FF2EFF2EFF2EFF2EFF2E3A
:101D7000FF2EFF2EFF2EFF2EFF2EFF2EFF2EFF2EFB
:101D8000FF2EFF2EFF2EFF2EFF2EFF2EFF2EFF2EEB
:101D9000FF2EFF2EFF2EFF2EFF2EFF2EFF2EFF2EDB
:101DA000FF2EFF2EFF2EFF2EFF2EFF2EFF2EFF2ECB
:101DB000FF2EFF2EFF2EFF2EFF2EFF2EFF2EFF2EBB
:101DC000FF2EFF2EFF2EFF2EFF2EFF2EFF2EFF2EAB
:101DD000FF2EFF2EFF2EFF2EFF2EFF2EFF2EFF2E9B
:101DE000FF2EFF2EFF2EFF2EFF2EFF2EFF2EFF2E8B
:101DF000FF2E0A128A15802B0034FF2EFF2EFF2E95
:101E0000FF2EFF2EFF2EFF2EFF2EFF2EFF2EFF2E6A
:101E1000FF2EFF2EFF2EFF2EFF2EFF2EFF2EFF2E5A
:101E2000FF2EFF2EFF2EFF2EFF2EFF2EFF2EFF2E4A
:101E3000FF2EFF2EFF2EFF2EFF2EFF2EFF2EFF2E3A
:101E4000FF2EFF2EFF2EFF2EFF2EFF2EFF2EFF2E2A
:101E5000FF2EFF2EFF2EFF2EFF2EFF2EFF2EFF2E1A
:101E6000FF2EFF2EFF2EFF2EFF2EFF2EFF2EFF2E0A
:101E7000FF2EFF2EFF2EFF2EFF2EFF2EFF2EFF2EFA
:101E8000FF2EFF2EFF2EFF2EFF2EFF2EFF2EFF2EEA
:101E9000FF2EFF2EFF2EFF2EFF2EFF2EFF2EFF2EDA
:101EA000FF2EFF2EFF2EFF2EFF2EFF2EFF2EFF2ECA
:101EB000FF2EFF2EFF2EFF2EFF2EFF2EFF2EFF2EBA
:101EC000FF2EFF2EFF2EFF2EFF2EFF2EFF2EFF2EAA
:101ED000FF2EFF2EFF2EFF2EFF2EFF2EFF2EFF2E9A
:101EE000FF2EFF2EFF2EFF2EFF2EFF2EFF2EFF2E8A
:101EF000FF2EFF2EFF2EFF2EFF2EFF2EFF2EFF2E7A
:101F0000FF2EFF2EFF2EFF2EFF2EFF2EFF2EFF2E69
:101F1000FF2EFF2EFF2EFF2EFF2EFF2EFF2EFF2E59
:101F2000FF2EFF2EFF2EFF2EFF2EFF2EFF2EFF2E49
:101F3000FF2EFF2EFF2EFF2EFF2EFF2EFF2EFF2E39
:101F4000FF2EFF2EFF2EFF2EFF2EFF2EFF2EFF2E29
:101F5000FF2EFF2EFF2EFF2EFF2EFF2EFF2EFF2E19
:101F6000FF2EFF2EFF2EFF2EFF2EFF2EFF2EFF2E09
:101F7000FF2EFF2EFF2EFF2EFF2EFF2EFF2EFF2EF9
:101F8000FF2EFF2EFF2EFF2EFF2EFF2EFF2EFF2EE9
:101F9000FF2EFF2EFF2EFF2EFF2EFF2EFF2EFF2ED9
:101FA000FF2EFF2EFF2EFF2EFF2EFF2EFF2EFF2EC9
:101FB000FF2EFF2EFF2EFF2EFF2EFF2EFF2EFF2EB9
:101FC000FF2EFF2EFF2EFF2EFF2EFF2EFF2EFF2EA9
:101FD000FF2EFF2EFF2EFF2EFF2EFF2EFF2EFF2E99
:101FE000FF2EFF2EFF2EFF2EFF2EFF2EFF2EFF2E89
:101FF000FF2EFF2EFF2EFF2EFF2EFF2EFF2EFF2E79
:1016C00001000400020000008800130050004600E2
:1016D0000A00B800F60000000000F8000300520005
:1016E00057006F007300A100AD0000000000000073
:0E16F0000000000000000000000000000000EC
:020DFE00FF2EC6
:021DFE00FF2EB6
:0216FE000000EA
:04400E00672FFF3FDA
:084000000D0008000F000A008A
:1042000001000100000005000d0013000000d900ae
:104210000100040002000000880013005000460066
:104220000a00b800f60000000000f8000300520089
:1042300057006f007300a100ad00000000000000f7
:1042400000000000000000000000000000003c0032
:10425000010008001900200044005000c20048007e
:104260005000d70042006c006100640065005300fc
:1042700079007300740065006d00200063002d005c
:1042800043006c0061007300730020006600610051
:104290006e00c000ca00340031003300390039001c
:1042a00036002d00300030003100c80031003100f0
:1042b0002f00330030002f00300036000300d20002
:1042c00041003000c1000000000000000000c100fb
:1042d000010006001900c20048005000d70042004b
:1042e0006c00610064006500530079007300740085
:1042f00065006d00200063002d0043006c0061002c
:10430000730073002000660061006e00ca00340074
:10431000310032003100340030002d004200320004
:104320003100c000c00000000000c10000004e00cd
:10433000020082000d00d2009d000000b0000400c9
:1043400074000400ec00040000000000e20004001f
:10435000f400380000000000000000000000000031
:10436000000000000000000000000000000000004d
:10437000000000000000000000000000000000003d
:10438000000000000000000000000000000000002d
:10439000000000000000000000000000000000001d
:1043a000000000000000000000000000000000000d
:1043b00000000000000000000000000000000000fd
:1043c00000000000000000000000000000000000ed
:1043d00000000000000000000000000000000000dd
:1043e0000000000000000000000000002800230082
:1043f000000071000000d00000000000000000007c
:00000001FF
;PIC16F88
