:1000000000308A00392C0000FF00030E8301A1009C
:100010000A08A0008A0105308A000B2D09004F3024
:10002000840083130008031922280230F800F70126
:10003000F70B1828F80B17289730F700F70B1E2836
:10004000800B152800342414713083168F0083121E
:100050008D131430CF0083160F1937288312CF0861
:10006000031D342883163728CF032B2883168312C9
:1000700000348B138B1B39288501063086004630EF
:100080008700D33083168500E3308600193087005F
:10009000033003178800043089000313950196018B
:1000A00083122410703083168F0083128D13CE01BB
:1000B0004E08633C031C652883168F1967280A3095
:1000C0008312CF000F20CE0A5828232083164030F9
:1000D0008312CF000F208A110A12522C8316450872
:1000E000831203178D008316031346088312031728
:1000F0008F00031083160313C90CCA0149084A0272
:100100000318AF28640003178C170C1400000000BC
:1001100003134808FA004708C70A0319C80A8400ED
:1001200083137A188317831203170C088000831631
:1001300003134808FA004708C70A0319C80A8400CD
:1001400083137A188317831203170E0880008D0A11
:100150008D0803198F0A83160313CA0A7E28831297
:1001600000340530D700D601D80157081E3C031CC7
:10017000D528031DBF285608FE3C031CD528570868
:100180008316C600831256088316C500C80159306D
:10019000C7000230C90083126E205908D8075A08D8
:1001A000D807D60A0319D70AB528D808031DDC28B2
:1001B0000130F8000129012964005809DB00DB0A3D
:1001C000F43003178D0003135B0803178C008316AC
:1001D0008C130C15831203130B08F7008B13831673
:1001E000031755308D00AA308D008C148C18F6281A
:1001F0000C117708831203138B0464000030F8009D
:10020000012900342411C901CA013130CB00003466
:100210009412303083169300363083129400831684
:10022000910194178312CC010034D1014E08D00003
:10023000D00DD10DD00DD10DFC30D0054F08D0041C
:10024000D00DD10DD00DD10DFC30D00551080E3C94
:1002500003183529FF3A031D31295008A03C031823
:1002600035290F30D100A030D0005108033C031CC9
:100270004229031D3F295008E83C031C42298611EE
:1002800006129B295108023C03186029FF3A031DFE
:100290004D295008E83C031860295108073C031C0D
:1002A0006029031D57295008D03C031C602986157E
:1002B0000612E830D0020330031C0430D1029B291F
:1002C0005108063C03187E29FF3A031D6B2950088C
:1002D000D03C03187E2951080B3C031C7E29031DCA
:1002E00075295008B83C031C7E2986110616D030AB
:1002F000D0020730031C0830D1029B2951080A3C68
:1003000003189B29FF3A031D89295008B83C03189C
:100310009B2951080F3C031C9B29031D932950085E
:10032000A03C031C9B2986150616B830D0020B3062
:10033000031C0C30D1025108D3005008D2005308DE
:10034000A3005208A2001712221817169712A2181B
:100350009716230CFA00220CF900FA0CF90C3F3026
:10036000FA057908950000342508CE002608CF004C
:1003700015210034DA080319992A56080F39E000CC
:10038000E1010310600DF900610DFA007908DF004A
:100390005608F039DD005708DE00DF08031DD429B8
:1003A0005A081F3C031CE2295E088316C60083120C
:1003B0005D088316C500C801A030C7002030C90001
:1003C00083126E20DC01A030DB005F08DB0703181E
:1003D000DC0A5F081F3C031C0F2ADA0803190F2AE6
:1003E0005C08FA005B08DB0A0319DC0AE0007A0803
:1003F000E1005908FA005808D80A0319D90A8400FC
:1004000083137A1883170008E200600884008313BE
:100410006118831762088000DF0ADA03E9295608A9
:100420000F38E0005708E10001306007D600570898
:10043000D7000318D70A5D0803178D0003135E0861
:1004400003178F000313DC01A030DB00DF015F081E
:10045000073C031C592A5C08FA005B08DB0A0319F5
:10046000DC0A840083137A188317000803178C00B2
:1004700003135C08FA005B08DB0A0319DC0A84003A
:1004800083137A188317000803178E0083168C17BE
:100490000C1555308D00AA308D008C140000000022
:1004A0000C1183128D0A8D0803198F0A0313DF0ABA
:1004B000272A0830DD070318DE0A5D0803178D00C0
:1004C00003135E0803178F000313DF015F08073C67
:1004D000031C982A5C08FA005B08DB0A0319DC0A93
:1004E000840083137A188317000803178C00031302
:1004F0005C08FA005B08DB0A0319DC0A840083133A
:100500007A188317000803178E0083168C170C15B2
:1005100055308D00AA308D008C14000000000C11A5
:1005200083128D0A8D0803198F0A0313DF0A662AC6
:10053000BA29003407138716F93003178D00831684
:100540008C130C1483120C080313A500F830031746
:100550008D0083168C130C1483120C0803390313BB
:10056000A600FB3003178D0083168C130C14831226
:100570000C080313A700FA3003178D0083168C13A1
:100580000C1483120C0803390313A80064008101C2
:10059000FF30831681008312031785010630031391
:1005A00090008F018E0107309000F9308316920081
:1005B0004E3083129200D301D2015308A300520897
:1005C000A2001712221817169712A2189716230CBA
:1005D000FA00220CF900FA0CF90C3F30FA05790800
:1005E00095000E30970002210821B421831686144D
:1005F00003170915831203138C1C3B2BA10B392BFA
:10060000CD0B122B0713871624180F2B8D1B0E2BC7
:1006100083168F1D0D2B83120F2B831223200A307C
:10062000CD00182B4D08053C031D182B071387120E
:10063000141E1C2B141F222BCC0A4C08053C03193A
:100640000821232BCC01F701A418F716060877061A
:1006500020390319372BA410861AA414A41C362B96
:100660002708CE002808CF001521372BB4210530EC
:10067000A1008C10342C8C1D342C8316140883128A
:10068000CE001308CF008C11CC01141F4A2B082177
:10069000342C342C4E082539013A03195F2B203AAB
:1006A0000319602B253A0319002C013A0319002C79
:1006B000213A0319002C043A0319322C332C342C20
:1006C0004F08D0004A081F3C031CFD2B4A08CA0AE9
:1006D000293E84008313500880004A0B722B500877
:1006E000C900FC2B053049074A02031DFC2B4A08B0
:1006F000D1005108203C0318802B3A30CB00FC2B52
:10070000D401D5015108550203188E2B2930550705
:10071000840083130008D407D50A822BD408031958
:10072000942B3530CB00FC2B2C0803199B2B013A62
:100730000319E52BF92B03102A0CD3002B0CD20044
:100740005308043C0318E22B53081E3C031CE22B05
:100750000310290C5207D6005308D7000318D70AF4
:1007600001305602D8005708D9000030031C013070
:10077000D90259081E3C031CC82B5308D700520845
:10078000D600D9012D30D8002908DA00BA21E22B91
:100790005208003CD6001F30D7005308031C530FEB
:1007A000D7020310560DF900570DFA007908D5004D
:1007B0005308D7005208D600D9012D30D80055086B
:1007C000DA00BA21AA30CB00FC2BA908031DF52BB7
:1007D000AA08031DF52BAB08031DF52BB120780BE0
:1007E000F52BAA30CB002415F82B3530CB00241183
:1007F000FC2B3230CB00FC2BFF2B3A30CB00342CBF
:1008000083161418012C831294134B089300941B25
:10081000042C0A2C0B2C1416241D302C4B08AA3C3B
:10082000031D302CF53003178D00AA308C00831681
:100830008C130C15831203130B08F7008B1383160C
:10084000031755308D00AA308D008C148C18262C7F
:100850000C117708831203138B048A010028312CB2
:100860000221342C342C472B6400FC2A8A110A12F2
:10087000682C840183131F3083058316031709082E
:10088000C039890003131F129F120030031788001C
:10089000831287018801890105300313A1000A3002
:1008A000CD003928F53003178D0083168C130C14F6
:1008B00083120C08553C0319632C0313B120F8086C
:1008C000031D652C031703139A2A05308A00820141
:1008D0008A0100286300FF2EFF2EFF2EFF2EFF2E21
:1008E000FF2EFF2EFF2EFF2EFF2EFF2EFF2EFF2EA0
:1008F000FF2EFF2EFF2EFF2EFF2EFF2EFF2EFF2E90
:10090000FF2EFF2EFF2EFF2EFF2EFF2EFF2EFF2E7F
:10091000FF2EFF2EFF2EFF2EFF2EFF2EFF2EFF2E6F
:10092000FF2EFF2EFF2EFF2EFF2EFF2EFF2EFF2E5F
:10093000FF2EFF2EFF2EFF2EFF2EFF2EFF2EFF2E4F
:10094000FF2EFF2EFF2EFF2EFF2EFF2EFF2EFF2E3F
:10095000FF2EFF2EFF2EFF2EFF2EFF2EFF2EFF2E2F
:10096000FF2EFF2EFF2EFF2EFF2EFF2EFF2EFF2E1F
:10097000FF2EFF2EFF2EFF2EFF2EFF2EFF2EFF2E0F
:10098000FF2EFF2EFF2EFF2EFF2EFF2EFF2EFF2EFF
:10099000FF2EFF2EFF2EFF2EFF2EFF2EFF2EFF2EEF
:1009A000FF2EFF2EFF2EFF2EFF2EFF2EFF2EFF2EDF
:1009B000FF2EFF2EFF2EFF2EFF2EFF2EFF2EFF2ECF
:1009C000FF2EFF2EFF2EFF2EFF2EFF2EFF2EFF2EBF
:1009D000FF2EFF2EFF2EFF2EFF2EFF2EFF2EFF2EAF
:1009E000FF2EFF2EFF2EFF2EFF2EFF2EFF2EFF2E9F
:1009F000FF2EFF2EFF2EFF2EFF2EFF2EFF2EFF2E8F
:100A000000308A00402D00000A148A100A1582075F
:100A10000134053402340234B8340B3450344634D3
:100A20000A34553402340134003403340934383480
:100A30003B34423445344B344D344F3453345634C4
:100A400058346334673478347C3485348A3494344D
:100A50009A3400340034003400340034003452340A
:100A6000FC100034281A372D271A371628160034A0
:100A7000D32528193D2D2719371528150034FF2EA9
:100A8000840183131F308305831603170908C039B7
:100A9000890003131F129F1200300317880083126E
:100AA0008701880189010313D301CF12D4010530D6
:100AB000D500F201F301F401FD017C118316DE0182
:100AC0003C30E000E1000A168A15831200280A1261
:100AD0008A116300FF2EFF2EFF2EFF2EFF2EFF2E0A
:100AE000FF2EFF2EFF2EFF2EFF2EFF2EFF2EFF2E9E
:100AF0004F17713083168F0083128D131430031734
:100B00009000831603130F19912D83120317900879
:100B1000031D8D2D83160313912D9003812D8316B4
:100B200003138312281B962D271B37172817003411
:100B300064004F1EA72D03171508073C031CA22DA8
:100B40000313A72D15082F3C0318B22D0313031709
:100B500015088D0083168C130C1483120C08F800F2
:100B6000BA2DBA2D0830150203130425F800F80039
:100B70000317BA2D03130034103003179C00F7013C
:100B8000FA01990C980C031CCB2D1A08F7070318CF
:100B9000FA0A1B08FA07FA0CF70CF90CF80C9C0B74
:100BA000C12D031300349412303083169300363075
:100BB000831294008316910194171114DB01DA015A
:100BC000DC018312003483166F108312061CEB2D98
:100BD00083166F148312F7017C19771483166F083C
:100BE000770601390319052E7C116F187C156F1CCF
:100BF000FD2D8312A812032E83168312A81A032E2A
:100C0000A71AB716A816501483160317091D1F2E0E
:100C10008312071F152E00300313281A0130F80025
:100C2000F808031932251D2E031700300313281A64
:100C30000130F800780B1D2E2812831603170313BA
:100C400083128A150A16C9286400031716088D0036
:100C500017088C0083168C130C15831203130B08D2
:100C6000F7008B138316031755308D00AA308D00C3
:100C70008C148C18392E0C117708831203138B04F3
:100C800064000034D010B7080319482E0611492E0D
:100C900006150034031716081402031C642E031DE6
:100CA000552E130815020318642E15081302F700B9
:100CB0001408FA001608031C160FFA027708F80049
:100CC0007A08F900722E722E13081502F700160822
:100CD000FA001408031C140FFA027708F8007A08C7
:100CE000F900722E031300347608F80000347C18E3
:100CF0007E2E28187D2E2718371428140034203013
:100D00000317A800A401A501A601A7011F08FA0066
:100D10001E08F9001D08F8001C08F7000310771CD6
:100D20009F2E2008A40721080318210FA5072208D9
:100D30000318220FA60723080318230FA707A70CE1
:100D4000A60CA50CA40CFA0CF90CF80CF70CA80BCB
:100D50008E2E0313003403179F019E011F080313F7
:100D6000D70003171E080313D600171256181716BC
:100D70009712D6189716570CFA00560CF900FA0C71
:100D8000F90C3F30FA0579089500B501B601003439
:100D9000FF2EFF2EFF2EFF2EFF2EFF2EFF2EFF2EEB
:100DA000FF2EFF2EFF2EFF2EFF2EFF2EFF2EFF2EDB
:100DB000FF2EFF2EFF2EFF2EFF2EFF2EFF2EFF2ECB
:100DC000FF2EFF2EFF2EFF2EFF2EFF2EFF2EFF2EBB
:100DD000FF2EFF2EFF2EFF2EFF2EFF2EFF2EFF2EAB
:100DE000FF2EFF2EFF2EFF2EFF2EFF2EFF2EFF2E9B
:100DF000FF2EFF2EFF2EFF2EFF2EFF2EFF2EFF2E8B
:100E000003171D080E3C0318102FFF3A031D0C2F6B
:100E10001C08A03C0318102F0F309D00A0309C0030
:100E20001D08033C031C1F2F031D1A2F1C08E83C40
:100E3000031C1F2F0313861106127F2F03171D0893
:100E4000023C03183F2FFF3A031D2A2F1C08E83CE1
:100E500003183F2F1D08073C031C3F2F031D342F91
:100E60001C08D03C031C3F2F031386150612E830E4
:100E700003179C020330031C04309D027E2F1D08C3
:100E8000063C03185F2FFF3A031D4A2F1C08D03C75
:100E900003185F2F1D080B3C031C5F2F031D542FED
:100EA0001C08B83C031C5F2F031386110616D030B4
:100EB00003179C020730031C08309D027E2F1D087B
:100EC0000A3C03187E2FFF3A031D6A2F1C08B83C0A
:100ED00003187E2F1D080F3C031C7E2F031D742F4B
:100EE0001C08A03C031C7E2F031386150616B83081
:100EF00003179C020B30031C0C309D020313C70127
:100F00008619C70AC801061AC80AFC1C942F0317C1
:100F10001D0883160313D300831203171C088316BE
:100F20000313D200A62F831203171C0803390313DF
:100F3000B60003171D0C9F001C0C9E009F0C9E0CFE
:100F40003F309F051E080313B50083160530F500DA
:100F5000831203171D089F001C089E001F0803131F
:100F6000D70003171E080313D600171256181716BA
:100F70009712D6189716570CFA00560CF900FA0C6F
:100F8000F90C3F30FA05790895000034FF2EFF2E4A
:100F9000FF2EFF2EFF2EFF2EFF2EFF2EFF2EFF2EE9
:100FA000FF2EFF2EFF2EFF2EFF2EFF2EFF2EFF2ED9
:100FB000FF2EFF2EFF2EFF2EFF2EFF2EFF2EFF2EC9
:100FC000FF2EFF2EFF2EFF2EFF2EFF2EFF2EFF2EB9
:100FD000FF2EFF2EFF2EFF2EFF2EFF2EFF2EFF2EA9
:100FE000FF2EFF2EFF2EFF2EFF2EFF2EFF2EFF2E99
:100FF000FF2EFF2EFF2EFF2EFF2EFF2EFF2EFF2E89
:101000008316EF018312031790010313CF114F10C2
:10101000CF104F11203084008313031791012B3020
:10102000920012080319192811088000840A920BF3
:10103000142803134F1203179201910112082F3C39
:10104000031C2C2812088D0083168C130C14831299
:101050000C089107920A1E289108031932280313DD
:101060004F1603170C3095008A11031398258A1523
:101070007808CB000D30031795008A1103139825CB
:101080008A157808CC000E30031795008A110313D7
:1010900098258A157808CD000F30031795008A111E
:1010A000031398258A157808CE00F93003178D00B0
:1010B00083168C130C1483120C080313A000F83051
:1010C00003178D0083168C130C1483120C0803393C
:1010D0000313A100FB3003178D0083168C130C142F
:1010E00083120C080313A200FA3003178D00831635
:1010F0008C130C1483120C0803390313A300103053
:10110000031795008A11031398258A157808A600FD
:10111000FF30A7000230A800AD00AE000430AF00E1
:1011200030142008B3002108B4000230B700F630B4
:1011300003178D0083168C130C1483120C080313F1
:10114000B800F73003178D0083168C130C1483122C
:101150000C080313B9003908031792000313380869
:101160000317910003134E08FA004D08F8007A089F
:1011700003171202031CC828031DC2281108780295
:101180000318C82803134E08B9004D08B800031708
:10119000031339080317920003133808031791004B
:1011A00003134C08FA004B08F800031712087A02E0
:1011B000031CE628031DE028780811020318E6281E
:1011C00003134C08B9004B08B80003170313380881
:1011D000BA003908BB004F1AB017FF3003178D0053
:1011E00083168C130C1483120C080313BC00FE30FE
:1011F00003178D0083168C130C1483120C08031331
:10120000BD00FD3003178D0083168C130C14831260
:101210000C080313BE00FC3003178D0083168C13DB
:101220000C1483120C080313BF001730031790002F
:10123000163095008A11031398258A157808D20074
:101240005208D2075208183C031828291830D20037
:101250008316EF018312520883166F0203189F2929
:1012600003106F0DA03E8312031791009201031823
:10127000920A1008900A930095008A11031398258A
:101280008A1578080317940096011408950016082B
:101290009900150898009B0164309A008A11031385
:1012A000BC258A157808031796007908970011085D
:1012B0008400831312188317840A1708800084039C
:1012C000160880000130831603136F07F700031020
:1012D000F70D7708A03E83120317920093010318BD
:1012E000930A1008900A940095008A110313982518
:1012F0008A157808031795009701150896001708B6
:101300009900160898009B0164309A008A11031313
:10131000BC258A15780803179700790898001208E9
:101320008400831313188317840A18088000840329
:1013300017088000023083160313EF072A2983124F
:101340008A150A16572803171408D73E03181C2BB2
:10135000293E0313202B031715080313A0004F1475
:10136000501403171C2B0317150803390313A1008E
:101370004F14501403171C2BB21CCF290317150848
:101380000313A200FB300317960003132208031770
:1013900097008A11031324268A154F15501403173A
:1013A0001C2BB21CE5290317150803390313A300EE
:1013B000FA300317960003132308031797008A11C6
:1013C000031324268A154F15501403171C2B0317DB
:1013D00015080313A60003171C2B03171508031386
:1013E000A7002708B7058A1142268A1503171C2B68
:1013F000031715080639FF3A0313A8050317150844
:101400000639FF3A0313B7058A1142268A150317D6
:101410001C2B0317150803390313A90003171C2BF2
:10142000CF1D292A2C08FF3A03171502031D272A6E
:1014300003138B13F53003179600553097008A116C
:10144000031324268A158A010028292A0317031367
:10145000CF1103171C2B3008031715060339031986
:101460003E2A151C372A0313CF14392A03170313F6
:101470004F145014B0113011A81303170313300880
:10148000FC39031796001508033916040313B0003E
:1014900003171C2B03171508013903133106031911
:1014A000742A0317150801390313B100B108031991
:1014B000662A8316031709118312031386108316F5
:1014C00086108A11831232258A15742A831686148F
:1014D000031709150630F700F70B6C2A000083127A
:1014E000071B752A0313281203171C2B0317150853
:1014F00007390313B20003171C2BB21C8E2A0317E3
:1015000015080313B300F9300317960003133308CB
:10151000031797008A11031324268A1503171C2B1F
:10152000B21CA22A0317150803390313B400F830BC
:101530000317960003133408031797008A11031347
:1015400024268A1503171C2B03171508FF3A0313CB
:10155000B70503171C2B031715080313D400031733
:101560001C2B5408B800031715080313B900D40145
:10157000CF14501403171C2BB21CCD2A03171508C7
:101580000313BA00F6300317960003133A08031743
:1015900097008A11031324268A1503171C2BB21CEB
:1015A000E02A031715080313BB00F7300317960052
:1015B00003133B08031797008A11031324268A1587
:1015C00003171C2B031715080313C40003179508F2
:1015D0000319EE2A0313B001F12A03170130031394
:1015E000B0004F14501403171C2B031715080313D6
:1015F000C5004F14501403171C2B031715080313B1
:10160000C6004F14501403171C2B0317150803139F
:10161000C700C70803190E2B86150F2B8611031759
:101620001C2B031715080313C800C80803191A2B2D
:1016300006161B2B0612031703138A150A12152C04
:101640000A148A140A118207AB29B329BC29D129AB
:101650001B2B1B2BE729ED29F829092A1B2B1B2BF8
:10166000102A1B2B1B2B1B2B2B2A4A2A762A7D2A5E
:10167000902A1B2B1B2BA42AAB2AB12ABC2ACF2AC7
:101680001B2B1B2B1B2B1B2B1B2B1B2B1B2B1B2B2A
:10169000E22AF52AFD2A052B112B8C11831614083A
:1016A000EF008312140EF7000F30F70577080139A9
:1016B0000317910003131308031790000313141F5B
:1016C000662B8A1138258A159F2C9F2C83166F084C
:1016D0002539013A831203197D2B203A0319822BF5
:1016E000253A03191C2C013A03191C2C213A031921
:1016F0001C2C043A03199A2C9B2C8316DC018312B0
:1017000014169F2C8316DC08031D8F2B83120317DE
:10171000100883160313DE000130DC00192C5C0B6B
:101720009C2B5E08DB00831203171008831603133B
:10173000DA000230DC00192C831203171008920023
:10174000831603135A088312031793008316031397
:101750005B0883120319B02B013A03190E2C152CC8
:10176000031713089400120895001408DF3C031CAB
:101770000C2C0313321CD72B031714088D001508EB
:101780008C0083168C130C15831203130B08F700BF
:101790008B138316031755308D00AA308D008C14DF
:1017A0008C18D02B0C117708831203138B04321D75
:1017B0000B2C03171408333A03130319EF2B073AC2
:1017C0000319EF2B013A0319EF2B513A0319EF2BB1
:1017D000013A0319EF2B023A0319EF2B0B2C0317D5
:1017E00014088D0015088C0083168C130C158312B9
:1017F00003130B08F7008B138316031755308D0066
:10180000AA308D008C148C18032C0C1177088312CD
:1018100003138B040B2C03170313152C0317130846
:101820009400120895000313A3298316DA0A0319FA
:10183000DB0A831214169F2C03179108031D982CA2
:10184000831603135A088312031793008316031396
:101850005B0883120319302C013A03193B2C802CAE
:101860000317130895008A11031398258A15780821
:1018700003179200832C0317130894009501140892
:10188000283C031C772C14080C3C031D4F2C03131D
:10189000CF150E08AC002C0803179500742C140803
:1018A000043C031D5B2C03132508D300CF1624082A
:1018B00003179500742C1408053C031D6E2C0313AC
:1018C000CF1E682C5308031795000313CF126C2CFE
:1018D0002508031795000313752C031720301407F0
:1018E00084008313000895000313792C03179501D6
:1018F000031303171508F80078089200832C0313CC
:1019000003179201832C831603131418852C83125A
:1019100094130317120803139300941B882C902C24
:10192000912C14168316DA0A0319DB0A83120317A3
:1019300003139F2C9F2C8A1138258A159F2C8A15FA
:101940000A16832903171F0823068039A9009F1F41
:10195000B42C9C099D099E099F099C0A03199D0AA4
:1019600003199E0A03199F0AA31FC12CA009A109EC
:10197000A209A309A00A0319A10A0319A20A0319BB
:10198000A30AF701F801F901FA01A401A501A601D2
:10199000A70123082204210420040319FF2C20306E
:1019A000A80003109C0D9D0D9E0D9F0DA40DA50D6F
:1019B000A60DA70D23082702031DE82C22082602E6
:1019C000031DE82C21082502031DE82C2008240211
:1019D000031CF92C2008A4022108031C210FA502D6
:1019E0002208031C220FA6022308031C230FA702B0
:1019F0000314F70DF80DF90DFA0DA80BD12CA91F42
:101A00000C2DF709F809F909FA09F70A0319F80A78
:101A10000319F90A0319FA0A2430840083170313FF
:101A20000034FC1C262D83165008F7005108F800DE
:101A3000F901FA017A08831203179B0079089A00CA
:101A40007808990077089800352D03133908F800B5
:101A50003808F700F901FA017A0803179B007908A2
:101A60009A0078089900770898009B1B472D9B08DF
:101A7000031D4D2D9A08031D4D2D1908073C031C0D
:101A80004D2D031D472D1808CF3C031C4D2D9B01E8
:101A90009A0107309900D03098009B1B662D9B0857
:101AA000031D602D9A08031D602D1908543C03186E
:101AB000662DFF3A031D602D1808F03C0318662DB3
:101AC0009B019A0155309900F0309800D03098026F
:101AD0000730031C083099020030031C01309A02C1
:101AE0000030031C01309B021B089F001A089E0057
:101AF00019089D0018089C00A301A2010430A10050
:101B0000A0018A1103137F268A157A0803179B0008
:101B100079089A0078089900770898001B089F00B8
:101B20001A089E0019089D0018089C00A301A20134
:101B30000130A100F430A0000313A2247A08031797
:101B40009B0079089A0078089900770898001B088C
:101B50009F001A089E0019089D0018089C00A30108
:101B6000A201A1016430A0008A1103137F268A1507
:101B70007A0803179B0079089A007808990077087B
:101B800098001B089F001A089E0019089D0018085D
:101B90009C00A301A2010430A100A0010313A22410
:101BA0007A0803179B0079089A007808990077084B
:101BB000980019089D0018089C008A11031300273B
:101BC0008A1500347508F800F808031DD12EED08B9
:101BD000031DED2D6C08013C031CD12EFC1CFD2DBA
:101BE00083165108831203179500831603135008B8
:101BF000831203179400042E03133908031795006A
:101C0000031338080317940070081402F70015082E
:101C1000FA007108031C710FFA02770890007A0825
:101C20009100911B1A2E9108031D262E10080A3CC4
:101C3000031C262E911F9A2E1108FF3C031C9A2E7E
:101C4000031D262E1008F53C031C9A2E1108970040
:101C50001008960099010530980017081906803978
:101C60009B00971F382E96099709960A0319970A21
:101C7000991F3F2E98099909980A0319990AF801A2
:101C8000F901F701FA011908031D492E1808031973
:101C9000632E10309A000310960D970DF70DFA0D74
:101CA00019087A02031D562E18087702031C5F2EAE
:101CB0001808F702031CFA031908FA020314F80DB6
:101CC000F90D9A0B4B2E9B1F6A2EF809F909F80A99
:101CD0000319F90A7908910078089000FC1C7D2E00
:101CE00083160313530883120317930083160313F9
:101CF0005208831203179200932E9701031335089D
:101D000003179600160D9800170D9900980D990D60
:101D1000FC309805180803133604F70003177708FA
:101D20009200190893001008920711080318110F68
:101D300093079D2E0313D12E03170313061AA22E09
:101D4000861DC82E061AAF2E861DAF2EE83003174B
:101D500092070330031804309307C72E0313061E9F
:101D6000BC2E8619BC2ED0300317920707300318FB
:101D700008309307C72E0313061EC82E861DC82ED3
:101D8000B830031792070B3003180C309307031376
:101D9000031713089D0012089C008A1103130027E3
:101DA0008A150034FF2EFF2EFF2EFF2EFF2EFF2E52
:101DB000FF2EFF2EFF2EFF2EFF2EFF2EFF2EFF2EBB
:101DC000FF2EFF2EFF2EFF2EFF2EFF2EFF2EFF2EAB
:101DD000FF2EFF2EFF2EFF2EFF2EFF2EFF2EFF2E9B
:101DE000FF2EFF2EFF2EFF2EFF2EFF2EFF2EFF2E8B
:101DF000FF2EFF2EFF2EFF2EFF2EFF2EFF2EFF2E7B
:101E0000F701F801F901FA010317980199019A0104
:101E10009B01170816041504140403193F2F2030E2
:101E20009C000310900D910D920D930D980D990D3E
:101E30009A0D9B0D17081B02031D282F16081A0266
:101E4000031D282F15081902031D282F1408180236
:101E5000031C392F140898021508031C150F99024A
:101E60001608031C160F9A021708031C170F9B0273
:101E70000314F70DF80DF90DFA0D9C0B112F183006
:101E80008400831703130034FF2EFF2EFF2EFF2E36
:101E9000FF2EFF2EFF2EFF2EFF2EFF2EFF2EFF2EDA
:101EA000FF2EFF2EFF2EFF2EFF2EFF2EFF2EFF2ECA
:101EB000FF2EFF2EFF2EFF2EFF2EFF2EFF2EFF2EBA
:101EC000FF2EFF2EFF2EFF2EFF2EFF2EFF2EFF2EAA
:101ED000FF2EFF2EFF2EFF2EFF2EFF2EFF2EFF2E9A
:101EE000FF2EFF2EFF2EFF2EFF2EFF2EFF2EFF2E8A
:101EF000FF2EFF2EFF2EFF2EFF2EFF2EFF2EFF2E7A
:101F0000FF2EFF2EFF2EFF2EFF2EFF2EFF2EFF2E69
:101F1000FF2EFF2EFF2EFF2EFF2EFF2EFF2EFF2E59
:101F2000FF2EFF2EFF2EFF2EFF2EFF2EFF2EFF2E49
:101F3000FF2EFF2EFF2EFF2EFF2EFF2EFF2EFF2E39
:101F4000FF2EFF2EFF2EFF2EFF2EFF2EFF2EFF2E29
:101F5000FF2EFF2EFF2EFF2EFF2EFF2EFF2EFF2E19
:101F6000FF2EFF2EFF2EFF2EFF2EFF2EFF2EFF2E09
:101F7000FF2EFF2EFF2EFF2EFF2EFF2EFF2EFF2EF9
:101F8000FF2EFF2EFF2EFF2EFF2EFF2EFF2EFF2EE9
:101F9000FF2EFF2EFF2EFF2EFF2EFF2EFF2EFF2ED9
:101FA000FF2EFF2EFF2EFF2EFF2EFF2EFF2EFF2EC9
:101FB000FF2EFF2EFF2EFF2EFF2EFF2EFF2EFF2EB9
:101FC000FF2EFF2EFF2EFF2EFF2EFF2EFF2EFF2EA9
:101FD000FF2EFF2EFF2EFF2EFF2EFF2EFF2EFF2E99
:101FE000FF2EFF2EFF2EFF2EFF2EFF2EFF2EFF2E89
:101FF000FF2EFF2EFF2EFF2EFF2EFF2EFF2EFF2E79
:10200000501C252B501083165508831203191228D3
:10201000013A03198B28033A03196B2A013A031971
:10202000E92A202B83165608143A831203191C2818
:10203000013A03193C28872803179F019E011F08B6
:102040000313D70003171E080313D60017125618E0
:1020500017169712D6189716570CFA00560CF90057
:10206000FA0CF90C3F30FA057908950032308316E6
:10207000D4001530D6008A28003006180130F80048
:10208000780B432855287C10F60803194D28F508CD
:10209000031D4D280A1277260A1603308316D50031
:1020A0004130D9008312501484280A1274260A166B
:1020B000F808031D6E287C10F60803196528F5083A
:1020C000031D65280A1277260A168316D4010130EB
:1020D000D5002030D7008312501484288316D408EA
:1020E000031D85287C10F60803197E28F508031DBA
:1020F0007E280A12831277260A1683160230D5002C
:102100003130D8008312501483168A28831287280E
:1021100083168A28232B003006180130F800780B2C
:1021200092289A2803308316D5004130D9008312B3
:102130005014692A0A1274260A16F8080319A828E6
:1021400002308316D5003130D80083125014692A2A
:1021500083165708203A83120319B828013A031945
:10216000C528033A03193229013A0319F529672AC8
:10217000861AF029301CBE282D29BF28C028692ABC
:102180004F1421308316D7008312861AF029301895
:102190002D294F1C29294F102008B5002108B60011
:1021A000C4080319052946088316EF008312450861
:1021B000031790009201831603136F08831203170D
:1021C0009100910D920D910D920D910D920D910D29
:1021D000920DF03091051008910412080E3C03187E
:1021E000FC28FF3A031DF8281108A03C0318FC281E
:1021F0000F309200A030910012089D0011089C0041
:102200000A12031300270A16292935088316EF003E
:1022100083123608031790009201831603136F0888
:10222000831203179100910D920D910D920DFC30C8
:10223000910510089104910D920D910D920DFC30B5
:10224000910512089D0011089C000A120313002733
:102250000A16CF1F2C29CF13692ACF1422308316D8
:10226000D70083120A1230250A16861AF029301C6C
:10227000C028CF1CE729CF10A813B011301139089E
:1022800003179500031338080317940003134C0831
:10229000FA004B08F800031715087A02031C5D29A1
:1022A000031D56297808140203185D2903134B08EF
:1022B000B8004C08B9007A2903170313390803172B
:1022C0009500031338080317940003134E08FA000F
:1022D0004D08F8007A0803171502031C7B29031D1B
:1022E00075291408780203187B2903134D08B800D8
:1022F0004E08B90003170313B018E0298316EF0145
:102300008312520883166F020318DF2903106F0D22
:10231000A03E84008313840A0008FA0084030008A6
:102320008312031790007A0891000130831603137B
:102330006F07F7000310F70D7708A03E84008313A2
:10234000840A0008FA00840300088312031792002D
:102350007A0893000313390803179500031338080C
:102360000317940011081502031CDA29031DBC2968
:10237000140810020318DA29031339080317970009
:10238000031338080317960017081302031CDA29F1
:10239000031DCE29120816020318DA2912080313A6
:1023A000B800031713080313B90030158316DF298B
:1023B00083120317023083160313EF078029831259
:1023C0000A128A1511250A168A113C30FE00CF1F09
:1023D000EF29CF130A128A15E2250A168A11692AF3
:1023E0004F1523308316D7008312861A032A0A1248
:1023F00030250A16301C022A3A08B8003B08B900FA
:102400002D29032AC0284F1D5E2A4F11031793015F
:10241000920191010313220803179000900D910D72
:10242000920D930D900D910D920D930DFC30900532
:10243000031323080317900413089F0012089E003B
:1024400011089D0010089C00A301A201A1011130F8
:10245000A0000A1203137F260A167A0803179300B6
:102460007908920078089100770890003230900740
:102470000530031806309107003003180130920729
:1024800000300318013093071108950010089400DC
:102490001508970014089600170883160313D10037
:1024A00083120317160883160313D000FC140A12B4
:1024B0008A15831211250A168A11CF13CF1F662A97
:1024C000CF130A128A15E2250A168A11692A672A89
:1024D000692A8316232B003006180130F800780B88
:1024E000722A7A2A03308316D5004130D90083122C
:1024F0005014E72A83165808313A83120319872AA1
:10250000033A0319A12A013A0319C72AE32A6430BE
:102510008316D4000A12831274260A167808013A28
:102520000319962A013A03199D2A9D2A0A12AB26FD
:102530000A1632308316D800A02A9D2A8316A02AB4
:10254000E62A8316D408031DC62A831203179F01A7
:102550009E011F080313D70003171E080313D6009C
:102560001712561817169712D6189716570CFA0006
:10257000560CF900FA0CF90C3F30FA057908950071
:1025800032308316D4003330D800E62A83120A1280
:1025900074260A16F808031DDA2A0A1230250A16CC
:1025A00030308316D8000130D5002030D700831298
:1025B0005014E02A8316D408031DE12A8312872AC7
:1025C0008316E62A8312E32A8316E62A83128316E9
:1025D000232B83165908413A83120319F92A033A27
:1025E0000319032B013A03190A2B033A03191B2B76
:1025F0001B2B0A12AB260A16831607151430D400BB
:102600004230D9001E2B8316D408031D1E2B4330E5
:10261000D9008312003006180130F800780B192B0E
:10262000831607114030D900D5011430D60083122B
:10263000501483161E2B1B2B83161E2B232B831249
:10264000202B8316232B831200288A110A16912D22
:10265000D11D432BD111141F3F2B8316DD0A5D08BA
:10266000053C031D3D2B0A128312D3250A16281997
:102670003B2B2719371528158316412B83128316F8
:10268000DD01792B8312511E712B511283166F10AD
:102690008312861E4E2B83166F148312003083160E
:1026A0006F18013083120317900000300313A8192C
:1026B0000130F80078080317100203196F2B8316F6
:1026C00003136F1C6B2B8312A819692BA719B7155D
:1026D000A8156D2B83168312A81150140317772B9E
:1026E0000313D01C762B0A1242260A1603178316F0
:1026F00003138312D11E8B2BD1124F1B8A2B8D1BE0
:10270000872B83168F1D862B83128A2B83120A1226
:1027100078250A16912DD01D042CD01174080317AA
:1027200094007308930003136F08031796000313B4
:102730006E08031795000A1203134A260A16790831
:10274000ED007808EC006F08F4006E08F3006F08E5
:102750000317990003136E08031798009B010A30B2
:102760009A000A120313BC250A167908F1007808AA
:10277000F0007208F20AF7000310F70D7708583ED0
:1027800084008313840A6F08800084036E0880002D
:1027900072080A3C0319F2018316EF018312031732
:1027A00091019001831603136F08093C031CED2B64
:1027B00003106F0D583E84008313840A0008FA004A
:1027C000840300088312031790077A0803187A0F0E
:1027D000910783160313EF0AD42B0A12831274266F
:1027E0000A16F808031DFD2B031711080313A50093
:1027F000031710080313A400FF2BA501A401CF1792
:10280000501450155114912D501D262C5011F601C5
:10281000F108031D112C260870020318112C013039
:10282000F600F508031D242C76087D0203191B2CE5
:102830007608FD005014FD080319222C0A12772691
:102840000A16232C2810252CF503912D511C682CD9
:102850005110301C642C0030A8190130F800F80821
:10286000031D642C3908031791000313380803175C
:1028700090001108940010089300710896007008E9
:1028800095000A1203134A260A16790803179200C4
:10289000780891009208031D572C1108313C031C45
:1028A000572C0313B015A813FE01592C031703135B
:1028B000B011FE080319632CFE0B632CA81B632CBC
:1028C000A71BB717A817672CB011A813FE01912DED
:1028D00050180028D11C7C2CD11081309F0028304A
:1028E0008316E600E501E401E301E201772C782C90
:1028F000792C83129F14912D501E4C2D501283164B
:102900006E08831203179F00831603136D0883124A
:1029100003179E00831603136C08831203179D0090
:10292000831603136B08831203179C00A301A201F3
:10293000A1013230A0000A1203137F260A167A087A
:102940008316EE007908ED007808EC007708EB00BC
:102950006E08831203179300831603136D08831206
:1029600003179200831603136C0883120317910058
:10297000831603136B0883120317900097019601C7
:1029800027309500103094000A128A15031300278F
:102990000A168A117A088316EE007908ED00780885
:1029A000EC007708EB006E08831203179F00831674
:1029B00003136D08831203179E00831603136C081C
:1029C000831203179D00831603136B0883120317EA
:1029D0009C00A301A201A1016430A0000A1203130C
:1029E0007F260A167A088316EE007908ED0078082B
:1029F000EC007708EB00EE08031D102DED08031D19
:102A0000102D6C08023C031C102D031D0B2D6B08B0
:102A1000763C031C102DEE01ED01EC01EB01482D7D
:102A20007730EB020230031C0330EC020030031C51
:102A30000130ED020030031C0130EE026E088312FB
:102A400003179300831603136D0883120317920074
:102A5000831603136C088312031791008316031364
:102A60006B0883120317900097019601950164305B
:102A700094000A128A15031300270A168A117A088D
:102A80008316EE007908ED007808EC007708EB007B
:102A90006B088312AA00912D511D5E2D51118530B6
:102AA0009F0025308316E600E501E401E301E20121
:102AB000592D5A2D5B2D83129F14912DD01E662DFA
:102AC000D012831668088312AB00912D501F7C2D05
:102AD000501328186F2DA81A6F2DA91C722D0713DB
:102AE00087167B2DA819762D291C792D071387129F
:102AF0007B2D07178712912DD01F912DD0132818E9
:102B0000852DA81A852DA91C882D07138716912DB0
:102B1000A8198C2D291C8F2D07138716912D0717A7
:102B200087128A150A168329FF2EFF2EFF2EFF2EED
:102B3000FF2EFF2EFF2EFF2EFF2EFF2EFF2EFF2E2D
:102B4000FF2EFF2EFF2EFF2EFF2EFF2EFF2EFF2E1D
:102B5000FF2EFF2EFF2EFF2EFF2EFF2EFF2EFF2E0D
:102B6000FF2EFF2EFF2EFF2EFF2EFF2EFF2EFF2EFD
:103000004F13703083168F0083128D138316EF01D8
:103010006F08633C031C29288F1930280A3083125B
:103020000317900010308400831700080319252827
:103030000230F800F701F70B1B28F80B1A2897301D
:10304000F700F70B2128800B182883160313EF0ACB
:1030500008280A128A11831278250A168A158316FF
:10306000831285010630860046308700D3308316F0
:103070008500E3308600193087000330031788008D
:10308000043089000313950196018312D101D00108
:103090000A308316DF0087308312031787008916F2
:1030A000A8308316031397000A12831200280A1609
:1030B000803083169F00813083129F00640081015D
:1030C000FF30831681008312031785010630031336
:1030D00090008F018E0107309000F9308316920026
:1030E0004E308312920003179F019E011F080313A5
:1030F000D70003171E080313D60017125618171609
:103100009712D6189716570CFA00560CF900FA0CBD
:10311000F90C3F30FA05790895000E3097008316B8
:10312000D5011430D6002030D7003030D8004030E0
:10313000D900D4010A128A11831230250A168A1581
:103140005014CF138316EF016F08093C031CB328FA
:1031500003106F0D583E84008313840A800184039A
:103160008001EF0AA4288312ED01EC01EF01EE01CA
:10317000F101F0010A128A11D3250A168A150530C9
:10318000F5007C10F601FE01061164000A128A1196
:10319000E32D0A168A158C1C4029D50B3E2983166F
:1031A000DF0B2829831210100F08EF000E08EE0025
:1031B0008F018E011014D015D0175115D1160A3079
:1031C0008316DF00E00B27293C30E000E10B2729C4
:1031D0003C30E1008312BC0FF228BD0FF228BE0F75
:1031E000F228BF0AFF300317960003133C080317A9
:1031F00097000A128A11031324260A168A15FE3034
:103200000317960003133D08031797000A128A114B
:10321000031324260A168A15FD300317960003139C
:103220003E08031797000A128A11031324260A1670
:103230008A15FC300317960003133F080317970005
:103240000A128A11031324260A168A1583163029B6
:103250005F08053C031D302983125017D1148316D3
:10326000D40803193829D40B382983125014831633
:103270008312D115D01451160530D5008C10832936
:103280000C1F77290C131E08FA0083161E08E2078C
:103290007A0803187A0FE307003003180130E407B7
:1032A000003003180130E507E60B742983121F086C
:1032B000813C031D672983166508EE006408ED0054
:1032C0006308EC006208EB00831250167229831623
:1032D0006508EA006408E9006308E8006208E7009E
:1032E0008312D0167629831683129F1483298C1D8E
:1032F0007C290A124D2B0A16500851040319832900
:103300008A11282B8A15C5288A110A12672DFF2ECB
:10331000FF2EFF2EFF2EFF2EFF2EFF2EFF2EFF2E45
:10332000FF2EFF2EFF2EFF2EFF2EFF2EFF2EFF2E35
:10333000FF2EFF2EFF2EFF2EFF2EFF2EFF2EFF2E25
:10334000FF2EFF2EFF2EFF2EFF2EFF2EFF2EFF2E15
:020DFE00FF2EC6
:021DFE00FF2EB6
:022DFE00FF2EA6
:023DFE00FF2E96
:023DFC00930032
:1042000001000100000006000D0013000000D800AE
:104210000100050002000200B8000B00500046003B
:104220000A005500020001000000030009003800E8
:104230003B00420045004B004D004F00530056002C
:1042400058006300670078007C0085008A009400B5
:104250009A00000000000000000000000000520072
:10426000010007001900200044005000C20048006F
:104270005000D300410063007400690076006500BF
:10428000200043006F006F006C00200032003000FF
:1042900030002000460061006E00C000CA003400FB
:1042A000310033003900390036002D003000300075
:1042B0003100C800300039002F00320030002F00DC
:1042C000310031000300D20041003000C1002C0059
:1042D000010006001900C20048005000D300410050
:1042E00063007400690076006500200043006F00E1
:1042F0006F006C00200032003000300020004600CB
:1043000061006E00CA003500390038003600300008
:1043100036002D00420032003100C000C000000015
:104320000000C10000000000000000000000A40028
:10433000020082000D00D2009D000000B0000400C9
:1043400074000400EC00040000000000E20004001F
:10435000F400380000000000000000000000000031
:10436000000000000000000000000000000000004D
:10437000000000000000000000000000000000003D
:10438000000000000000000000000000000000002D
:10439000000000000000000000000000000000001D
:1043A000000000000000000000000000000000000D
:1043B00000000000000000000000000000000000FD
:1043C00000000000000000000000000000000000ED
:1043D00000000000000000000000000000000000DD
:1043E00000000000000000000000AA0028002300D8
:1043F000000071000000D00000000000000000007C
:04400E00FB2FFF3F46
:084000000D000C000400090092
:00000001FF
