:1000000000308A00862E0000FF00030E8301A1004D
:100010007F08A0000A08A8008A01A00E0408A20018
:100020007708A3007808A4007908A5007A08A6003C
:100030007B08A700831383128C308400801D222844
:100040008C193528220884002308F7002408F800BA
:100050002508F9002608FA002708FB0028088A006E
:10006000210E8300FF0E7F0E09008A110C2A9412C4
:100070003A3083169300363083129400831694131B
:1000800014138312D701DA01D9015C10DD01DE01FE
:10009000DC1000346400031759088D005A088C00E6
:1000A00083168C130C15831203130B08F7008B13A4
:1000B0008316031755308D00AA308D008C148C18D0
:1000C0005F280C117708831203138B04640000343B
:1000D00086168615000000000000000086128611BA
:1000E0000317DD1B7628031306100317DD1F7B287B
:1000F0000313061403170000000003138615000005
:100100000000000000000000861103175D1B8B2813
:100110000313061003175D1F90280313061403171B
:10012000000000000313861500000000000000001E
:10013000000086110317DD1AA02803130610031709
:10014000DD1EA52803130614031700000000031387
:100150008615000000000000000000008611031753
:100160005D1AB5280313061003175D1EBA28031382
:10017000061403170000000003138615000000009A
:1001800000000000000086110317DD19CA280313C0
:1001900006100317DD1DCF280313061403170000F4
:1001A000000003138615000000000000000000009E
:1001B000861103175D19DF280313061003175D1D51
:1001C000E428031306140317000000000313861528
:1001D0000000000000000000000086110317DD1879
:1001E000F428031306100317DD1CF9280313061463
:1001F0000317000000000313861500000000000034
:1002000000000000861103175D180929031306106A
:1002100003175D1C0E2903130614031700000000CA
:100220000313861500000000000000000000861186
:100230000317DC1B1E29031306100317DC1F2329D9
:1002400003130614031700000000031386150000B3
:100250000000000000000000861103175C1B33291A
:100260000313061003175C1F382903130614031722
:1002700000000000031386150000000000000000CD
:10028000000086110317DC1A482903130610031710
:10029000DC1E4D290313061403170000000003138E
:1002A0008615000000000000000000008611031702
:1002B0005C1A5D290313061003175C1E62290313E1
:1002C0000614031700000000031386150000000049
:1002D00000000000000086110317DC1972290313C7
:1002E00006100317DC1D77290313061403170000FB
:1002F000000003138615000000000000000000004D
:10030000861103175C1987290313061003175C1D58
:100310008C2903130614031700000000031386152D
:100320000000000000000000000086110317DC1828
:100330009C29031306100317DC1CA12903130614C0
:1003400003170000000003138615000000000000E2
:1003500000000000861103175C18B1290313061072
:1003600003175C1CB62903130614031700000000D2
:100370000313861500000000000000000000861630
:1003800086150000000000000000861200340317EC
:1003900059080313AB000317590BDB29DD010D309E
:1003A000DC00031368200317DD010F30DC000313AA
:1003B0006820E6290317DD010D30DC0003136820F7
:1003C0000317DD010930DC00031368200034031734
:1003D00059080313AC000317590BF6294030DD0010
:1003E0000330DC0003136820FB2903174030DD00D5
:1003F000DC01031368200034031759080313AD0010
:10040000031759080739DA00C030DB00DD005A084D
:10041000DC000313682000348316140883120317CA
:10042000D70003131308DB00DE01141F192A37203D
:10043000452B031757082539013A031303192D2AB1
:10044000203A03192F2A253A0319CD2A203A0319F5
:10045000CD2A043A0319412B422BD701452BD7084B
:10046000031D372A5B08D8000130D700CC2A570B70
:10047000402A5808DA005B08D9000230D700CC2A9D
:10048000DA08031D542A5908BF3C031C542A371CA0
:10049000542A59080317D800D90003135B0803171F
:1004A000DA0003134A20C92A5A08013C031DC92A4D
:1004B0005908003A03197B2A013A03197F2A033AA3
:1004C0000319872A013A03198F2A073A0319972A31
:1004D000013A03199B2A023A03199F2A0F3A03197A
:1004E000B32A013A0319B62A073A0319B92A033A7B
:1004F0000319C42AC82A5B080739AA00C92A5B085D
:1005000001390317D800D9000313C721C92A5B0892
:1005100001390317D800D9000313E721C92A5B0862
:1005200007390317D800D9000313FC21C92A5B0837
:100530001F39AE00C92A5B081F39AF00C92A5B0802
:100540000139B100AB080319B22AB1080319AD2A69
:100550003208C6000130C700B22A2B080317D900A1
:100560000313C721C92A5B08B200C92A5B08B3007C
:10057000C92A5C1CC32A5D08FF3A5B02031DC22A1C
:10058000DC14C32A5C10C92A5B080139B700C92AE8
:10059000C92AD90A0319DA0A452B5A08031DDD2A8C
:1005A000640059080317D9008D0083168C130C14AE
:1005B00083120C08D800282B03135A08013C031D92
:1005C000262B59081B3C031C222B59080E3C031DEB
:1005D000F12A5C140E08DD005D080317D800202BFB
:1005E00003135908063C031D192BD208031DFC2ACE
:1005F0000030F800142B142B48305107840083136B
:1006000000080317D9000313D20B0A2B0615D101DA
:10061000D0010F2BD10A5108073C031CD10103174D
:100620005908F8000313142B78080317D800202B5F
:10063000031359082A3E8400831300080317D800C7
:10064000242B03130317D801282B03130317D801F6
:1006500083160313141C2F2B83120317282B8312CA
:1006600094130317580803139300941F392B831610
:100670002F2B0000000000001416D90A0319DA0A13
:10068000452B452B94123720452B8C118A1122289B
:100690005208073C031C5F2B8B1348305007840023
:1006A00083130317540880000313D208031906119B
:1006B000D20AD00A5008073C031CD0018B17003423
:1006C0008B13703083168F00143083120317D00001
:1006D000831603130F087C3C03197A2B831203172C
:1006E000D008031D762B831603137A2BD003682BB7
:1006F0008316031383120317D10151081B3C031CFB
:10070000882B2A305107840083138001D10A7D2B66
:100710001F300313AE00AF000530B2001430B30039
:100720000230B400B500B600E83003178D00831620
:100730008C130C1483120C080313B900E93003174F
:100740008D0083168C130C1483120C080313BA004B
:10075000EA3003178D0083168C130C1483120C08D7
:100760000313BB00EB3003178D0083168C130C149E
:1007700083120C080313BC00EC3003178D008316A2
:100780008C130C1483120C080313BD00ED300317F7
:100790008D0083168C130C1483120C080313BE00F7
:1007A000EE3003178D0083168C130C1483120C0883
:1007B0000313BF00EF3003178D0083168C130C1446
:1007C00083120C080313C000F03003178D0083164A
:1007D0008C130C1483120C080313C10083169B01A5
:1007E0003F306500D23066008312861285170517E8
:1007F0000615D001D101D2010A30DF003C30E00003
:10080000E1000A30E2003C30E300E4000A30E50099
:100810003C30E600E700A5309000EC308F007830E7
:100820008E000A30E800E900C601C701D501D601F3
:10083000D301D401A9018B1BA9178B130317DD0169
:100840000730DC0003136820A91B8B17A9018B1B41
:10085000A9178B130317DD010F30DC000313682089
:10086000A91B8B17A9018B1BA9178B13203003170A
:10087000DD000130DC0003136820A91B8B17A901E0
:100880008B1BA9178B130317D9010313E721A91B8E
:100890008B17A9018B1BA9178B1360300317DD0081
:1008A0000130DC0003136820A91B8B17A9018B1BE7
:1008B000A9178B1380300317DD00DC0103136820B8
:1008C000A91B8B17A9018B1BA9178B13A03003172A
:1008D000DD000C30DC0003136820A91B8B17A90175
:1008E0008B1BA9178B1302300317D9000313FC21AC
:1008F000A91B8B17A9018B1BA9178B13E0300317BA
:10090000DD000330DC0003136820A91B8B17A9014D
:100910008B1BA9178B1301300317D9000313C721B1
:10092000A91B8B17031705140B30F70007300313AF
:1009300081018130840083130008F039073880007A
:1009400064000008F03977048000372083168C1586
:1009500083120B178B1710300317D400031348238F
:100960008A11972EEC308F0078308E005608D50013
:1009700005081F3A1F390317D0005008D300530849
:10098000031356060317D40003135408D306D409DF
:10099000031754080313D305031754080313D4058E
:1009A00053085404D60553085404FF3A031753055B
:1009B0000313D604550856060317D100D1080319AE
:1009C0002D2DD2015208043C031C2D2D5108F70097
:1009D0005208F8000319F02C0310F70CF80BEC2C5C
:1009E000771C2B2D03135608F70003175208F80045
:1009F0000319FE2C0310F70CF80BFA2C771C162D9C
:100A000003132E08F70003175208F80003190C2DE2
:100A10000310F70CF80B082D771C152D5208203801
:100A2000D300D4000313482303172B2D03132F08DF
:100A3000F70003175208F8000319222D0310F70CD2
:100A4000F80B1E2D771C2B2D52083038D300D40004
:100A5000031348230317D20AE22C0313E80B832E57
:100A60000A30E800141E362D141F422DDE0A5E08DF
:100A7000053C031D412D372040300317D4000313DC
:100A80004823432DDE01B10803198C2DAB0803194F
:100A90008C2DC60B8C2D83168C118312C70803195D
:100AA0006D2DA9018B1BA9178B130317DD010D30C9
:100AB000DC0003136820A91B8B17A9018B1BA91746
:100AC0008B130317DD010930DC0003136820A91B19
:100AD0008B173308C600C701892DA9018B1BA917E5
:100AE0008B130317DD010D30DC0003136820A91BF5
:100AF0008B17A9018B1BA9178B130317DD010F306F
:100B0000DC0003136820A91B8B173208C6000130D4
:100B1000C70083168C158312DF0BCA2D0A30DF0045
:100B2000E00BCA2D3C30E000E10BCA2D3C30E10067
:100B3000B90F9D2DBA0F9D2DBB0AA9018B1BA917BB
:100B40008B13E8300317D900031339080317DA00B1
:100B500003134A20A91B8B17A9018B1BA9178B1301
:100B6000E9300317D90003133A080317DA00031317
:100B70004A20A91B8B17A9018B1BA9178B13EA30DD
:100B80000317D90003133B080317DA0003134A20A5
:100B9000A91B8B17AB0803190B2EE20B0B2E0A3087
:100BA000E200E30B0B2E3C30E300E40B0B2E3C3059
:100BB000E400BC0FDE2DBD0FDE2DBE0AA9018B1B8C
:100BC000A9178B13EB300317D90003133C08031745
:100BD000DA0003134A20A91B8B17A9018B1BA91745
:100BE0008B13EC300317D90003133D080317DA0009
:100BF00003134A20A91B8B17A9018B1BA9178B1361
:100C0000ED300317D90003133E080317DA0003136E
:100C10004A20A91B8B17B1080319522EAB080319E0
:100C2000522EC7080319522EE50B522E0A30E5004A
:100C3000E60B522E3C30E600E70B522E3C30E7002C
:100C4000BF0F252EC00F252EC10AA9018B1BA91786
:100C50008B13EE300317D90003133F080317DA0094
:100C600003134A20A91B8B17A9018B1BA9178B13F0
:100C7000EF300317D900031340080317DA000313FA
:100C80004A20A91B8B17A9018B1BA9178B13F030C6
:100C90000317D900031341080317DA0003134A208E
:100CA000A91B8B17E9036908053C031D6F2E2A0851
:100CB0000339033C031D5F2E86168517692E2A080B
:100CC0000339013C031D672E86168513692E861293
:100CD00085172A1D6D2E05136E2E0517832EE90824
:100CE000031D832E0A30E9002A080139013C031D47
:100CF0007C2E861685137E2E861285172A1D822E3F
:100D00000513832E05170C108A119C2E8401831362
:100D10001F30830583161F129F121B0880390F385E
:100D20009B0007309C001C0883120D13602BDC18FD
:100D30009E2E0C1C9C2EB22C6400972E8B136400EC
:100D400009308A0082016300FF2EFF2EFF2EFF2E46
:100D5000FF2EFF2EFF2EFF2EFF2EFF2EFF2EFF2E2B
:100D6000FF2EFF2EFF2EFF2EFF2EFF2EFF2EFF2E1B
:100D7000FF2EFF2EFF2EFF2EFF2EFF2EFF2EFF2E0B
:100D8000FF2EFF2EFF2EFF2EFF2EFF2EFF2EFF2EFB
:10120000C9258D255C110C18B5258C19472564005E
:1012100003290034FF2EFF2EFF2EFF2EFF2EFF2E60
:101220008616861500000000000000008612861158
:1012300083160317B81B2129831203130610831684
:101240000317B81F282983120313061483160317E4
:101250000000000083120313861500000000000048
:1012600000000000861183160317381B3C298312E7
:101270000313061083160317381F43298312031321
:10128000061483160317000000008312031386154B
:101290000000000000000000000086118316031704
:1012A000B81A572983120313061083160317B81EA2
:1012B0005E2983120313061483160317000000002F
:1012C00083120313861500000000000000000000D8
:1012D000861183160317381A722983120313061016
:1012E00083160317381E79298312031306148316F5
:1012F000031700000000831203138615000000008E
:10130000000000000000861183160317B8198D290C
:1013100083120313061083160317B81D9429831232
:10132000031306148316031700000000831203132F
:1013300086150000000000000000000086118316E2
:1013400003173819A82983120313061083160317ED
:10135000381DAF29831203130614831603170000E8
:101360000000831203138615000000000000000037
:101370000000861183160317B818C32983120313BC
:10138000061083160317B81CCA2983120313061408
:101390008316031700000000831203138615000054
:1013A00000000000000000008611831603173818A3
:1013B000DE2983120313061083160317381CE52950
:1013C0008312031306148316031700000000831210
:1013D00003138615000000000000000000008611C5
:1013E00083160317B71BF9298312031306108316FC
:1013F0000317B71F002A831203130614831603175B
:101400000000000083120313861500000000000096
:1014100000000000861183160317371B142A83125D
:101420000313061083160317371F1B2A8312031397
:101430000614831603170000000083120313861599
:101440000000000000000000000086118316031752
:10145000B71A2F2A83120313061083160317B71E19
:10146000362A8312031306148316031700000000A4
:101470008312031386150000000000000000000026
:10148000861183160317371A4A2A8312031306108C
:1014900083160317371E512A83120313061483166B
:1014A00003170000000083120313861500000000DC
:1014B000000000000000861183160317B719652A83
:1014C00083120313061083160317B71D6C2A8312A9
:1014D000031306148316031700000000831203137E
:1014E0008615000000000000000000008611831631
:1014F00003173719802A8312031306108316031764
:10150000371D872A8312031306148316031700005E
:101510000000831203138615000000000000000085
:101520000000861183160317B7189B2A8312031332
:10153000061083160317B71CA22A8312031306147E
:1015400083160317000000008312031386150000A2
:1015500000000000000000008611831603173718F2
:10156000B62A83120313061083160317371CBD2AED
:10157000831203130614831603170000000083125E
:10158000031386150000000000000000000086160E
:10159000861500000000000000008612003483164B
:1015A0000317B8010730B700831203131021831605
:1015B0000317B8010F30B700831203131021203036
:1015C00083160317B8000130B700831203131021EC
:1015D000403083160317B800B7018312031310219C
:1015E000603083160317B8000130B700831203136D
:1015F0001021803083160317B800B701831203133C
:101600001021A03083160317B8000C30B7008312E6
:1016100003131021C03083160317B8000230B7003F
:10162000831203131021E03083160317B800033030
:10163000B70083120313102183160317B8010D306E
:10164000B70083120313102183160317B8010F305C
:10165000B70083120313102100347208AD3C031D40
:101660004B2B83160317390883128D0083163A0813
:10167000FA0183128F006400943083168C00553079
:101680008D00AA308D008C14000000000C110C128B
:101690006400831203130034831603173608831281
:1016A0008D008316370883128F008316BB01031049
:1016B0003A0D3B020318842B640081308C0000003B
:1016C00000003908FA003808B80A0319B90A84007A
:1016D00083137A18831783120C0880008316390845
:1016E000FA003808B80A0319B90A840083137A1873
:1016F000831783120E08800064008D0A8D08031979
:101700008F0A8316BB0A572B831203130034720807
:10171000BE3C031D202C831603178C173908831237
:101720008D0083163A0883128F000D080339831643
:10173000BF00BF080319BD2BFC3083128D05831633
:10174000BE013F083E020318BD2B64000C140000CC
:1017500000000C1555308D00AA308D008C1400004F
:1017600000008C18B12B0C11640083128D0A8D08B7
:1017700003198F0A8316BE0AA12BBE0103103D0C6C
:101780003E020318F42B3C08FA003B08BB0A03197D
:10179000BC0A840083137A188317000883128C0014
:1017A00083163C08FA003B08BB0A0319BC0A8400F4
:1017B00083137A188317000883128E00640083163F
:1017C0000C1555308D00AA308D008C1400000000DF
:1017D0008C18E82B0C11640083128D0A8D080319F4
:1017E0008F0A8316BE0ABE2B83120D080339831697
:1017F000BF00BF0803191E2C3F08043CBF00FF3088
:1018000083128C008E008316BE013F083E0203182F
:101810001E2C64000C1555308D00AA308D008C14E0
:10182000000000008C18122C0C11640083128D0A29
:101830008D0803198F0A8316BE0A052C8312031321
:1018400000348316141C262C8312212C831294132B
:101850006E089300941F2E2C8316262C0000000087
:10186000000014165C1D3A2C6E08AA3C031D3A2C8D
:101870006400392C5130EE00ED01EA01003483168A
:101880000317B701B8013808831203136D02031C54
:10189000552CA030831603173807840083130008E3
:1018A000B707B80A432C8312031383160317B7082C
:1018B0000319612C553083120313EE00272D831674
:1018C000031703132308003A831203196B2C013A00
:1018D0000319062D242D831621080317BA000313BC
:1018E00022080317B90003103A0C83120313EC000B
:1018F00083160317390C83120313EB00EC08031D46
:10190000BE2C6B081F3C031CBE2C03106B0D8316F2
:101910000317B900831203136C0D83160317BA0063
:1019200010303907BB003A08BC000318BC0A01306C
:10193000BC07BE01A430BD0003132008F800031942
:10194000BC2C03173D08840083133E18831700083E
:10195000F7003B08840083133C1883177708800046
:10196000BB0A0319BC0ABD0A0319BE0AF80BB92C3D
:10197000BB2C0313A12C0313022D83126C08083C0B
:10198000031C012D6B081F3983160317B90083123E
:1019900003136C08003983160317BA00B908031D36
:1019A000E72CBA08031DE72CAD30F20083120313B5
:1019B0006C0883160317BA00831203136B0883168F
:1019C0000317B900831203132D2383160317BE30A8
:1019D000F200831203136C0883160317BA008312F4
:1019E00003136B0883160317B900BC01A430BB00B6
:1019F000031320080317BD00831203138723DE306F
:101A0000F2008316AA308312EE00272DAD30F200CB
:101A100083160317BA01B901831203132D23BE30B5
:101A2000F20083160317BA01B9010130BC0010306F
:101A3000BB004030BD00831203138723DE30F20069
:101A4000AA30EE005C15272D5230EE00272DED0157
:101A5000EA01003494123A30831693003630831230
:101A600094008316941314138312ED01EA0151308C
:101A7000EE00EF010034141E3F2D141F452DEF0A18
:101A80006F08053C03192A25462DEF010034831603
:101A900014080317B600831203131308F0008C1107
:101AA000EF01141F552D2A258C2D83160317360898
:101AB0002539013A8312031303196B2D203A0319B8
:101AC0006C2D253A0319862D203A0319862D043AE8
:101AD0000319882D892D8C2D6D081F3C031C832D27
:101AE000A0306D078400831370088000ED08031D8B
:101AF0007C2D7008EA00812D04306A076D020319FD
:101B00003F24ED0A852D5A30EE008C2D21248C2D9A
:101B10008C2D94122A258C2D00340E308316031739
:101B2000B700F930B600B901A030B8000630BA00ED
:101B3000831203134C23AD30F20083160317BA014E
:101B4000B901831203132D23BE30F200831603174D
:101B5000BA01B901BC01A030BB000630BD00831240
:101B600003138723DE30F20000343C308F00B030A6
:101B70008E00F1037108053C031DC02D8517C62D8D
:101B8000F108031DC62D0A30F10085133B250C100A
:101B900000348B13703083168F0014300317B60097
:101BA00003130F087C3C0319DE2D0317B608031D31
:101BB000DB2D0313DE2DB603D02D03138312031781
:101BC00005140F30F70007300313810181308400C2
:101BD00083130008F0390738800064000008F039EA
:101BE00077048000DE30F20083169B013F306500F1
:101BF000D23066008312861685130517A530900033
:101C00003C308F00B0308E000A30F100CF222A2500
:101C10000034FF2EFF2EFF2EFF2EFF2EFF2EFF2E55
:101C2000FF2EFF2EFF2EFF2EFF2EFF2EFF2EFF2E4C
:101C3000FF2EFF2EFF2EFF2EFF2EFF2EFF2EFF2E3C
:101C4000FF2EFF2EFF2EFF2EFF2EFF2EFF2EFF2E2C
:101C5000FF2EFF2EFF2EFF2EFF2EFF2EFF2EFF2E1C
:101C6000FF2EFF2EFF2EFF2EFF2EFF2EFF2EFF2E0C
:101C7000FF2EFF2EFF2EFF2EFF2EFF2EFF2EFF2EFC
:101C8000FF2EFF2EFF2EFF2EFF2EFF2EFF2EFF2EEC
:101C9000FF2EFF2EFF2EFF2EFF2EFF2EFF2EFF2EDC
:101CA000FF2EFF2EFF2EFF2EFF2EFF2EFF2EFF2ECC
:101CB000FF2EFF2EFF2EFF2EFF2EFF2EFF2EFF2EBC
:101CC000FF2EFF2EFF2EFF2EFF2EFF2EFF2EFF2EAC
:101CD000FF2EFF2EFF2EFF2EFF2EFF2EFF2EFF2E9C
:101CE000FF2EFF2EFF2EFF2EFF2EFF2EFF2EFF2E8C
:101CF000FF2EFF2EFF2EFF2EFF2EFF2EFF2EFF2E7C
:101D0000FF2EFF2EFF2EFF2EFF2EFF2EFF2EFF2E6B
:101D1000FF2EFF2EFF2EFF2EFF2EFF2EFF2EFF2E5B
:101D2000FF2EFF2EFF2EFF2EFF2EFF2EFF2EFF2E4B
:101D3000FF2EFF2EFF2EFF2EFF2EFF2EFF2EFF2E3B
:101D4000FF2EFF2EFF2EFF2EFF2EFF2EFF2EFF2E2B
:101D5000FF2EFF2EFF2EFF2EFF2EFF2EFF2EFF2E1B
:101D6000FF2EFF2EFF2EFF2EFF2EFF2EFF2EFF2E0B
:101D7000FF2EFF2EFF2EFF2EFF2EFF2EFF2EFF2EFB
:101D8000FF2EFF2EFF2EFF2EFF2EFF2EFF2EFF2EEB
:101D9000FF2EFF2EFF2EFF2EFF2EFF2EFF2EFF2EDB
:101DA000FF2EFF2EFF2EFF2EFF2EFF2EFF2EFF2ECB
:101DB000FF2EFF2EFF2EFF2EFF2EFF2EFF2EFF2EBB
:101DC000FF2EFF2EFF2EFF2EFF2EFF2EFF2EFF2EAB
:101DD000FF2EFF2EFF2EFF2EFF2EFF2EFF2EFF2E9B
:101DE000FF2EFF2EFF2EFF2EFF2EFF2EFF2EFF2E8B
:101DF000FF2E0A128A1500290034FF2EFF2EFF2E17
:101E0000FF2EFF2EFF2EFF2EFF2EFF2EFF2EFF2E6A
:101E1000FF2EFF2EFF2EFF2EFF2EFF2EFF2EFF2E5A
:101E2000FF2EFF2EFF2EFF2EFF2EFF2EFF2EFF2E4A
:101E3000FF2EFF2EFF2EFF2EFF2EFF2EFF2EFF2E3A
:101E4000FF2EFF2EFF2EFF2EFF2EFF2EFF2EFF2E2A
:101E5000FF2EFF2EFF2EFF2EFF2EFF2EFF2EFF2E1A
:101E6000FF2EFF2EFF2EFF2EFF2EFF2EFF2EFF2E0A
:101E7000FF2EFF2EFF2EFF2EFF2EFF2EFF2EFF2EFA
:101E8000FF2EFF2EFF2EFF2EFF2EFF2EFF2EFF2EEA
:101E9000FF2EFF2EFF2EFF2EFF2EFF2EFF2EFF2EDA
:101EA000FF2EFF2EFF2EFF2EFF2EFF2EFF2EFF2ECA
:101EB000FF2EFF2EFF2EFF2EFF2EFF2EFF2EFF2EBA
:101EC000FF2EFF2EFF2EFF2EFF2EFF2EFF2EFF2EAA
:101ED000FF2EFF2EFF2EFF2EFF2EFF2EFF2EFF2E9A
:101EE000FF2EFF2EFF2EFF2EFF2EFF2EFF2EFF2E8A
:101EF000FF2EFF2EFF2EFF2EFF2EFF2EFF2EFF2E7A
:101F0000FF2EFF2EFF2EFF2EFF2EFF2EFF2EFF2E69
:101F1000FF2EFF2EFF2EFF2EFF2EFF2EFF2EFF2E59
:101F2000FF2EFF2EFF2EFF2EFF2EFF2EFF2EFF2E49
:101F3000FF2EFF2EFF2EFF2EFF2EFF2EFF2EFF2E39
:101F4000FF2EFF2EFF2EFF2EFF2EFF2EFF2EFF2E29
:101F5000FF2EFF2EFF2EFF2EFF2EFF2EFF2EFF2E19
:101F6000FF2EFF2EFF2EFF2EFF2EFF2EFF2EFF2E09
:101F7000FF2EFF2EFF2EFF2EFF2EFF2EFF2EFF2EF9
:101F8000FF2EFF2EFF2EFF2EFF2EFF2EFF2EFF2EE9
:101F9000FF2EFF2EFF2EFF2EFF2EFF2EFF2EFF2ED9
:101FA000FF2EFF2EFF2EFF2EFF2EFF2EFF2EFF2EC9
:101FB000FF2EFF2EFF2EFF2EFF2EFF2EFF2EFF2EB9
:101FC000FF2EFF2EFF2EFF2EFF2EFF2EFF2EFF2EA9
:101FD000FF2EFF2EFF2EFF2EFF2EFF2EFF2EFF2E99
:101FE000FF2EFF2EFF2EFF2EFF2EFF2EFF2EFF2E89
:101FF000FF2EFF2EFF2EFF2EFF2EFF2EFF2EFF2E79
:020DFE00FF2EC6
:021DFE00FF2EB6
:0211FE000000EF
:04400E00342FFF3F0D
:084000000B000B000B00060091
:1042000001000100000002000a0000000000f200ae
:104210000100010000000000000000000000fe009e
:10422000010008001900200044005000c2004800ae
:104230005000d80048005000200042006c0061008f
:1042400064006500530079007300740065006d0020
:1042500020006300370030003000300020004c00a8
:1042600043004400c000ca0034003100350038006b
:10427000330039002d00300030003100c200300022
:1042800041000300d200300030000600d50040009d
:1042900083003000b0000100c10000000000780081
:1042a000010007001900c20048005000d800480073
:1042b0005000200042006c00610064006500530063
:1042c00079007300740065006d0020006300370002
:1042d00030003000300020004c0043004400ca0091
:1042e0003400300038003300330030002d0030003f
:1042f00030003100c20031003100c0000000000079
:10430000c100000000000000000000000000fc00f0
:10431000000000000000000000000000000000009d
:10432000000000000000000000000000000000008d
:10433000000000000000000000000000000000007d
:10434000000000000000000000000000000000006d
:10435000000000000000000000000000000000005d
:10436000000000000000000000000000000000004d
:10437000000000000000000000000000000000003d
:10438000000000000000000000000000000000002d
:10439000000000000000000000000000000000001d
:1043a000000000000000000000000000000000000d
:1043b00000000000000000000000000000000000fd
:1043c00000000000000000000000000000000000ed
:1043d00000000000000000000000000000000000dd
:1043e00000000000000000000000000000000000cd
:1043f00000000000000000000000000000000000bd
:00000001FF
