:1000000000308A00592C0000FF00030E8301A1007C
:100010007F08A0000A08A8008A01A00E06308A0006
:100020000E2E09008B138B1B122820308500013007
:10003000860087011F3083168500C0308600193086
:100040008700031788018901031395019601713018
:100050008F001430F6000F193228F60803193228E1
:10006000F6032B2883128A116F2C83164F088312F4
:1000700003178D00831603135008831203178F0094
:10008000031083160313D30CD4015308540203182E
:100090007628640003178C170C140000000003136B
:1000A0005208FA005108D10A0319D20A84008313B6
:1000B0007A188317831203170C0880008316031322
:1000C0005208FA005108D10A0319D20A8400831396
:1000D0007A188317831203170E0880008D0A8D0883
:1000E00003198F0A83160313D40A45288312003498
:1000F00006308316A600A501A70126080E3C031CA6
:100100009B28031D87282508FE3C031C9B282608E6
:10011000D0002508CF00D201A830D1000230D30092
:100120008312352083162808A7072908A707A50AE0
:100130000319A60A7D28A708031DA2280130F8008C
:10014000CB28CB2864002709AA00AA0AF33083121F
:1001500003178D00831603132A08831203178C00DC
:1001600083168C130C15831203130B08F7008B13E3
:100170008316031755308D00AA308D008C148C180F
:10018000BF280C117708831203138B04640000301E
:10019000F8008316CB2883120034851607138713C3
:1001A000D128D22885120713FE1F8713FE1B87173D
:1001B000071707137E1F87137E1B87170717071361
:1001C000FE1E8713FE1A8717071707137E1E871355
:1001D0007E1A871707170713FE1D8713FE19871747
:1001E000071707137E1D87137E1987170717071335
:1001F000FE1C8713FE188717071707137E1C87132B
:100200007E18871707170713FD1F8713FD1B871716
:10021000071707137D1F87137D1B87170717071302
:10022000FD1E8713FD1A8717071707137D1E8713F7
:100230007D1A871707170713FD1D8713FD198717E9
:10024000071707137D1D87137D19871707170713D6
:10025000FD1C8713FD188717071707137D1C8713CD
:100260007D18871707170713871385160034A21008
:10027000F201F301A130F400003494123A308316F5
:100280009300363083129400831691019417F50180
:10029000831200348316A9080319382A25080F3958
:1002A000CF00D00103104F0DF900500DFA0079086E
:1002B000CE002508F039CC002608CD00CE08031D5D
:1002C000652929081F3C031C71294D08D0004C08E2
:1002D000CF00D201AA30D1002030D30083123520C4
:1002E0008316CB01AA30CA004E08CA070318CB0AEE
:1002F0004E081F3C031C9E29A90803199E294B0880
:10030000FA004A08CA0A0319CB0ACF007A08D000BB
:100310002808FA002708A70A0319A80A84008313EB
:100320007A1883170008D1004F08840083135018EF
:10033000831751088000CE0AA903782925080F38B1
:10034000CF002608D00001304F07A5002608A600E0
:100350000318A60A4C08831203178D008316031393
:100360004D08831203178F0083160313CB01AA30A5
:10037000CA00CE014E08073C031CF0294B08FA00C6
:100380004A08CA0A0319CB0A840083137A18831710
:100390000008831203178C00831603134B08FA001E
:1003A0004A08CA0A0319CB0A840083137A188317F0
:1003B0000008831203178E0083168C170C15553016
:1003C0008D00AA308D008C14000000000C118312E7
:1003D0008D0A8D0803198F0A83160313CE0ABA29D2
:1003E0000830CC070318CD0A4C08831203178D0080
:1003F000831603134D08831203178F00831603130C
:10040000CE014E08073C031C372A4B08FA004A0865
:10041000CA0A0319CB0A840083137A1883170008C9
:10042000831203178C00831603134B08FA004A0843
:10043000CA0A0319CB0A840083137A1883170008A9
:10044000831203178E0083168C170C1555308D0000
:10045000AA308D008C14000000000C1183128D0A4C
:100460008D0803198F0A83160313CE0A012A4B291C
:1004700083120034233084008313F6012D30FC00F6
:100480007C080319482A76088000840AFC0B432A5A
:100490001F30A700A8000530AB001430AC000230BC
:1004A000AD000930AE000330AF00E83003178D0017
:1004B00083168C130C1483120C080313B200E9305A
:1004C00003178D0083168C130C1483120C0803136E
:1004D000B300EA3003178D0083168C130C148312BB
:1004E0000C080313B400EB3003178D0083168C1334
:1004F0000C1483120C080313B500EC3003178D00A5
:1005000083168C130C1483120C080313B600ED3001
:1005100003178D0083168C130C1483120C0803131D
:10052000B700EE3003178D0083168C130C14831262
:100530000C080313B800EF3003178D0083168C13DB
:100540000C1483120C080313B900F03003178D004C
:1005500083168C130C1483120C080313BA00F601D3
:100560007608023C031C0A2B0530FE005E30FD00BD
:10057000CD200530FE001E30FD00CD200530FE00F0
:100580005E30FD00CD200130FE00CC30FD00CD20DE
:10059000CC30C0000430FE001B30FD00CD201B30ED
:1005A000C200FE010630FD00CD200630BF00033042
:1005B000FE006030FD00CD206030C1000630FE003E
:1005C0000A30FD00CD200A30C4000830FE00C030E3
:1005D000FD00CD20C030C6000530FE007730FD00A4
:1005E000CD207730C3001430FD007D3084008313AC
:1005F00000080319082B0230F800F701F70BFE2A58
:10060000F80BFD2A9730F700F70B042B800BFB2A21
:10061000F60AB02A64008101FF308316810083123C
:10062000031785010230031390008F018E0110140F
:100630000C1083160C104D3083129200F930831683
:10064000920083128C1083168C1014308312A10038
:1006500037213D218C1C472B003022180130013AF4
:10066000F800221078182214221C362BA10B452BDF
:100670001430A100141E3E2B141F442BF50A7508DC
:10068000053C03193D21452BF5018C10552C8C1D83
:10069000552C83161408F60083121308FC008C11E5
:1006A000F501141F562B3D21552C552C7608253964
:1006B000013A03196B2B203A03196C2B253A0319C5
:1006C000212C013A0319212C213A0319212C043A37
:1006D0000319532C542C552C7C08FE0073081F3C26
:1006E000031C1E2C7308F30A523E840083137E08F9
:1006F0008000730B7E2B7E08F2001D2C05307207E4
:100700007302031D1D2C73088316A0002008203CD3
:1007100003188D2BAA30F4001C2CA301A40120087F
:10072000240203189B2B52302407840083130008F3
:10073000A307A40A8F2BA3080319A12BA530F4004B
:100740001C2C831255080319A92B013A0319022CFA
:10075000182C53088316A600831254088316A5008C
:100760000310260CA200250CA1002208053C03184A
:10077000FF2B22080E3C031CFF2B03108312520C8C
:1007800083162107A5002208A6000318A60A013037
:100790002502A7002608A8000030031C0130A8028B
:1007A00028080E3C031CE32B2208A6002108A50004
:1007B000A8015630A700831252088316A90083129D
:1007C0004A21FE2B83162108003CA5000F30A6000D
:1007D0002208031C220FA6020310250DF900260D86
:1007E000FA007908A4002208A6002108A500A801A3
:1007F0005630A7002408A90083124A218316AA3084
:10080000F4001C2CD208031D122CD308031D122C3B
:10081000D408031D122C7820780B122CAA30F40077
:10082000A214152CA530F400A21083161C2C8312E0
:10083000A230F40083161C2C8312202CAA30F40062
:10084000552C83161418222C8312941374089300C9
:10085000941B252C2B2C2C2C1416A21C512C740808
:10086000AA3C031D512CF13003178D00AA308C00D7
:1008700083168C130C15831203130B08F7008B13CC
:100880008316031755308D00AA308D008C148C18F8
:10089000472C0C117708831203138B048A0100285C
:1008A000522C3721552C552C532B64002A2B8A119E
:1008B000852C840183131F308305831603170908D1
:1008C000C039890003131F129F12003003178800DC
:1008D0008312870188018901031322101228F13045
:1008E00003178D0083168C130C1483120C08553CCF
:1008F0000319802C03137820F808031D822C03179A
:1009000003133A2A06308A0082018A010028630014
:10091000FF2EFF2EFF2EFF2EFF2EFF2EFF2EFF2E6F
:10092000FF2EFF2EFF2EFF2EFF2EFF2EFF2EFF2E5F
:10093000FF2EFF2EFF2EFF2EFF2EFF2EFF2EFF2E4F
:10094000FF2EFF2EFF2EFF2EFF2EFF2EFF2EFF2E3F
:100C000000308A00402E000094123A308316930080
:100C100036308312940083169101941711148312B5
:100C2000E001E301E201A110E501E60100345C0806
:100C3000073C031C2A2E52305A0784008313750880
:100C40008000DC0803190610DC0ADA0A5A08073C9F
:100C5000031CDA0100347208A400720B312E002745
:100C6000362E0530FD005E30FC0060260034FF2E7D
:100C7000FF2EFF2EFF2EFF2EFF2EFF2EFF2EFF2E0C
:100C8000840183131F308305831603170908C039B5
:100C9000890003131F129F1200300317880083126C
:100CA00087018801890103132110DD01DE01DF01C5
:100CB0008A1500288A116300FF2EFF2EFF2EFF2EBB
:100CC000851607138713642E652E85120713FD1FE3
:100CD0008713FD1B8717071707137D1F87137D1BBE
:100CE000871707170713FD1E8713FD1A87170717A6
:100CF00007137D1E87137D1A871707170713FD1D1E
:100D00008713FD198717071707137D1D87137D1993
:100D1000871707170713FD1C8713FD188717071779
:100D200007137D1C87137D18871707170713FC1FF0
:100D30008713FC1B8717071707137C1F87137C1B60
:100D4000871707170713FC1E8713FC1A8717071747
:100D500007137C1E87137C1A871707170713FC1DC0
:100D60008713FC198717071707137C1D87137C1936
:100D7000871707170713FC1C8713FC18871707171B
:100D800007137C1C87137C18871707170713871313
:100D9000851600346400720803178D0073088C00F8
:100DA00083168C130C15831203130B08F7008B1397
:100DB0008316031755308D00AA308D008C148C18C3
:100DC000DF2E0C117708831203138B0464000034A8
:100DD000FF2EFF2EFF2EFF2EFF2EFF2EFF2EFF2EAB
:100DE000FF2EFF2EFF2EFF2EFF2EFF2EFF2EFF2E9B
:100DF000FF2EFF2EFF2EFF2EFF2EFF2EFF2EFF2E8B
:100E0000F3017308023C031C5B2F0530FD005E30CC
:100E1000FC0060260530FD001E30FC006026053019
:100E2000FD005E30FC0060260130FD00CC30FC008F
:100E30006026CC30C0000430FD001B30FC00602672
:100E40001B30C200FD010630FC0060260630BF00EA
:100E50000330FD006030FC0060266030C1000630C9
:100E6000FD000A30FC0060260A30C4000830FD0096
:100E7000C030FC006026C030C6000530FD00773071
:100E8000FC0060267730C3001430F4007430840016
:100E9000831300080319592F0230F800F701F70BEC
:100EA0004F2FF80B4E2F9730F700F70B552F800B75
:100EB0004C2FF30A012F0034FF2EFF2EFF2EFF2EA2
:100EC000FF2EFF2EFF2EFF2EFF2EFF2EFF2EFF2EBA
:100ED000FF2EFF2EFF2EFF2EFF2EFF2EFF2EFF2EAA
:100EE000FF2EFF2EFF2EFF2EFF2EFF2EFF2EFF2E9A
:100EF000FF2EFF2EFF2EFF2EFF2EFF2EFF2EFF2E8A
:100F0000FF2EFF2EFF2EFF2EFF2EFF2EFF2EFF2E79
:100F1000FF2EFF2EFF2EFF2EFF2EFF2EFF2EFF2E69
:100F2000FF2EFF2EFF2EFF2EFF2EFF2EFF2EFF2E59
:100F3000FF2EFF2EFF2EFF2EFF2EFF2EFF2EFF2E49
:100F4000FF2EFF2EFF2EFF2EFF2EFF2EFF2EFF2E39
:100F5000FF2EFF2EFF2EFF2EFF2EFF2EFF2EFF2E29
:100F6000FF2EFF2EFF2EFF2EFF2EFF2EFF2EFF2E19
:100F7000FF2EFF2EFF2EFF2EFF2EFF2EFF2EFF2E09
:100F8000FF2EFF2EFF2EFF2EFF2EFF2EFF2EFF2EF9
:100F9000FF2EFF2EFF2EFF2EFF2EFF2EFF2EFF2EE9
:100FA000FF2EFF2EFF2EFF2EFF2EFF2EFF2EFF2ED9
:100FB000FF2EFF2EFF2EFF2EFF2EFF2EFF2EFF2EC9
:100FC000FF2EFF2EFF2EFF2EFF2EFF2EFF2EFF2EB9
:100FD000FF2EFF2EFF2EFF2EFF2EFF2EFF2EFF2EA9
:100FE000FF2EFF2EFF2EFF2EFF2EFF2EFF2EFF2E99
:100FF000FF2EFF2EFF2EFF2EFF2EFF2EFF2EFF2E89
:101000008B138B1B0028233084008313F0012D30B9
:10101000F10071080319112870088000840AF10B8F
:101020000C281F30A700A8000530AB001430AC001E
:101030000230AD000930AE000330AF00E8300317D6
:101040008D0083168C130C1483120C080313B2004A
:10105000E93003178D0083168C130C1483120C08CF
:101060000313B300EA3003178D0083168C130C149E
:1010700083120C080313B400EB3003178D008316A2
:101080008C130C1483120C080313B500EC300317F7
:101090008D0083168C130C1483120C080313B600F6
:1010A000ED3003178D0083168C130C1483120C087B
:1010B0000313B700EE3003178D0083168C130C1446
:1010C00083120C080313B800EF3003178D0083164A
:1010D0008C130C1483120C080313B900F03003179F
:1010E0008D0083168C130C1483120C080313BA00A2
:1010F000DA01DB01DC010A30E7003C30E800E900FE
:101100000A30EA003C30EB00EC000A30ED003C30E5
:10111000EE00EF00D001D10164008101FF308316A1
:1011200081008312031785010230031390008F01A1
:101130008E0110140C1083160C104D308312920087
:10114000F9308316920083128C1083168C101430A1
:101150008312A0008A1104268A1583168C15831227
:101160000B171030F5008A1117268A158C1C0C2AD3
:10117000003021180130013AF800211078182114AC
:10118000211C2E295F08F00005081F3A1F39F100C5
:101190005F08F4007108F50075087406F6005E0833
:1011A000DD06DE097608DD057608DE055D085E04ED
:1011B000F4055D085E04FF3A7505F4047408F80050
:1011C0007808DF0070085F06F200F20803192E2984
:1011D000F3017308043C031C2E297208F7007308FE
:1011E000F8000319F7280310F70CF80BF328771C05
:1011F0002C295F08F7007308F8000319032903106E
:10120000F70CF80BFF28771C19292708F70073083B
:10121000F80003190F290310F70CF80B0B29771CA2
:10122000182973082038F400F5008A1117268A154A
:101230002C292808F7007308F80003192329031044
:10124000F70CF80B1F29771C2C2973083038F40091
:10125000F5008A1117268A15F30AE928A00B0B2A34
:101260001430A000141F4229E60A6608053C031D3D
:1012700041298A1104268A154030F5008A11172663
:101280008A154329E601AA0803196A29A408031943
:101290006A29D00B6A2983168C118312D10803198D
:1012A0005C290530FD00D630FC008A1160268A15C5
:1012B0002C08D000D10167290530FD00D730FC0093
:1012C0008A1160268A152B08D0000130D1008316C0
:1012D0008C158312E70B90290A30E700E80B902960
:1012E0003C30E800E90B90293C30E900B20F7B2943
:1012F000B30F7B29B40AE830F2003208F3008A11F8
:10130000CA268A15E930F2003308F3008A11CA268A
:101310008A15EA30F2003408F3008A11CA268A15C9
:10132000A4080319B929EA0BB9290A30EA00EB0B22
:10133000B9293C30EB00EC0BB9293C30EC00B50F7F
:10134000A429B60FA429B70AEB30F2003508F30040
:101350008A11CA268A15EC30F2003608F3008A1189
:10136000CA268A15ED30F2003708F3008A11CA2622
:101370008A15AA080319E829A4080319E829D1083D
:101380000319E829ED0BE8290A30ED00EE0BE829F6
:101390003C30EE00EF0BE8293C30EF00B80FD329CA
:1013A000B90FD329BA0AEE30F2003808F3008A11D7
:1013B000CA268A15EF30F2003908F3008A11CA26CE
:1013C0008A15F030F2003A08F3008A11CA268A150D
:1013D000A20B0B2A0A30A20010100F08F1000E0811
:1013E000F0008F018E011014F108031DFB29700815
:1013F000323C0318022A8618022A8A1100278A150D
:1014000086140B2AF108031D0B2A7008313C031CBB
:101410000B2A861886108C108C1D722C83161408CB
:10142000F00083121308E4008C11E601141F212A36
:101430008A1104268A154030F5008A1117268A156C
:10144000712C70082539013A0319362A203A0319FC
:10145000392A253A03190E2C013A03190E2C213A88
:1014600003190E2C043A03196F2C702CE00114168A
:10147000712CE008031D412A6408E1000130E000FE
:101480000C2C600B4A2A6108E3006408E200023079
:10149000E0000C2CE308031D5C2A6208BF3C031C1F
:1014A0005C2A301C5C2A6208F100F2006408F30038
:1014B0008A11CA268A15092C6308013C031D092CD0
:1014C00062080319B52A013A0319B92A033A031924
:1014D000C12A013A0319DA2A073A0319F32A013A11
:1014E0000319F72A023A0319FB2A0F3A03190F2BA3
:1014F000013A0319122B073A0319152B033A031962
:10150000292B113A03192D2B013A0319382B033AD1
:101510000319452B013A0319522B3F3A03195F2B4C
:10152000013A03196C2B033A0319792B013A031979
:10153000862B073A0319932B013A0319A02B033A80
:101540000319AD2B013A0319BA2B0F3A0319C72B14
:10155000013A0319D42B033A0319E12B013A031979
:10156000EE2B073A0319FB2B082C64080739A3005C
:10157000092C64080139F100F2008A112B268A1522
:10158000092C64080139F1007108F2007208A50005
:10159000720BD22A0430FD001B30FC008A11602639
:1015A0008A15D92A0430FD001930FC008A11602602
:1015B0008A15092C64080739F1007108F2007208D5
:1015C000A60072080739F700F70EF70DE030F705AF
:1015D0007708F4000330F500FD007708FC008A115D
:1015E00060268A15092C64081F39A700092C640895
:1015F0001F39A800092C64080139AA00A40803199E
:101600000E2BAA080319092B2B08D0000130D1009A
:101610000E2B2408F2008A112B268A15092C640847
:10162000AB00092C6408AC00092CA11C282B650810
:10163000FF3A6402031D272B8B13F130F200553063
:10164000F3008A11CA268A158A010028282BA110C6
:10165000092C64080139B000092C6408BF00640833
:10166000F100FD016408FC008A1160268A15092C2E
:101670006408C0006408F1000130F200FD00640855
:10168000FC008A1160268A15092C6408C1006408D0
:10169000F1000330F200FD006408FC008A116026AE
:1016A0008A15092C6408C2006408F1000430F200B5
:1016B000FD006408FC008A1160268A15092C640864
:1016C000C3006408F1000530F200FD006408FC006E
:1016D0008A1160268A15092C6408C4006408F10088
:1016E0000630F200FD006408FC008A1160268A15AD
:1016F000092C6408C5006408F1000730F200FD0001
:101700006408FC008A1160268A15092C6408C6004A
:101710006408F1000830F200FD006408FC008A1142
:1017200060268A15092C6408C7006408F1000C3093
:10173000F200FD006408FC008A1160268A15092C5D
:101740006408C8006408F1000D30F200FD00640870
:10175000FC008A1160268A15092C6408C9006408F7
:10176000F1000E30F200FD006408FC008A116026D2
:101770008A15092C6408CA006408F1000F30F200D1
:10178000FD006408FC008A1160268A15092C640893
:10179000CB006408F1001030F200FD006408FC008A
:1017A0008A1160268A15092C6408CC006408F100AF
:1017B0001130F200FD006408FC008A1160268A15D1
:1017C000092C6408CD006408F1001530F200FD001A
:1017D0006408FC008A1160268A15092C6408CE0072
:1017E0006408F1009630F200FD006408FC008A11E4
:1017F00060268A15092C6408CF006408F100A13026
:10180000F200FD006408FC008A1160268A15092C8C
:10181000092CE20A0319E30A1416712C6308031D4C
:101820001F2C64006208F200720803178D008316F3
:101830008C130C1483120C08F1005E2C0313630844
:10184000013C031D5C2C62082C3C031C5A2C6208D2
:101850000E3C031D312CA1140E08E5006508F100B3
:10186000592C6208063C031D532CDC08031D3C2C3C
:101870000030F800502C502C52305B07840083134A
:101880000008F200DC0B482C0614DB01DA014D2CB9
:10189000DB0A5B08073C031CDB017208F800502CD4
:1018A0007808F100592C6208233E84008313000855
:1018B000F1005B2CF1015D2CF1010317831603137A
:1018C0001418602C8312941371089300941B632CDA
:1018D000692C00001416E20A0319E30A712C712C1A
:1018E000182A732C6400B6288A115A2EFF2EFF2E58
:1018F000FF2EFF2EFF2EFF2EFF2EFF2EFF2EFF2E80
:10190000FF2EFF2EFF2EFF2EFF2EFF2EFF2EFF2E6F
:10191000FF2EFF2EFF2EFF2EFF2EFF2EFF2EFF2E5F
:10192000FF2EFF2EFF2EFF2EFF2EFF2EFF2EFF2E4F
:020DFE00FF2EC6
:021DFE00FF2EB6
:021DFC00930052
:1042000001000100000002000C0000000000F000AE
:104210000100010007000000000000000000F7009E
:1042200001000A001900200044005000C2004800AC
:104230005000E10042006C00610064006500530022
:1042400079007300740065006D0020006300330086
:10425000300030003000200049006E00730069001B
:10426000670068007400200044006900730070005B
:104270006C0061007900C000CA00350033003400D2
:104280003100320034002D00300030003100C80011
:10429000300039002F00300036002F00310032008E
:1042A0000300D200410030000600D3004300750037
:1042B0006600B0000900C100000000000000D4004A
:1042C000010006001900C20048005000E100420051
:1042D0006C00610064006500530079007300740095
:1042E00065006D00200063003300300030003000B6
:1042F000200049006E0073006900670068007400C8
:10430000200044006900730070006C0061007900B7
:10431000C000C000C00000000000C1000000150087
:10432000000000000000000000000000000000008D
:10433000000000000000000000000000000000007D
:10434000000000000000000000000000000000006D
:10435000000000000000000000000000000000005D
:10436000000000000000000000000000000000004D
:10437000000000000000000000000000000000003D
:10438000000000000000000000000000000000002D
:10439000000000000000000000000000000000001D
:1043A000000000000000000000000000000000000D
:1043B00000000000000000000000000000000000FD
:1043C00000000000000000000000000000000000ED
:1043D00000000000000000000000000000000000DD
:1043E00000000000000000000000000000000000CD
:1043F00000000000000000000000000000000000BD
:04400E00EC2FFF3E56
:084000000C000F000F0003008B
:00000001FF
