:1000000000308A00192D0000FF00030E8301A100BB
:100010007F08A0000A08A8008A01A00E06308A0006
:100020000E2E09008B138B1B122820308500013007
:10003000860087011F3083168500C0308600193086
:100040008700031788018901031395019601713018
:100050008F001430A1000F193228A108031932288B
:10006000A1032B2883128A112F2D83165308831284
:1000700003178D00831603135408831203178F0090
:10008000031083160313D70CD8015708580203181E
:100090007628640003178C170C140000000003136B
:1000A0005608FA005508D50A0319D60A84008313A6
:1000B0007A188317831203170C0880008316031322
:1000C0005608FA005508D50A0319D60A8400831386
:1000D0007A188317831203170E0880008D0A8D0883
:1000E00003198F0A83160313D80A45288312003494
:1000F00006308316AA00A901AB012A080E3C031C96
:100100009B28031D87282908FE3C031C9B282A08DE
:10011000D4002908D300D601AC30D5000230D70076
:100120008312352083162C08AB072D08AB07A90ACC
:100130000319AA0A7D28AB08031DA2280130F80084
:10014000CB28CB2864002B09AE00AE0AF330831213
:1001500003178D00831603132E08831203178C00D8
:1001600083168C130C15831203130B08F7008B13E3
:100170008316031755308D00AA308D008C148C180F
:10018000BF280C117708831203138B04640000301E
:10019000F8008316CB2883120034851607138713C3
:1001A000D128D228851207138316A31BDA288312BD
:1001B00087138316A31FDF288312871783168312E2
:1001C000071707138316231BE82883128713831648
:1001D000231FED288312871783168312071707132F
:1001E0008316A31AF628831287138316A31EFB28EF
:1001F0008312871783168312071707138316231A90
:100200000429831287138316231E09298312871753
:1002100083168312071707138316A3191229831253
:1002200087138316A31D172983128717831683123A
:1002300007170713831623192029831287138316A0
:10024000231D252983128717831683120717071387
:100250008316A3182E29831287138316A31C332910
:100260008312871783168312071707138316231821
:100270003C29831287138316231C41298312871775
:1002800083168312071707138316A21B4A298312AA
:1002900087138316A21F4F29831287178316831291
:1002A000071707138316221B5829831287138316F7
:1002B000221F5D29831287178316831207170713DE
:1002C0008316A21A6629831287138316A21E6B292E
:1002D0008312871783168312071707138316221AB0
:1002E0007429831287138316221E79298312871794
:1002F00083168312071707138316A2198229831204
:1003000087138316A21D87298312871783168312EA
:100310000717071383162219902983128713831650
:10032000221D952983128717831683120717071337
:100330008316A2189E29831287138316A21CA32951
:100340008312871783168312071707138316221841
:10035000AC29831287138316221CB12983128717B5
:100360008316831207170713871385160034A2100C
:10037000FC01FD018130FE00003494123A308316F6
:100380009300363083129400831691019417A001D4
:10039000831200348316AD080319B82A29080F39CF
:1003A000D300D4010310530DF900540DFA0079085D
:1003B000D2002908F039D0002A08D100D208031D44
:1003C000E5292D081F3C031CF1295108D4005008D1
:1003D000D300D601AE30D5002030D70083123520AF
:1003E0008316CF01AE30CE005208CE070318CF0AD5
:1003F00052081F3C031C1E2AAD0803191E2A4F0871
:10040000FA004E08CE0A0319CF0AD3007A08D400A6
:100410002C08FA002B08AB0A0319AC0A84008313DA
:100420007A1883170008D5005308840083135418E2
:10043000831755088000D20AAD03F82929080F3820
:10044000D3002A08D40001305307A9002A08AA00C3
:100450000318AA0A5008831203178D00831603138A
:100460005108831203178F0083160313CF01AE3098
:10047000CE00D2015208073C031C702A4F08FA0034
:100480004E08CE0A0319CF0A840083137A18831703
:100490000008831203178C00831603134F08FA0019
:1004A0004E08CE0A0319CF0A840083137A188317E3
:1004B0000008831203178E0083168C170C15553015
:1004C0008D00AA308D008C14000000000C118312E6
:1004D0008D0A8D0803198F0A83160313D20A3A2A4C
:1004E0000830D0070318D10A5008831203178D0073
:1004F000831603135108831203178F008316031307
:10050000D2015208073C031CB72A4F08FA004E08D4
:10051000CE0A0319CF0A840083137A1883170008C0
:10052000831203178C00831603134F08FA004E083A
:10053000CE0A0319CF0A840083137A1883170008A0
:10054000831203178E0083168C170C1555308D00FF
:10055000AA308D008C14000000000C1183128D0A4B
:100560008D0803198F0A83160313D20A812ACB2917
:10057000831200342330840083138316A1013230A8
:10058000A20022080319C92A21088000840AA20BAC
:10059000C42A1F308312A700A8000530AB00143016
:1005A000AC000230AD000130AE000330AF00E830E7
:1005B00003178D0083168C130C1483120C0803137D
:1005C000B200E93003178D0083168C130C148312CC
:1005D0000C080313B300EA3003178D0083168C1345
:1005E0000C1483120C080313B400EB3003178D00B6
:1005F00083168C130C1483120C080313B500EC3013
:1006000003178D0083168C130C1483120C0803132C
:10061000B600ED3003178D0083168C130C14831273
:100620000C080313B700EE3003178D0083168C13EC
:100630000C1483120C080313B800EF3003178D005D
:1006400083168C130C1483120C080313B900F030BA
:1006500003178D0083168C130C1483120C080313DC
:10066000BA008316A1012108023C031CBC2B0530F3
:10067000A3005E30A2008312CD2005308316A300B4
:100680001E30A2008312CD2005308316A3005E30F9
:10069000A2008312CD2004308316A3001B30A200D9
:1006A0008312CD201B30C20001308316A3008F308F
:1006B000A2008312CD208F30C00006308316A30025
:1006C0002A30A2008312CD202A30C4008316A30151
:1006D0000630A2008312CD200630BF0008308316FA
:1006E000A300C030A2008312CD20C030C60003306A
:1006F0008316A3006630A2008312CD206630C100AD
:100700000D308316A3004130A2008312CD2041306A
:10071000C8000F308316A3004430A2008312CD20FE
:100720004430CA0011308316A3003630A200831271
:10073000CD203630CC0005308316A3007730A200E0
:100740008312CD207730C30014308316A200A2306C
:100750008400831300080319BA2B0230F800F70154
:10076000F70BB02BF80BAF2B9730F700F70BB62B2E
:10077000800BAD2BA10A332B640083128101FF3063
:100780008316810083120317850102300313900042
:100790008F018E0110140C1083160C104D30831233
:1007A0009200F9308316920083128C1083168C10FD
:1007B00014308312A100B721BD218C1C012C003004
:1007C00022180130013AF800221078182214221C55
:1007D000E92BA10BFF2B1430A100141EF12B141FC9
:1007E000FC2B8316A00A2008053C031DFA2B83125C
:1007F000BD218316FE2B83128316A00183128C1059
:10080000152D8C1D152D83161408A10083121308B5
:100810008316A20083128C118316A0018312141F69
:10082000142CBD21152D152D831621082539013ACB
:10083000831203192B2C203A03192C2C253A031967
:10084000E12C013A0319E12C213A0319E12C043A75
:100850000319132D142D152D83162208A3007D08CE
:100860001F3C031CDD2C7D08FD0A573E84008313CA
:10087000230880007D0B3F2C2308FC00DC2C053076
:100880007C077D02031DDC2C7D08A4002408203C8D
:1008900003184D2C8A30FE00DC2CA701A801240887
:1008A000280203185B2C57302807840083130008A4
:1008B000A707A80A4F2CA7080319612C8530FE0052
:1008C000DC2C83125A080319692C013A0319C22C33
:1008D000D82C58088316AA00831259088316A90039
:1008E00003102A0CA600290CA5002608053C0318B5
:1008F000BF2C26080E3C031CBF2C03108312570C80
:1009000083162507A9002608AA000318AA0A0130A1
:100910002902AB002A08AC000030031C0130AC02F5
:100920002C080E3C031CA32C2608AA002508A900AD
:10093000AC015B30AB00831257088316AD00831205
:10094000CA21BE2C83162508003CA9000F30AA003E
:100950002608031C260FAA020310290DF9002A0DF0
:10096000FA007908A8002608AA002508A900AC0109
:100970005B30AB002808AD008312CA218316AA3071
:10098000FE00DC2CD708031DD22CD808031DD22C66
:10099000D908031DD22C7820780BD22CAA30FE0067
:1009A000A214D52C8530FE00A2108316DC2C8312F5
:1009B0008230FE008316DC2CDF2C8A30FE0083128E
:1009C000152D83161418E22C831294137E089300BD
:1009D000941BE52CEB2CEC2C1416A21C112D7E087C
:1009E000AA3C031D112DF13003178D00AA308C0095
:1009F00083168C130C15831203130B08F7008B134B
:100A00008316031755308D00AA308D008C148C1876
:100A1000072D0C117708831203138B048A01002819
:100A2000122DB721152D152D112C6400DD2B8A11E7
:100A3000452D840183131F3083058316031709088E
:100A4000C039890003131F129F120030031788005A
:100A50008312870188018901031322101228F130C3
:100A600003178D0083168C130C1483120C08553C4D
:100A70000319402D03137820F808031D422D031796
:100A80000313BA2A06308A0082018A010028630013
:100A9000FF2EFF2EFF2EFF2EFF2EFF2EFF2EFF2EEE
:100AA000FF2EFF2EFF2EFF2EFF2EFF2EFF2EFF2EDE
:100AB000FF2EFF2EFF2EFF2EFF2EFF2EFF2EFF2ECE
:100AC000FF2EFF2EFF2EFF2EFF2EFF2EFF2EFF2EBE
:100AD000FF2EFF2EFF2EFF2EFF2EFF2EFF2EFF2EAE
:100AE000FF2EFF2EFF2EFF2EFF2EFF2EFF2EFF2E9E
:100AF000FF2EFF2EFF2EFF2EFF2EFF2EFF2EFF2E8E
:100B0000FF2EFF2EFF2EFF2EFF2EFF2EFF2EFF2E7D
:100B1000FF2EFF2EFF2EFF2EFF2EFF2EFF2EFF2E6D
:100B2000FF2EFF2EFF2EFF2EFF2EFF2EFF2EFF2E5D
:100B3000FF2EFF2EFF2EFF2EFF2EFF2EFF2EFF2E4D
:100B4000FF2EFF2EFF2EFF2EFF2EFF2EFF2EFF2E3D
:100B5000FF2EFF2EFF2EFF2EFF2EFF2EFF2EFF2E2D
:100B6000FF2EFF2EFF2EFF2EFF2EFF2EFF2EFF2E1D
:100B7000FF2EFF2EFF2EFF2EFF2EFF2EFF2EFF2E0D
:100B8000FF2EFF2EFF2EFF2EFF2EFF2EFF2EFF2EFD
:100B9000FF2EFF2EFF2EFF2EFF2EFF2EFF2EFF2EED
:100BA000FF2EFF2EFF2EFF2EFF2EFF2EFF2EFF2EDD
:100BB000FF2EFF2EFF2EFF2EFF2EFF2EFF2EFF2ECD
:100BC000FF2EFF2EFF2EFF2EFF2EFF2EFF2EFF2EBD
:100BD000FF2EFF2EFF2EFF2EFF2EFF2EFF2EFF2EAD
:100BE000FF2EFF2EFF2EFF2EFF2EFF2EFF2EFF2E9D
:100BF000FF2EFF2EFF2EFF2EFF2EFF2EFF2EFF2E8D
:100C000000308A00402E000094123A308316930080
:100C100036308312940083169101941711148312B5
:100C2000E501E801E701A110EA01EB0100346108E8
:100C3000073C031C2C2E57305F0784008313831658
:100C4000200880008312E10803190610E10ADF0A78
:100C50005F08073C031CDF0100347D08A4007D0B06
:100C6000352E8A1500208A113C2E05308316A400EB
:100C70005E30A300831200270034FF2EFF2EFF2ECC
:100C8000840183131F308305831603170908C039B5
:100C9000890003131F129F1200300317880083126C
:100CA00087018801890103132110E201E301E401B6
:100CB0008A15A7288A116300FF2EFF2EFF2EFF2E14
:100CC00064007D0803178D007E088C0083168C134A
:100CD0000C15831203130B08F7008B1383160317ED
:100CE00055308D00AA308D008C148C18752E0C1187
:100CF0007708831203138B0464000034FF2EFF2E49
:100D0000FF2EFF2EFF2EFF2EFF2EFF2EFF2EFF2E7B
:100D1000FF2EFF2EFF2EFF2EFF2EFF2EFF2EFF2E6B
:100D2000FF2EFF2EFF2EFF2EFF2EFF2EFF2EFF2E5B
:100D3000FF2EFF2EFF2EFF2EFF2EFF2EFF2EFF2E4B
:100D4000FF2EFF2EFF2EFF2EFF2EFF2EFF2EFF2E3B
:100D5000FF2EFF2EFF2EFF2EFF2EFF2EFF2EFF2E2B
:100D6000FF2EFF2EFF2EFF2EFF2EFF2EFF2EFF2E1B
:100D7000FF2EFF2EFF2EFF2EFF2EFF2EFF2EFF2E0B
:100D8000FF2EFF2EFF2EFF2EFF2EFF2EFF2EFF2EFB
:100D9000FF2EFF2EFF2EFF2EFF2EFF2EFF2EFF2EEB
:100DA000FF2EFF2EFF2EFF2EFF2EFF2EFF2EFF2EDB
:100DB000FF2EFF2EFF2EFF2EFF2EFF2EFF2EFF2ECB
:100DC000FF2EFF2EFF2EFF2EFF2EFF2EFF2EFF2EBB
:100DD000FF2EFF2EFF2EFF2EFF2EFF2EFF2EFF2EAB
:100DE000FF2EFF2EFF2EFF2EFF2EFF2EFF2EFF2E9B
:100DF000FF2EFF2EFF2EFF2EFF2EFF2EFF2EFF2E8B
:100E0000851607138713042F052F851207138316E2
:100E1000A41B0D2F831287138316A41F122F831276
:100E2000871783168312071707138316241B1B2F9C
:100E3000831287138316241F202F8312871783168C
:100E40008312071707138316A41A292F83128713F7
:100E50008316A41E2E2F831287178316831207175B
:100E600007138316241A372F831287138316241E21
:100E70003C2F8312871783168312071707138316D5
:100E8000A419452F831287138316A41D4A2F83129A
:100E90008717831683120717071383162419532FF6
:100EA000831287138316241D582F831287178316E6
:100EB0008312071707138316A418612F8312871351
:100EC0008316A41C662F83128717831683120717B5
:100ED0000713831624186F2F831287138316241C7D
:100EE000742F83128717831683120717071383162D
:100EF000A31B7D2F831287138316A31F822F8312B8
:100F0000871783168312071707138316231B8B2F4C
:100F1000831287138316231F902F8312871783163C
:100F20008312071707138316A31A992F83128713A7
:100F30008316A31E9E2F831287178316831207170B
:100F400007138316231AA72F831287138316231ED2
:100F5000AC2F831287178316831207170713831684
:100F6000A319B52F831287138316A31DBA2F8312DB
:100F70008717831683120717071383162319C32FA6
:100F8000831287138316231DC82F83128717831696
:100F90008312071707138316A318D12F8312871301
:100FA0008316A31CD62F8312871783168312071765
:100FB000071383162318DF2F831287138316231C2E
:100FC000E42F8312871783168312071707138713DB
:100FD00085160034FF2EFF2EFF2EFF2EFF2EFF2E34
:100FE000FF2EFF2EFF2EFF2EFF2EFF2EFF2EFF2E99
:100FF000FF2EFF2EFF2EFF2EFF2EFF2EFF2EFF2E89
:10100000FE017E08023C031CA62805308316A400BE
:101010005E30A3008A11831200278A1505308316DB
:10102000A4001E30A3008A11831200278A15053000
:101030008316A4005E30A3008A11831200278A154C
:1010400004308316A4001B30A3008A1183120027EA
:101050008A151B30C20001308316A4008F30A30014
:101060008A11831200278A158F30C000063083163C
:10107000A4002A30A3008A11831200278A152A307F
:10108000C4008316A4010630A3008A11831200272E
:101090008A150630BF0008308316A400C030A300B4
:1010A0008A11831200278A15C030C60003308316C8
:1010B000A4006630A3008A11831200278A156630C7
:1010C000C1000D308316A4004130A3008A118312A1
:1010D00000278A154130C8000F308316A400443021
:1010E000A3008A11831200278A154430CA001130E8
:1010F0008316A4003630A3008A11831200278A15B4
:101100003630CC0005308316A4007730A3008A1156
:10111000831200278A157730C30014308316A0008D
:10112000A0308400831300080319A3280230F800BC
:10113000F701F70B9928F80B98289730F700F70B71
:101140009F28800B9628FE0A8312012800348B13F7
:101150008B1BA728233084008313F5013230F6005F
:1011600076080319B82875088000840AF60BB3289E
:101170001F30A700A8000530AB001430AC000230CF
:10118000AD000630AE000330AF00E83003178D002D
:1011900083168C130C1483120C080313B200E9306D
:1011A00003178D0083168C130C1483120C08031381
:1011B000B300EA3003178D0083168C130C148312CE
:1011C0000C080313B400EB3003178D0083168C1347
:1011D0000C1483120C080313B500EC3003178D00B8
:1011E00083168C130C1483120C080313B600ED3015
:1011F00003178D0083168C130C1483120C08031331
:10120000B700EE3003178D0083168C130C14831275
:101210000C080313B800EF3003178D0083168C13EE
:101220000C1483120C080313B900F03003178D005F
:1012300083168C130C1483120C080313BA00DF01FD
:10124000E001E1010A30EC003C30ED00EE000A3034
:10125000EF003C30F000F1000A30F2003C30F300C7
:10126000F400D501D60164008101FF3083168100AE
:101270008312031785010230031390008F018E0142
:1012800010140C1083160C104D3083129200F9309C
:101290008316920083128C1083168C1014308312E4
:1012A000A0008A1104268A1583168C1583120B1749
:1012B00010308316A0008A11831217268A158C1C01
:1012C000C52A003021180130013AF80021107818A1
:1012D0002114211CE3296408F50005081F3A1F3971
:1012E000F6006408FE0076088316A00020087E063B
:1012F000A10083126308E206E30983162108831222
:10130000E205831621088312E30562086304FE05E3
:1013100062086304FF3A83162005FE047E08F80085
:1013200078088312E40075086406FC00FC080319C1
:10133000E329FD017D08043C031CE3297C08F70038
:101340007D08F8000319A8290310F70CF80BA4294D
:10135000771CE1296408F7007D08F8000319B42917
:101360000310F70CF80BB029771CCC292708F700DD
:101370007D08F8000319C0290310F70CF80BBC29ED
:10138000771CCB297D082038FE008316A0008A1127
:10139000831217268A15E1292808F7007D08F8002E
:1013A0000319D6290310F70CF80BD229771CE12971
:1013B0007D083038FE008316A0008A11831217269C
:1013C0008A15FD0A9A29A00BC42A1430A000141F04
:1013D000F929EB0A6B08053C031DF8298A1104263C
:1013E0008A1540308316A0008A11831217268A15A9
:1013F000FA29EB01AA080319252AA4080319252AAA
:10140000D50B252A83168C118312D6080319152AA9
:1014100005308316A400D630A3008A11831200275A
:101420008A152C08D500D601222A05308316A4007F
:10143000D730A3008A11831200278A152B08D50004
:101440000130D60083168C158312EC0B4B2A0A3020
:10145000EC00ED0B4B2A3C30ED00EE0B4B2A3C3000
:10146000EE00B20F362AB30F362AB40AE830FD0078
:101470003208FE008A1160268A15E930FD00330823
:10148000FE008A1160268A15EA30FD003408FE004D
:101490008A1160268A15A4080319742AEF0B742A8E
:1014A0000A30EF00F00B742A3C30F000F10B742A84
:1014B0003C30F100B50F5F2AB60F5F2AB70AEB3058
:1014C000FD003508FE008A1160268A15EC30FD000B
:1014D0003608FE008A1160268A15ED30FD003708B7
:1014E000FE008A1160268A15AA080319A32AA408F7
:1014F0000319A32AD6080319A32AF20BA32A0A3038
:10150000F200F30BA32A3C30F300F40BA32A3C3087
:10151000F400B80F8E2AB90F8E2ABA0AEE30FD00F9
:101520003808FE008A1160268A15EF30FD00390860
:10153000FE008A1160268A15F030FD003A08FE0090
:101540008A1160268A15A20BC42A0A30A200101044
:101550000F08F6000E08F5008F018E011014F60832
:10156000031DB62A7508323C0318BB2A8618BB2A0D
:1015700000208614C42AF608031DC42A7508313CCD
:10158000031CC42A861886108C108C1DB92D831656
:101590001408F50083121308E9008C11EB01141FE5
:1015A000DC2A8A1104268A1540308316A0008A118D
:1015B000831217268A15B82D75082539013A0319A3
:1015C000F12A203A0319F42A253A0319552D013A34
:1015D0000319552D213A0319552D043A0319B62D37
:1015E000B72DE5011416B82DE508031DFC2A69087E
:1015F000E6000130E500532D650B052B6608E80079
:101600006908E7000230E500532DE808031D172B99
:101610006708BF3C031C172B301C172B6708FC0006
:10162000FD006908FE008A1160268A15502D6808A1
:10163000013C031D502D670803197F2B013A031944
:10164000832B033A03198B2B013A0319A82B073A72
:101650000319C32B013A0319C72B023A0319CB2BE9
:101660000F3A0319DF2B013A0319E22B073A03194A
:10167000E52B033A0319F92B263A0319FD2B373AC8
:101680000319162C013A0319232C033A0319322C9F
:10169000013A0319412C3F3A0319502C013A03191E
:1016A0005F2C033A03196E2C013A03197D2C073A7B
:1016B00003198C2C013A03199B2C033A0319AA2C09
:1016C000013A0319B92C0F3A0319C82C013A03192E
:1016D000D72C033A0319E62C063A0319F52C013AE4
:1016E0000319042D033A0319132D013A0319222D6E
:1016F0001F3A0319312D013A0319402D4F2D690866
:101700000739A300502D69080139FC00FD008A113A
:101710002D268A15502D69080139FC007C08FD0032
:101720007D08A5007D0B9E2B04308316A4001B3082
:10173000A3008A11831200278A15A72B0430831671
:10174000A4001930A3008A11831200278A15502D96
:1017500069080739FC007C08FD007D08A6007D08AB
:101760000739F700F70EF70DE030F7057708831615
:10177000A1000330A200A4002108A3008A11831253
:1017800000278A15502D69081F39A700502D6908B8
:101790001F39A800502D69080139AA00A4080319AF
:1017A000DE2BAA080319D92B2B08D5000130D6004F
:1017B000DE2B2408FD008A112D268A15502D69087C
:1017C000AB00502D6908AC00502DA11CF82B6A0805
:1017D000FF3A6902031DF72B8B13F130FD005530E2
:1017E000FE008A1160268A158A010028F82BA110B4
:1017F000502D69080139B000502D69080139CE001B
:10180000CE0803190C2C16308316A400A3018A11EC
:10181000831200278A15152C16308316A400043075
:10182000A3008A11831200278A15502D6908BF0072
:101830006908FC008316A4017C08A3008A118312A6
:1018400000278A15502D6908C0006908FC00013086
:10185000FD008316A4007C08A3008A1183120027D0
:101860008A15502D6908C1006908FC000330FD008D
:101870008316A4007C08A3008A11831200278A150E
:10188000502D6908C2006908FC000430FD00831671
:10189000A4007C08A3008A11831200278A15502D0A
:1018A0006908C3006908FC000530FD008316A40028
:1018B0007C08A3008A11831200278A15502D69081D
:1018C000C4006908FC000630FD008316A4007C08F3
:1018D000A3008A11831200278A15502D6908C500BC
:1018E0006908FC000730FD008316A4007C08A300F3
:1018F0008A11831200278A15502D6908C6006908CD
:10190000FC000830FD008316A4007C08A3008A11A7
:10191000831200278A15502D6908C7006908FC004A
:101920000C30FD008316A4007C08A3008A118312EA
:1019300000278A15502D6908C8006908FC000D3081
:10194000FD008316A4007C08A3008A1183120027DF
:101950008A15502D6908C9006908FC000E30FD0089
:101960008316A4007C08A3008A11831200278A151D
:10197000502D6908CA006908FC000F30FD0083166D
:10198000A4007C08A3008A11831200278A15502D19
:101990006908CB006908FC001030FD008316A40024
:1019A0007C08A3008A11831200278A15502D69082C
:1019B000CC006908FC001130FD008316A4007C08EF
:1019C000A3008A11831200278A15502D6908CD00C3
:1019D0006908FC001530FD008316A4007C08A300F4
:1019E0008A11831200278A15502D6908CF006908D3
:1019F000FC001730FD008316A4007C08A3008A11A8
:101A0000831200278A15502D6908D0006908FC0050
:101A10001830FD008316A4007C08A3008A118312ED
:101A200000278A15502D6908D1006908FC0019307B
:101A3000FD008316A4007C08A3008A1183120027EE
:101A40008A15502D6908D2006908FC001A30FD0083
:101A50008316A4007C08A3008A11831200278A152C
:101A6000502D6908D3006908FC009530FD008316ED
:101A7000A4007C08A3008A11831200278A15502D28
:101A80006908D4006908FC009A30FD008316A400A0
:101A90007C08A3008A11831200278A15502D502D2F
:101AA000E70A0319E80A1416B82D6808031D662D05
:101AB00064006708FC007C0803178D0083168C13F4
:101AC0000C1483120C08F600A52D03136808013CC2
:101AD000031DA32D6708313C031CA12D67080E3C94
:101AE000031D782DA1140E08EA006A08F600A02D47
:101AF0006708063C031D9A2DE108031D832D003065
:101B0000F800972D972D5730600784008313000845
:101B1000FC00E10B8F2D0614E001DF01942DE00A9B
:101B20006008073C031CE0017C08F800972D78084A
:101B3000F600A02D6708233E840083130008F600FA
:101B4000A22DF601A42DF601031783160313141812
:101B5000A72D8312941376089300941BAA2DB02D01
:101B600000001416E70A0319E80AB82DB82DD12A87
:101B7000BA2D64005F298A115A2EFF2EFF2EFF2EE8
:101B8000FF2EFF2EFF2EFF2EFF2EFF2EFF2EFF2EED
:101B9000FF2EFF2EFF2EFF2EFF2EFF2EFF2EFF2EDD
:101BA000FF2EFF2EFF2EFF2EFF2EFF2EFF2EFF2ECD
:101BB000FF2EFF2EFF2EFF2EFF2EFF2EFF2EFF2EBD
:020DFE00FF2EC6
:021DFE00FF2EB6
:021DFC00FE00E7
:1042000001000100000002000C0000000000F000AE
:104210000100010005000000000000000000F9009E
:1042200001000A001900200044005000C2004800AC
:104230005000E10042006C00610064006500530022
:1042400079007300740065006D0020006300370082
:10425000300030003000200049006E00730069001B
:10426000670068007400200044006900730070005B
:104270006C0061007900C000CA00340034003100D5
:104280003200300033002D00300030003100C80013
:10429000300031002F00320030002F00310031009B
:1042A0000300D200410030000600D30044000800A3
:1042B0006100B0000300C1000000000000005900D0
:1042C000010006001900C20048005000E100420051
:1042D0006C00610064006500530079007300740095
:1042E00065006D00200063003700300030003000B2
:1042F000200049006E0073006900670068007400C8
:10430000200044006900730070006C0061007900B7
:10431000C000C000C00000000000C100000011008B
:10432000000000000000000000000000000000008D
:10433000000000000000000000000000000000007D
:10434000000000000000000000000000000000006D
:10435000000000000000000000000000000000005D
:10436000000000000000000000000000000000004D
:10437000000000000000000000000000000000003D
:10438000000000000000000000000000000000002D
:10439000000000000000000000000000000000001D
:1043A000000000000000000000000000000000000D
:1043B00000000000000000000000000000000000FD
:1043C00000000000000000000000000000000000ED
:1043D00000000000000000000000000000000000DD
:1043E00000000000000000000000000000000000CD
:1043F00000000000000000000000000000000000BD
:04400E00EC2FFF3E56
:084000000E000E0008000C0088
:00000001FF
