:1000000000308A007A2D0000FF00030E8301A1005A
:100010007F08A0000A08A8008A01A00E0408A20018
:100020007708A3007808A4007908A5007A08A6003C
:100030007B08A700831383128C308400801D222844
:100040008C193528220884002308F7002408F800BA
:100050002508F9002608FA002708FB0028088A006E
:10006000210E8300FF0E7F0E09008A11EA299412E7
:100070003A3083169300363083129400831694131B
:1000800014138312D701DA01D9015C10DD01DE01FE
:10009000DC1000346400031759088D005A088C00E6
:1000A00083168C130C15831203130B08F7008B13A4
:1000B0008316031755308D00AA308D008C148C18D0
:1000C0005F280C117708831203138B04640000343B
:1000D00086168611061064000000000000008612DB
:1000E000861183160317B91B7A288312031306108F
:1000F00083160317B91F812883120313061483166E
:100100000317831203138615861183160317391BF1
:100110008E2883120313061083160317391F9528A0
:100120008312031306148316031783120313861511
:10013000861183160317B91AA22883120313061017
:1001400083160317B91EA9288312031306148316F6
:100150000317831203138615861183160317391AA2
:10016000B62883120313061083160317391EBD2801
:1001700083120313061483160317831203138615C1
:10018000861183160317B919CA28831203130610A0
:1001900083160317B91DD12883120313061483167F
:1001A0000317831203138615861183160317391953
:1001B000DE2883120313061083160317391DE52862
:1001C0008312031306148316031783120313861571
:1001D000861183160317B918F22883120313061029
:1001E00083160317B91CF928831203130614831608
:1001F0000317831203138615861183160317391804
:10020000062983120313061083160317391C0D29C0
:100210008312031306148316031783120313861520
:10022000861183160317B81B1A29831203130610AD
:1002300083160317B81F212983120313061483168C
:100240000317831203138615861183160317381BB1
:100250002E2983120313061083160317381F35291E
:1002600083120313061483160317831203138615D0
:10027000861183160317B81A422983120313061036
:1002800083160317B81E4929831203130614831615
:100290000317831203138615861183160317381A62
:1002A000562983120313061083160317381E5D297F
:1002B0008312031306148316031783120313861580
:1002C000861183160317B8196A29831203130610BF
:1002D00083160317B81D712983120313061483169E
:1002E0000317831203138615861183160317381913
:1002F0007E2983120313061083160317381D8529E0
:10030000831203130614831603178312031386152F
:10031000861183160317B818922983120313061047
:1003200083160317B81C9929831203130614831626
:1003300003178312031386158611831603173818C3
:10034000A62983120313061083160317381CAD2940
:1003500083120313061483160317831203138615DF
:100360008611061086160034053083160317B9006F
:100370001630B80083120313682083160317B901DF
:100380000730B80083120313682004308316031764
:10039000B9001B30B800831203136820063083169F
:1003A0000317B9002E30B8008312031368200830F9
:1003B00083160317B900C030B800831203136820F6
:1003C000053083160317B900D730B8008312031322
:1003D000682000348316140883120317D700031310
:1003E0001308DB00DE01141FF7293720232B031726
:1003F00057082539013A031303190B2A203A031928
:100400000D2A253A0319AB2A203A0319AB2A043ADC
:1004100003191F2B202BD701232BD708031D152AC7
:100420005B08D8000130D700AA2A570B1E2A5808AB
:10043000DA005B08D9000230D700AA2ADA08031DC7
:10044000322A5908BF3C031C322A371C322A590869
:100450000317D800D90003135B080317DA0003134E
:100460004A20A72A5A08013C031DA72A5908003A26
:100470000319592A013A03195D2A033A0319652A17
:10048000013A03196D2A073A0319752A013A03192B
:10049000792A023A03197D2A0F3A0319912A013A5F
:1004A0000319942A073A0319972A033A0319A22A2F
:1004B000A62A5B080739AA00A72A5B080139031797
:1004C000D800D90003130027A72A5B0801390317B6
:1004D000D800D90003131427A72A5B08073903178C
:1004E000D800D90003132E27A72A5B081F39AE00B6
:1004F000A72A5B081F39AF00A72A5B080139B100A2
:10050000AB080319902AB10803198B2A3208C600D8
:100510000130C700902A2B080317D90003130027C6
:10052000A72A5B08B200A72A5B08B300A72A5C1CB5
:10053000A12A5D08FF3A5B02031DA02ADC14A12A50
:100540005C10A72A5B080139B700A72AA72AD90A95
:100550000319DA0A232B5A08031DBB2A6400590821
:100560000317D9008D0083168C130C1483120C080A
:10057000D800062B03135A08013C031D042B59080D
:100580001B3C031C002B59080E3C031DCF2A5C1496
:100590000E08DD005D080317D800FE2A0313590872
:1005A000063C031DF72AD208031DDA2A0030F800A2
:1005B000F22AF22A483051078400831300080317F7
:1005C000D9000313D20BE82A0615D101D001ED2A78
:1005D000D10A5108073C031CD10103175908F80040
:1005E0000313F22A78080317D800FE2A03135908C8
:1005F0002A3E8400831300080317D800022B03133C
:100600000317D801062B03130317D801831603130E
:10061000141C0D2B83120317062B8312941303173C
:10062000580803139300941F172B83160D2B0000FB
:10063000000000001416D90A0319DA0A232B232B11
:1006400094123720232B8C118A112228B830840071
:100650008317000803193E2B0230F800BF30F70063
:100660006400F70B302BF80B2E2B9630F700F70BAE
:10067000372B000000006400800B2C2B0034520844
:10068000073C031C562B8B13483050078400831300
:100690000317540880000313D20803190611D20A65
:1006A000D00A5008073C031CD0018B1700348B1371
:1006B000703083168F00143083120317D000831616
:1006C00003130F087C3C0319712B83120317D00806
:1006D000031D6D2B83160313712BD0035F2B831621
:1006E000031383120317D10151081B3C031C7F2BFA
:1006F0002A305107840083138001D10A742B1F30E4
:100700000313AE00AF000530B2001430B300023066
:10071000B400B500B600E83003178D0083168C13C3
:100720000C1483120C080313B900E93003178D0071
:1007300083168C130C1483120C080313BA00EA30CE
:1007400003178D0083168C130C1483120C080313EB
:10075000BB00EB3003178D0083168C130C1483122F
:100760000C080313BC00EC3003178D0083168C13A8
:100770000C1483120C080313BD00ED3003178D0019
:1007800083168C130C1483120C080313BE00EE3076
:1007900003178D0083168C130C1483120C0803139B
:1007A000BF00EF3003178D0083168C130C148312D7
:1007B0000C080313C000F03003178D0083168C1350
:1007C0000C1483120C080313C10083169B013F30E5
:1007D0006500D23066008312851705170615D00113
:1007E000D101D2010A30DF003C30E000E1000A30E4
:1007F000E2003C30E300E4000A30E5003C30E60073
:10080000E700A5309000EC308F0078308E000A3081
:10081000E800E900C601C7014827A9018B1BA917F9
:100820008B13B421A91B8B17031705140B30F7008A
:100830000730031381018130840083130008F039ED
:100840000738800064000008F03977048000372002
:1008500083168C1583120B178B1710300317D400D7
:1008600003133F238A118B2DEC308F0078308E00DC
:100870006A27E80B772D0A30E800141E412C141F5C
:100880004D2CDE0A5E08053C031D4C2C3720403001
:100890000317D40003133F234E2CDE01B1080319C4
:1008A000852CAB080319852CC60B852C83168C115F
:1008B0008312C70803196F2CA9018B1BA9178B136F
:1008C000053083160317B900D630B800831203131E
:1008D0006820A91B8B173308C600C701822CA90109
:1008E0008B1BA9178B13053083160317B900D7305C
:1008F000B800831203136820A91B8B173208C600A7
:100900000130C70083168C158312DF0BC32C0A300D
:10091000DF00E00BC32C3C30E000E10BC32C3C308B
:10092000E100B90F962CBA0F962CBB0AA9018B1BBC
:10093000A9178B13E8300317D900031339080317DD
:10094000DA0003134A20A91B8B17A9018B1BA917D7
:100950008B13E9300317D90003133A080317DA00A1
:1009600003134A20A91B8B17A9018B1BA9178B13F3
:10097000EA300317D90003133B080317DA00031307
:100980004A20A91B8B17AB080319042DE20B042D79
:100990000A30E200E30B042D3C30E300E40B042DAD
:1009A0003C30E400BC0FD72CBD0FD72CBE0AA901E8
:1009B0008B1BA9178B13EB300317D90003133C08CB
:1009C0000317DA0003134A20A91B8B17A9018B1BFD
:1009D000A9178B13EC300317D90003133D08031735
:1009E000DA0003134A20A91B8B17A9018B1BA91737
:1009F0008B13ED300317D90003133E080317DA00F9
:100A000003134A20A91B8B17B10803194B2DAB0800
:100A100003194B2DC70803194B2DE50B4B2D0A303D
:100A2000E500E60B4B2D3C30E600E70B4B2D3C3050
:100A3000E700BF0F1E2DC00F1E2DC10AA9018B1B81
:100A4000A9178B13EE300317D90003133F080317C0
:100A5000DA0003134A20A91B8B17A9018B1BA917C6
:100A60008B13EF300317D900031340080317DA0084
:100A700003134A20A91B8B17A9018B1BA9178B13E2
:100A8000F0300317D900031341080317DA000313EA
:100A90004A20A91B8B17E9036908053C031D652D36
:100AA0002A080339033C031D572D85175F2D2A089B
:100AB0000339013C031D5E2D85135F2D85172A1D0B
:100AC000632D0513642D0517772DE908031D772D78
:100AD0000A30E9002A080139013C031D712D8513F4
:100AE000722D85172A1D762D0513772D05170C10ED
:100AF0008A11902D840183131F30830583161F12E2
:100B00009F121B0880390F389B0007309C001C087F
:100B100083120D13572BDC18922D0C1C902D342CA6
:100B200064008B2D8B13640009308A0082016300FE
:100B3000FF2EFF2EFF2EFF2EFF2EFF2EFF2EFF2E4D
:100B4000FF2EFF2EFF2EFF2EFF2EFF2EFF2EFF2E3D
:100B5000FF2EFF2EFF2EFF2EFF2EFF2EFF2EFF2E2D
:100B6000FF2EFF2EFF2EFF2EFF2EFF2EFF2EFF2E1D
:100E0000031759080313AB000317590B0B2F0313D8
:100E1000B421132F031705308316B900D630B8005C
:100E20008312031368200034031759080313AC001E
:100E30000317590B252F04308316B9001B30B80057
:100E40008312031368202D2F031704308316B90073
:100E50001930B800831203136820003403175908AF
:100E60000313AD00031759080739F700F70EF70D04
:100E7000E030F7057708DB000330DC008316B900AB
:100E800083125B088316B8008312031368200034B2
:100E9000D501D601D301D40100340317530803133D
:100EA00056060317D40003135408D306D4090317B6
:100EB00054080313D305031754080313D405530828
:100EC0005404D60553085404FF3A0317530503137B
:100ED000D60400345608D50005081F3A1F390317F9
:100EE000D0005008D30003134D27550856060317AA
:100EF000D100D1080319C82FD2015208043C031CA9
:100F0000C82F5108F7005208F80003198B2F03105F
:100F1000F70CF80B872F771CC62F03135608F70022
:100F200003175208F8000319992F0310F70CF80B58
:100F3000952F771CB12F03132E08F70003175208C3
:100F4000F8000319A72F0310F70CF80BA32F771C39
:100F5000B02F52082038D300D40003133F230317C7
:100F6000C62F03132F08F70003175208F8000319C0
:100F7000BD2F0310F70CF80BB92F771CC62F5208A2
:100F80003038D300D40003133F230317D20A7D2F38
:100F900003130034FF2EFF2EFF2EFF2EFF2EFF2EF9
:100FA000FF2EFF2EFF2EFF2EFF2EFF2EFF2EFF2ED9
:100FB000FF2EFF2EFF2EFF2EFF2EFF2EFF2EFF2EC9
:100FC000FF2EFF2EFF2EFF2EFF2EFF2EFF2EFF2EB9
:100FD000FF2EFF2EFF2EFF2EFF2EFF2EFF2EFF2EA9
:10120000C42588255C110C18B0258C194225640072
:1012100003290034FF2EFF2EFF2EFF2EFF2EFF2E60
:101220008616861106106400000000000000861279
:1012300086110317E01B1F29031306100317E01F75
:101240002429031306140317000000000313861556
:101250000000000000000000000086110317601B62
:101260003429031306100317601F392903130614CA
:1012700003170000000003138615000000000000A3
:101280000000000086110317E01A49290313061015
:101290000317E01E4E290313061403170000000075
:1012A00003138615000000000000000000008611F6
:1012B0000317601A5E29031306100317601E6329C3
:1012C0000313061403170000000003138615000023
:1012D000000000000000000086110317E0197329C8
:1012E000031306100317E01D7829031306140317D0
:1012F000000000000313861500000000000000003D
:1013000000008611031760198829031306100317BC
:10131000601D8D290313061403170000000003133A
:101320008615000000000000000000008611031771
:10133000E0189D29031306100317E01CA2290313CC
:1013400006140317000000000313861500000000B8
:10135000000000000000861103176018B229031373
:1013600006100317601CB7290313061403170000A7
:1013700000000313861500000000000000000000BC
:1013800086110317DF1BC729031306100317DF1F7E
:10139000CC2903130614031700000000031386155D
:1013A00000000000000000000000861103175F1B12
:1013B000DC290313061003175F1FE129031306142A
:1013C0000317000000000313861500000000000052
:1013D0000000000086110317DF1AF129031306101D
:1013E0000317DF1EF629031306140317000000007D
:1013F00003138615000000000000000000008611A5
:1014000003175F1A062A0313061003175F1E0B2A21
:1014100003130614031700000000031386150000D1
:10142000000000000000000086110317DF191B2ACE
:10143000031306100317DF1D202A031306140317D6
:1014400000000000031386150000000000000000EB
:101450000000861103175F19302A031306100317C3
:101460005F1D352A03130614031700000000031341
:101470008615000000000000000000008611031720
:10148000DF18452A031306100317DF1C4A2A03132B
:101490000614031700000000031386150000000067
:1014A000000000000000861103175F185A2A03137A
:1014B000061003175F1C5F2A0313061403170000AE
:1014C000000003138615000000000000000000006B
:1014D0008611061086160034A9018B1BA9178B13E1
:1014E000053083160317B9001630B8008A1183122D
:1014F000031368208A15A91B8B1764308316031702
:10150000B8008A118312031326238A15A9018B1BA5
:10151000A9178B1383160317B9010330B8008A117A
:101520008312031368208A15A91B8B17A9018B1B33
:10153000A9178B13013083160317B9001830B800B0
:101540008A118312031368208A15A91B8B17A9011E
:101550008B1BA9178B13033083160317B900703048
:10156000B8008A118312031368208A15A91B8B17F0
:10157000A9018B1BA9178B13043083160317B9001D
:101580001B30B8008A118312031368208A15A91B27
:101590008B17A9018B1BA9178B1306308316031712
:1015A000B9003330B8008A118312031368208A15FA
:1015B000A91B8B17A9018B1BA9178B130730831647
:1015C0000317B9001E30B8008A1183120313682074
:1015D0008A15A91B8B17A9018B1BA9178B13083020
:1015E00083160317B900C030B8008A1183120313A1
:1015F00068208A15A91B8B17A9018B1BA9178B13B0
:101600000C3083160317B9002630B8008A118312F4
:10161000031368208A15A91B8B17A9018B1BA91717
:101620008B13053083160317B900D730B8008A1121
:101630008312031368208A15A91B8B176430831645
:101640000317B8008A118312031326238A15003466
:101650007208AD3C031D462B831603173A0883120C
:101660008D0083163B08FA0183128F0064009430CA
:1016700083168C0055308D00AA308D008C1400002C
:1016800000000C110C126400831203130034831643
:101690000317370883128D008316380883128F00D2
:1016A0008316BC0103103B0D3C0203187F2B640022
:1016B00081308C00000000003A08FA003908B90AAD
:1016C0000319BA0A840083137A18831783120C084B
:1016D000800083163A08FA003908B90A0319BA0AD1
:1016E000840083137A18831783120E088000640025
:1016F0008D0A8D0803198F0A8316BC0A522B831298
:10170000031300347208BE3C031D1B2C8316031701
:101710008C173A0883128D0083163B0883128F00C2
:101720000D0803398316C000C0080319B82BFC301C
:1017300083128D058316BF0140083F020318B82BA2
:1017400064000C14000000000C1555308D00AA3008
:101750008D008C14000000008C18AC2B0C11640060
:1017600083128D0A8D0803198F0A8316BF0A9C2BDA
:10177000BF0103103E0C3F020318EF2B3D08FA0097
:101780003C08BC0A0319BD0A840083137A18831726
:10179000000883128C0083163D08FA003C08BC0A3E
:1017A0000319BD0A840083137A1883170008831273
:1017B0008E00640083160C1555308D00AA308D0004
:1017C0008C14000000008C18E32B0C1164008312B1
:1017D0008D0A8D0803198F0A8316BF0AB92B83124D
:1017E0000D0803398316C000C0080319192C4008DE
:1017F000043CC000FF3083128C008E008316BF01B2
:1018000040083F020318192C64000C1555308D0058
:10181000AA308D008C14000000008C180D2C0C11C7
:10182000640083128D0A8D0803198F0A8316BF0A7C
:10183000002C8312031300348316141C212C8312F2
:101840001C2C831294136E089300941F292C83166A
:10185000212C00000000000014165C1D352C6E08C1
:10186000AA3C031D352C6400342C5130EE00ED01F0
:10187000EA01003483160317B801B901390883124D
:1018800003136D02031C502CA03083160317390775
:10189000840083130008B807B90A3E2C831203138F
:1018A00083160317B80803195C2C553083120313F1
:1018B000EE00222D8316031703132308003A831228
:1018C0000319662C013A0319012D1F2D83162108D7
:1018D0000317BB00031322080317BA0003103B0CC5
:1018E00083120313EC00831603173A0C83120313BD
:1018F000EB00EC08031DB92C6B081F3C031CB92C32
:1019000003106B0D83160317BA00831203136C0DBB
:1019100083160317BB0010303A07BC003B08BD001C
:101920000318BD0A0130BD07BF01A430BE00031378
:101930002008F8000319B72C03173E08840083130E
:101940003F1883170008F7003C08840083133D18F4
:10195000831777088000BC0A0319BD0ABE0A031961
:10196000BF0AF80BB42CB62C03139C2C0313FD2CCC
:1019700083126C08083C031CFC2C6B081F3983166F
:101980000317BA00831203136C0800398316031778
:10199000BB00BA08031DE22CBB08031DE22CAD30CE
:1019A000F200831203136C0883160317BB00831223
:1019B00003136B0883160317BA008312031328233B
:1019C00083160317BE30F200831203136C088316CC
:1019D0000317BB00831203136B0883160317BA00A7
:1019E000BD01A430BC00031320080317BE008312FE
:1019F00003138223DE30F2008316AA308312EE0036
:101A0000222DAD30F20083160317BB01BA018312F9
:101A100003132823BE30F20083160317BB01BA015B
:101A20000130BD001030BC004030BE0083120313F3
:101A30008223DE30F200AA30EE005C15222D5230F7
:101A4000EE00222DED01EA01003494123A308316A3
:101A50009300363083129400831694131413831268
:101A6000ED01EA015130EE00EF010034141E3A2D71
:101A7000141F402DEF0A6F08053C03192525412D41
:101A8000EF010034831614080317B7008312031301
:101A90001308F0008C11EF01141F502D2525872D00
:101AA0008316031737082539013A831203130319E4
:101AB000662D203A0319672D253A0319812D203A06
:101AC0000319812D043A0319832D842D872D6D0868
:101AD0001F3C031C7E2DA0306D078400831370080B
:101AE0008000ED08031D772D7008EA007C2D04307E
:101AF0006A076D0203193A24ED0A802D5A30EE0070
:101B0000872D1C24872D872D94122525872D0034A1
:101B10000E3083160317B800F930B700BA01A030B1
:101B2000B9000630BB00831203134723AD30F20027
:101B300083160317BB01BA01831203132823BE3097
:101B4000F20083160317BB01BA01BD01A030BC002F
:101B50000630BE00831203138223DE30F20000340D
:101B60003C308F00B0308E00F1037108053C031D3E
:101B7000BB2D8517C12DF108031DC12D0A30F100C1
:101B8000851336250C1000348B13703083168F00AC
:101B900014300317B70003130F087C3C0319D92D29
:101BA0000317B708031DD62D0313D92DB703CB2D6B
:101BB00003138312031705140F30F70007300313C4
:101BC00081018130840083130008F03907388000D8
:101BD00064000008F03977048000DE30F2008316DC
:101BE0009B013F306500D2306600831285130517D4
:101BF000A53090003C308F00B0308E000A30F100EC
:101C00006C2225250034FF2EFF2EFF2EFF2EFF2EE7
:101C1000FF2EFF2EFF2EFF2EFF2EFF2EFF2EFF2E5C
:101C2000FF2EFF2EFF2EFF2EFF2EFF2EFF2EFF2E4C
:101C3000FF2EFF2EFF2EFF2EFF2EFF2EFF2EFF2E3C
:101C4000FF2EFF2EFF2EFF2EFF2EFF2EFF2EFF2E2C
:101C5000FF2EFF2EFF2EFF2EFF2EFF2EFF2EFF2E1C
:101C6000FF2EFF2EFF2EFF2EFF2EFF2EFF2EFF2E0C
:101C7000FF2EFF2EFF2EFF2EFF2EFF2EFF2EFF2EFC
:101C8000FF2EFF2EFF2EFF2EFF2EFF2EFF2EFF2EEC
:101C9000FF2EFF2EFF2EFF2EFF2EFF2EFF2EFF2EDC
:101CA000FF2EFF2EFF2EFF2EFF2EFF2EFF2EFF2ECC
:101CB000FF2EFF2EFF2EFF2EFF2EFF2EFF2EFF2EBC
:101CC000FF2EFF2EFF2EFF2EFF2EFF2EFF2EFF2EAC
:101CD000FF2EFF2EFF2EFF2EFF2EFF2EFF2EFF2E9C
:101CE000FF2EFF2EFF2EFF2EFF2EFF2EFF2EFF2E8C
:101CF000FF2EFF2EFF2EFF2EFF2EFF2EFF2EFF2E7C
:101D0000FF2EFF2EFF2EFF2EFF2EFF2EFF2EFF2E6B
:101D1000FF2EFF2EFF2EFF2EFF2EFF2EFF2EFF2E5B
:101D2000FF2EFF2EFF2EFF2EFF2EFF2EFF2EFF2E4B
:101D3000FF2EFF2EFF2EFF2EFF2EFF2EFF2EFF2E3B
:101D4000FF2EFF2EFF2EFF2EFF2EFF2EFF2EFF2E2B
:101D5000FF2EFF2EFF2EFF2EFF2EFF2EFF2EFF2E1B
:101D6000FF2EFF2EFF2EFF2EFF2EFF2EFF2EFF2E0B
:101D7000FF2EFF2EFF2EFF2EFF2EFF2EFF2EFF2EFB
:101D8000FF2EFF2EFF2EFF2EFF2EFF2EFF2EFF2EEB
:101D9000FF2EFF2EFF2EFF2EFF2EFF2EFF2EFF2EDB
:101DA000FF2EFF2EFF2EFF2EFF2EFF2EFF2EFF2ECB
:101DB000FF2EFF2EFF2EFF2EFF2EFF2EFF2EFF2EBB
:101DC000FF2EFF2EFF2EFF2EFF2EFF2EFF2EFF2EAB
:101DD000FF2EFF2EFF2EFF2EFF2EFF2EFF2EFF2E9B
:101DE000FF2EFF2EFF2EFF2EFF2EFF2EFF2EFF2E8B
:101DF000FF2E0A128A1500290034FF2EFF2EFF2E17
:101E0000FF2EFF2EFF2EFF2EFF2EFF2EFF2EFF2E6A
:101E1000FF2EFF2EFF2EFF2EFF2EFF2EFF2EFF2E5A
:101E2000FF2EFF2EFF2EFF2EFF2EFF2EFF2EFF2E4A
:101E3000FF2EFF2EFF2EFF2EFF2EFF2EFF2EFF2E3A
:101E4000FF2EFF2EFF2EFF2EFF2EFF2EFF2EFF2E2A
:101E5000FF2EFF2EFF2EFF2EFF2EFF2EFF2EFF2E1A
:101E6000FF2EFF2EFF2EFF2EFF2EFF2EFF2EFF2E0A
:101E7000FF2EFF2EFF2EFF2EFF2EFF2EFF2EFF2EFA
:101E8000FF2EFF2EFF2EFF2EFF2EFF2EFF2EFF2EEA
:101E9000FF2EFF2EFF2EFF2EFF2EFF2EFF2EFF2EDA
:101EA000FF2EFF2EFF2EFF2EFF2EFF2EFF2EFF2ECA
:101EB000FF2EFF2EFF2EFF2EFF2EFF2EFF2EFF2EBA
:101EC000FF2EFF2EFF2EFF2EFF2EFF2EFF2EFF2EAA
:101ED000FF2EFF2EFF2EFF2EFF2EFF2EFF2EFF2E9A
:101EE000FF2EFF2EFF2EFF2EFF2EFF2EFF2EFF2E8A
:101EF000FF2EFF2EFF2EFF2EFF2EFF2EFF2EFF2E7A
:101F0000FF2EFF2EFF2EFF2EFF2EFF2EFF2EFF2E69
:101F1000FF2EFF2EFF2EFF2EFF2EFF2EFF2EFF2E59
:101F2000FF2EFF2EFF2EFF2EFF2EFF2EFF2EFF2E49
:101F3000FF2EFF2EFF2EFF2EFF2EFF2EFF2EFF2E39
:101F4000FF2EFF2EFF2EFF2EFF2EFF2EFF2EFF2E29
:101F5000FF2EFF2EFF2EFF2EFF2EFF2EFF2EFF2E19
:101F6000FF2EFF2EFF2EFF2EFF2EFF2EFF2EFF2E09
:101F7000FF2EFF2EFF2EFF2EFF2EFF2EFF2EFF2EF9
:101F8000FF2EFF2EFF2EFF2EFF2EFF2EFF2EFF2EE9
:101F9000FF2EFF2EFF2EFF2EFF2EFF2EFF2EFF2ED9
:101FA000FF2EFF2EFF2EFF2EFF2EFF2EFF2EFF2EC9
:101FB000FF2EFF2EFF2EFF2EFF2EFF2EFF2EFF2EB9
:101FC000FF2EFF2EFF2EFF2EFF2EFF2EFF2EFF2EA9
:101FD000FF2EFF2EFF2EFF2EFF2EFF2EFF2EFF2E99
:101FE000FF2EFF2EFF2EFF2EFF2EFF2EFF2EFF2E89
:101FF000FF2EFF2EFF2EFF2EFF2EFF2EFF2EFF2E79
:020DFE00FF2EC6
:021DFE00FF2EB6
:0211FE000000EF
:04400E00342FFF3F0D
:08400000030007000B000C0097
:1042000001000100000002000c0000000000f000ae
:104210000100010002000000000000000000fc009e
:1042200001000a001900200044005000c2004800ac
:104230005000e10042006c00610064006500530022
:1042400079007300740065006d0020006300370082
:10425000300030003000200049006e00730069001b
:10426000670068007400200044006900730070005b
:104270006c0061007900c000ca00340034003100d5
:104280003200300033002d00300030003100c80013
:10429000310031002f00300031002f003000360097
:1042a0000300d200410030000600d30044000800a3
:1042b0006100b0000100c1000000000000005700d4
:1042c000010006001900c20048005000e100420051
:1042d0006c00610064006500530079007300740095
:1042e00065006d00200063003700300030003000b2
:1042f000200049006e0073006900670068007400c8
:10430000200044006900730070006c0061007900b7
:10431000c000c000c00000000000c100000011008b
:10432000000000000000000000000000000000008d
:10433000000000000000000000000000000000007d
:10434000000000000000000000000000000000006d
:10435000000000000000000000000000000000005d
:10436000000000000000000000000000000000004d
:10437000000000000000000000000000000000003d
:10438000000000000000000000000000000000002d
:10439000000000000000000000000000000000001d
:1043a000000000000000000000000000000000000d
:1043b00000000000000000000000000000000000fd
:1043c00000000000000000000000000000000000ed
:1043d00000000000000000000000000000000000dd
:1043e00000000000000000000000000000000000cd
:1043f00000000000000000000000000000000000bd
:00000001FF
