:1000000000308A00EB2C0000FF00030E8301A100EA
:100010007F08A0000A08A8008A01A00E06308A0006
:100020000E2E09008B138B1B122820308500013007
:10003000860087011F3083168500C0308600193086
:100040008700031788018901031395019601713018
:100050008F001430A1000F193228A108031932288B
:10006000A1032B2883128A11012D831653088312B2
:1000700003178D00831603135408831203178F0090
:10008000031083160313D70CD8015708580203181E
:100090007628640003178C170C140000000003136B
:1000A0005608FA005508D50A0319D60A84008313A6
:1000B0007A188317831203170C0880008316031322
:1000C0005608FA005508D50A0319D60A8400831386
:1000D0007A188317831203170E0880008D0A8D0883
:1000E00003198F0A83160313D80A45288312003494
:1000F00006308316AA00A901AB012A080E3C031C96
:100100009B28031D87282908FE3C031C9B282A08DE
:10011000D4002908D300D601AC30D5000230D70076
:100120008312352083162C08AB072D08AB07A90ACC
:100130000319AA0A7D28AB08031DA2280130F80084
:10014000A528A5280030F800A528831200348516BC
:1001500007138713AB28AC28851207138316A31B3C
:10016000B428831287138316A31FB9288312871715
:1001700083168312071707138316231BC2288312C3
:1001800087138316231FC7288312871783168312AA
:10019000071707138316A31AD02883128713831611
:1001A000A31ED528831287178316831207170713F8
:1001B0008316231ADE28831287138316231EE3284F
:1001C0008312871783168312071707138316A31941
:1001D000EC28831287138316A31DF1288312871737
:1001E000831683120717071383162319FA2883121D
:1001F00087138316231DFF28831287178316831204
:10020000071707138316A318082983128713831669
:10021000A31C0D2983128717831683120717071350
:10022000831623181629831287138316231C1B2970
:100230008312871783168312071707138316A21BCF
:100240002429831287138316A21F29298312871753
:1002500083168312071707138316221B3229831272
:1002600087138316221F3729831287178316831259
:10027000071707138316A21A4029831287138316C0
:10028000A21E4529831287178316831207170713A7
:100290008316221A4E29831287138316221E53298E
:1002A0008312871783168312071707138316A21961
:1002B0005C29831287138316A21D61298312871775
:1002C0008316831207170713831622196A298312CC
:1002D00087138316221D6F298312871783168312B3
:1002E000071707138316A21878298312871383161A
:1002F000A21C7D2983128717831683120717071301
:10030000831622188629831287138316221C8B29B1
:10031000831287178316831207170713871385160F
:100320000034A210FC01FD017130FE000034941273
:100330003A3083169300363083129400831691016D
:100340009417A001831200348316AD080319922A72
:1003500029080F39D300D4010310530DF900540DAF
:10036000FA007908D2002908F039D0002A08D10013
:10037000D208031DBF292D081F3C031CCB2951089F
:10038000D4005008D300D601AE30D5002030D700BD
:10039000831235208316CF01AE30CE005208CE072F
:1003A0000318CF0A52081F3C031CF829AD08031993
:1003B000F8294F08FA004E08CE0A0319CF0AD300D5
:1003C0007A08D4002C08FA002B08AB0A0319AC0AEF
:1003D000840083137A1883170008D500530884001B
:1003E00083135418831755088000D20AAD03D2290D
:1003F00029080F38D3002A08D40001305307A90078
:100400002A08AA000318AA0A5008831203178D00AD
:10041000831603135108831203178F0083160313E7
:10042000CF01AE30CE00D2015208073C031C4A2A4D
:100430004F08FA004E08CE0A0319CF0A840083132E
:100440007A1883170008831203178C00831603138E
:100450004F08FA004E08CE0A0319CF0A840083130E
:100460007A1883170008831203178E0083168C17DF
:100470000C1555308D00AA308D008C140000000042
:100480000C1183128D0A8D0803198F0A831603132A
:10049000D20A142A0830D0070318D10A5008831250
:1004A00003178D00831603135108831203178F005F
:1004B00083160313D2015208073C031C912A4F08EC
:1004C000FA004E08CE0A0319CF0A840083137A1863
:1004D00083170008831203178C00831603134F0839
:1004E000FA004E08CE0A0319CF0A840083137A1843
:1004F00083170008831203178E0083168C170C15C0
:1005000055308D00AA308D008C14000000000C11B5
:1005100083128D0A8D0803198F0A83160313D20ADA
:100520005B2AA529831200342330840083138316A9
:10053000A1013230A20022080319A32A2108800059
:10054000840AA20B9E2A1F308312A700A800053040
:10055000AB001430AC000230AD000430AE0003300C
:10056000AF00E83003178D0083168C130C14831230
:100570000C080313B200E93003178D0083168C13A7
:100580000C1483120C080313B300EA3003178D0018
:1005900083168C130C1483120C080313B400EB3075
:1005A00003178D0083168C130C1483120C0803138D
:1005B000B500EC3003178D0083168C130C148312D6
:1005C0000C080313B600ED3003178D0083168C134F
:1005D0000C1483120C080313B700EE3003178D00C0
:1005E00083168C130C1483120C080313B800EF301D
:1005F00003178D0083168C130C1483120C0803133D
:10060000B900F03003178D0083168C130C1483127D
:100610000C080313BA008316A1012108023C031C35
:100620008E2B0530A3001E30A2008312A7200530B8
:100630008316A3005E30A2008312A7200430831625
:10064000A3001B30A2008312A7201B30C200831618
:10065000A3010630A2008312A7200630BF00831634
:10066000A3002E30A2008312A7202E30C400083031
:100670008316A300C030A2008312A720C030C6009A
:1006800001308316A3008A30A2008312A7208A308B
:10069000C00003308316A3006630A2008312A72097
:1006A0006630C1000D308316A3004130A2008312D2
:1006B000A7204130C8000F308316A3004430A200A9
:1006C0008312A7204430CA0011308316A3003630AD
:1006D000A2008312A7203630CC0005308316A30079
:1006E0005F30A2008312A7205F30C300143083164E
:1006F000A200A23084008313000803198C2B02305F
:10070000F800F701F70B822BF80B812B9730F700DD
:10071000F70B882B800B7F2BA10A0D2B6400831213
:100720008101FF3083168100831203178501023097
:10073000031390008F018E0110140C1083160C10FF
:100740004D3083129200F9308316920083128C1080
:1007500083168C1014308312A100912197218C1CD8
:10076000D32B003022180130013AF80022107818FB
:100770002214221CBB2BA10BD12B1430A100141E60
:10078000C32B141FCE2B8316A00A2008053C031D83
:10079000CC2B831297218316D02B83128316A001B2
:1007A00083128C10E72C8C1DE72C83161408A100F3
:1007B000831213088316A20083128C118316A001E2
:1007C0008312141FE62B9721E72CE72C83162108B0
:1007D0002539013A83120319FD2B203A0319FE2B08
:1007E000253A0319B32C013A0319B32C213A031902
:1007F000B32C043A0319E52CE62CE72C83162208C7
:10080000A3007D081F3C031CAF2C7D08FD0A573E4A
:1008100084008313230880007D0B112C2308FC0027
:10082000AE2C05307C077D02031DAE2C7D08A40094
:100830002408203C03181F2C7A30FE00AE2CA701A0
:10084000A8012408280203182D2C573028078400FB
:1008500083130008A707A80A212CA7080319332C23
:100860007530FE00AE2C83125A0803193B2C013A56
:100870000319942CAA2C58088316AA00831259082D
:100880008316A90003102A0CA600290CA50026082F
:10089000053C0318912C26080E3C031C912C0310D8
:1008A0008312570C83162507A9002608AA000318EF
:1008B000AA0A01302902AB002A08AC000030031C50
:1008C0000130AC022C080E3C031C752C2608AA0033
:1008D0002508A900AC015B30AB00831257088316D2
:1008E000AD008312A421902C83162508003CA9009A
:1008F0000F30AA002608031C260FAA020310290D98
:10090000F9002A0DFA007908A8002608AA0025088F
:10091000A900AC015B30AB002808AD008312A42114
:100920008316AA30FE00AE2CD708031DA42CD808CD
:10093000031DA42CD908031DA42C7820780BA42C0B
:10094000AA30FE00A214A72C7530FE00A210831658
:10095000AE2C83127230FE008316AE2CB12C7A308E
:10096000FE008312E72C83161418B42C8312941300
:100970007E089300941BB72CBD2CBE2C1416A21C11
:10098000E32C7E08AA3C031DE32CF13003178D00F5
:10099000AA308C0083168C130C15831203130B08DA
:1009A000F7008B138316031755308D00AA308D0086
:1009B0008C148C18D92C0C117708831203138B0418
:1009C0008A010028E42C9121E72CE72CE32B64001A
:1009D000AF2B8A11172D840183131F3083058316D3
:1009E00003170908C039890003131F129F12003032
:1009F00003178800831287018801890103132210DD
:100A00001228F13003178D0083168C130C148312F7
:100A10000C08553C0319122D03137820F808031D08
:100A2000142D03170313942A06308A0082018A01C9
:100A300000286300FF2EFF2EFF2EFF2EFF2EFF2E1D
:100A4000FF2EFF2EFF2EFF2EFF2EFF2EFF2EFF2E3E
:100A5000FF2EFF2EFF2EFF2EFF2EFF2EFF2EFF2E2E
:100A6000FF2EFF2EFF2EFF2EFF2EFF2EFF2EFF2E1E
:100A7000FF2EFF2EFF2EFF2EFF2EFF2EFF2EFF2E0E
:100A8000FF2EFF2EFF2EFF2EFF2EFF2EFF2EFF2EFE
:100A9000FF2EFF2EFF2EFF2EFF2EFF2EFF2EFF2EEE
:100AA000FF2EFF2EFF2EFF2EFF2EFF2EFF2EFF2EDE
:100AB000FF2EFF2EFF2EFF2EFF2EFF2EFF2EFF2ECE
:100AC000FF2EFF2EFF2EFF2EFF2EFF2EFF2EFF2EBE
:100AD000FF2EFF2EFF2EFF2EFF2EFF2EFF2EFF2EAE
:100AE000FF2EFF2EFF2EFF2EFF2EFF2EFF2EFF2E9E
:100AF000FF2EFF2EFF2EFF2EFF2EFF2EFF2EFF2E8E
:100B0000FF2EFF2EFF2EFF2EFF2EFF2EFF2EFF2E7D
:100B1000FF2EFF2EFF2EFF2EFF2EFF2EFF2EFF2E6D
:100B2000FF2EFF2EFF2EFF2EFF2EFF2EFF2EFF2E5D
:100B3000FF2EFF2EFF2EFF2EFF2EFF2EFF2EFF2E4D
:100B4000FF2EFF2EFF2EFF2EFF2EFF2EFF2EFF2E3D
:100B5000FF2EFF2EFF2EFF2EFF2EFF2EFF2EFF2E2D
:100B6000FF2EFF2EFF2EFF2EFF2EFF2EFF2EFF2E1D
:100B7000FF2EFF2EFF2EFF2EFF2EFF2EFF2EFF2E0D
:100B8000FF2EFF2EFF2EFF2EFF2EFF2EFF2EFF2EFD
:100B9000FF2EFF2EFF2EFF2EFF2EFF2EFF2EFF2EED
:100BA000FF2EFF2EFF2EFF2EFF2EFF2EFF2EFF2EDD
:100BB000FF2EFF2EFF2EFF2EFF2EFF2EFF2EFF2ECD
:100BC000FF2EFF2EFF2EFF2EFF2EFF2EFF2EFF2EBD
:100BD000FF2EFF2EFF2EFF2EFF2EFF2EFF2EFF2EAD
:100BE000FF2EFF2EFF2EFF2EFF2EFF2EFF2EFF2E9D
:100BF000FF2EFF2EFF2EFF2EFF2EFF2EFF2EFF2E8D
:100C000000308A00402E000094123A308316930080
:100C100036308312940083169101941711148312B5
:100C2000E501E801E701A110EA01EB0100346108E8
:100C3000073C031C2C2E57305F0784008313831658
:100C4000200880008312E10803190610E10ADF0A78
:100C50005F08073C031CDF0100347D08A4007D0B06
:100C6000352E8A1500208A113C2E05308316A400EB
:100C70005E30A300831200270034FF2EFF2EFF2ECC
:100C8000840183131F308305831603170908C039B5
:100C9000890003131F129F1200300317880083126C
:100CA00087018801890103132110E201E301E401B6
:100CB0008A159D288A116300FF2EFF2EFF2EFF2E1E
:100CC00064007D0803178D007E088C0083168C134A
:100CD0000C15831203130B08F7008B1383160317ED
:100CE00055308D00AA308D008C148C18752E0C1187
:100CF0007708831203138B0464000034FF2EFF2E49
:100D0000FF2EFF2EFF2EFF2EFF2EFF2EFF2EFF2E7B
:100D1000FF2EFF2EFF2EFF2EFF2EFF2EFF2EFF2E6B
:100D2000FF2EFF2EFF2EFF2EFF2EFF2EFF2EFF2E5B
:100D3000FF2EFF2EFF2EFF2EFF2EFF2EFF2EFF2E4B
:100D4000FF2EFF2EFF2EFF2EFF2EFF2EFF2EFF2E3B
:100D5000FF2EFF2EFF2EFF2EFF2EFF2EFF2EFF2E2B
:100D6000FF2EFF2EFF2EFF2EFF2EFF2EFF2EFF2E1B
:100D7000FF2EFF2EFF2EFF2EFF2EFF2EFF2EFF2E0B
:100D8000FF2EFF2EFF2EFF2EFF2EFF2EFF2EFF2EFB
:100D9000FF2EFF2EFF2EFF2EFF2EFF2EFF2EFF2EEB
:100DA000FF2EFF2EFF2EFF2EFF2EFF2EFF2EFF2EDB
:100DB000FF2EFF2EFF2EFF2EFF2EFF2EFF2EFF2ECB
:100DC000FF2EFF2EFF2EFF2EFF2EFF2EFF2EFF2EBB
:100DD000FF2EFF2EFF2EFF2EFF2EFF2EFF2EFF2EAB
:100DE000FF2EFF2EFF2EFF2EFF2EFF2EFF2EFF2E9B
:100DF000FF2EFF2EFF2EFF2EFF2EFF2EFF2EFF2E8B
:100E0000851607138713042F052F851207138316E2
:100E1000A41B0D2F831287138316A41F122F831276
:100E2000871783168312071707138316241B1B2F9C
:100E3000831287138316241F202F8312871783168C
:100E40008312071707138316A41A292F83128713F7
:100E50008316A41E2E2F831287178316831207175B
:100E600007138316241A372F831287138316241E21
:100E70003C2F8312871783168312071707138316D5
:100E8000A419452F831287138316A41D4A2F83129A
:100E90008717831683120717071383162419532FF6
:100EA000831287138316241D582F831287178316E6
:100EB0008312071707138316A418612F8312871351
:100EC0008316A41C662F83128717831683120717B5
:100ED0000713831624186F2F831287138316241C7D
:100EE000742F83128717831683120717071383162D
:100EF000A31B7D2F831287138316A31F822F8312B8
:100F0000871783168312071707138316231B8B2F4C
:100F1000831287138316231F902F8312871783163C
:100F20008312071707138316A31A992F83128713A7
:100F30008316A31E9E2F831287178316831207170B
:100F400007138316231AA72F831287138316231ED2
:100F5000AC2F831287178316831207170713831684
:100F6000A319B52F831287138316A31DBA2F8312DB
:100F70008717831683120717071383162319C32FA6
:100F8000831287138316231DC82F83128717831696
:100F90008312071707138316A318D12F8312871301
:100FA0008316A31CD62F8312871783168312071765
:100FB000071383162318DF2F831287138316231C2E
:100FC000E42F8312871783168312071707138713DB
:100FD00085160034FF2EFF2EFF2EFF2EFF2EFF2E34
:100FE000FF2EFF2EFF2EFF2EFF2EFF2EFF2EFF2E99
:100FF000FF2EFF2EFF2EFF2EFF2EFF2EFF2EFF2E89
:10100000FE017E08023C031C9C2805308316A400C8
:101010001E30A3008A11831200278A15053083161B
:10102000A4005E30A3008A11831200278A150430C1
:101030008316A4001B30A3008A11831200278A158F
:101040001B30C2008316A4010630A3008A1183124C
:1010500000278A150630BF008316A4002E30A30097
:101060008A11831200278A152E30C4000830831697
:10107000A400C030A3008A11831200278A15C03053
:10108000C60001308316A4008A30A3008A1183129F
:1010900000278A158A30C00003308316A40066300A
:1010A000A3008A11831200278A156630C1000D3013
:1010B0008316A4004130A3008A11831200278A15E9
:1010C0004130C8000F308316A4004430A3008A11B9
:1010D000831200278A154430CA0011308316A400F9
:1010E0003630A3008A11831200278A153630CC00CF
:1010F00005308316A4005F30A3008A1183120027F5
:101100008A155F30C30014308316A000A03084001D
:1011100083130008031999280230F800F701F70B30
:101120008F28F80B8E289730F700F70B9528800B47
:101130008C28FE0A8312012800348B138B1B9D28F8
:10114000233084008313F5013230F600760803194A
:10115000AE2875088000840AF60BA9281F30A70066
:10116000A8000530AB001430AC000230AD000530F3
:10117000AE000330AF00E83003178D0083168C13E8
:101180000C1483120C080313B200E93003178D000E
:1011900083168C130C1483120C080313B300EA306B
:1011A00003178D0083168C130C1483120C08031381
:1011B000B400EB3003178D0083168C130C148312CC
:1011C0000C080313B500EC3003178D0083168C1345
:1011D0000C1483120C080313B600ED3003178D00B6
:1011E00083168C130C1483120C080313B700EE3013
:1011F00003178D0083168C130C1483120C08031331
:10120000B800EF3003178D0083168C130C14831273
:101210000C080313B900F03003178D0083168C13EC
:101220000C1483120C080313BA00DF01E001E10182
:101230000A30EC003C30ED00EE000A30EF003C30AC
:10124000F000F1000A30F2003C30F300F400D50168
:10125000D60164008101FF308316810083120317D9
:1012600085010230031390008F018E0110140C10C1
:1012700083160C104D3083129200F93083169200C1
:1012800083128C1083168C1014308312A0008A11E4
:1012900004268A1583168C1583120B1710308316BB
:1012A000A0008A11831217268A158C1CBB2A0030D5
:1012B00021180130013AF800211078182114211C5E
:1012C000D9296408F50005081F3A1F39F60064089B
:1012D000FE0076088316A00020087E06A100831277
:1012E0006308E206E309831621088312E2058316E8
:1012F00021088312E30562086304FE0562086304A3
:10130000FF3A83162005FE047E08F8007808831251
:10131000E40075086406FC00FC080319D929FD01E6
:101320007D08043C031CD9297C08F7007D08F800DF
:1013300003199E290310F70CF80B9A29771CD7295B
:101340006408F7007D08F8000319AA290310F70CB8
:10135000F80BA629771CC2292708F7007D08F8009A
:101360000319B6290310F70CF80BB229771CC12911
:101370007D082038FE008316A0008A1183121726EC
:101380008A15D7292808F7007D08F8000319CC2909
:101390000310F70CF80BC829771CD7297D083038C3
:1013A000FE008316A0008A11831217268A15FD0AF3
:1013B0009029A00BBA2A1430A000141FEF29EB0AC1
:1013C0006B08053C031DEE298A1104268A1540305E
:1013D0008316A0008A11831217268A15F029EB01C3
:1013E000AA0803191B2AA40803191B2AD50B1B2AB8
:1013F00083168C118312D60803190B2A0530831625
:10140000A400D630A3008A11831200278A152C0865
:10141000D500D601182A05308316A400D730A300C2
:101420008A11831200278A152B08D5000130D600B7
:1014300083168C158312EC0B412A0A30EC00ED0B5D
:10144000412A3C30ED00EE0B412A3C30EE00B20F59
:101450002C2AB30F2C2AB40AE830FD003208FE0013
:101460008A1160268A15E930FD003308FE008A11D2
:1014700060268A15EA30FD003408FE008A116026D5
:101480008A15A40803196A2AEF0B6A2A0A30EF00AA
:10149000F00B6A2A3C30F000F10B6A2A3C30F10074
:1014A000B50F552AB60F552AB70AEB30FD0035089F
:1014B000FE008A1160268A15EC30FD003608FE0019
:1014C0008A1160268A15ED30FD003708FE008A116A
:1014D00060268A15AA080319992AA4080319992ACB
:1014E000D6080319992AF20B992A0A30F200F30B55
:1014F000992A3C30F300F40B992A3C30F400B80FE1
:10150000842AB90F842ABA0AEE30FD003808FE009A
:101510008A1160268A15EF30FD003908FE008A1115
:1015200060268A15F030FD003A08FE008A11602618
:101530008A15A20BBA2A0A30A20010100F08F60072
:101540000E08F5008F018E011014F608031DAC2A59
:101550007508323C0318B12A8618B12A0020861477
:10156000BA2AF608031DBA2A7508313C031CBA2AA8
:10157000861886108C108C1DAF2D83161408F5006C
:1015800083121308E9008C11EB01141FD22A8A116F
:1015900004268A1540308316A0008A11831217266C
:1015A0008A15AE2D75082539013A0319E72A203A24
:1015B0000319EA2A253A03194B2D013A03194B2D39
:1015C000213A03194B2D043A0319AC2DAD2DE50139
:1015D0001416AE2DE508031DF22A6908E600013055
:1015E000E500492D650BFB2A6608E8006908E7005D
:1015F0000230E500492DE808031D0D2B6708BF3CAC
:10160000031C0D2B301C0D2B6708FC00FD00690826
:10161000FE008A1160268A15462D6808013C031DCC
:10162000462D67080319752B013A0319792B033AE4
:101630000319812B013A03199E2B073A0319B92B81
:10164000013A0319BD2B023A0319C12B0F3A0319B2
:10165000D52B013A0319D82B073A0319DB2B033A90
:101660000319EF2B263A0319F32B373A03190C2CE5
:10167000013A0319192C033A0319282C013A0319CA
:10168000372C3F3A0319462C013A0319552C033ADB
:101690000319642C013A0319732C073A0319822C9D
:1016A000013A0319912C033A0319A02C013A0319AA
:1016B000AF2C0F3A0319BE2C013A0319CD2C033A73
:1016C0000319DC2C063A0319EB2C013A0319FA2C06
:1016D000033A0319092D013A0319182D1F3A03196A
:1016E000272D013A0319362D452D69080739A30026
:1016F000462D69080139FC00FD008A112D268A1546
:10170000462D69080139FC007C08FD007D08A50014
:101710007D0B942B04308316A4001B30A3008A1188
:10172000831200278A159D2B04308316A4001930DC
:10173000A3008A11831200278A15462D69080739EC
:10174000FC007C08FD007D08A6007D080739F70035
:10175000F70EF70DE030F70577088316A100033088
:10176000A200A4002108A3008A11831200278A1571
:10177000462D69081F39A700462D69081F39A800A2
:10178000462D69080139AA00A4080319D42BAA0818
:101790000319CF2B2B08D5000130D600D42B2408F9
:1017A000FD008A112D268A15462D6908AB00462DAD
:1017B0006908AC00462DA11CEE2B6A08FF3A6902AD
:1017C000031DED2B8B13F130FD005530FE008A1107
:1017D00060268A158A010028EE2BA110462D690883
:1017E0000139B000462D69080139CE00CE08031931
:1017F000022C16308316A400A3018A11831200273D
:101800008A150B2C16308316A4000430A3008A110D
:10181000831200278A15462D6908BF006908FC005D
:101820008316A4017C08A3008A11831200278A155D
:10183000462D6908C0006908FC000130FD008316D0
:10184000A4007C08A3008A11831200278A15462D64
:101850006908C1006908FC000330FD008316A4007C
:101860007C08A3008A11831200278A15462D690877
:10187000C2006908FC000430FD008316A4007C0847
:10188000A3008A11831200278A15462D6908C30018
:101890006908FC000530FD008316A4007C08A30045
:1018A0008A11831200278A15462D6908C400690829
:1018B000FC000630FD008316A4007C08A3008A11FA
:1018C000831200278A15462D6908C5006908FC00A7
:1018D0000730FD008316A4007C08A3008A11831240
:1018E00000278A15462D6908C6006908FC000830E3
:1018F000FD008316A4007C08A3008A118312002730
:101900008A15462D6908C7006908FC000C30FD00E7
:101910008316A4007C08A3008A11831200278A156D
:10192000462D6908C8006908FC000D30FD008316CB
:10193000A4007C08A3008A11831200278A15462D73
:101940006908C9006908FC000E30FD008316A40078
:101950007C08A3008A11831200278A15462D690886
:10196000CA006908FC000F30FD008316A4007C0843
:10197000A3008A11831200278A15462D6908CB001F
:101980006908FC001030FD008316A4007C08A30049
:101990008A11831200278A15462D6908CC00690830
:1019A000FC001130FD008316A4007C08A3008A11FE
:1019B000831200278A15462D6908CD006908FC00AE
:1019C0001530FD008316A4007C08A3008A11831241
:1019D00000278A15462D6908CF006908FC001730DA
:1019E000FD008316A4007C08A3008A11831200273F
:1019F0008A15462D6908D0006908FC001830FD00E2
:101A00008316A4007C08A3008A11831200278A157C
:101A1000462D6908D1006908FC001930FD008316C5
:101A2000A4007C08A3008A11831200278A15462D82
:101A30006908D2006908FC001A30FD008316A40072
:101A40007C08A3008A11831200278A15462D690895
:101A5000D3006908FC009530FD008316A4007C08C3
:101A6000A3008A11831200278A15462D6908D40025
:101A70006908FC009A30FD008316A4007C08A300CE
:101A80008A11831200278A15462D462DE70A03196D
:101A9000E80A1416AE2D6808031D5C2D6400670863
:101AA000FC007C0803178D0083168C130C14831222
:101AB0000C08F6009B2D03136808013C031D992DAB
:101AC0006708313C031C972D67080E3C031D6E2DE3
:101AD000A1140E08EA006A08F600962D6708063C75
:101AE000031D902DE108031D792D0030F8008D2D88
:101AF0008D2D57306007840083130008FC00E10B34
:101B0000852D0614E001DF018A2DE00A6008073CFC
:101B1000031CE0017C08F8008D2D7808F600962D56
:101B20006708233E840083130008F600982DF60111
:101B30009A2DF60103178316031314189D2D831293
:101B4000941376089300941BA02DA62D0000141664
:101B5000E70A0319E80AAE2DAE2DC72AB02D64009E
:101B600055298A115A2EFF2EFF2EFF2EFF2EFF2EF3
:101B7000FF2EFF2EFF2EFF2EFF2EFF2EFF2EFF2EFD
:101B8000FF2EFF2EFF2EFF2EFF2EFF2EFF2EFF2EED
:101B9000FF2EFF2EFF2EFF2EFF2EFF2EFF2EFF2EDD
:101BA000FF2EFF2EFF2EFF2EFF2EFF2EFF2EFF2ECD
:020DFE00FF2EC6
:021DFE00FF2EB6
:021DFC00840061
:1042000001000100000002000C0000000000F000AE
:104210000100010004000000000000000000FA009E
:1042200001000A001900200044005000C2004800AC
:104230005000E10042006C00610064006500530022
:1042400079007300740065006D0020006300370082
:10425000300030003000200049006E00730069001B
:10426000670068007400200044006900730070005B
:104270006C0061007900C000CA00340034003100D5
:104280003200300033002D00300030003100C80013
:10429000300038002F00300035002F00300039008A
:1042A0000300D200410030000600D30044000800A3
:1042B0006100B0000300C1000000000000004800E1
:1042C000010006001900C20048005000E100420051
:1042D0006C00610064006500530079007300740095
:1042E00065006D00200063003700300030003000B2
:1042F000200049006E0073006900670068007400C8
:10430000200044006900730070006C0061007900B7
:10431000C000C000C00000000000C100000011008B
:10432000000000000000000000000000000000008D
:10433000000000000000000000000000000000007D
:10434000000000000000000000000000000000006D
:10435000000000000000000000000000000000005D
:10436000000000000000000000000000000000004D
:10437000000000000000000000000000000000003D
:10438000000000000000000000000000000000002D
:10439000000000000000000000000000000000001D
:1043A000000000000000000000000000000000000D
:1043B00000000000000000000000000000000000FD
:1043C00000000000000000000000000000000000ED
:1043D00000000000000000000000000000000000DD
:1043E00000000000000000000000000000000000CD
:1043F00000000000000000000000000000000000BD
:04400E00EC2FFF3E56
:0840000005000D000C00070093
:00000001FF
