:1000000000308A00F92A0000FF00030E8301A100DE
:100010000A08A0008A0106308A000B2E09008B1303
:100020008B1B0F2820308500DF30831685000130C0
:1000300083128600FC3083168600403083128700CE
:100040003B30831687000317880120308900031393
:100050009501960171308F0014308312C70083160A
:100060000F193B288312C708031D382883163B2825
:10007000C7032F28831683128A110A12102B6400DB
:10008000470803178D0083168C130C1483120C0879
:10009000F80003138A110A12132B83162008831207
:1000A00003178D00831603132108831203178F0093
:1000B000031083160313A40CA501240825020318BA
:1000C0008E28640003178C170C1400000000031323
:1000D0002308FA002208A20A0319A30A8400831342
:1000E0007A188317831203170C08800083160313F2
:1000F0002308FA002208A20A0319A30A8400831322
:100100007A188317831203170E0880008D0A8D0852
:1001100003198F0A83160313A50A5D28831200347E
:100120006400560803178D000313570803178C004B
:1001300083168C130C15831203130B08F7008B1313
:100140008316031755308D00AA308D008C148C183F
:10015000A7280C117708831203138B046400003462
:100160000630D100D001D20151080E3C031CD42826
:10017000031DBE285008FE3C031CD42851088316DA
:10018000A100831250088316A000A3015330A200DF
:100190000230A40083124D205308D2075408D2071E
:1001A000D00A0319D10AB428D208031DDB28013074
:1001B000F800E628E6285209D500D50AF330D60023
:1001C0005508D70090200030F800E628003443108E
:1001D000C401C5019130C600003494121630940059
:1001E0003A308316930001309100803094008312DE
:1001F00094160034D4080319D52950080F398316F2
:10020000A000A1010310200DF900210DFA007908CA
:10021000FE0083125008F039FC005108FD00FE0872
:10022000031D162954081F3C031C22297D08831630
:10023000A1007C08A000A3015530A2002030A4003A
:1002400083124D20F6015530F5007E08F50703189E
:10025000F60A7E081F3C031C5329D40803195329AE
:100260007608FA007508F50A0319F60A8316A00045
:100270007A08A10083125308FA005208D20A03191F
:10028000D30A840083137A18831700088316A20008
:100290002008840083132118831722088000FE0A97
:1002A0008312D403292950080F388316A000831223
:1002B00051088316A100013020078312D000831655
:1002C00021088312D1000318D10A7C0803178D007E
:1002D0007D088F00F6015530F500FE017E08073CD1
:1002E000031C9C297608FA007508F50A0319F60A1A
:1002F000840083137A18831700088C007608FA00AC
:100300007508F50A0319F60A840083137A1883170F
:1003100000088E0083168C170C1555308D00AA30FE
:100320008D008C14000000000C1183128D0A8D08C2
:1003300003198F0AFE0A6E290830FC070318FD0A0C
:100340007C088D007D088F00FE017E08073C031CA1
:10035000D3297608FA007508F50A0319F60A84000D
:1003600083137A18831700088C007608FA00750842
:10037000F50A0319F60A840083137A188317000814
:100380008E0083168C170C1555308D00AA308D0009
:100390008C14000000000C1183128D0A8D080319C3
:1003A0008F0AFE0AA5290313FA2800348B120B11B9
:1003B000640081018730831681000E308312031799
:1003C00085000514B23003138100023090008F01C4
:1003D0008E01101483160C1083120C1083168C10CF
:1003E00083128C109201273083169200831212150B
:1003F00095010C309700A1019B019D01E720ED20A4
:100400000B1D0D2A0B11B2308100A20B0C2A0A30F1
:10041000A200141F0C2AED20F42A8C1DF42A831646
:1004200014088312C7001308C8008C11141BF32A88
:1004300047082539013A03192D2A203A03192F2A92
:10044000253A0319D22A013A0319D22A213A03196B
:10045000D22A043A0319F02AF12A1416F22A48087B
:10046000C9004908CA0045081F3C031CCE2A45089C
:10047000C50A233E840083134A088000450B432AA3
:100480004A08C400CD2A053044074502031DCD2A81
:100490004508CB004B08203C0318512A9A30C6006F
:1004A000CD2ACE01CF014B084F0203185F2A23301B
:1004B0004F07840083130008CE07CF0A532ACE08C3
:1004C0000319652A9530C600CD2A260803196C2A1F
:1004D000013A0319B62ACA2A0310240CCD00250CB0
:1004E000CC004D08053C0318B32A4D080E3C031CF4
:1004F000B32A0310230C4C07D0004D08D100031879
:10050000D10A01305002D2005108D3000030031C40
:100510000130D30253080E3C031C992A4D08D10028
:100520004C08D000D3012730D2002308D400FA2091
:10053000B32A4C08003CD0000F30D1004D08031CFA
:100540004D0FD1020310500DF900510DFA0079083A
:10055000CF004D08D1004C08D000D3012730D20085
:100560004F08D400FA20AA30C600CD2AA308031DE4
:10057000C62AA408031DC62AA508031DC62AB02042
:10058000780BC62AAA30C6004314C92A9530C60083
:100590004310CD2A9230C600CD2AD02A9A30C60008
:1005A0001416F22A4608C90083161418D52A831295
:1005B000941349089300941BD82ADE2A00001416CD
:1005C000431CEE2A4608AA3C031DEE2AF130D60051
:1005D000AA30D70090208A010028EF2AE720F22ACB
:1005E000F22AF32AF42AED206400002A8A110A1262
:1005F0001E2B840183131F308305831603170908FC
:10060000C039890003131F129F120030031788009E
:1006100083128701880189010A300313A2000F2881
:10062000F130C7003F287808553C03191A2BB02039
:10063000F8080319D62906308A0082018A010028A9
:100640006300FF2EFF2EFF2EFF2EFF2EFF2EFF2E0C
:10065000FF2EFF2EFF2EFF2EFF2EFF2EFF2EFF2E32
:10066000FF2EFF2EFF2EFF2EFF2EFF2EFF2EFF2E22
:10067000FF2EFF2EFF2EFF2EFF2EFF2EFF2EFF2E12
:10068000FF2EFF2EFF2EFF2EFF2EFF2EFF2EFF2E02
:100C000000308A00402E00000A108A140A1582075C
:100C100000340134033404340534063407340B340F
:100C20000C340D340E340F341034113416341734A0
:100C3000183419341A341B342B342F3455345A34A5
:100C4000831623080319292E22088000840AA30B87
:100C5000242E83120034640083162B08831203179A
:100C60008D0083168C130C1483120C08F8000313E8
:100C70000034861000340030D4180130F8000034FD
:100C8000840183131F308305831603170908C039B5
:100C9000890003131F129F1200300317880083126C
:100CA0008701880189010A300313D500D601D414C5
:100CB000D800E401E501E601EA01EB01EC01D415FD
:100CC0005416ED003C30EE00EF000A30F0003C30EE
:100CD000F100F2000A30F3003C30F400F5008A1510
:100CE00060288A116300FF2EFF2EFF2EFF2EFF2E9D
:100CF000FF2EFF2EFF2EFF2EFF2EFF2EFF2EFF2E8C
:100D00000A108A140A15820704341E3400340C3485
:100D10000134A2340234483403341B3405342934FA
:100D20000D3430340E3400340F3421341034333465
:100D3000113401341234103415346D341734023444
:100D4000143401349412163094003A308316930010
:100D500001309100803094008312941600346308AF
:100D6000073C031CC42E593061078400831383168B
:100D7000270880008312E30803190610E30AE10A3A
:100D80006108073C031CE101003483162B0EF700B9
:100D9000F030F705770830390C3883129700831646
:100DA0002B0C83129500950C3F309505003486146A
:100DB000D708031DF02EF4308316AB0083122B26C8
:100DC0007808D700D7080319E92E5708A03C031864
:100DD000EB2E0130D70057088316AB008312C526CF
:100DE0000034003086180130F800003483162B08D8
:100DF0008312D6000034FF2EFF2EFF2EFF2EFF2E73
:100E000083162D08173C0318072F052FF52F831283
:100E100054180D2F8316F52F8312203083162D07BB
:100E2000840083132E0880002D0883120426F80006
:100E30008316AF00831285160717851207138316D2
:100E40002F1B252F8312871383162F1F2A2F831200
:100E500087178316831207170713871307170713BC
:100E60008316AF1A362F831287138316AF1E3B2FBC
:100E700083128717831683120717071383162F1AF7
:100E8000442F8312871383162F1E492F831287172F
:100E900083168312071707138316AF19522F831275
:100EA00087138316AF1D572F83128717831683125C
:100EB0000717071383162F19602F831287138316C2
:100EC0002F1D652F831287178316831207170713A9
:100ED0008316AF186E2F831287138316AF1C732FE0
:100EE00083128717831683120717071383162F1889
:100EF0007C2F8312871383162F1C812F8312871751
:100F000083168312071707138316AE1B8A2F8312CB
:100F100087138316AE1F8F2F8312871783168312B2
:100F20000717071383162E1B982F83128713831618
:100F30002E1F9D2F831287178316831207170713FF
:100F40008316AE1AA62F831287138316AE1EAB2FFD
:100F500083128717831683120717071383162E1A17
:100F6000B42F8312871383162E1EB92F831287176F
:100F700083168312071707138316AE19C22F831225
:100F800087138316AE1DC72F83128717831683120C
:100F90000717071383162E19D02F83128713831672
:100FA0002E1DD52F83128717831683120717071359
:100FB0008316AE18DE2F831287138316AE1CE32F21
:100FC00083128717831683120717071383162E18A9
:100FD000EC2F8312871383162E1CF12F8312871791
:100FE0008316831207178516831683120034D410D4
:100FF0008316AB018312F62639260034FF2EFF2E0E
:10100000D414541C0B285608F800F808031D0B28AC
:101010008A11D7268A1500346400831629088312A2
:1010200003178D00831603132A08831203178C00FD
:1010300083168C130C15831203130B08F7008B1304
:101040008316031755308D00AA308D008C148C1830
:1010500027280C117708831203138B0464000034D3
:1010600083162A088312B90083162A0B3B288312A1
:1010700000203F2883168A118312F7278A1500342F
:101080008316AD012D08173C031C5C282D088A111E
:10109000831204268A15F80083162A02031D5A2893
:1010A0002B08840083132C1883172D08800001302F
:1010B000F8005E28AD0A42280030F80083120034A0
:1010C0008B138B1B6028713083168F001430A200A5
:1010D0000F196F28A20803196F28A203682820306F
:1010E00083128500DF30831685000130831286006D
:1010F000FC30831686004030831287003B30831615
:101100008700031788012030890003139501960199
:1011100080309F00AD3083129F00D4125411E9013A
:101120003830840083138316A2011C30A3008A1177
:10113000831220268A150130B900BA000330BB00A3
:101140001F30BC00BD000530C0001430C1000230AB
:10115000C2000830C3000330C400E8308316AB007F
:101160008A1183122B268A157808C700E930831666
:10117000AB008A1183122B268A157808C800EA3042
:101180008316AB008A1183122B268A157808C900B2
:10119000EB308316AB008A1183122B268A15780850
:1011A000CA00EC308316AB008A1183122B268A15F5
:1011B0007808CB00ED308316AB008A1183122B2602
:1011C0008A157808CC00EE308316AB008A118312A2
:1011D0002B268A157808CD00EF308316AB008A11D4
:1011E00083122B268A157808CE00F0308316AB00C8
:1011F0008A1183122B268A157808CF0020308400AC
:1012000083138316A2011830A3008A1183122026AB
:101210008A15E101E201E3010530E7000130E80051
:1012200054108B120B1164008101873083168100EA
:101230000E308312031785000514B23003138100AA
:10124000023090008F018E01101483160C1083124F
:101250000C1083168C1083128C1092012730831689
:1012600092008312121595010C309700D7019B0153
:101270009D018A1139268A15D4148A11A2268A154D
:1012800010308316A7008A118312AF268A156400D6
:101290000B1D3B2B0B11B230810066088316A20098
:1012A000831205081F3A1F398316A30083126608AC
:1012B0008316A6002308A70027082606A800831285
:1012C0006508E406E509831628088312E4058316F9
:1012D00028088312E505640865048316A6058312B1
:1012E00064086504FF3A83162705A6042608F8005B
:1012F00078088312E6008316220883126606831696
:10130000A400A4080319D429A5012508043C031C42
:10131000D4292408F7002508F8000319932903109D
:10132000F70CF80B8F29771CD22983126608F70077
:1013300083162508F8000319A1290310F70CF80BF0
:101340009D29771CBB2983123C08F70083162508CA
:10135000F8000319AF290310F70CF80BAB29771C21
:10136000BA2925082038A600A7008A118312AF26C3
:101370008A158316D22983123D08F70083162508A3
:10138000F8000319C7290310F70CF80BC329771CC1
:10139000D22925083038A600A7008A118312AF266B
:1013A0008A158316A50A85298312D80B3A2B0A3091
:1013B000D800141FE5298A11A2268A154030831609
:1013C000A7008A118312AF268A158A113B268A1537
:1013D000F808031DED29D601F529D6080319F529CA
:1013E000D60BF5298A11D7268A15D50B762A0A300D
:1013F000D50010100F088316A30083120E08831661
:10140000A20083128F018E0110148316A308031DFE
:101410000D2A2208323C0318662A8312541C122A11
:101420008316662A54148A11F1268A15F8080319BE
:101430001A2A192A8316A4012408023C031C572ADD
:10144000A50125081D3C031C402A25088A1183128A
:1014500080268A158316A600013025078A1183127B
:1014600080268A158316A8002608AD002808AE003D
:101470008A11831200278A1502308316A507212AB4
:101480001430A600A6308400831300080319552ADF
:101490000230F800F701F70B4B2AF80B4A2A973075
:1014A000F700F70B512A800B482AA40A1C2A8A113C
:1014B00083123B268A15780B642A03308316AB000F
:1014C0008A118312F6268A15762A8316A308031D2D
:1014D000772A2208313C031C772A83125418722A77
:1014E0008316772A54108A1139268A1583168A1191
:1014F0008312F1268A15F808031D7F2A872A4030B7
:10150000F600FD01FC01842A852A862A9F14BF0863
:1015100003199E2AB90803199E2AE70B9E2AE80898
:101520000319992A8A11F7278A154108E700E8016B
:101530009E2A00204008E7000130E800ED0BCE2A8B
:101540000A30ED00EE0BCE2A3C30EE00EF0BCE2A37
:101550003C30EF00C70AE8308316A9008312470821
:101560008316AA0083120C20C708031DCE2AC80ABE
:10157000E9308316A900831248088316AA00831253
:101580000C20C808031DCE2AC90AEA308316A90018
:10159000831249088316AA0083120C20B908031984
:1015A000012BF00B012B0A30F000F10B012B3C302A
:1015B000F100F20B012B3C30F200CA0AEB3083162B
:1015C000A90083124A088316AA0083120C20CA08B5
:1015D000031D012BCB0AEC308316A90083124B08A4
:1015E0008316AA0083120C20CB08031D012BCC0A02
:1015F000ED308316A90083124C088316AA008312CB
:101600000C20BF0803193A2BB90803193A2BE80834
:1016100003193A2BF30B3A2B0A30F300F40B3A2B55
:101620003C30F400F50B3A2B3C30F500CD0AEE309F
:101630008316A90083124D088316AA0083120C207A
:10164000CD08031D3A2BCE0AEF308316A900831272
:101650004E088316AA0083120C20CE08031D3A2BD5
:10166000CF0AF0308316A90083124F088316AA0010
:1016700083120C20C62D8C1D4A2D83161408A2003F
:10168000831213088316A30083128C11141B3D2DA3
:10169000831622082539013A831203195F2B203A59
:1016A0000319692B253A03198A2C013A03198A2C4C
:1016B000213A03198A2C043A0319362D392D1416B0
:1016C000EA0183161419682B8312D411541283165D
:1016D0003B2D1416EA08031D752B8316230883126D
:1016E000EB00D4150130EA00882C6A0B7F2B83169F
:1016F00023088312EC0054160230EA00882C6B0891
:101700008316A40083126C088316A5002308A60084
:10171000240883120319932B013A0319AA2B033AC5
:101720000319632C822C83162508A7002608A8001D
:101730002708BF3C031CA92B83124518A12B831635
:10174000A92B83162708A9002808AA0083120C20B9
:101750008316842C83162508A7002608A8002708CE
:1017600083120319D22B013A0319D82B033A031918
:10177000E02B013A0319FF2B073A03191A2C013AFF
:101780000319202C023A0319262C0F3A03193B2C7B
:10179000013A0319402C043A0319452C033A031962
:1017A0004B2C602C8316280807398312B800612C53
:1017B000831628080139A900AA0083123020612C61
:1017C000831628080139A9002908AA002A088312CB
:1017D000BA0083162A0BF62B0330AD001B30AE0087
:1017E0008A11831200278A15FE2B83160330AD0061
:1017F0001930AE008A11831200278A15612C8316D6
:1018000028080739A9002908AA002A088312BB0062
:1018100083162A080739F700770EAC00AC0DE030CC
:10182000AC050230AD002C08AE008A1183120027EF
:101830008A15612C831628081F398312BC00612C7D
:10184000831628081F398312BD00612C83162808CF
:1018500001398312BF00390B3A2CBF080319352C0C
:101860004008E7000130E8003A2C39088316AA0046
:1018700083123020612C831628088312C000612C4B
:10188000831628088312C100612C831628080139A9
:101890008312C500612C541D5F2C6908FF3A831622
:1018A0002802031D5D2CF130A9005530AA008312D7
:1018B0000C208A0100285F2C831683125411612C9E
:1018C000612C8316842C83162508A7002608A800FF
:1018D0008312451C7F2C83162708AA00AC01A9306F
:1018E000AB0083124020F80803197F2C83162908C7
:1018F000AD002808AE008A11831200278A158316CE
:10190000842C83128316842C8312EC0F882CEB0A10
:1019100083163B2DD41D212D541E212D6B088316BB
:10192000A40083126C088316A500240883120319EF
:10193000A02C013A0319AE2C033A0319F62C152DED
:1019400083162508A7002708AB008A1183122B26CF
:101950008A15780878088316A600182D831625089E
:10196000A70027081B3C031CF02C27080E3C031D76
:10197000C12C831254150108E90069088316A800D8
:10198000EF2C2708063C031DE92C8312E308031DF6
:10199000CD2C0030F800E52CE52C5930620784008E
:1019A000831300088316A9008312E30BDB2C0614B3
:1019B000E201E101E02CE20A6208073C031CE201BB
:1019C00083162908F8008312E52C78088316A800EE
:1019D000EF2C38302707840083130008A800F12C6F
:1019E000A8012808F8007808A600182D83162508F5
:1019F000A7002708AA00AC01A830AB008312402042
:101A0000F80803190D2D203083162807840083134E
:101A10000008F800112D112D83120030F8008316F4
:101A2000112D7808A600182D83128316A601182DF3
:101A30002608F8007808A3008312EC0F202DEB0A8B
:101A4000242D8316A301831283162308A4001418DF
:101A5000272D831294138316240883129300941B5A
:101A60002A2D322D0000141683163B2D83163B2D94
:101A700083123D2D8316482D83128A11A2268A15C2
:101A800040308316A7008A118312AF268A15831669
:101A90008312C62D0C1F632D0C131E08FA0083162B
:101AA0001E08FC077A0803187A0FFD07F60B602D55
:101AB0007D08A1007C08A0008312D416622D831635
:101AC00083129F14C62DD41EC62DD4128A11F1265E
:101AD0008A15F808031D6D2DC62D8316A10CA00CC8
:101AE000A10CA00CA10CA00CA10CA00CA10CA00C92
:101AF000A10CA00C0330A105A108031D942D200802
:101B0000B93C031C942D8312D70A57089F3C031835
:101B10008B2D0130D70057088316AB008A11831232
:101B2000C5268A15C62D8316A108031D9B2D2008E6
:101B3000CD3C0318A92D8312D7080319A72DD7036D
:101B400057088316AB008A118312C5268A15C62D45
:101B5000831683125708F80078088316A300F43020
:101B6000AB008A1183122B268A1578088316A200EF
:101B70002208831257020318C62DF4308316A900D9
:101B8000831257088316AA0083120C2047298A1152
:101B9000712EFF2EFF2EFF2EFF2EFF2EFF2EFF2E6B
:101BA000FF2EFF2EFF2EFF2EFF2EFF2EFF2EFF2ECD
:101BB000FF2EFF2EFF2EFF2EFF2EFF2EFF2EFF2EBD
:101BC000FF2EFF2EFF2EFF2EFF2EFF2EFF2EFF2EAD
:101BD000FF2EFF2EFF2EFF2EFF2EFF2EFF2EFF2E9D
:020DFE00FF2EC6
:021DFE00FF2EB6
:021DFC00CA001B
:1042000001000100000002000C0000000000F000AE
:104210000100010006000000000000000000F8009E
:1042200001000A001900200044005000C2004800AC
:104230005000E10042006C00610064006500530022
:1042400079007300740065006D0020006300330086
:10425000300030003000200049006E00730069001B
:10426000670068007400200044006900730070005B
:104270006C0061007900C000CA00350033003400D2
:104280003100320034002D00300030003100C80011
:10429000300036002F00310032002F003100320094
:1042A0000300D200410030000600D3004300750037
:1042B0006600B0000700C100000000000000DC0044
:1042C000010006001900C20048005000E100420051
:1042D0006C00610064006500530079007300740095
:1042E00065006D00200063003300300030003000B6
:1042F000200049006E0073006900670068007400C8
:10430000200044006900730070006C0061007900B7
:10431000C000C000C00000000000C1000000150087
:10432000000000000000000000000000000000008D
:10433000000000000000000000000000000000007D
:10434000000000000000000000000000000000006D
:10435000000000000000000000000000000000005D
:10436000000000000000000000000000000000004D
:10437000000000000000000000000000000000003D
:10438000000000000000000000000000000000002D
:10439000000000000000000000000000000000001D
:1043A000000000000000000000000000000000000D
:1043B00000000000000000000000000000000000FD
:1043C00000000000000000000000000000000000ED
:1043D00000000000000000000000000000000000DD
:1043E0000000000000000000FF00000000000000CE
:1043F00000000000000000000000000000000000BD
:04400E00EC2FFF3E56
:0840000007000F00080000009A
:00000001FF
