:1000000000308A00DE2A0000FF00030E8301A100F9
:100010007F08A0000A08A8008A01A00E0408A20018
:100020007708A3007808A4007908A5007A08A6003C
:100030007B08A700831383128C308400801D222844
:100040008C193528220884002308F7002408F800BA
:100050002508F9002608FA002708FB0028088A006E
:10006000210E8300FF0E7F0E09008A114928941289
:100070003030831693003630831294008316941325
:10008000141383122E10AF01AE10B101B2012E1164
:10009000003483161408A20083121308B000B201C2
:1000A000141F54283720B428831622082539013A12
:1000B000831203196828203A03196A28253A03197C
:1000C0008228203A03198228043A0319B028B1285B
:1000D0002E10B4282E1870283008AF002E14812856
:1000E0002F08033A031D7F28AE1C7E283108FF3AF3
:1000F0003002031D7D282E157E28AE108028802812
:10010000AF0AB4282F08033C031C9A282F08033C8D
:10011000031D9228AE140E08B10031088316A30007
:10012000982883122F082A3E840000088316A30013
:100130009C2883128316A30114189C2883129413FD
:100140008316230883129300941FA82883169E28E1
:10015000000000000000000000001416AF0AB428E0
:10016000B42894123720B4288C118A112228A53083
:1001700090009E308F0058308E008A11EF2A023096
:10018000AA000A30AB000330AC008A11F02A9E307E
:100190008F0058308E00141ECF28141FD528B20AA5
:1001A0003208053C03193720D628B2010C108A11F9
:1001B000022B7230840000080319EF280130F80088
:1001C000BF30F7006400F70BE228F80BE0284A3054
:1001D000F700F70BE92800006400800BDE280034EC
:1001E0000830F80000006400051183160511640052
:1001F000A00D83128510031C002983168514831219
:10020000031805298316851083128316051583129A
:1002100005190C2983160729F80BF228640005112B
:10022000831605110000851464006400051583120F
:1002300005191C2983161729F801640085187814FC
:1002400005118316051183128510831685108312FC
:10025000003483168514640005156400831285102C
:100260008316851064008312051183160511710829
:10027000A0008312F02072088316A0008312F020E1
:100280008316851000000515831205194929831668
:1002900044296400000000000000831685146400F7
:1002A000831200340830FC007708FD0083168514A3
:1002B00064000515831205195F2983165A298518CC
:1002C0000314851C0310F80D6400831605118312B6
:1002D0000511FC0B562983168514640083128510C2
:1002E0007D08031976298316851083120000831672
:1002F0000515831205197E298316792964000511D5
:1003000083160511640083128510831685108312ED
:1003100000340530F400831685146400051564006C
:1003200083128510831685106400831205118316CD
:100330000511FC30A0008312F02078087818A2295B
:100340007310A32973147318DB2971088316A00096
:100350008312F0208316851464000515640083124F
:100360000519B4298316AF298510831685106400FA
:100370008312051183160511FD30A0008312F020B1
:1003800078087818C5297310C62973147318DB29E7
:100390007208F203003A0319D3290130F700522101
:1003A0007808F400C829F701522178087818DA296A
:1003B0007310DB2973148316851000000515831252
:1003C0000519E4298316DF296400000000000000FD
:1003D0008316851464007408F800831200348316B1
:1003E000851464000515640083128510831685103A
:1003F0006400831205118316051173080238FE008C
:10040000A0008312F0207808FD00FD08031D472A94
:1004100074088316A0008312F0207808FD00750888
:100420008316A0008312F0207808FD008316851043
:1004300000000515831205191F2A83161A2A640065
:100440000000000000008316851464008514640019
:1004500005156400831285108316851064008312CD
:100460000511831605117308A0008312F020780887
:10047000FD0076088316A0008312F0207808FD00A6
:100480007C088316A0008312F0207808FD008316F4
:1004900085100000051583120519502A83164B2A72
:1004A00064000000000000008316851464007D08CD
:1004B000F800831200348316851464000515640067
:1004C000831285108316851064008312051183162C
:1004D000051183126D080238F2008316A000831202
:1004E000F02078087818762A7110772A711471181C
:1004F000C82A6E088316A0008312F02078087818A6
:10050000832A7110842A71146F088316A000831245
:10051000F020780878188E2A71108F2A71148316AB
:1005200085100000051583120519982A8316932A51
:100530006400000000000000831685146400851428
:10054000640005156400831285108316851064000D
:10055000831205118316051183126D080138F2000C
:100560008316A0008312F02078087818B92A711039
:10057000BA2A7114700884000130F70052217808FB
:100580008000013070078400F70152217808800054
:10059000831685100000051583120519D12A8316CC
:1005A000CC2A64000000000000008316851464005B
:1005B000003071180130F8008312003484011F30BC
:1005C000830583161F129F121B0880399B0007307A
:1005D0009C0060308F0001308312D800B728BF28FC
:1005E000372083168C1583120B178B1783161F1257
:1005F0009F121B0880399B0083122E19E32D0C1CBF
:10060000022BC7286400580B2D2B8316850141301F
:10061000831285006430F200D920E630F100F20147
:1006200029210130F100F20089217808D900590808
:10063000053C031D1E2B0530F8002A2B59084039B4
:10064000003A031D272B0230F8002A2B2A2B0130F9
:10065000F8002A2B7808D800E02D5808023C031D2A
:10066000A02C831685018130831285000430DB00C5
:100670000830DC000C30DD001030DE001430DF000C
:100680001830E0001C30E1002030E2006030E30070
:100690007030E4008030E5009030E6008830E700FC
:1006A0008A30E8008C30E9008E30EA000130F10039
:1006B000F20089217808D900591F612B0130F80018
:1006C0009D2C0230ED000A30EE000330EF001B30AD
:1006D000F1000330F2006D30F300F6017108F5000F
:1006E0008316851464000515640083128510831633
:1006F000851064008312051183160511FC30A000DB
:100700008312F02078087818872B7410882B7414C3
:100710007418AB2B71088316A0008312F0207208A6
:10072000F203003A0319A42B76087307840000082B
:10073000FC008316A0008312F02076087307840063
:100740000008F507F60A8F2BF509F50A75088316D8
:10075000A0008312F0208316851000000515831277
:100760000519B42B8316AF2B6400000000000000B5
:100770008316851464000030741C0130F80078087A
:100780008312DA000430F100FA30F200D920F10BC4
:10079000C42BE630F1000330F2002921EB016B0895
:1007A000073C031C7F2C5B306B0784000008F100C2
:1007B000F3001C30F4001E30F5001030F600FC0190
:1007C000EF21EC016C08033C031C6E2C5B306B07C3
:1007D00084000008F10063306C0784000008F20018
:1007E0007108F3004830F4001E30F5008030F60048
:1007F0007208FC00EF216C080139003A031D102C2F
:100800005B306B0784000008F100F3004830F4000F
:10081000AE30F5002F30F600FC30FC00EF211F2C2D
:100820005B306B0784000008F100F3004830F400EF
:10083000AE30F5005F30F600FC30FC00EF215B309D
:100840006B0784000008F10063306C078400000827
:10085000F2007108F3004830F4001E30F5008030DB
:10086000F6007208FC00EF216C080139003A031D04
:10087000482C5B306B0784000008F100F30048301F
:10088000F400AA30F5000230F600FC00EF21572CEE
:100890005B306B0784000008F100F3004830F4007F
:1008A000AA30F5000230F6003230FC00EF215B3058
:1008B0006B0784000008F10067306C0784000008B3
:1008C000F2007108F3000730F4007208F5000130FF
:1008D000F600FC01EF210130EC07E22B5B306B07E7
:1008E00084000008F100F3001C30F4006430F500CF
:1008F000F6010F30FC00EF210130EB07CF2B023067
:10090000F100FA30F200D920F10B812CEB016B08D9
:10091000073C031C9B2C5B306B0784000008F10034
:10092000F3001C30F4001E30F500F601FC01EF214D
:100930000130EB07872C0430F8007808D800E02D50
:100940005808043C031DCE2D8316850111308312F7
:1009500085000430DA000830DB000C30DC00103099
:10096000DD001430DE001830DF001C30E0002030E5
:10097000E1000130F100F20089217808E700671FEB
:10098000C72CFF30F200D9200130F800CB2D013008
:10099000F1000430F20089217808D9000130F1001B
:1009A0000330F20089217808E7000130F1000730B8
:1009B000F20089217808E800E901EB016808EA0003
:1009C0006A08EB00EA016708EA070318EB0A6908FE
:1009D000073C031CC92D5A30690784000008EC004D
:1009E000ED001C30EE007030EF006330F0005B2251
:1009F0005A30690784000008EC00ED001C30EE005E
:100A00006430EF006530F0005B2266080C39E200CC
:100A10006A080139F700FA0177087A040319122DE0
:100A2000591D4A2D6408FC38FC3C0319492D5A30E5
:100A3000690784000008EC0003306207ED006C08D1
:100A4000F3001C30F4006430F500F6016D08FC0082
:100A5000EF215A30690784000008EC000230620779
:100A6000ED006C08F3001C30F4006430F500F60172
:100A70006D08FC00EF215A30690784000008EC0083
:100A8000F3001C30F4006430F500F6016208FC004D
:100A9000EF215C2D5A30690784000008EC00033018
:100AA0006207ED006C08F3001C30F4006430F500C0
:100AB000F6016D08FC00EF210310EB0CEA0C5A3034
:100AC000690784000008EC00ED001C30EE00643083
:100AD000EF006530F0005B2266080339E2006A0827
:100AE0000139F700FA0177087A040319792D591DA5
:100AF000B12D6408F338F33C0319B02D5A3069075F
:100B000084000008EC000C306207ED006C08F30074
:100B10001C30F4006430F500F6016D08FC00EF2194
:100B20005A30690784000008EC0008306207ED00C5
:100B30006C08F3001C30F4006430F500F6016D0819
:100B4000FC00EF215A30690784000008EC00F30034
:100B50001C30F4006430F500F6016208FC00EF215F
:100B6000C32D5A30690784000008EC000C3062077E
:100B7000ED006C08F3001C30F4006430F500F60161
:100B80006D08FC00EF210310EB0CEA0C0130E907C3
:100B9000E72C0430F8007808D800E02D5808043C11
:100BA0000318E02D83168501D130831285000830AB
:100BB000D900FA30F200D920D90BD92D0130D80054
:100BC0008316FC2A83128B1364000B308A0080305A
:100BD00082006300FF2EFF2EFF2EFF2EFF2EFF2E22
:100BE000FF2EFF2EFF2EFF2EFF2EFF2EFF2EFF2E9D
:100BF000FF2EFF2EFF2EFF2EFF2EFF2EFF2EFF2E8D
:100C0000FF2EFF2EFF2EFF2EFF2EFF2EFF2EFF2E7C
:100C1000FF2EFF2EFF2EFF2EFF2EFF2EFF2EFF2E6C
:10170000E925A924AE110C18E2258C198A2564005C
:10171000832B0034FF2EFF2EFF2EFF2EFF2EFF2ED9
:101720005708AD3C031DB02B83165E0883120317C8
:101730008D00831603135F08FA01831203178F00CD
:101740006400943083168C0055308D00AA308D00D3
:101750008C14000000000C110C126400831203139F
:10176000003483165E08831203178D00831603135B
:101770005F08831203178F0083160313E2016108C9
:1017800062020318E32B6400813003178C00000011
:10179000000003136008E00A8400831203170C089A
:1017A0008000831603136008E00A84008312031785
:1017B0000E08800064008D0A8D0803198F0A8316B5
:1017C0000313E20ABF2B831200345708BE3C031DEB
:1017D000822C831603178C1703135E0883120317DA
:1017E0008D00831603135F08831203178F000D0803
:1017F000033983160313E300E3080319242CFC3098
:10180000831203178D0583160313E2016308620236
:101810000318242C640003170C14000000000C159E
:1018200055308D00AA308D008C14000000008C18FB
:10183000172C0C11640083128D0A8D0803198F0A6E
:1018400083160313E20A062CE2010310610C620204
:101850000318512C6008E00A840000088312031763
:101860008C00831603136008E00A840000088312CA
:1018700003178E00640083160C1555308D00AA30B6
:101880008D008C14000000008C18442C0C11640096
:1018900083128D0A8D0803198F0A83160313E20A37
:1018A000252C831203170D08033983160313E30055
:1018B000E3080319812C6308043CE300FF30831222
:1018C00003178C008E0083160313E2016308620283
:1018D0000318812C640003170C1555308D00AA30B5
:1018E0008D008C14000000008C18742C0C11640006
:1018F00083128D0A8D0803198F0A83160313E20AD7
:10190000662C831200348316141C882C8312832CBB
:101910008312941355089300941F902C8316882CDF
:10192000000000000000000000001416AE1DA42CF2
:101930005508AA3C031DA42C5430F700F70B9E2C2D
:10194000000000008A0100285130D500D401D301E5
:1019500000340E308316DF00F930DE003330E00053
:101960000330E1008312B123AD30D7008316DF01CD
:10197000DE0183129023BE30D7008316DF01DE0123
:101980003330E0000630E1008312E523DE30D7007B
:1019900000348316DC01DD015D0883125402031C50
:1019A000DA2C333083165D0784000008DC07DD0A7B
:1019B000CC2C83128316DC080319E32C55308312D8
:1019C000D5006A2D831683123608003A0319EC2CD1
:1019D000013A03192E2D672D34088316DF00831278
:1019E00035088316DE0003105F0CDB005E0CDA00A6
:1019F0005B080B3C031C2A2D031D022D5A087F3C5B
:101A0000031C2A2D5A081F39DE00DF01DE08031DE2
:101A1000172DDF08031D172DAD308312D700831655
:101A20005B08DF005A08DE00831290238316BE3065
:101A30008312D70083165B08DF005A08DE003730B8
:101A4000E000831233088316E1008312E523DE30C1
:101A5000D7008316AA308312D5006A2D8316DB01C6
:101A6000DA01DC015B080B3C031C582D031D3C2DE7
:101A70005A087F3C031C582D5B08DF005A08DE0023
:101A80003330E0000830E1008312B1238316DD011A
:101A90005D080F3C031C532D33305D0784000008A4
:101AA000DC07DD0A482D0830DA070318DB0A322D7F
:101AB000DC08031D612DAA308312D500AE15662DFA
:101AC00083168312A9245530D500AE116A2D5230E9
:101AD000D5006A2DD401D30100349412303083161E
:101AE00093003630831294008316941314138312D8
:101AF000D401D3015130D500D6010034141E822DFB
:101B0000141F882DD60A5608053C03196D25892D0A
:101B1000D601003483161408D800831213088316E4
:101B2000D90083128C11D601141F982D6D25D02D4C
:101B3000831658082539013A83120319AC2D203A2F
:101B40000319AD2D253A0319CA2D203A0319CA2DC0
:101B5000043A0319CC2DCD2DD02D54081F3C031C65
:101B6000C72D333054078400831659088000831230
:101B7000D408031DC02D831659088312D300C52D28
:101B80000430530754020319C924D40AC92D5A300A
:101B9000D500D02D8324D02DD02D94126D25D02D9D
:101BA0000034723083168F0083128D131430831625
:101BB000D8000F19E02DD8080319E02DD803D92D2E
:101BC000831200343C308F00B0308E007E250C1024
:101BD00000348B13D125DE30D70083161F129F12DD
:101BE0001B0880399B00FF3065006600A53083121A
:101BF00090003C308F00B0308E006D250034FF2EF9
:101C0000FF2EFF2EFF2EFF2EFF2EFF2EFF2EFF2E6C
:101C1000FF2EFF2EFF2EFF2EFF2EFF2EFF2EFF2E5C
:101C2000FF2EFF2EFF2EFF2EFF2EFF2EFF2EFF2E4C
:101C3000FF2EFF2EFF2EFF2EFF2EFF2EFF2EFF2E3C
:101C4000FF2EFF2EFF2EFF2EFF2EFF2EFF2EFF2E2C
:101C5000FF2EFF2EFF2EFF2EFF2EFF2EFF2EFF2E1C
:101C6000FF2EFF2EFF2EFF2EFF2EFF2EFF2EFF2E0C
:101C7000FF2EFF2EFF2EFF2EFF2EFF2EFF2EFF2EFC
:101C8000FF2EFF2EFF2EFF2EFF2EFF2EFF2EFF2EEC
:101C9000FF2EFF2EFF2EFF2EFF2EFF2EFF2EFF2EDC
:101CA000FF2EFF2EFF2EFF2EFF2EFF2EFF2EFF2ECC
:101CB000FF2EFF2EFF2EFF2EFF2EFF2EFF2EFF2EBC
:101CC000FF2EFF2EFF2EFF2EFF2EFF2EFF2EFF2EAC
:101CD000FF2EFF2EFF2EFF2EFF2EFF2EFF2EFF2E9C
:101CE000FF2EFF2EFF2EFF2EFF2EFF2EFF2EFF2E8C
:101CF000FF2EFF2EFF2EFF2EFF2EFF2EFF2EFF2E7C
:101D0000FF2EFF2EFF2EFF2EFF2EFF2EFF2EFF2E6B
:101D1000FF2EFF2EFF2EFF2EFF2EFF2EFF2EFF2E5B
:101D2000FF2EFF2EFF2EFF2EFF2EFF2EFF2EFF2E4B
:101D3000FF2EFF2EFF2EFF2EFF2EFF2EFF2EFF2E3B
:101D4000FF2EFF2EFF2EFF2EFF2EFF2EFF2EFF2E2B
:101D5000FF2EFF2EFF2EFF2EFF2EFF2EFF2EFF2E1B
:101D6000FF2EFF2EFF2EFF2EFF2EFF2EFF2EFF2E0B
:101D7000FF2EFF2EFF2EFF2EFF2EFF2EFF2EFF2EFB
:101D8000FF2EFF2EFF2EFF2EFF2EFF2EFF2EFF2EEB
:101D9000FF2EFF2EFF2EFF2EFF2EFF2EFF2EFF2EDB
:101DA000FF2EFF2EFF2EFF2EFF2EFF2EFF2EFF2ECB
:101DB000FF2EFF2EFF2EFF2EFF2EFF2EFF2EFF2EBB
:101DC000FF2EFF2EFF2EFF2EFF2EFF2EFF2EFF2EAB
:101DD000FF2EFF2EFF2EFF2EFF2EFF2EFF2EFF2E9B
:101DE000FF2EFF2EFF2EFF2EFF2EFF2EFF2EFF2E8B
:101DF000FF2E0A128A15802B0034FF2EFF2EFF2E95
:101E0000FF2EFF2EFF2EFF2EFF2EFF2EFF2EFF2E6A
:101E1000FF2EFF2EFF2EFF2EFF2EFF2EFF2EFF2E5A
:101E2000FF2EFF2EFF2EFF2EFF2EFF2EFF2EFF2E4A
:101E3000FF2EFF2EFF2EFF2EFF2EFF2EFF2EFF2E3A
:101E4000FF2EFF2EFF2EFF2EFF2EFF2EFF2EFF2E2A
:101E5000FF2EFF2EFF2EFF2EFF2EFF2EFF2EFF2E1A
:101E6000FF2EFF2EFF2EFF2EFF2EFF2EFF2EFF2E0A
:101E7000FF2EFF2EFF2EFF2EFF2EFF2EFF2EFF2EFA
:101E8000FF2EFF2EFF2EFF2EFF2EFF2EFF2EFF2EEA
:101E9000FF2EFF2EFF2EFF2EFF2EFF2EFF2EFF2EDA
:101EA000FF2EFF2EFF2EFF2EFF2EFF2EFF2EFF2ECA
:101EB000FF2EFF2EFF2EFF2EFF2EFF2EFF2EFF2EBA
:101EC000FF2EFF2EFF2EFF2EFF2EFF2EFF2EFF2EAA
:101ED000FF2EFF2EFF2EFF2EFF2EFF2EFF2EFF2E9A
:101EE000FF2EFF2EFF2EFF2EFF2EFF2EFF2EFF2E8A
:101EF000FF2EFF2EFF2EFF2EFF2EFF2EFF2EFF2E7A
:101F0000FF2EFF2EFF2EFF2EFF2EFF2EFF2EFF2E69
:101F1000FF2EFF2EFF2EFF2EFF2EFF2EFF2EFF2E59
:101F2000FF2EFF2EFF2EFF2EFF2EFF2EFF2EFF2E49
:101F3000FF2EFF2EFF2EFF2EFF2EFF2EFF2EFF2E39
:101F4000FF2EFF2EFF2EFF2EFF2EFF2EFF2EFF2E29
:101F5000FF2EFF2EFF2EFF2EFF2EFF2EFF2EFF2E19
:101F6000FF2EFF2EFF2EFF2EFF2EFF2EFF2EFF2E09
:101F7000FF2EFF2EFF2EFF2EFF2EFF2EFF2EFF2EF9
:101F8000FF2EFF2EFF2EFF2EFF2EFF2EFF2EFF2EE9
:101F9000FF2EFF2EFF2EFF2EFF2EFF2EFF2EFF2ED9
:101FA000FF2EFF2EFF2EFF2EFF2EFF2EFF2EFF2EC9
:101FB000FF2EFF2EFF2EFF2EFF2EFF2EFF2EFF2EB9
:101FC000FF2EFF2EFF2EFF2EFF2EFF2EFF2EFF2EA9
:101FD000FF2EFF2EFF2EFF2EFF2EFF2EFF2EFF2E99
:101FE000FF2EFF2EFF2EFF2EFF2EFF2EFF2EFF2E89
:101FF000FF2EFF2EFF2EFF2EFF2EFF2EFF2EFF2E79
:020DFE00FF2EC6
:021DFE00FF2EB6
:0216FE000000EA
:04400E00343FFF3FFD
:00000001FF
