:020000040000FA
:0400000049EF0BF0C9
:08000800056ED8CF06F0E0CF31
:1000100007F00001E9CF0DF0EACF08F0E1CF09F0D9
:10002000E2CF0AF0D9CF0BF0DACF0CF0F3CF14F017
:10003000F4CF15F0FACF16F000C00FF001C010F0A9
:1000400002C011F003C012F004C013F09DA62CEF03
:1000500000F09EB6EAEF02F0F2AA32EF00F0F2B43E
:1000600089EF03F09DA038EF00F09EB0A8EF03F0F9
:100070009DAC3EEF00F09EBC60EF00F00FC000F0C2
:1000800010C001F011C002F012C003F013C004F060
:100090000DC0E9FF08C0EAFF09C0E1FF0AC0E2FFA6
:1000A0000BC0D9FF0CC0DAFF14C0F3FF15C0F4FF7A
:1000B00016C0FAFF055007C0E0FF06C0D8FF1000C9
:1000C00019B80BD0026A036AC3504226C4504322B7
:1000D00002504422035045223806383C20D0D890A4
:1000E0003934036A3A0FE96E000E0320EA6E44C009
:1000F000ECFFED5243C0EFFF456A446A436A426A2F
:10010000392A030E3916010EC2163934006E003634
:10011000FC0E00160050C212395201E1219221A2B8
:1001200001D0C2829E9C3EEF00F021A004D05C5022
:10013000080801E021905C50010A23E0030A3CE03A
:10014000010A4DE0070AD8B4DAD0010AD8B4F4D0D5
:10015000030AD8B40ED1010AD8B412D10F0AD8B408
:1001600025D1010AD8B435D1030AD8B474D1010A13
:10017000D8B4B6D1070AD8B4FDD1010AD8B407D291
:1001800026D25E505D5C13E15E505D245F5C0FE142
:100190005D50080B080803E11986199203D01996DF
:1001A0002196CD807E0E8312770E1E6E206A010E80
:1001B0009C6F19C07CF00DD2080E9C6F19C07CF0AA
:1001C0001AC07DF01BC07EF01DC07FF01EC080F005
:1001D0001FC081F020C082F01CC083F0FAD119AC9E
:1001E0007CD00A0E9C6F2F5009E0010A15E0030A2B
:1001F00037E0010A48E0070A5AE06DD0050E9C6F0F
:1002000028C07CF029507D6E2AC07EF02B507F6E76
:100210002EC080F02E6A60D03AC07CF03B507D6EDC
:100220003CC07EF03D507F6E3EC080F03F50816FFD
:1002300040C082F04150836F080E0101516F0001F0
:100240009C510101515D0AE2036A51517C0FE96E34
:10025000000E0320EA6EEF6A512BF1D700013CD06B
:100260000101516B00019C510101515D0AE2036AD9
:1002700051517C0FE96E000E0320EA6EEF6A512B9C
:10028000F1D7000129D00101516B00019C510101FE
:10029000515D0BE2036A51517C0FE96E000E0320A1
:1002A000EA6E010EEF6E512BF0D7000115D001015F
:1002B000516B00019C510101515D0BE2036A5151E8
:1002C0007C0FE96E000E0320EA6EAA0EEF6E512B32
:1002D000F0D7000101D000D011D0070E9C6F28C0CC
:1002E0007CF029507D6E2AC07EF02B507F6E2EC090
:1002F00080F02E6A2CC081F02D50826F6AD15E5042
:100300005D5C15E15E505D245F5C11E15D50040BA6
:1003100004080AE11984206A199219B604D07E0EE5
:100320008312770E1E6E03D019942196CD80010E94
:100330009C6F19C07CF04DD10D0E9C6F19C07CF0E4
:1003400023C07DF024C07EF025C07FF026C080F061
:1003500027C081F020C082F080CF83F081CF84F06D
:1003600082CF85F083CF86F084CF87F01CC088F0E1
:1003700030D1020E9C6F010E7C6E020E7D6E29D173
:100380005D505C5C0EE15E505D5C0BE15E505D2497
:100390005F5C07E119BC02D0218003D02190199C39
:1003A0002F6A010E9C6F19C07CF013D121A001D0DF
:1003B000198C5E505D5C08E15E505D245F5C04E179
:1003C00019AC02D05DC02FF0010E9C6F2FC07CF0E5
:1003D00000D1010E9C6F0101536B5DC052F1000E04
:1003E0005213535303E152511F0805E2535303E1E3
:1003F00052517F0828E2535303E152519F0805E20E
:10040000535303E15251EF081EE2535100080CE22E
:10041000FF0A03E152510F0807E25351010804E3B8
:1004200012E152511F080FE25351000812E2FF0A75
:1004300003E152518F080DE2535101080AE303E131
:1004400052519F0806E352C1E9FF53C1EAFFEFCFC3
:100450007CF00001BED0010E9C6F0101536B5DC0AA
:1004600052F1000E5213535303E152511F0830E270
:10047000535303E152517F0805E2535303E15251B4
:100480009F0826E2535303E15251EF0807E253510C
:10049000010804E31DE152510F081AE2535100080C
:1004A0000CE2FF0A03E152516F0807E253510108C1
:1004B00004E30EE152518F080BE2535100080EE2A3
:1004C000FF0A03E15251EF0809E25351010806E324
:1004D00052C1E9FF53C1EAFFEFCF7CF0000179D0B0
:1004E00019A643D05E505D245F5C3FE15D50010A78
:1004F0000BE0030A11E0010A17E0070A1DE0010AF8
:1005000023E0030A29E030D05EA083925EB08382AC
:100510001E9083B21E8029D05EA083945EB0838437
:100520001E9283B41E8221D05EA083965EB0838625
:100530001E9483B61E8419D05EA083985EB0838813
:100540001E9883B81E8811D05EA0839A5EB0838AFD
:100550001E9A83BA1E8A09D05EA0839C5EB0838CEB
:100560001E9C83BC1E8C01D000D0010E9C6F1EC04F
:100570007CF02FD05D505C5C08E15E505D5C05E175
:100580005E505D245F5C01E19F819C6B22D05E50D8
:100590005D5C18E15E505D245F5C14E15D5006080F
:1005A00003E3060E526E0ED05D500C0803E30C0EF2
:1005B000526E08D05D50180803E3180E526E02D038
:1005C0005DC052F0010E9C6F52C07CF002D09C6B5B
:1005D00000D0000C0400C7A814D057A012D0D59E9C
:1005E000F29457B402D057B201D09FDD596A5C0E25
:1005F000586E5B6A7C0E5A6E576A9C6B9E6B818844
:100600006AD0C7AA2BD0C7A414D057A212D057B60D
:1006100010D09C530BE05AC0E9FF5BC0EAFFEFCF5C
:10062000C9FF5A2AD8B45B2A9C0702D0FF0EC96EB4
:1006300014D0C7A012D057B210D09C511F080BE3A2
:1006400058C0E9FF59C0EAFFC9CFEFFF582AD8B414
:10065000592A9C2B02D0C9CF9EF03DD0C7B002D002
:10066000C7A439D0C9CF9EF0C7A426D057B209D0AD
:10067000578057825B6A7C0E5A6E57DD9CC09DF096
:100680000BD057B609D09D5307E05786010E9D5DEC
:100690009C6F5B6A7D0E5A6E9C530BE05AC0E9FF5B
:1006A0005BC0EAFFEFCFC9FF5A2AD8B45B2A9C0788
:1006B00002D0FF0EC96E0FD09E5301E157845780C0
:1006C0005792596A5C0E586E9C6BF2943D0ED76E31
:1006D000090ED66ED58EC69EC69CC6889E963EEFE7
:1006E00000F0180E9412300EC86E3E0EC66EC78E05
:1006F000C78CC58EC5809D869E96F28C596A5C0E0D
:10070000586E5B6A7C0E5A6E576A9C6B9E6B9F910B
:10071000000CD59EE6DFF2943EEF00F04F064F52FC
:1007200003E12186010E4F6E5050D8B45106500699
:1007300050520CE151520AE1350E516EA50E506E29
:100740005306535203E152C053F02188B1EF03F036
:1007500021A406D02250090802E3222A01D02194C4
:10076000DDD79E903EEF00F07F0E806E896E926E18
:100770000E0EC16E070EB46EB56AFF0E816E8A6EE4
:10078000F18EEF0E936EFF0E826E8B6E946E836E03
:100790008C6E810E956E770E1E6E070E846E8D6EBA
:1007A000966E9CEF0BF00400070ED56EF29AF29451
:1007B000D76AD66A300ECD6E9D809E90CF6ACE6A83
:1007C000CA6AB16A9EEF0BF0010EC26E0B0EC16ECB
:1007D000A80EC06E9D8C9E9C396AFF0E386E01017A
:1007E000286B285103080DE3D8902835036A3A0F87
:1007F000E96E000E0320EA6EEC6AED52EF6A282BD8
:10080000F0D7456A446A436A426A2E6A0001A3EF40
:100810000BF00101306B2DC103F02CC1E9FF2DC19C
:10082000EAFFEF502E152E5D02E1318101D03191AA
:100830003051040834E32DC103F02CC1E9FF2DC170
:10084000EAFFEF502E152E5D05E131A103D0318175
:10085000302B1ED02DC103F02CC1E9FF2DC1EAFFC2
:10086000EF502E152E5D05E031B103D03191302BC4
:100870000FD0306B04002DC103F02CC1E9FF2DC156
:10088000EAFFEF502E152E5D02E1318101D031914A
:100890002F6B2F51630802E32F2BFBD7C9D7000E14
:1008A00031B1010E016E0001000C1AC023F01BC013
:1008B00024F01DC025F01EC026F01FC027F0306AAE
:1008C000316A326A336A346A356A0F0E01012D6F5C
:1008D000810E2C6F200E2E6F00019BDF01B002D025
:1008E0001A9001D01A800F0E01012D6F800E2C6F0F
:1008F000100E2E6F00018DDF01B002D01A9201D0D0
:100900001A820F0E01012D6F800E2C6F200E2E6F9C
:1009100000017FDF01B002D01A9401D01A840F0EBB
:1009200001012D6F840E2C6F010E2E6F000171DFFF
:1009300001B002D01A9801D01A880F0E01012D6F54
:10094000840E2C6F020E2E6F000163DF01B002D007
:100950001A9A01D01A8A0F0E01012D6F840E2C6F86
:10096000040E2E6F000155DF01B002D01A9C01D099
:100970001A8C1AA0302A1AA2302A1AA4302A1AA8CD
:10098000312A1AAA312A1AAC312A0F0E01012D6F11
:10099000820E2C6F010E2E6F00013BDF01B002D0E2
:1009A0001B9001D01B800F0E01012D6F820E2C6F4A
:1009B000020E2E6F00012DDF01B002D01B9201D07C
:1009C0001B820F0E01012D6F820E2C6F040E2E6FF5
:1009D00000011FDF01B002D01B9401D01B840F0E59
:1009E00001012D6F830E2C6F010E2E6F000111DFA0
:1009F00001B002D01B9801D01B880F0E01012D6F92
:100A0000820E2C6F200E2E6F000103DF01B002D08A
:100A10001B9A01D01B8A0F0E01012D6F820E2C6FC5
:100A2000400E2E6F0001F5DE01B002D01B9C01D0FC
:100A30001B8C1BA0322A1BA2322A1BA4322A1BA801
:100A4000332A1BAA332A1BAC332A0F0E01012D6F48
:100A5000810E2C6F080E2E6F0001DBDE01B002D07C
:100A60001D9001D01D800F0E01012D6F810E2C6F86
:100A7000040E2E6F0001CDDE01B002D01D9201D018
:100A80001D820F0E01012D6F810E2C6F020E2E6F35
:100A90000001BFDE01B002D01D9401D01D840F0EF5
:100AA00001012D6F810E2C6F010E2E6F0001B1DE42
:100AB00001B002D01D9801D01D880F0E01012D6FCD
:100AC000830E2C6F800E2E6F0001A3DE01B002D0CA
:100AD0001D9A01D01D8A0F0E01012D6F820E2C6F01
:100AE000800E2E6F000195DE01B002D01D9C01D05A
:100AF0001D8C1DB0342A1DB2342A1DB4342A1DB8F1
:100B0000352A1DBA352A1DBC352A366A1AB007D0D7
:100B10001BB005D01DA003D01F80362A01D01F9026
:100B20001AB207D01BB205D01DA203D01F82362AED
:100B300001D01F921AB407D01BB405D01DA403D056
:100B40001F84362A01D01F94376A1AB807D01BB801
:100B500005D01DA803D01F88372A01D01F981ABAC4
:100B600007D01BBA05D01DAA03D01F8A372A01D08F
:100B70001F9A1ABC07D01BBC05D01DAC03D01F8C1C
:100B8000372A01D01F9C000C010138513A03F3CFE2
:100B900001F0F4CF00F03B03F350002639513A0343
:100BA000F3500020026E0001000C0101486B496BFC
:100BB000010E4A6FDA6AD96A4D6F400E4C6F010E12
:100BC000EA6E440EE96E4DC1E2FF4CC1E1FF4AC13D
:100BD0004BF1D890E550EE02F3504823F4504923EE
:100BE0004B2FF7D748C1DEFF49C148F1496BD8B058
:100BF000492B4C2BD8B44D2B4A2B4A510508DFE129
:100C00000001000C3D50020814E2FF0A03E13C50D1
:100C100030080FE21C80060E0101296F400E286F7C
:100C2000FF0E2F6F2E6FD90E2D6FF80E2C6F0ED07A
:100C300000011C90060E0101296F2D0E286FFF0E7A
:100C40002F6F2E6FE50E2D6F240E2C6F3F50020874
:100C500012E2FF0A03E13E5030080DE21C88060E46
:100C60002B6F400E2A6FFF0E336F326FD90E316F2C
:100C7000F80E306F0CD01C98060E2B6F2D0E2A6FBD
:100C8000FF0E336F326FE50E316F240E306F41C0AF
:100C900039F140C038F13B6B0C0E3A6F000174DF44
:100CA00002C02DF001C02CF03652D8B494D036508A
:100CB0000308D8A090D001013B6B3A6B29C139F1F0
:100CC00028C138F129AF02D03A073B073AC000F0FB
:100CD0003BC001F0026A036A03C03FF102C03EF16B
:100CE0003BC03DF13AC03CF13BC143F13AC142F156
:100CF00039C141F138C140F103C047F102C046F1AA
:100D00003BC045F13AC044F100014FDF03C03CF164
:100D100002C03BF101C03AF100C039F101012C5190
:100D20000024006E2D510120016E2E510220026E12
:100D30002F510320376F02C036F101C035F100C0DA
:100D400034F137BF44D0375307E1365305E135530B
:100D500003E1345100083BE23731036E3631026E55
:100D60003531016E3431006E03320232013200320D
:100D700003320232013200320332023201320032D7
:100D800003320232013200320332023201320032C7
:100D90000332023201320032010E031601C029F083
:100DA00000C028F03250365C11E23650325C010847
:100DB00005E1390E2826000E292208D03650325C73
:100DC000020804E1E20E2826000E292202D0296A38
:100DD000286A04D00001296A286A010104003752F8
:100DE000D8B492D037500308D8A08ED03B6B3A6B62
:100DF0002BC139F12AC138F12BAF02D03A073B079A
:100E00003AC000F03BC001F0026A036A03C03FF140
:100E100002C03EF13BC03DF13AC03CF13BC143F161
:100E20003AC142F139C141F138C140F103C047F143
:100E300002C046F13BC045F13AC044F10001B5DEC5
:100E400003C03CF102C03BF101C03AF100C039F1EE
:100E5000010130510024006E31510120016E3251E8
:100E60000220026E33510320376F02C036F101C0F9
:100E700035F100C034F137BF44D0375307E1365362
:100E800005E1355303E1345100083BE23731036E8D
:100E90003631026E3531016E3431006E033202326A
:100EA00001320032033202320132003203320232A6
:100EB0000132003203320232013200320332023296
:100EC000013200320332023201320032010E0316C7
:100ED00001C02BF000C02AF03350375C11E23750CC
:100EE000335C010805E1390E2A26000E2B2208D0BA
:100EF0003750335C020804E1E20E2A26000E2B2252
:100F000002D02B6A2A6A02D02B6A2A6A010E2E6E40
:100F10000001C3EF0BF080AC02D0199001D0198012
:100F2000365202E037520CE17E0E8312770E1E6EAF
:100F3000206A1992030E476E486E466E47EF0BF01B
:100F40001C520CE07E0E8312770E1E6E206A1992E0
:100F5000030E476E486E466E47EF0BF019B03DEF3B
:100F60000BF021A634D219B432D219B630D229C02E
:100F700039F128C038F101013B6B36C03AF100016C
:100F800003DE02C02DF101C02CF12BC039F12AC0C3
:100F900038F101013B6B37C03AF10001F5DD01503A
:100FA00001012C25546E02502D21556E55504908D3
:100FB00008E2FF0A03E15450380803E2030E476ECB
:100FC00029D03650020807E25550460804E30EE1E6
:100FD00054504F080BE2365001080BE355502408DB
:100FE00008E2FF0A03E154501C0803E2020E476EB8
:100FF00011D036520AE0365001080AE25550210855
:1010000007E303E15450330803E3010E476E02D0B7
:1010100036C047F05550490808E2FF0A03E1545032
:10102000380803E2030E486E29D03750020807E261
:101030005550460804E30EE154504F080BE2375078
:1010400001080BE35550240808E2FF0A03E154505D
:101050001C0803E2020E486E11D037520AE03750E6
:1010600001080AE25550210807E303E15450330810
:1010700003E3010E486E02D037C048F04750485C89
:1010800003E247C046F002D048C046F02B6B2A6B03
:10109000296B286B3652D8B47FD03650465CD8B016
:1010A0007BD04650020826E33650020823E24A501D
:1010B00004081EE283961E9420844D2A81A216D035
:1010C0002B5314E12A51050811E307E129511608B1
:1010D0000DE303E12851140809E3010E2827D8B0D5
:1010E000292BD8B42A2BD8B42B2BE8D74A6A01D0A5
:1010F0004A2A51D0465001084EE3365001084BE2CF
:101100001FA423D04A5004081EE283961E94208414
:101110004D2A81A216D02B5314E12A51050811E360
:1011200007E1295116080DE303E12851140809E3EA
:10113000010E2827D8B0292BD8B42A2BD8B42B2BB2
:10114000E8D74A6A01D04A2A25D01FA223D04950A5
:1011500004081EE283941E9220824D2A81A416D098
:101160002B5314E12A51050811E307E12951160810
:101170000DE303E12851140809E3010E2827D8B034
:10118000292BD8B42A2BD8B42B2BE8D7496A01D005
:10119000492A00D000D047D03650020844E34650D8
:1011A000365C41E21EB21ED083841E8220924D0620
:1011B00081B416D02B5314E12A51050811E307E13D
:1011C000295116080DE303E12851140809E3010E23
:1011D0002827D8B0292BD8B42A2BD8B42B2BE8D762
:1011E000496A20D01EB41ED083861E8420944D06EA
:1011F00081B216D02B5314E12A51050811E307E1FF
:10120000295116080DE303E12851140809E3010EE2
:101210002827D8B0292BD8B42A2BD8B42B2BE8D721
:101220004A6A00D000D02B6B2A6B296B286B37528F
:10123000D8B47FD03750465CD8B07BD04650020837
:1012400026E33750020823E24C5004081EE2839C38
:101250001E9C208C4E2A82AE16D02B5314E12A51AC
:10126000050811E307E1295116080DE303E12851B0
:10127000140809E3010E2827D8B0292BD8B42A2B4B
:10128000D8B42B2BE8D74C6A01D04C2A51D0465009
:1012900001084EE3375001084BE21FAC23D04C50FD
:1012A00004081EE2839C1E9C208C4E2A82AE16D01F
:1012B0002B5314E12A51050811E307E129511608BF
:1012C0000DE303E12851140809E3010E2827D8B0E3
:1012D000292BD8B42A2BD8B42B2BE8D74C6A01D0B1
:1012E0004C2A25D01FAA23D04B5004081EE2839A13
:1012F0001E9A208A4E2A83AE16D02B5314E12A510F
:10130000050811E307E1295116080DE303E128510F
:10131000140809E3010E2827D8B0292BD8B42A2BAA
:10132000D8B42B2BE8D74B6A01D04B2A00D000D081
:1013300047D03750020844E34650375C41E21EBABA
:101340001ED0838A1E8A209A4E0683BE16D02B5347
:1013500014E12A51050811E307E1295116080DE3AC
:1013600003E12851140809E3010E2827D8B0292BDE
:10137000D8B42A2BD8B42B2BE8D74B6A20D01EBC6C
:101380001ED0838C1E8C209C4E0682BE16D02B5302
:1013900014E12A51050811E307E1295116080DE36C
:1013A00003E12851140809E3010E2827D8B0292B9E
:1013B000D8B42A2BD8B42B2BE8D74C6A00D000D055
:1013C000205202E1199201D019822196000121A830
:1013D00053D1198820A252D0050E566E83841E82E6
:1013E00020924D0601012B6B2A6B296B286B81B46F
:1013F00016D02B5314E12A51050811E307E12951B6
:1014000016080DE303E12851140809E3010E28270B
:10141000D8B0292BD8B42A2BD8B42B2BE8D700016D
:1014200055EC04F01FB203D05650010822E2839419
:101430001E9220824D2A01012B6B2A6B296B286B8F
:1014400081A416D02B5314E12A51050811E307E1BA
:10145000295116080DE303E12851140809E3010E90
:101460002827D8B0292BD8B42A2BD8B42B2BE8D7CF
:10147000000156061FB202D05652B0E120A452D04D
:10148000050E566E83861E8420944D0601012B6B3B
:101490002A6B296B286B81B216D02B5314E12A5189
:1014A000050811E307E1295116080DE303E128516E
:1014B000140809E3010E2827D8B0292BD8B42A2B09
:1014C000D8B42B2BE8D7000155EC04F01FB403D09F
:1014D0005650010822E283961E9420844D2A010171
:1014E0002B6B2A6B296B286B81A216D02B5314E12E
:1014F0002A51050811E307E1295116080DE303E11C
:101500002851140809E3010E2827D8B0292BD8B494
:101510002A2BD8B42B2BE8D7000156061FB402D0D3
:101520005652B0E120AA52D0050E566E838A1E8A0A
:10153000209A4E0601012B6B2A6B296B286B83BE08
:1015400016D02B5314E12A51050811E307E1295164
:1015500016080DE303E12851140809E3010E2827BA
:10156000D8B0292BD8B42A2BD8B42B2BE8D700011C
:1015700055EC04F01FBA03D05650010822E2839ABA
:101580001E9A208A4E2A01012B6B2A6B296B286B2D
:1015900083AE16D02B5314E12A51050811E307E15D
:1015A000295116080DE303E12851140809E3010E3F
:1015B0002827D8B0292BD8B42A2BD8B42B2BE8D77E
:1015C000000156061FBA02D05652B0E120AC52D0EC
:1015D000050E566E838C1E8C209C4E0601012B6BD3
:1015E0002A6B296B286B82BE16D02B5314E12A512B
:1015F000050811E307E1295116080DE303E128511D
:10160000140809E3010E2827D8B0292BD8B42A2BB7
:10161000D8B42B2BE8D7000155EC04F01FBC03D045
:101620005650010822E2839C1E9C208C4E2A010108
:101630002B6B2A6B296B286B82AE16D02B5314E1CF
:101640002A51050811E307E1295116080DE303E1CA
:101650002851140809E3010E2827D8B0292BD8B443
:101660002A2BD8B42B2BE8D7000156061FBC02D07A
:101670005652B0E1199821980AD07E0E8312770E47
:101680001E6E206A1992030E476E486E466EC9EFB1
:101690000BF0F86AD09E0D8EEA6AE96AC150C00B61
:1016A0000F09C16E070EB46E196A1A6A1B6A1C6AAA
:1016B0001D6A1E6A1F6A206A216A226A236A246AD6
:1016C000256A266A276A286A296A2A6A2B6A2C6A86
:1016D0002D6A2E6A2F6A306A316A326A336A346A36
:1016E000356A366A376A466A476A486A496A4A6AA0
:1016F0004B6A4C6A4D6A4E6A010E4F6EA50E506ED3
:10170000350E516E180E526E536E546A556A050EA0
:10171000566EF29E9B6A700ED36E140E0101276FF7
:10172000D3507C0804E0275302E02707F9D7030EC3
:10173000D0120001B4EF03F0D3EF03F0040071EC1A
:1017400003F0E4EF03F00400CD80F28CF28E04008D
:101750002184226A21A402D00400FCD72182C28203
:101760009FB118D0040055EC04F01A50235C06E138
:101770001B50245C03E11D50255C01E0819821B2DF
:1017800004D002EF06F02182C2821C5202E18BEFEC
:0A17900007F0E6D700EF18F00300A1
:1030000026DBA3D99F939EA001D01ADB9EA601D0F8
:08301000A5DA0400F8D7000C5A
:08310000000000EF18F0000CC4
:1032000001012651AD0801E010D0F86AE0C1F7FFD6
:10321000DFC1F6FF0400940EA66E550EA76EAA0E2F
:10322000A76EA682A694A69804000001000CF86A76
:103230000101EEC1F7FFEDC1F6FFF26BF151F25D56
:103240001FE20400810EA66E0900F0C103F0EF51E9
:10325000EF2BD8B4F02BE96E03C0EAFFF5CFEFFFF8
:103260000900F0C103F0EF51EF2BD8B4F02BE96E59
:1032700003C0EAFFF5CFEFFF0400020EF227DED70E
:103280000001000C01012651BE0801E03DD0D951DA
:103290003F0B09E1AD0E266FDAC1E0F1D9C1DFF1D4
:1032A0000001AEDF0101F86ADAC1F7FFD9C1F6FF0C
:1032B0000A00DE6BDD51DE5D0EE2DCC103F0DB51A6
:1032C000DB2BD8B4DC2BE96E03C0EAFFEFCFF5FFB0
:1032D0000F00DE2BEFD7DD51D925DF6F000EDA218D
:1032E000E06FDF511F0BE16FE26BE1530DE1E25341
:1032F0000BE10400840EA66E550EA76EAA0EA76EF3
:10330000A6820000A69404000001000CC7B0FED7FE
:10331000C69E24C1C9FFC6BEFBD700000000000046
:1033200000000000C6889FA309D001012451AA080B
:10333000D8B402D0000102D00400FFD7510E010121
:10334000246F236B206B0001000C0101EE6BED6B11
:10335000F06BA00EEF6F400EF16F000168DF310ED1
:103360000101EE6FED6BF06BA00EEF6F060EF16FCB
:1033700000015DDFBE0E0101266FDA6BD96BDC6BDD
:10338000A00EDB6F200EDD6F00017CDFBE0E0101A1
:10339000266FDA6B200ED96FDC6BC00EDB6F200E50
:1033A000DD6F00016FDFDE0E0101266F0001000CF2
:1033B0000101EB6BEA6BE96BEB512F0821E3EBC1E9
:1033C000EEF1EAC1EDF1010EF06FD90EEF6F100EC4
:1033D000F16F00012CDF0101EC6BEC510F080BE3E6
:1033E000036AEC51D90FE96E010E0320EA6EEF502B
:1033F000E927EC2BF2D7100EEA27000EEB23DCD7DF
:10340000E9C101F00001000C0101D76BD86BD85164
:10341000235D0BE3036AD851A00FE96E000E032071
:10342000EA6EEF50D727D82BF2D7D75303E0550ECB
:10343000246F6FD00001A35103E0010A38E065D08A
:10344000A1C022F1A2C021F10101225319E12151B1
:103450003F0816E3E00E2125D96F000E2221DA6F16
:10346000EA6ED9C1E9FFE26AA40EE16E0001A05143
:10347000016E04E0E6CFEEFF012EFCD714D001016F
:1034800022512F0810E3BE0E266F22C1DAF121C1AE
:10349000D9F1DC6BA40EDB6FA0C0DDF10001F2DE20
:1034A000DE0E0101266FAA0E0101246F32D0BE0E7E
:1034B0000101266FDA6BD96BDC6BE00EDB6F200E3F
:1034C000DD6F0001DFDEBE0E0101266FDA6B200E1C
:1034D000D96F010EDC6FDB6B200EDD6F0001D2DED9
:1034E000DE0E0101266F000163DF015206E1AA0E24
:1034F0000101246F00019F8306D0550E0101246F46
:1035000000019F9322DF010104D0520E0101246FBC
:1035100000D0236B206B0001000CC69A300EC86EE1
:10352000360EC66EC56AC79EC79C0101236B206B11
:10353000510E246F256B0001000CC6A802D0C6AC4A
:1035400009D00101252B2551050803E10001E5DF24
:10355000010102D00101256B0001000CC7CFD5F19C
:103560000000C9CFD6F19E960101256BC6AC04D0F0
:103570000001D3DF37D00101D551250B010A00012D
:103580000BE0200A0AE0250A27E0010A25E0210ACB
:1035900023E0040A23E023D025D0010123513F0872
:1035A00017E3036A2351A00FE96E000E0320EA6EB1
:1035B000D6C1EFFF235303E1D6C120F107D0040E9B
:1035C0002025235D03E100011FDF0101232B02D031
:1035D0005A0E246F000106D099DE04D003D0C69A9B
:1035E0009CDF00D0000C9B6A700ED36E140E01019C
:1035F000D56FD3507C0804E0D55302E0D507F9D746
:103600000001000C7F0E806E896E926E0E0EC16EF0
:10361000070EB46EB56AFF0E816E8A6EF18EEF0EE4
:10362000936EFF0E826E8B6E946E836E8C6E810E27
:10363000956E070E846E8D6E966E7E0E8312000C54
:103640003C0ECF6EB00ECE6E78DF9E90000CF29ED8
:10365000CADFDE0E0101266F0001D4DFA50ECD6E9C
:0C3660003C0ECF6EB00ECE6E58DF000C9A
:020000040030CA
:0E00000000080E17008581000FC00FE00F40B2
:00000001FF
;PIC18F4420
