:020000040000FA
:0400000018EF13F0F2
:08000800F76A180FF66E000EF6
:10001000F7220900F5501200010204102040F76A8F
:100020002E0FF66E000EF7220900F55012000001A7
:100030000405020306079B6A600ED36E140E0101CD
:10004000ED6FD3B404D0ED5302E0ED07FAD79B8CEB
:100050000001C5EF01F07F0E806E896E6F0E926E0B
:10006000070EB46EB56AFF0E816E8A6EF18E936EC6
:10007000F90E826E8B6EFE0E946EFF0E836E8C6E8A
:10008000956A070E846E8D6E966EC6EF01F0070EB0
:10009000D56EF194F294F29A850ED76EEE0ED66E6E
:1000A00064EF00F0800ECD6E9F909E909D9065EF66
:1000B00000F04A0ECA6EFA0ECB6E9E929F929D92EF
:1000C000CA8466EF00F0E3D7EDD7F3D7C7EF01F0AE
:1000D000C69A300EC86E360EC66EC78EC79CC59EB9
:1000E000C5809E969F969D960101E86B250EE76F51
:1000F0006D6AEA6B6E0EE96F0001B66B01011C9B25
:10010000246A0001B791000C010EC26E090EC16E87
:10011000BE0EC06E9D9C9E9C9F9CB795C9EF01F042
:100120000101045311E00451FF0A0814EF6F045158
:100130000515EF11166E06C0EFF1EF1F0750FF0A0D
:10014000EF151614186E04D008C016F00AC018F087
:1001500005C013F006C014F007C015F009C017F071
:100160000BC019F00CC01AF0EE6BEE51050819E344
:10017000036AEE511B0F016E000E032203C0F0F163
:10018000036AEE510D0FE96E000E0320EA6EEFCF09
:10019000F1F1F0C1EAFF01C0E9FFF1C1EFFFEE2B81
:1001A000E4D70001000C056A066A076A770E086E3C
:1001B000096E0A6E0B6A0C6A0101ED6BED510508C0
:1001C0000AE3036AED510D0FE96E000E0320EA6E9B
:1001D000EF6AED2BF3D70001A3DFCAEF01F0F26B5A
:1001E0000A0E0101EB6FEC6F0001CBEF01F0010192
:1001F0002F6B0001B797B79F01011C911C951C93B1
:100200000001CCEF01F0829000000000000000002F
:1002100082800101136B0001000CCD90FF0ECF6EA8
:10022000D80ECE6ECD80000C948294840101166BA2
:100230000001B799B79BE7DFF0DFCDEF01F00101D7
:10024000026B006B016B000127EF01F0F8D7010191
:10025000036B0001CEEF01F00101046B056BED6B48
:10026000ED5105080AE3036AED51060FE96E010E30
:100270000320EA6EEF6AED2BF3D70001CFEF01F018
:100280000101BE6B0001F289D0EF01F0D8900101AD
:10029000F135036AB80FE96E000E0320EA6EEC6ACE
:1002A000ED52EF6AD890F135036AC40FE96E000E83
:1002B0000320EA6EEC6AED52EF6AD890F135036ADA
:1002C000D00FE96E000E0320EA6EEC6AED52EF6A81
:1002D000D890F135036ADC0FE96E000E0320EA6E58
:1002E000EC6AED52EF6A0001000C0101ED6BED517B
:1002F000050807E3EDC1F1F10001C8DF0101ED2BB5
:10030000F6D70001B793D1EF01F00101ED6BED518C
:1003100005080BE3036AED51EC0FE96E000E0320B4
:10032000EA6E0A0EEF6EED2BF2D70001D2EF01F06C
:1003300001010F6B106B116B0001000C01010E6BC2
:10034000180E0C6F0001F4DFD3EF01F00101D06B48
:10035000CF6BCE6BCD6BD26BD16BD46BD36B1C8957
:100360000001000CF29EF2BEFDD7F29CF2BCFDD75C
:10037000F26AF16AF06A9E6AA16A9D6AA06A9F6A3F
:10038000A26A1F0ED06EB56A56D665D69CD6A0DE80
:10039000BBD609D724D72BD747D758D75DD770D727
:1003A000A4D7B3D7CBD7D2DF65EF13F0FD35006EFE
:1003B0000036FC0E001600500109C26EE5EF01F098
:1003C000100EFC6FFF6BFE6BF1D7C282000C9E9C7F
:1003D000C350FE27C450FF23FC07FC535DE1FF33ED
:1003E000FE33FF33FE33FF33FE33FF33FE330F0E96
:1003F000FF17FDC0EDF1FD51020803E20101ED2BF5
:100400000001FF5101081FE303E1FE5135081BE322
:10041000010E006E0101ED51016E04E0D89000362E
:10042000012EFCD70050FF0A0816010E006EED5198
:10043000016E04E0D8900036012EFCD70050FF0A70
:100440000A1620D00001FF5101081DE2FF0A03E156
:10045000FE51C90818E2010E006E0101ED51016E56
:1004600004E0D8900036012EFCD700500812010E8F
:10047000006EED51016E04E0D8900036012EFCD7DD
:1004800000500A120001FD2BFD51050802E398DF20
:1004900002D0B785F28901D0C2826EEF13F0F294D8
:1004A000850ED76EEE0ED66ED58ED5EF06F0D59EA4
:1004B000F2942BEF05F002010151050801E22ED064
:1004C000036A0151F2CF03F2F29E00019DDD0201A9
:1004D00003BFF28E026F0251091205B611D002510C
:1004E000010104130201025101010513036A020113
:1004F0000151060FE96E010E0320EA6E320EEF6E17
:10050000010E0125036F010E006E0351016E04E020
:10051000D8900036012EFCD7005083120001000C49
:100520000101FD6BFD51050807E3FDC101F200016A
:10053000C2DF0101FD2BF6D70001000C0586F0DFBC
:10054000B0EF02F00592000C0596EADF000C0550B2
:100550000101F119080B09E0F1A704D00001EED761
:10056000F1DF02D00001F0DF010100017CEF05F0B6
:1005700014C021F015C022F016C023F09CEF05F046
:10058000059801010E6B0001000CDCDFC9DF0B6A6E
:10059000640E01010D6F0001F3DF000C058405A25C
:1005A00002D0F3DF01D0BCDFEBEF02F0059405923F
:1005B000B7DF640E01010D6F0001EBEF02F0055093
:1005C0000101F119040B08E0F1A502D00001E6D702
:1005D0000001BADFEBD701010001A8EF05F001012E
:1005E000F151060803E3060E0C6F0ED0F1510C0812
:1005F00003E30C0E0C6F08D0F151180803E3180E3A
:100600000C6F02D0F1C10CF10001B3EF05F0036AE9
:100610000101F251F2CFF3F1F29E0001F5DC01018C
:10062000F3BFF28E016E065001140DE1036AF25120
:10063000EC0FE96E000E0320EA6EEF5204E1010EAA
:10064000016E04D003D0000E016E00D00001000C3A
:10065000B78FF281000C26522CE02650060829E3C1
:10066000010E265C0101F16FF1C1F2F10001CFDF53
:1006700001521FE0F1C11DF125C024F0036A010100
:10068000F151BF0FE96E010E0320EA6EEFCF1EF1AC
:100690001E1D286E282A2750285E020E1F6F216B10
:1006A000270E206F030E226F246B6E0E236F000146
:1006B000CFDF76EF06F027502624282429242A5C51
:1006C00032E1265230E0265006082DE3010E265C6A
:1006D0000101F16FF1C1F2F1000199DF015223E054
:1006E000F1C11DF125C024F0036A0101F151BF0FD2
:1006F000E96E010E0320EA6EEFCF1EF1040E1F6FAC
:100700001E1D2A6E2A2A27502A5E28502A5E29504A
:100710002A5E216B270E206F010E226F246B6E0E56
:10072000236F000195DF76EF06F02850470802E2BC
:10073000470E286E265227E02650060824E3010EB5
:10074000265C0101F16FF1C1F2F1000160DF01529D
:100750001AE0F1C11DF125C024F0036A0101F15135
:10076000C50FE96E010E0320EA6EEFCF1EF1010EF8
:100770001F6F216B270E206F28C022F1246B6E0E95
:10078000236F000165DF76EF06F02750262428242A
:10079000295C25E1265223E02650060820E3010EBD
:1007A000265C0101F16FF1C1F2F1000130DF01526D
:1007B00016E0F1C11DF125C024F0036A0101F151D9
:1007C000C50FE96E010E0320EA6EEFCF1EF1020E97
:1007D0001F6F216B270E206F226B000139DF76EF30
:1007E00006F0265233E02650060830E3010E265C60
:1007F0000101F16FF1C1F2F1000109DF015226E0C0
:10080000F1C11DF1560E266E286A25C024F0036A38
:100810000101F151BF0FE96E010E0320EA6EEFCF27
:100820001EF1040E1F6F1E1D296E292A2650295EF7
:100830002750295E2850295E216B260E206F010E5D
:10084000226F246B6E0E236F000102DF76EF06F03D
:10085000275026242824295C34E1265232E02650F1
:1008600006082FE3010E265C0101F16FF1C1F2F1E0
:100870000001CDDE015225E0F1C11DF1540E266EBE
:1008800025C024F0036A0101F151BF0FE96E010E8A
:100890000320EA6EEFCF1EF1040E1F6F1E1D296E9E
:1008A000292A2650295E2750295E2850295E216B6F
:1008B000260E206F010E226F246B6E0E236F000137
:1008C000C7DE76EF06F002010151050801E232D0E1
:1008D000036A0151F2CF03F2F29E000104EC00F032
:1008E000020103BFF28E026F0251FF0A091605B61C
:1008F00012D002510101041302010251FF0A010149
:100900000517036A02010151060FE96E010E03206B
:10091000EA6E320EEF6E010E0125036F010E006EBE
:100920000351016E04E0D8900036012EFCD7005030
:10093000FF0A83160001000C05A615D00101F22D57
:1009400009D0010EF15DF36FE8CF01F20001B3DDD4
:100950000AD00101F25308E1010EF15DF36FE8CF17
:1009600001F20001B0DF01010001C3EF05F0080E44
:10097000B66F0101D0C16EF0CFC16FF0CEC170F083
:10098000CDC171F0D2C172F0D1C173F0D4C174F095
:10099000D3C175F00001DADC76EF06F00101F16BEE
:1009A000F36B250EF26FF46B6D50F45D0DE2F3C145
:1009B00003F0F251F22BD8B4F32BE96E03C0EAFF37
:1009C000EF50F127F42BF0D7F15301E026D0050EBC
:1009D000265C1F6F1F51430801E21FD028C022F17F
:1009E0002251470801E219D02750010B016EE8B0EF
:1009F00003D00001B79D02D00001B78D2750FE0B38
:100A000001011E6F216B290E206F246B6F0E236F67
:100A100025C024F000011CDE0101000176EF06F084
:100A2000B6530FE00101EAC103F0E951E92BD8B454
:100A3000EA2BE96E03C0EAFFEFCFC9FF0001B6075A
:100A400002D0FF0EC96E020E006E002EFED700000F
:100A5000C688000C2CD5246AB66B2550010A2EE0FE
:100A6000030A32E0010A3EE0070A47E0010AD8B46F
:100A700065D0030AD8B46DD0010AD8B475D00F0A76
:100A8000D8B473D0010AD8B471D0030AD8B46FD0E7
:100A9000010AD8B46DD0070AD8B46BD0010AD8B413
:100AA00069D0030AD8B470D0010AD8B48AD01F0A1A
:100AB000D8B419D1010AD8B417D117D1020EB66F24
:100AC0006E6E0A0E6F6E12D12650255C0AE1275019
:100AD000265C07E127502624285C03E101011C8BDA
:100AE000000104D12750265C07E127502624285C0A
:100AF00003E126C0F1F12BD5F9D00E0EB66F13C06D
:100B00006EF014C06FF015C070F016C071F017C011
:100B100072F018C073F019C074F01AC075F01BC0E1
:100B200076F01CC077F01DC078F01EC079F01FC0B1
:100B30007AF020C07BF01CD5838ED8D02750265C5D
:100B400007E127502624285C03E126C0F1F137D5C0
:100B5000CDD02750265C07E127502624285C03E1EE
:100B600026C0F1F13CD5C2D076D5A5D5DED50DD6BF
:100B700038D66ED627502624285C05E126C0F1F130
:100B800027C0F2F1D9D6B2D00D0EB66F05C06EF007
:100B900006C06FF007C070F008C071F009C072F0B5
:100BA0000AC073F00BC074F080CF75F081CF76F07F
:100BB00082CF77F083CF78F084CF79F00CC07AF0D1
:100BC00095D02652D8B48ED026500608D8A08AD008
:100BD000010E265C0101F06F090E0001B66FD8907E
:100BE0000101F035036AB80FE96E000E0320EA6ECA
:100BF000ECCFF2F1ED52EFCFF1F1F1C16EF0D89000
:100C0000F035036AB80FE96E000E0320EA6EECCFF0
:100C1000F2F1ED52EFCFF1F1F2C16FF0D890F03573
:100C2000036AC40FE96E000E0320EA6EECCFF2F106
:100C3000ED52EFCFF1F1F1C170F0D890F035036AC9
:100C4000C40FE96E000E0320EA6EECCFF2F1ED5214
:100C5000EFCFF1F1F2C171F0D890F035036AD00F07
:100C6000E96E000E0320EA6EECCFF2F1ED52EFCF09
:100C7000F1F1F1C172F0D890F035036AD00FE96E4E
:100C8000000E0320EA6EECCFF2F1ED52EFCFF1F15E
:100C9000F2C173F0D890F035036ADC0FE96E000EF4
:100CA0000320EA6EECCFF2F1ED52EFCFF1F1F1C19A
:100CB00074F0D890F035036ADC0FE96E000E032063
:100CC000EA6EECCFF2F1ED52EFCFF1F1F2C175F037
:100CD000036AF0510D0FE96E000E0320EA6EEFCFAC
:100CE00076F0000103D043D659D600D00101EA6B5B
:100CF0006E0EE96F245209E0EF5303E00001B78163
:100D000002D00001B79107D00101EF5302E00001CA
:100D100087DE0001B7916D6A000C255000081FE2C4
:100D2000255011081CE3255011080BE16D500108F6
:100D300007E226506D5C04E10101EF6B00018ADEE1
:100D40000ED0036A2550D50FE96E010E0320EA6E1E
:100D5000EF506D5C04E10101EF6B00017BDEE7EF1A
:100D600006F0C7CFEDF19E96C6AC03D068EC00F05C
:100D700048D00101ED51250B010A000107E0200ACE
:100D80000EE0240A27E0210A37E03AD0C9CFEEF17D
:100D90000101E86B250EE76F6D6AC68833D0C9CFB5
:100DA000EEF16D5202E14FEF02F06D5047080FE394
:100DB0000101E8C103F0E751E72BD8B4E82BE96E55
:100DC00003C0EAFFEEC1EFFF6D2A0001A6D7C68877
:100DD000010118D0C9CFEEF16D5206E0010E0101FC
:100DE000EF6F000137DE06D0245202E0B78102D057
:100DF000B79116DE010106D013DE010103D0000118
:100E0000B5D70101000174EF13F001011651D90F9C
:100E1000D8B0CED1270F0001DBEF08F09482948484
:100E2000010E0101166FC4D182B206D003EC01F0AD
:100E30000101166B0CD0000182B406D0090E01012D
:100E4000176F020E166F03D0050E0101166FB0D199
:100E50009482FF0E0101196F186F030E166FA8D14F
:100E600082B20AD001011851D8B41907182F03D043
:100E7000195301E194D103D0040E0101166F98D1EA
:100E8000829294920101170703E0020E166F04D0BC
:100E900082949494240E166F8BD1B7B904D0B78B7B
:100EA000010186D10001B799B79B82949494070EF3
:100EB0000101166F7DD182929492080E0101166F86
:100EC000176FF3C01BF1000101011BAF02D0948426
:100ED00002D082949494090E166F6AD19482FF0E08
:100EE0000101196F186F0A0E166F62D182B20AD013
:100EF00001011851D8B41907182F03D0195301E173
:100F000048D103D00B0E0101166F52D182929492F8
:100F10000101170706E0D8901B37080E166F000175
:100F2000D3D7000194840D0E0101166F41D1948234
:100F3000FF0E0101196F186F0E0E166F39D182B2B4
:100F40000AD001011851D8B41907182F03D019532A
:100F500001E11FD103D00F0E0101166F29D101014C
:100F6000ED9182B4ED8182929492EDB106D01BAFE7
:100F700002D00AD001D078D006D0010E1A6F240E0C
:100F8000166F8294949414D10001FB6BF851FB5DB1
:100F900007E3240E0101166F8294949409D1000195
:100FA000948401011B6B080E176F0001130E0101E1
:100FB000166FFED09482FF0E0101196F186F140E88
:100FC000166FF6D082B20AD001011851D8B41907B1
:100FD000182F03D0195301E1DCD003D0150E010105
:100FE000166FE6D00101ED9182B4ED818292949268
:100FF000D8901B37EDA101D01B81170702E000013B
:10100000D5D70001FB51FB2B036AF925E96EFA5194
:101010000320EA6E1BC1EFFFF851FB5D02E39484ED
:1010200002D082949494170E0101166FC1D094825D
:10103000FF0E0101196F186F180E166FB9D082B22A
:101040000AD001011851D8B41907182F03D0195329
:1010500001E19FD003D0190E0101166FA9D0829231
:10106000949294D70101A4D00001F76BF451F75D7D
:1010700007E3240E0101166F8294949499D0000125
:10108000F751F72B036AF525E96EF6510320EA6E56
:10109000EFCF1BF10101080E176F000101011BAF1B
:1010A00002D0948402D0829494941D0E166F80D046
:1010B0009482FF0E0101196F186F1E0E166F78D003
:1010C00082B20AD001011851D8B41907182F03D0E1
:1010D000195301E15ED003D01F0E0101166F68D0D5
:1010E000829294920101170704E0D8901B37000107
:1010F000D5D700019484210E0101166F59D0948236
:10110000FF0E0101196F186F220E166F51D082B2B7
:101110000AD001011851D8B41907182F03D0195358
:1011200001E137D003D0230E0101166F41D0010138
:10113000ED9182B4ED8182929492EDB104D00001E0
:1011400095D705D00101240E166F82949494010165
:101150002FD09482FF0E0101196F186F250E166FA4
:1011600027D082B20AD001011851D8B41907182F1C
:1011700003D0195301E10DD003D0260E0101166FE3
:1011800017D094840101166B0001B787F281010129
:101190000FD0020E1A6F0001B787F281010194820D
:1011A0009484000103EC01F00101166B01D00101F0
:1011B00000017FEF13F0E824D10FF66E110EF76EE9
:1011C000D8B0F72A0A00F550FA6E0800F550F96E0B
:1011D0001C0E280E500E600E800E9A0EAA0EB60E31
:1011E000C80EDC0EEC0E0C0F240F2E0F3E0F5E0F00
:1011F000880F8C0FAC0FB40FC40FE40F18102E1013
:101200003E105E1068106C109C10B010C010E01002
:10121000F410FE100E112E115211621182110101F3
:10122000F6510219F76F0151001B011FF75100170A
:10123000F751011700510111021700510111FF0A66
:10124000F615021302C101F00001FEEF09F0F0C132
:10125000F1F146EC01F0036A0101F051F2CFF1F136
:10126000F29E000104EC00F00101F1BFF28E0712C2
:10127000036AF051F2CFF1F1F29E000104EC00F0AC
:101280000101F1BFF28EFF0A0816F0C101F2000160
:101290005BEC02F0036A0101F051F2CFF1F1F29E32
:1012A000000104EC00F00101F1BFF28EFF0A0A1602
:1012B000036AF051F2CFF1F1F29E000104EC00F06C
:1012C0000101F1BFF28EFF0A0B16036AF051F2CF53
:1012D000F1F1F29E000104EC00F00101F1BFF28E89
:1012E000FF0A0C16036AF0510D0FE96E000E032081
:1012F000EA6EEF6A000124EF0AF0036A0101F0517F
:10130000EC0FE96E000E0320EA6E0A0EEF6EF0C1DC
:10131000F1F1000146EC01F0036A0101F051F2CF56
:10132000F1F1F29E000104EC00F00101F1BFF28E38
:101330000712036AF051F2CFF1F1F29E000104ECC2
:1013400000F00101F1BFF28EFF0A0816F0C101F2B0
:1013500000015BEC02F0036A0101F051F2CFF1F100
:10136000F29E000104EC00F00101F1BFF28EFF0AD1
:101370000A16036AF051F2CFF1F1F29E000104EC7B
:1013800000F00101F1BFF28EFF0A0B16036AF05163
:10139000F2CFF1F1F29E000104EC00F00101F1BF87
:1013A000F28EFF0A0C16036AF0510D0FE96E000E63
:1013B0000320EA6EEF6A000124EF0AF006C003F191
:1013C000D8908230700B0101F16F8130006E0032D5
:1013D00000321F0E00160050070B036AF2CFF4F123
:1013E000F29E00010FEC00F00101F4BFF28E016EDD
:1013F000F1510110F56FF66F000111D701C006F031
:10140000065001010319ED6FED5321E0EF6BEF5131
:1014100005081DE3036AEF51F2CFF0F1F29E0001DF
:1014200004EC00F00101F0BFF28EEE6FED51EE150D
:101430000CE00650EE1504E0EFC1F0F1000107D713
:10144000EFC1F0F1000159D70101EF2BE0D7000106
:1014500034EF0AF09E920101EB2F04D00A0EEB6FDD
:101460000001F2850001AAD785EF13F01EC1F3F049
:101470001FC1F4F021C1F6F020C1F5F022C1F8F04F
:1014800024C1FAF023C1F9F0000C27C1F3F028C100
:10149000F4F02AC1F6F029C1F5F02BC1F8F02DC106
:1014A000FAF02CC1F9F0000CB789B7AB02D00DEC03
:1014B00001F0000CF39101011A6B0001F76BF4DFEE
:1014C000000CF38101011A6B0001FB6BF8C0EEF117
:1014D000FAC0F0F1F9C0EFF10101EE51EE07000A98
:1014E0000AE0F0C103F0EFC1E9FFF0C1EAFFFF0E2F
:1014F000EF6E0001F1D70001D7DF000C01011CA144
:1015000010D01AC125F10001F28301011C91036A78
:101510001D510D0FE96E000E0320EA6E1AC1EFFF98
:101520000FD01AC12EF10001F28B01011C95036A44
:1015300026510D0FE96E000E0320EA6E1AC1EFFF6F
:101540002F6B0001000C0101EE51080B04E1010EAC
:10155000016E04D003D0020E016E00D0000148EFEE
:101560000BF0010113C101F000014CEF0BF0010180
:10157000EF51020802E3EFC113F10001CCEF0AF0D2
:10158000EEC114F1E00EF36F010EF46FF66F140E5E
:10159000F56FEEC1EFF1EBD78DDF54EF0BF0F29169
:1015A000B7A74BD0B79701012F51000107E0010AFF
:1015B00007E0030A20E0010A37E03ED0FFD73DD024
:1015C00001011CA103D0000151DF02D000015DDF49
:1015D000F45306E06FDF020E01012F6F0AD0000105
:1015E000F85306E06EDF030E01012F6F02D00001F9
:1015F00085DF000122D0F451F75D02E001011A8578
:1016000001011A5304E0000179DF0BD00101000150
:10161000F85306E056DF030E01012F6F03D00001DF
:101620006DDF0101000109D0F851FB5D03E001010C
:101630001A87000163DF01D0FFD701012F534BE16F
:101640000001B7BF04D001011CA345D00001B7AF12
:1016500007D0B79F01011C811C95000107DF06D050
:1016600001011C931C911C8500010FDF01011CA1CD
:101670000BD02450110808E1000E0001B7BD010E87
:10168000010F0101ED6F06D0F3C0EEF100015BD751
:1016900001C0EDF1000165D701500101ED5D08E0E9
:1016A000EDC1EEF100016CD7010E01012F6F13D0D7
:1016B0000001F45306E0FEDE020E01012F6F0BD095
:1016C0000001F85306E0FDDE030E01012F6F03D089
:1016D000000114DF0101000110EF13F0F293245018
:1016E000070A0DE00F0A11E0010A15E0030A21E0E4
:1016F000010A25E0070A42E01D0A46E04ED025C156
:1017000071F0040EB66F246A4BD025C16EF0010E45
:10171000B66F246A45D0036A28506E0FE96E000E3A
:101720000320EA6E25C1EFFF010E2824B66F246A5C
:1017300037D025C16EF0010EB66F246A31D0010199
:10174000255318E1560E266E070E246E020E1F6FEB
:101750001E1D276E272A2650275E216B260E206F1E
:10176000030E226F246B6E0E236F000128EC03F032
:1017700004D001010001B66B246A12D025C16EF0BD
:10178000010EB66F246A0CD025C16EF0010E010166
:1017900022250001B66F246A03D0246AB66B00D0FC
:1017A000245205E1B7A103D010EC05F0B79110EF7A
:1017B00013F001011CA94FD0ED6BEF6BEE6BED51F7
:1017C00005082FE3036AED51F2CFF0F1F29E00011C
:1017D00004EC00F00101F0BFF28E016E065001141E
:1017E0001EE1036AED51F2CFF2F1F29E000104EC2A
:1017F00000F00101F2BFF28E016E075001140FE1FB
:10180000D890ED35036AD00FE96E000E0320EA6E22
:10181000ECCF03F0ED52EF50EE270350EF23ED2B0A
:10182000CED7D451EF5D08E303E1EE51D35D04E27E
:10183000EFC1D4F1EEC1D3F1EE51CD27EF51CE235C
:10184000000ECF23D023D12BD8B4D22BD15303E118
:10185000D25301E11C990001000C01010D5301E07C
:101860000D07000147EF0CF0F2950101EC2F07D0B6
:101870000A0EEC6F0001F2879CDF06D00101EC51EB
:10188000050802E1000195DF0001F28DE6D710EFB7
:1018900013F0F297F28F10EF13F0B795FD6BE0ECB9
:1018A00001F05BEF11F001011C830001F28179EF7F
:1018B0000CF0EFC126F1036A0101EF51BF0FE96E91
:1018C000010E0320EA6EEFCF27F1F0C1CBF1271D07
:1018D000CC6FCC2BF051CC5F020E286F010E2A6F1B
:1018E000CB0E296F030E2B6F2D6BE80E2C6F0001B2
:1018F000DAD7BEEF0CF00101ED5310E0BC2BBC5168
:1019000003080AE2BC6BBB2BBB51050805E20001D2
:10191000B783F28933D00101030EBD6FBBC1F2F171
:10192000000107EC03F0015219E1BBC1F1F146ECF3
:1019300001F0036A0101BB510D0FE96E000E032097
:10194000EA6EEF6ABC6BBB2BBB51050805E20001D8
:10195000B783F28913D00101E1D70001036A0101C5
:10196000BC51B70FE96E010E0320EA6EEFCFEEF126
:10197000BBC1EFF1EEC1F0F100019BD7000CB793B2
:101980000101BB6BBC6B030EBD6FED6B0001B3DFE0
:1019900063EF11F00101FE5102010003F3CF01F0EA
:1019A000F4CF00F00103F35000260101FF510201C2
:1019B0000003F3500020026E0001000C0201056BD1
:1019C000066B010E076FDA6AD96A0A6FFD0E096F9E
:1019D000020EEA6E010EE96E0AC2E2FF09C2E1FFE1
:1019E00007C208F2D890E550EE02F3500523F450F8
:1019F0000623082FF7D705C2DEFF06C205F2066BE5
:101A0000D8B0062B092BD8B40A2B072B0751050891
:101A1000DFE10001000C006A016A026A036A020148
:101A2000056B066B076B086B045103110211011162
:101A30002EE0200E096FD8900101FD37FE37FF37E9
:101A40000201003705370637073708370451085DAC
:101A500008E10351075D05E10251065D02E1015114
:101A6000055D0FE30151055F0251D8A0023D065FFD
:101A70000351D8A0033D075F0451D8A0043D085F7F
:101A8000D8800036013602360336092FD4D700003D
:101A9000020EEA6E050EE96E0001000C0582EBEF06
:101AA00010F00101FD51FE5D04E3FD51FF5DD8B072
:101AB00094D0FD51FE5D46E20201006B0051020828
:101AC00040E30101FD51FE5DD8A402D0020139D0EE
:101AD000036A02010051F2CF01F2F29E000104EC10
:101AE00000F0020101BFF28E016E0750011427E1E0
:101AF000036A0051F2CF03F2F29E000104EC00F001
:101B0000020103BFF28E016E0B50011418E000C2F7
:101B100001F200015BEC02F0036A02010051F2CF16
:101B200001F2F29E000104EC00F0020101BFF28E0E
:101B3000FF0A0B16640E01010D6FFE2B0201002B34
:101B4000BDD70101FD51FF5D47E2030E0201006FA9
:101B50000051050840E30101FD51FF5DD8A402D00A
:101B6000020139D0036A02010051F2CF01F2F29E64
:101B7000000104EC00F0020101BFF28E016E07507B
:101B8000011427E1036A0051F2CF03F2F29E000133
:101B900004EC00F0020103BFF28E016E0B50011441
:101BA00018E000C201F200015BEC02F0036A0201DE
:101BB0000051F2CF01F2F29E000104EC00F00201AC
:101BC00001BFF28EFF0A0B16640E01010D6FFF2B91
:101BD0000201002BBDD7010172D00D5301E06FD07F
:101BE000FE51FD5D33E2020E0201006F036A0051F7
:101BF000F2CF01F2F29E000104EC00F0020101BFFD
:101C0000F28E016E0850011417E000C201F20001CB
:101C100063EC04F0036A02010051F2CF01F2F29E7C
:101C2000000104EC00F0020101BFF28E0B12640E01
:101C300001010D6FFE0702010007005308E00101DA
:101C4000FD51FE5DD8B402D00201D0D702010101DE
:101C5000FF51FD5D34E2050E0201006F036A005181
:101C6000F2CF01F2F29E000104EC00F0020101BF8C
:101C7000F28E016E0850011417E000C201F200015B
:101C800063EC04F0036A02010051F2CF01F2F29E0C
:101C9000000104EC00F0020101BFF28E0B12640E91
:101CA00001010D6FFF07020100070051030808E260
:101CB0000101FD51FF5DD8B402D00201CFD702016E
:101CC0000001FAEF10F005508D0B05E005A202D0DF
:101CD000C5EC02F08FD205A801D08CD2FF0E010115
:101CE000F46FF36FF66BF56BEF6BF16BED6BED5122
:101CF0000208D8A097D0036AED51F2CFFDF1F29E11
:101D0000000104EC00F00101FDBFF28E016E0650EF
:101D10000114D8A485D0036AED51F2CFFDF1F29EF3
:101D2000000104EC00F00101FDBFF28E016E0750CE
:101D3000011463E1036AED51F2CFFDF1F29E00015F
:101D400004EC00F00101FDBFF28E016E0850011499
:101D500034E0D890ED35036AC40FE96E000E03201D
:101D6000EA6EECCFFEF1ED52EFCFFDF1FE51F45DE6
:101D700013E303E1F351FD5D0FE2D890ED35036A03
:101D8000C40FE96E000E0320EA6EECCF03F0ED52B3
:101D9000EFCFF3F103C0F4F1D890ED35036ADC0F17
:101DA000E96E000E0320EA6EECCF03F0ED52EF5027
:101DB000F5270350F623EF2B1FD0036AED51F2CF26
:101DC000FDF1F29E000104EC00F00101FDBFF28E76
:101DD000016E0950011410E1036AED51F2CFFFF1D9
:101DE000F29E000104EC00F00101FFBFF28E016ED3
:101DF0000B50011401E0F12B13D0036AED51F2CF27
:101E0000FDF1F29E000104EC00F00101FDBFF28E35
:101E1000FF0A0B16EDC101F200015BEC02F00101BB
:101E2000ED2B65D7F06BF26B030EED6FED510508EE
:101E3000D8A097D0036AED51F2CFFDF1F29E0001D8
:101E400004EC00F00101FDBFF28E016E065001149A
:101E5000D8A485D0036AED51F2CFFDF1F29E0001C6
:101E600004EC00F00101FDBFF28E016E0750011479
:101E700063E1036AED51F2CFFDF1F29E000104EC43
:101E800000F00101FDBFF28E016E0850011434E034
:101E9000D890ED35036AC40FE96E000E0320EA6E98
:101EA000ECCFFEF1ED52EFCFFDF1FE51F45D13E307
:101EB00003E1F351FD5D0FE2D890ED35036AC40FE5
:101EC000E96E000E0320EA6EECCF03F0ED52EFCF87
:101ED000F3F103C0F4F1D890ED35036ADC0FE96E3D
:101EE000000E0320EA6EECCF03F0ED52EF50F52721
:101EF0000350F623F02B1FD0036AED51F2CFFDF112
:101F0000F29E000104EC00F00101FDBFF28E016EB3
:101F10000950011410E1036AED51F2CFFFF1F29E76
:101F2000000104EC00F00101FFBFF28E016E0B50C6
:101F3000011401E0F22B13D0036AED51F2CFFDF151
:101F4000F29E000104EC00F00101FDBFF28EFF0AD9
:101F50000B16EDC101F200015BEC02F00101ED2B6B
:101F600065D7EFC1EEF1EF51F05D02E2F0C1EEF1A5
:101F7000EE5302E1010EEE6F020EF86FD00EF76F16
:101F8000F45118080CE2F4511E0809E303E1F3517F
:101F9000000805E3040EF86F380EF76F13D0F45104
:101FA0000C0810E2FF0A03E1F351BF080BE2F45101
:101FB0000F0808E303E1F351000804E3030EF86F90
:101FC0002A0EF76FF8C1FFF1F7C1FEF10201016BB4
:101FD000EEC100F20001DEDC0101FC6BFB6B02C014
:101FE000FAF101C0F9F1FCC100F2FBC1FFF1FAC145
:101FF000FEF1F9C1FDF10201046B036B1A0E026FD1
:10200000DB0E016F0001DADC03C0FCF102C0FBF162
:1020100001C0FAF100C0F9F1FCC100F2FBC1FFF10F
:10202000FAC1FEF1F9C1FDF10201046B036B270E49
:10203000026F100E016F0001EEDC03C0FCF102C064
:10204000FBF101C0FAF100C0F9F10101FC5309E113
:10205000FB5307E1F651FA5D5AE303E1F951F55DEF
:1020600056E2EE51010853E2010EEE5DFD6FF8C13C
:10207000FFF1F7C1FEF10201016B006F00018ADC84
:102080000101FC6BFB6B02C0FAF101C0F9F1FCC16C
:1020900000F2FBC1FFF1FAC1FEF1F9C1FDF102014D
:1020A000046B036B240E026F9F0E016F000186DC30
:1020B00003C0FCF102C0FBF101C0FAF100C0F9F16C
:1020C000FCC100F2FBC1FFF1FAC1FEF1F9C1FDF163
:1020D0000201046B036B270E026F100E016F0001EB
:1020E0009ADC03C0FCF102C0FBF101C0FAF100C0B0
:1020F000F9F10101FC5309E1FB5307E1F651FA5DE7
:1021000005E303E1F951F55D01E2EE0753D0F8C1B3
:10211000FFF1F7C1FEF10201016BEEC100F2000117
:1021200039DC0101FC6BFB6B02C0FAF101C0F9F173
:10213000FCC100F2FBC1FFF1FAC1FEF1F9C1FDF1F2
:102140000201046B036B240E026F9F0E016F0001EE
:1021500035DC03C0FCF102C0FBF101C0FAF100C0A4
:10216000F9F1FCC100F2FBC1FFF1FAC1FEF1F9C1C6
:10217000FDF10201046B036B270E026F100E016F5D
:10218000000149DC03C0FCF102C0FBF101C0FAF11F
:1021900000C0F9F10101FC530DE1FB530BE1FA51D1
:1021A000F65D08E303E1F551F95D04E2EE51020842
:1021B00001E3EE2BF151EF25EE5D01E005E2F25176
:1021C000F025EE5D06E005E30001C5EC02F012D05B
:1021D0000101000163D40101EE51EF5D03E1EE5115
:1021E000F05D09E0EEC1FDF1EFC1FEF1F0C1FFF1DC
:1021F000000157D4010100016BEF11F00101EE91D4
:10220000ED6BED5105081AE3EDC1F2F1000107ECA9
:1022100003F0015210E0036A0101ED510D0FE96E68
:10222000000E0320EA6EEF52D8A402D0000103D0C2
:10223000EE8104D000010101ED2BE3D7EEA102D025
:10224000058E01D0059E80AC02D0059001D005809E
:10225000000173EF11F02150145C03E0010E016ED8
:102260000ED02250155C03E0010E016E08D0235001
:10227000165C03E0010E016E02D0000E016E44EF09
:1022800011F083AE04D0E7D7015201E0839E84EFC2
:1022900011F0F2990101BE5100010BE0010A0FE0BB
:1022A000030A16E0010A1EE0070A24E0010A2BE0F7
:1022B00032D04DEF0CF0010E0101BE6F2ED0B7A54C
:1022C00005D0BFEF0CF0020E0101BE6F010125D059
:1022D000B7A306D0F8D4030E0101BE6F0001F28946
:1022E00001011BD08BD7040E0101BE6F0001F289E2
:1022F000010113D090EC00F0050E0101BE6F00014A
:10230000F28901010AD0BDD70101BE6B0001F2893B
:10231000010103D00001FFD70101000110EF13F00C
:10232000F29BE951E825EA2503E001012E8900012D
:10233000036A0101BB510D0FE96E000E0320EA6E26
:102340002EC1EFFF2E53D8A493D0BC51000107E05B
:10235000010A56E0030A63E0010A70E07FD0D890DA
:102360000101BB35036AB80FE96E000E0320EA6E67
:10237000E9C0ECFFED52E8C0EFFF0001E8A310D088
:10238000036A0101BB51F2CFEDF1F29E000104ECB2
:1023900000F00101EDBFF28EFF0A07160ED000011A
:1023A000036A0101BB51F2CFEDF1F29E000104EC92
:1023B00000F00101EDBFF28E07120001E951070B99
:1023C00002080FE2036A0101BB51F2CFEDF1F29E68
:1023D000000104EC00F00101EDBFF28E0C120FD0F1
:1023E0000001036A0101BB51F2CFEDF1F29E000141
:1023F00004EC00F00101EDBFF28EFF0A0C1631D0A3
:10240000D8900101BB35036AC40FE96E000E0320AA
:10241000EA6EE9C0ECFFED52E8C0EFFF22D0D890A1
:102420000101BB35036AD00FE96E000E0320EA6E8E
:10243000E9C0ECFFED52E8C0EFFF13D0D8900101E6
:10244000BB35036ADC0FE96E000E0320EA6EE9C0BB
:10245000ECFFED52E8C0EFFF04D00001FFD701010F
:1024600000D0010EED6F00017BEC0CF014D00101E7
:10247000BD0706E0ED6B00017BEC0CF00CD0010118
:10248000BBC1F1F1000146EC01F0010E0101ED6F5D
:1024900000017BEC0CF010EF13F0F29D0101ED6BED
:1024A000ED51050813E3036AED51EC0FE96E000EE0
:1024B0000320EA6EEF5208E0036AED51EC0FE96E7B
:1024C000000E0320EA6EEF06ED2BEAD7000110EFB5
:1024D00013F0F29F0B50770B0AE101010E53D8A4C1
:1024E00002D0000104D00001C0EC02F07AD001015A
:1024F0000E51000105E0010A09E0030A21E06DD058
:1025000098EC01F0010E01010E6F6BD001010F2B51
:102510000F513B0814E20F6B102B10513B080FE2D8
:10252000106B112B0C51115D0AE3116B020E0E6F33
:102530000A0E126F0588000190EC02F0010151D0E3
:102540000101122F49D0ED6BED51050843E3036AF9
:10255000ED51F2CFEEF1F29E000104EC00F001012A
:10256000EEBFF28E016E0650011432E1036AED51A6
:10257000F2CFEEF1F29E000104EC00F00101EEBF9B
:10258000F28E016E0A5001140EE1036AED51F2CF92
:10259000EEF1F29E000104EC00F00101EEBFF28EBC
:1025A000FF0A0B1615D0036AED51F2CFEEF1F29E41
:1025B000000104EC00F00101EEBFF28E016E0B5041
:1025C000011406E0EDC101F2000163EC04F0010129
:1025D000ED2BBAD70E6B059804D001010E6B059850
:1025E00000D0000110EF13F0F2A102D0CFEF0AF0FB
:1025F000F2A302D06EEF0BF0F2A502D034EF0CF094
:10260000F2A702D049EF0CF0F2A901D042D6F2AB0A
:1026100001D086D6F2AD01D040D7F2AF01D059D764
:1026200089EF13F0D59EF29468EC00F08CEF13F074
:10263000F86AD09EEA6AE96AC150C00B0F09C16E00
:10264000070EB46E020E0101B76F080EB86F0C0EC4
:10265000B96F120EBA6FB00EBF6FB20EC06FB40E6C
:10266000C16FB80EC26FBA0EC36FBC0EC46FA00E9E
:10267000C56FA20EC66FA40EC76FA80EC86FAA0EB4
:10268000C96FAC0ECA6F010ED56FD66F040ED76F2F
:10269000D86F010ED96F040EDA6FDB6F030EDC6F9B
:1026A000060EDD6FDE6F050EDF6F030EE06F050EA9
:1026B000E16F040EE26F010EE36F020EE46F010E94
:1026C000E56FE66F0001B2EF01F001011CBB25D000
:1026D00004009EAC04D00001E7EF01F001019EA6CA
:1026E00004D00001B1EF06F001019EA009D09E9038
:1026F0000001B7BB02D00DEC01F005EF07F00101BE
:102700009EA203D000012AEF0AF00001F25301E07B
:102710006BD7F2A401D086D7D8D7000100EF18F00C
:022720000300B4
:1030000043DBA4D901011C979EA003D0000135DB4E
:1030100001019EA603D00001BADA01010400F4D731
:043020000001000C9F
:08310000000000EF18F0000CC4
:103200000101B651AD0801E012D0F86A02019BC27B
:10321000F7FF9AC2F6FF0400940EA66E550EA76E35
:10322000AA0EA76EA682A694A6980400010100012A
:10323000000CF86A0201A9C2F7FFA8C2F6FFAD6B45
:10324000AC51AD5D1FE20400810EA66E0900ABC259
:1032500003F0AA51AA2BD8B4AB2BE96E03C0EAFF46
:10326000F5CFEFFF0900ABC203F0AA51AA2BD8B4E7
:10327000AB2BE96E03C0EAFFF5CFEFFF0400020EAF
:10328000AD27DED70001000C0101B651BE0801E0F8
:1032900040D0020194513F0B0AE1AD0E0101B66F1F
:1032A00095C29BF294C29AF20001AADF0201F86A69
:1032B00095C2F7FF94C2F6FF0A00996B9851995D89
:1032C0000EE297C203F09651962BD8B4972BE96E75
:1032D00003C0EAFFEFCFF5FF0F00992BEFD798510E
:1032E00094259A6F000E95219B6F9A511F0B9C6F2E
:1032F0009D6B9C530DE19D530BE10400840EA66E63
:10330000550EA76EAA0EA76EA6820000A694040012
:1033100001010001000CC7B0FED7C69EB4C1C9FFB1
:10332000C6BEFBD700000000000000000000C688F9
:1033300001011CA705D0B451AA0802E10400FFD77F
:10334000510EB46FB36BB06B0001000C0201A96B9E
:10335000A86B010EAB6F300EAA6F400EAC6F000170
:1033600068DF310E0201A96FA86B010EAB6F300E42
:10337000AA6F060EAC6F00015CDFBE0E0101B66FD6
:103380000201956B946B010E976F300E966F200EB5
:10339000986F000179DFBE0E0101B66F0201956BD7
:1033A000200E946F010E976F500E966F200E986F3F
:1033B00000016ADFDE0E0101B66F0001000C0201A0
:1033C000A66BA56BA46BA6512F0821E3A6C2A9F298
:1033D000A5C2A8F2020EAB6F940EAA6F100EAC6FCE
:1033E000000127DF0201A76BA7510F080BE3036A57
:1033F000A751940FE96E020E0320EA6EEF50A42746
:10340000A72BF2D7100EA527000EA623DCD7A4C247
:1034100001F00001000C0201926B936B93510101CA
:10342000B35D0CE3036A02019351300FE96E010EA4
:103430000320EA6EEF509227932BF0D702019253AC
:1034400005E0550E0101B46F79D00201010133513D
:10345000000103E0010A3CE06DD031C1B2F132C19C
:10346000B1F10101B2531CE1B1513F0819E3700EF3
:10347000B1250201946F010E0101B2210201956F85
:10348000EA6E94C2E9FF010EE26E340EE16E0101B4
:103490003051016E04E0E6CFEEFF012EFCD715D0CF
:1034A000B2512F0812E3BE0EB66FB2C195F2B1C190
:1034B00094F2010E0201976F340E966F30C198F2AC
:1034C0000001E2DEDE0E0101B66FAA0EB46F36D047
:1034D000BE0E0101B66F0201956B946B010E976FE2
:1034E000700E966F200E986F0001CEDEBE0E0101A9
:1034F000B66F0201956B200E946F010E976F900EC0
:10350000966F200E986F0001BFDEDE0E0101B66FD0
:10351000000155DF015206E1AA0E0101B46F1C87BC
:1035200008D00001550E0101B46F1C9700010EDF99
:10353000010104D0520E0101B46F00D0B36BB06B27
:103540000001000CC69A300EC86E360EC66EC78ECD
:10355000C79CC59EC5809E969F969D960101B36BA4
:10356000B06B510EB46FB56B0001000CC6A802D051
:10357000C6AC09D00101B52BB551050803E1000126
:10358000E1DF010102D00101B56B0001000CC7CFE2
:1035900090F29E960101B56BC6AC04D00001D2DF5B
:1035A0003ED0010102019051250B010A000109E002
:1035B000200A0BE0240A2BE0210A2BE0040A2BE06E
:1035C0002BD0C9CF91F2C6882AD0C9CF91F2010180
:1035D000B3513F0817E3036AB351300FE96E010E90
:1035E0000320EA6E91C2EFFFB35303E191C2B0F141
:1035F00007D0040EB025B35D03E100010CDF01012B
:10360000B32B02D05A0EB46FC688000108D0C9CFC0
:1036100091F281DE04D003D0C69A94DF00D0000C72
:103620009B6A700ED36E140E0201906FD3507C080B
:1036300004E0905302E09007F9D70001000C7F0EE0
:10364000806E896E926E0E0EC16E070EB46EB56AF4
:10365000FF0E816E8A6EF18EEF0E936EFF0E826EFC
:103660008B6E946E836E8C6E810E956E070E846EDB
:103670008D6E966E7E0E8312000C3C0ECF6EB00ED9
:10368000CE6E74DF9E90000CF29ECADFDE0E01014A
:10369000B66F0001D4DFA50ECD6E3C0ECF6EB00E1E
:0636A000CE6E50DF000CAD
:020000040030CA
:0E00000000081617008581000FC00FE00F40AA
:00000001FF
;PIC18F4420
