:020000040000FA
:0400000010EF11F0FC
:08000800F76A180FF66E000EF6
:10001000F7220900F55012001926323F4B5864713F
:100020007D8A96A3F76A340FF66E000EF722090058
:10003000F55012007E8D959CA0A3A5A7A8A9A9AAFA
:10004000F76A500FF66E000EF7220900F550120005
:100050000B10151B20252B30353B40464B565B7B48
:1000600080969BABB0BBC100F76A780FF66E000EAE
:10007000F7220900F55012007E8E979DA2A5A7A930
:10008000ABACADAEAFAFB0B0AFAFAEAEADADAC0040
:100090007F0E806E896E926EFF0E816E8A6EF18E7B
:1000A000EF0E936EFF0E826E8B6E946E836E8C6E6F
:1000B000810E956E070E846E8D6E966EB8EF01F010
:1000C0009B6AF00ED36ED3A4FED79B8CB9EF01F0E0
:1000D000C69A300EC86E360EC66EC78EC79CC59EB9
:1000E000C5809E969D96149ACC6BAB0ECB6FCD6B54
:1000F000A96B880EA86FAA6B000C070ED56EF29440
:10010000F29A9BEF00F0CD6A9CEF00F0320E156E74
:100110001490000C4E0ECA6EF90ECB6E320E156E98
:100120009E929D92F3DFC80E166E9DEF00F0B16AAD
:100130009EEF00F0E2D7E7D7EDD7F9D7BCEF01F09B
:10014000010EC26E0B0EC16EAA0EC06E9E9C9D9CCF
:100150001492376AFF0E386E0101CC6BCC51030844
:1001600014E3CC51040DF350036A390FE96E000E0D
:100170000320EA6EEE52EE52EC6AED52EF6AED5257
:10018000EF6AED52EF6ACC2BE9D74C6A4B6A4A6AA8
:10019000496A4D6A516A506A4F6A4E6A556A546A92
:1001A000536A526A596A586A576A566A5A6A00010B
:1001B000BDEF01F01B6A1C6A1D6A770E1E6E1F6A76
:1001C000206A216A226A256A266A276ABEEF01F040
:1001D000040E606E5F6A6E6A6D6A14960E0E6A6E29
:1001E000100E696E0E0E6C6E100E6B6E0101CC6BF4
:1001F000CC5103080DE3D890CC35036A610FE96E4A
:10020000000E0320EA6EEC6AED52EF6ACC2BF0D7B9
:100210000001BFEF01F00101D451000103E0010A28
:1002200062E000D00101D56BD5510B0826E3036ACB
:10023000D551CF0FE96E000E0320EA6E036AD55147
:10024000F2CFD8F1F29E0001DFDE0101D8BFF28EBD
:10025000EF6E036AD551DF0FE96E000E0320EA6EE0
:10026000036AD551F2CFD8F1F29E0001DBDE010125
:10027000D8BFF28EEF6ED52BD7D7D56BD5511608D8
:1002800026E3036AD551F00FE96E000E0320EA6EF3
:10029000036AD551F2CFD8F1F29E0001D1DE0101FF
:1002A000D8BFF28EEF6E036AD551100FE96E010EC2
:1002B0000320EA6E036AD551F2CFD8F1F29E000115
:1002C000D3DE0101D8BFF28EEF6ED52BD7D7316BBD
:1002D000080E3F6FCA0E3E6F0C0E0001EF6F170E37
:1002E0000101306F0CD0010E0101316F33C13FF1BC
:1002F00032C13EF134C1EFF035C130F100D0000120
:10030000000C0101396B386B376B366B3B6B3A6B0A
:100310003D6B3C6B148C149E336B326B346B356BC2
:10032000D46B000178DFC0EF01F00E0E5C6E100E92
:100330005B6E5DC05EF01494000C180E5D6EF5DF10
:10034000C1EF01F0286A296A0101CC6BCC51050884
:100350000AE3036ACC512A0FE96E000E0320EA6E0D
:10036000EF6ACC2BF3D70001C2EF01F0F29E90D6DA
:10037000A7D61498ADDEDED6E3D61CD729D7C1D7D1
:10038000DCD7E0D772EF11F00101D46BD49181BAC0
:10039000D481D49380B8D483D49580BAD485D499A9
:1003A00084B0D489D49B84B2D48BD49D84B4D48DAE
:1003B000D4511B18D36F3250311A321ED35131161B
:1003C000D3513216315032101B1631503210FF0A01
:1003D000D4151B1200018AEF02F00101D46BD491F5
:1003E00082B0D481D49382B2D483D49582B4D4859C
:1003F000D49983B0D489D49B82BAD48BD49D82BC47
:10040000D48DD4511C18D36F3450331A341ED351A9
:100410003316D3513416335034101C163350341065
:10042000FF0AD4151C1200018BEF02F00101D46BFE
:10043000D49181B6D481D49381B4D483D49581B23C
:10044000D485D49981B0D489D49B83BED48BD49DD8
:1004500082BED48DD4511D18D36F3650351A361E36
:10046000D3513516D3513616355036101D1635502A
:100470003610FF0AD4151D1200018CEF02F00101A5
:10048000D751050801E230D0036AD751060FE96E53
:10049000000E0320EA6EEFCFD8F1D8511E12D851CA
:1004A000FF0A201605A203D0205201E1059205B6ED
:1004B0000DD0D8512812D8512912036AD7512A0FCA
:1004C000E96E000E0320EA6EFF0EEF6E010ED725D7
:1004D000D96F010E006ED951016E04E0D89000363C
:1004E000012EFCD7005083120001000C059201017F
:1004F000D66BD651050807E3D6C1D7F10001BFDF9F
:100500000101D62BF6D70001000C1BC0CFF11FC094
:10051000D0F13AD762D78AD71B501C121B50FF0A62
:100520001D161B501E121BC0D3F10101D31F1C50FE
:10053000FF0AD3151D141F6E1B50FF0A20161B50F7
:10054000FF0A2816CF511B181B14D16FD1531EE080
:10055000D26BD25105081AE3036AD251060FE96E35
:10056000000E0320EA6EEF50D1150EE0010ED225E9
:10057000D36F010E006ED351016E04E0D8900036A7
:10058000012EFCD700508312D22BE3D71F50070B4C
:10059000036A0C0FE96E000E0320EA6EEFCF21F024
:1005A0001F38006E0F0E00160050070B036A0C0F69
:1005B000E96E000E0320EA6EEFCF22F0D0511F1833
:1005C000D015D46F2950FF0A2814FF0AD41505E06E
:1005D00005A203D000018ADF0101285211E0285052
:1005E000FF0A1D14D36F28502914D311236E1BC08A
:1005F000D3F1D31F1C50FF0AD3152314246E04D04B
:100600001DC023F01FC024F01B50255C06E11C50C8
:10061000265C03E12350275C01E081980001C6EFCE
:1006200003F0285246E00101CF6BCF5105083BE3B0
:10063000036ACF51060FE96E000E0320EA6EEFCF7A
:10064000D0F12850D0152DE0036ACF512A0FE96E62
:10065000000E0320EA6EEF2E04D0D051FF0A2816B8
:1006600020D02950D0150FE01F50D0150BE0D051ED
:10067000FF0A2816036ACF512A0FE96E000E0320E5
:10068000EA6EEF6A0ED01F50D0150BE1D051FF0A71
:100690002816036ACF512A0FE96E000E0320EA6E76
:1006A000EF6ACF2BC2D7285202E1640E306E05D01C
:1006B0000001305201E0300601010001C7EF03F0F4
:1006C0005F5238E00101CF6BCF51030832E3D8907D
:1006D000CF35036A610FE96E000E0320EA6EECCF9E
:1006E000D1F1ED52EFCFD0F1D05302E1D1531FE061
:1006F000D890CF35036A610FE96E000E0320EA6ED1
:10070000FF0EEF2602E2E92AED06D890CF35036A04
:10071000610FE96E000E0320EA6EECCFD1F1ED52CD
:10072000EFCFD0F1D05303E1D15301E15F06CF2BDE
:10073000CBD700016D5202E16E5208E06D50D8B483
:100740006E066D2E03D06E5201E11496D1EF03F0C8
:1007500005A210D05B50D8B45C065B2E0BD05C5267
:1007600009E10E0E5C6E100E5B6E5E2E03D05DC056
:100770005EF01484D2EF03F09E92010E1726D8B0DB
:10078000182AD8B4192AD8B41A2ABFD64AD7152E8F
:1007900003D0320E156E1480162E04D0C80E166EBD
:1007A0008FD7D6D7000CF2940B0ED76EDC0ED66E18
:1007B000D58E63EF09F0D59EF294000C0101D5911E
:1007C00005B6D5810596D4B70586006A05B60080C2
:1007D000D5510018010B03E0000188DE0101000182
:1007E000D7EF06F00101D59105B4D5810594D4B5B4
:1007F0000584006A05B40080D5510018010B07E09C
:1008000005A405D005B603D0000170DE010100018A
:1008100090EF07F00101D751050801E233D0036AD8
:10082000D751060FE96E000E0320EA6EEFCFD8F124
:10083000D851FF0A1E1605B616D0D851201205B29F
:1008400004D0000172DD05820101D8512812D8516F
:10085000FF0A2916036AD7512A0FE96E000E0320FA
:10086000EA6EFF0EEF6E010ED725D96F010E006EF6
:10087000D951016E04E0D8900036012EFCD700500B
:10088000FF0A83160001000C05A61DD00101D451FA
:100890000008D8A002D0000116D0D4510608D8B064
:1008A00002D0000110D0D55308E0010ED45DD66F00
:1008B000D76F0001E4DD07D00101010ED45DD66FD2
:1008C000D76F0001A7DF73EF08F00101D4510608CC
:1008D00003E3060E5D6E0ED0D4510C0803E30C0E3C
:1008E0005D6E08D0D451180803E3180E5D6E02D077
:1008F000D4C15DF000018FEF08F00101D5C103F014
:10090000D451D42BD8B4D52BE96E03C0EAFF60C014
:10091000EFFFD5C103F0D451D42BD8B4D52BE96E59
:1009200003C0EAFF5FC0EFFFD5C103F0D451D42B61
:10093000D8B4D52BE96E03C0EAFF6EC0EFFFD5C176
:1009400003F0D451D42BD8B4D52BE96E03C0EAFF01
:100950006DC0EFFFD5C103F0D451D42BD8B4D52B43
:10096000E96E03C0EAFF000E14B6010EEF6ED66BFF
:10097000D65103083AE3D5C103F0D451D42BD8B4EF
:10098000D52BD76F03C0D8F1D890D635036A610F45
:10099000E96E000E0320EA6EECCFDAF1ED52EFCFF4
:1009A000D9F1D8C1EAFFD7C1E9FFDAC1EFFFD5C15C
:1009B00003F0D451D42BD8B4D52BD76F03C0D8F1C2
:1009C000D890D635036A610FE96E000E0320EA6EF7
:1009D000ECCFDAF1ED52EFCFD9F1D8C1EAFFD7C1B0
:1009E000E9FFD9C1EFFFD62BC3D70D0E016E000171
:1009F0009BEF08F0D7C16AF0D6C169F0ABEF08F001
:100A00000101D5C103F0D451D42BD8B4D52BE96E54
:100A100003C0EAFF39C1EFFFD5C103F0D451D42B95
:100A2000D8B4D52BE96E03C0EAFF38C1EFFFD5C1BA
:100A300003F0D451D42BD8B4D52BE96E03C0EAFF10
:100A400037C1EFFFD5C103F0D451D42BD8B4D52B87
:100A5000E96E03C0EAFF36C1EFFFD5C103F0D45100
:100A6000D42BD8B4D52BE96E03C0EAFF3BC1EFFF0E
:100A7000D5C103F0D451D42BD8B4D52BE96E03C023
:100A8000EAFF3AC1EFFFD5C103F0D451D42BD8B45B
:100A9000D52BE96E03C0EAFF3DC1EFFFD5C103F0DE
:100AA000D451D42BD8B4D52BE96E03C0EAFF3CC196
:100AB000EFFF396B386B376B366B3B6B3A6B3D6BCB
:100AC0003C6B148C080E016E0001B2EF08F0D7C128
:100AD0006CF0D6C16BF0C2EF08F0ACC033F1ADC022
:100AE00032F1AEC034F101013451100802E2100EAF
:100AF000346FAFC035F13551200802E2200E356F5A
:100B00000001D4EF08F00101D5C103F0D451D42B7A
:100B1000D8B4D52BE96E03C0EAFF3FC1EFFFD5C1C2
:100B200003F0D451D42BD8B4D52BE96E03C0EAFF1F
:100B30003EC1EFFFD5C103F0D451D42BD8B4D52B8F
:100B4000E96E03C0EAFFEFC0EFFFD5C103F0D45157
:100B5000D42BD8B4D52BE96E03C0EAFF30C1EFFF28
:100B6000040E016E0001DBEF08F0ACC0D4F101010E
:100B7000D4510F0812E3036AD451CF0FE96E000E6F
:100B80000320EA6EADC0EFFF036AD451DF0FE96EB8
:100B9000000E0320EA6EAEC0EFFF0001E3EF08F0A5
:100BA0000101D4510F083FE3D6C103F0D551D52B35
:100BB000D8B4D62BE96E03C0EAFFD4C1EFFFD6C18B
:100BC00003F0D551D52BD8B4D62BD76F03C0D8F1AD
:100BD000036AD451CF0FE96E000E0320EA6EEFCF07
:100BE000D9F1D8C1EAFFD7C1E9FFD9C1EFFFD6C11A
:100BF00003F0D551D52BD8B4D62BD76F03C0D8F17D
:100C0000036AD451DF0FE96E000E0320EA6EEFCFC6
:100C1000D9F1D8C1EAFFD7C1E9FFD9C1EFFF030E6F
:100C2000016E04D003D0000E016E00D00001F3EF7E
:100C300008F0ACC0D4F10101D4511F0812E3036ADB
:100C4000D451F00FE96E000E0320EA6EADC0EFFF45
:100C5000036AD451100FE96E010E0320EA6EAEC094
:100C6000EFFF0001FBEF08F00101D4511F083FE343
:100C7000D6C103F0D551D52BD8B4D62BE96E03C01D
:100C8000EAFFD4C1EFFFD6C103F0D551D52BD8B4BC
:100C9000D62BD76F03C0D8F1036AD451F00FE96E99
:100CA000000E0320EA6EEFCFD9F1D8C1EAFFD7C119
:100CB000E9FFD9C1EFFFD6C103F0D551D52BD8B488
:100CC000D62BD76F03C0D8F1036AD451100FE96E49
:100CD000010E0320EA6EEFCFD9F1D8C1EAFFD7C1E8
:100CE000E9FFD9C1EFFF030E016E04D003D0000E5F
:100CF000016E00D000010BEF09F05DDDAA6B14AAB4
:100D000004D0AB51080801E0149AAB51010A45E048
:100D1000030A52E0010AD8B469D0070AD8B4F6D061
:100D2000010AD8B402D1030AD8B41CD1010AD8B43C
:100D300020D10F0AD8B430D1010AD8B441D1030A66
:100D4000D8B481D1010AD8B4C4D1070AD8B4D0D15B
:100D5000010AD8B4D9D1030AD8B4E6D1010AD8B46B
:100D6000EDD11F0AD8B4F8D1010AD8B4FED1030AD4
:100D7000D8B409D2010AD8B412D2070AD8B415D20D
:100D8000010AD8B41BD2030AD8B41ED2010AD8B4BF
:100D90002DD20F0AD8B430D241D2AD51AC5D07E1AB
:100DA000AD51AC25AE5D03E1ACC0D4F107D5010E69
:100DB000AA6F05C088F034D2080EAA6F05C088F06B
:100DC0001BC089F01CC08AF023C08BF01EC08CF0C1
:100DD00024C08DF020C08EF05AC08FF01BC025F0CB
:100DE0001CC026F023C027F081881AD205BC12D07F
:100DF000070EAA6F4EC088F04FC089F052C08AF02B
:100E000053C08BF04DC08CF056C08DF057C08EF0A3
:100E10004D6A7BD00A0EAA6FCE5109E0010A15E097
:100E2000030A37E0010A48E0070A5AE06DD0050ED0
:100E3000AA6F4EC088F04FC089F052C08AF053C0EC
:100E40008BF04DC08CF04D6A60D039C088F03AC04C
:100E500089F03DC08AF03EC08BF041C08CF042C0AA
:100E60008DF045C08EF046C08FF0080E0101D16FA5
:100E70000001AA510101D15D0AE2036AD151880F34
:100E8000E96E000E0320EA6EEF6AD12BF1D7000164
:100E90003CD00101D16B0001AA510101D15D0AE2F0
:100EA000036AD151880FE96E000E0320EA6EEF6AE3
:100EB000D12BF1D7000129D00101D16B0001AA513A
:100EC0000101D15D0BE2036AD151880FE96E000E7A
:100ED0000320EA6E010EEF6ED12BF0D7000115D082
:100EE0000101D16B0001AA510101D15D0BE2036A3E
:100EF000D151880FE96E000E0320EA6EAA0EEF6E44
:100F0000D12BF0D7000101D000D08AD1AD51AC5D1A
:100F100007E1AD51AC25AE5D03E1ACC0D4F162D4C4
:100F2000010EAA6F05C088F07BD10D0EAA6F05C017
:100F300088F025C089F026C08AF027C08BF01EC03B
:100F40008CF01FC08DF020C08EF080CF8FF081CF4D
:100F500090F082CF91F083CF92F084CF93F05AC07B
:100F600094F05ED1020EAA6F010E886F070E896F92
:100F700057D1AD51AC5D0BE1AD51AC25AE5D07E194
:100F800005BC02D0148A03D0149A059CCE6B010EC6
:100F9000AA6F05C088F044D114AA02D0058C149A17
:100FA000AD51AC5D08E1AD51AC25AE5D04E105ACE1
:100FB00002D0ACC0CEF0010EAA6FCEC088F030D106
:100FC0000101D36BACC0D2F1000ED213D35303E1B5
:100FD000D2511F0805E2D35303E1D2517F0828E222
:100FE000D35303E1D2519F0805E2D35303E1D25119
:100FF000EF081EE2D35100080CE2FF0A03E1D251D0
:101000000F0807E2D351010804E312E1D2511F088F
:101010000FE2D351000815E2FF0A03E1D2518F0815
:1010200010E2D35101080DE303E1D2519F0809E317
:10103000D2C1E9FFD3C1EAFFEFCF88F00001010E72
:10104000AA6F0001EDD00101D36BACC0D2F1000E4C
:10105000D213D35303E1D2511F0830E2D35303E13B
:10106000D2517F0805E2D35303E1D2519F0826E213
:10107000D35303E1D251EF0807E2D351010804E34F
:101080001DE1D2510F081AE2D35100080CE2FF0A09
:1010900003E1D2516F0807E2D351010804E30EE1E6
:1010A000D2518F080BE2D351000811E2FF0A03E18D
:1010B000D251EF080CE2D351010809E3D2C1E9FF94
:1010C000D3C1EAFFEFCF88F00001010EAA6F000143
:1010D000A7D0AD51AC25AE5D06E1ACC0D4F1ADC03A
:1010E000D5F144EF04F0010EAA6F1EC088F098D02D
:1010F000AC51AB5D08E1AD51AC5D05E1AD51AC2546
:10110000AE5D01E114888CD0AD51AC5D08E1AD510C
:10111000AC25AE5D04E1ACC0D4F165EF04F0010E86
:10112000AA6F5DC088F07CD00101D56B880ED46FAA
:1011300000017DEF04F001C0AAF072D0AD51AC25E2
:10114000AE5D09E1ACC0D5F1ADC0D4F1ACC0D7F112
:10115000ADC0D6F14FD464D00101D56B880ED46FE9
:1011600000014ED401C0AAF05BD0AD51AC25AE5DFC
:1011700009E1ACC0D5F1ADC0D4F1ACC0D7F1ADC080
:10118000D6F1A5D44DD0AD51AC5D08E1AD51AC2543
:10119000AE5D04E1ACC0D4F10BEC01F041D0AF5135
:1011A000AE25B05D01E199D43BD00101D56B880E2D
:1011B000D46F0001A8D401C0AAF032D0AE51AD2541
:1011C000AF5D01E1D2D42CD0AD51AC5D0EE1AD519B
:1011D000AC25AE5D0AE1ACC0D4F10101D66B880E3E
:1011E000D56F0001DDD401C0AAF01AD0AE51AD25F3
:1011F000AF5D01E11ED514D0AD51AC5D0EE1AD5136
:10120000AC25AE5D0AE1ACC0D4F10101D66B880E0D
:10121000D56F000129D501C0AAF002D0AA6B00D079
:10122000A96B880EA86FCD6B000CAB5100080EE2C5
:10123000AB5118080BE3036AAB516F0FE96E000E58
:101240000320EA6EEF50CD5D01E157DD73EF09F049
:10125000AA530DE0A9C003F0A851A82BD8B4A92B1C
:10126000E96E03C0EAFFEFCFC9FFAA0702D0FF0E65
:10127000C96E020E006E002EFED70000C688000C5C
:10128000C7CFCFF19E96C6AC03D068EC00F037D044
:101290000101CF51250B010A000107E0200A0DE0F2
:1012A000240A23E0210A28E029D0C9CFD0F1CC6B51
:1012B000AB0ECB6FCD6BC68822D0C9CFD0F1CD534A
:1012C00002E1D3EF03F0CD511F080DE3CCC003F0D2
:1012D000CB51CB2BD8B4CC2BE96E03C0EAFFD0C1E5
:1012E000EFFFCD2BA2D7C6880AD0C9CFD0F1CD53FE
:1012F00001E003DDADDF03D0ABDF01D0C6D7000CCA
:10130000DBEC03F068EC00F0000C376A3734006E59
:101310000036FC0E001600500109C26EFF0E386E3A
:101320004C6A4B6A4A6A496A149200000000000045
:101330000000C282000CB00E0101CD6F040ECE6F12
:10134000CE6B050ECD6FCD5302E1CE530CE0040001
:101350009EA208D00001BCEC03F00101CD51D8B42D
:10136000CE07CD07F0D7040ECE6FB00ECD6FCD53A4
:1013700002E1CE5336E004009EA228D00001BCEC6E
:1013800003F00101CD51D8B4CE07CD071B50FF0AA1
:10139000070B036A0C0FE96E000E0320EA6EEFCF15
:1013A000CCF11B50FF0A006E003A0F0E00160050E1
:1013B000070B036A0C0FE96E000E0320EA6EEF5074
:1013C000CC2722502124CC5D01E10BD09EA603D076
:1013D000000156DF0101F2A403D0000191DF0101F9
:1013E000C6D7CE6B140ECD6FCD5302E1CE5316E0AF
:1013F00004009EA208D00001BCEC03F00101CD5115
:10140000D8B4CE07CD079EA603D0000139DF010175
:10141000F2A403D0000174DF0101E6D7000186ECDD
:1014200000F073DF76EC02F074EF11F09E9C05B8CB
:101430000BD0026A036AC3504926C4504A220250A4
:101440004B2203504C223806383C2BD03750040D29
:10145000F350036A390FE96E000E0320EA6EEE5274
:10146000EE52EC6AED52EF6AED524BC0EFFFED52D7
:101470004AC0EFFF372A3750040802E1148211D026
:101480003734006E0036FC0E001600500109C26EA3
:101490004C6A4B6A4A6A496A020E006E002EFED7F9
:1014A000000014B201D0C2827BEF11F00101EA6B9F
:1014B000EB6B010EEC6FDA6AD96AEF6FE20EEE6F3A
:1014C000010EEA6EE60EE96EEFC1E2FFEEC1E1FF4A
:1014D000ECC1EDF1D890E550EE02F350EA23F45060
:1014E000EB23ED2FF7D7EAC1DEFFEBC1EAF1EB6B9F
:1014F000D8B0EB2BEE2BD8B4EF2BEC2BEC5105082E
:10150000DFE10001000C149240520AE13F5208E171
:101510003E50020816E2FF0A03E13D50300811E296
:101520005A800101CF6BCE6B060ECD6F400ECC6F93
:10153000FF0ED76FD66FD90ED56FF80ED46F10D0BF
:1015400000015A900101CF6BCE6B060ECD6F2D0EB0
:10155000CC6FFF0ED76FD66FE50ED56F240ED46F0C
:1015600044520AE1435208E14250020814E2FF0AE1
:1015700003E1415030080FE25A88D36BD26B060E5C
:10158000D16F400ED06FFF0EDB6FDA6FD90ED96FBF
:10159000F80ED86F0ED05A98D36BD26B060ED16F5F
:1015A0002D0ED06FFF0EDB6FDA6FE50ED96F240EB4
:1015B000D86F48C0E5F147C0E4F146C0E3F145C04B
:1015C000E2F1E96BE86BE76B0C0EE66F00016EDF92
:1015D00003C059F002C058F001C057F000C056F0E7
:1015E0001C50FF0A070B036A0C0FE96E000E032064
:1015F000EA6EEFCFE0F101011C50FF0A006E003AE5
:101600000F0E00160050070B036A0C0FE96E000E58
:101610000320EA6EEFCFE1F12152D8B482D02150FD
:101620000308D8A07ED0CFC1E5F1CEC1E4F1CDC191
:10163000E3F1CCC1E2F13CC0E9F13BC0E8F13AC0D2
:10164000E7F139C0E6F1000131DF03C0E5F102C086
:10165000E4F101C0E3F100C0E2F10101D451002442
:10166000006ED5510120016ED6510220026ED75175
:101670000320DF6F02C0DEF101C0DDF100C0DCF14C
:10168000DFBF4AD0DF5307E1DE5305E1DD5303E15D
:10169000DC51000841E2DF31036EDE31026EDD31E4
:1016A000016EDC31006E033202320132003203324D
:1016B000023201320032033202320132003203328E
:1016C000023201320032033202320132003203327E
:1016D000023201320032010E0316516A506A01C013
:1016E0004FF000C04EF0E051215C15E22150E05D6A
:1016F000010807E1390E4E26000E4F2250225122DA
:101700000AD02150E05D020806E1E20E4E26000EEE
:101710004F225022512204D0516A506A4F6A4E6AB9
:1017200004D0516A506A4F6A4E6A2252D8B482D0AD
:1017300022500308D8A07ED0D3C1E5F1D2C1E4F194
:10174000D1C1E3F1D0C1E2F13CC0E9F13BC0E8F125
:101750003AC0E7F139C0E6F10001A8DE03C0E5F1C7
:1017600002C0E4F101C0E3F100C0E2F10101D8518F
:101770000024006ED9510120016EDA510220026E60
:10178000DB510320DF6F02C0DEF101C0DDF100C0DC
:10179000DCF1DFBF4AD0DF5307E1DE5305E1DD5363
:1017A00003E1DC51000841E2DF31036EDE31026EFD
:1017B000DD31016EDC31006E033202320132003263
:1017C000033202320132003203320232013200327D
:1017D000033202320132003203320232013200326D
:1017E0000332023201320032010E0316556A546A86
:1017F00001C053F000C052F0E151225C15E22250CA
:10180000E15D010807E1390E5226000E53225422F1
:1018100055220AD02250E15D020806E1E20E52266E
:10182000000E53225422552204D0556A546A536A3A
:10183000526A04D0556A546A536A526A010E4D6E58
:1018400000018BEF11F0006A016A026A036A01016C
:10185000F26BF36BF46BF56BF151F011EF11EE11CC
:101860002CE0200EF66FD890EA37EB37EC37ED37E7
:10187000F237F337F437F537F151F55D08E1F05100
:10188000F45D05E1EF51F35D02E1EE51F25D0FE32E
:10189000EE51F25FEF51D8A0EF3DF35FF051D8A0C9
:1018A000F03DF45FF151D8A0F13DF55FD8800036EE
:1018B000013602360336F62FD6D70000010EEA6E47
:1018C000F20EE96E0001000C0101DE51C80803E2CE
:1018D000000E016E60D1DF2DB4D00001EF5305E1A1
:1018E000000E016E010157D10001CF510101DE5DF3
:1018F00005E2DFC001F001014ED1A2D0010E0001CE
:10190000EF5D036ACF0FE96E000E0320EA6EEF5021
:101910000101DE5D0FE00EE3010E0001EF5D036AE1
:10192000DF0FE96E000E0320EA6EEFCF01F0010138
:1019300032D186D0E06B0001EF510101E05DD8B0FB
:101940007FD0036AE051CF0FE96E000E0320EA6EEC
:10195000EF50DE5D73E3010EE025036ACF0FE96E01
:10196000000E0320EA6EEF50DE5D01E067E2036ADD
:10197000E051CF0FE96E000E0320EA6EEF50DE5DFE
:10198000E56F010EE025036ADF0FE96E000E03200C
:10199000EA6EEFCFE7F1036AE051DF0FE96E000E68
:1019A0000320EA6EEF50E75DE503F350E46BE36B71
:1019B000E26BE16F010EE025036ACF0FE96E000EC6
:1019C0000320EA6EEFCFE6F1036AE051CF0FE96E34
:1019D000000E0320EA6EEF50E65DE76FEACFE9F113
:1019E000E9CFE8F1E4C1EDF1E3C1ECF1E2C1EBF1E3
:1019F000E1C1EAF1F16BF06BEF6BE7C1EEF10001D1
:101A000022DFE9C1EAFFE8C1E9FF03C0E4F102C057
:101A1000E3F101C0E2F100C0E1F1036A0101E0512C
:101A2000DF0FE96E000E0320EA6EEF50E127000E93
:101A3000E223E323E423E1C101F0ADD0E02B7BD727
:101A4000AAD0305303E1000E016EA5D00001F05181
:101A50000101DE5D04E210C101F09DD09CD0010EB9
:101A6000305D036AF00FE96E000E0320EA6EEF505E
:101A7000DE5D0DE00CE3010E305D036A100FE96ED0
:101A8000010E0320EA6EEFCF01F085D084D0E06B29
:101A90003051E05DD8B07FD0036AE051F00FE96EBD
:101AA000000E0320EA6EEF50DE5D73E3010EE025C9
:101AB000036AF00FE96E000E0320EA6EEF50DE5D60
:101AC00001E067E2036AE051F00FE96E000E0320C7
:101AD000EA6EEF50DE5DE56F010EE025036A100F40
:101AE000E96E010E0320EA6EEFCFE7F1036AE051E1
:101AF000100FE96E010E0320EA6EEF50E75DE5037B
:101B0000F350E46BE36BE26BE16F010EE025036AD7
:101B1000F00FE96E000E0320EA6EEFCFE6F1036AE4
:101B2000E051F00FE96E000E0320EA6EEF50E65D23
:101B3000E76FEACFE9F1E9CFE8F1E4C1EDF1E3C104
:101B4000ECF1E2C1EBF1E1C1EAF1F16BF06BEF6BAB
:101B5000E7C1EEF1000177DEE9C1EAFFE8C1E9FF84
:101B600003C0E4F102C0E3F101C0E2F100C0E1F121
:101B7000036A0101E051100FE96E010E0320EA6EC5
:101B8000EF50E127000EE223E323E423E1C101F05B
:101B900002D0E02B7DD70001000C51C0EDF150C008
:101BA000ECF14FC0EBF14EC0EAF10101F16BF06BCB
:101BB000EF6B320EEE6F000146DE03C0DCF102C0B7
:101BC000DBF101C0DAF100C0D9F1000E5AB0010E0C
:101BD0000101DD6F00C0DEF1DF6F000175DE01C0C5
:101BE000D8F151C0D3F150C0D2F14FC0D1F14EC0A5
:101BF000D0F1D3C1E5F1D2C1E4F1D1C1E3F1D0C15B
:101C0000E2F10101E96BE86BE76B21C0E6F100014D
:101C10004DDC03C0D3F102C0D2F101C0D1F100C04C
:101C2000D0F1D3C1E5F1D2C1E4F1D1C1E3F1D0C12A
:101C3000E2F10101E96BE86B3FC1E7F13EC1E6F17A
:101C4000000134DC03C0D3F102C0D2F101C0D1F1F4
:101C500000C0D0F1D3C1EDF1D2C1ECF1D1C1EBF1B3
:101C6000D0C1EAF10101F16BF06BEF6B320EEE6F58
:101C70000001E9DD03C0D3F102C0D2F101C0D1F10E
:101C800000C0D0F1D3C1EDF1D2C1ECF1D1C1EBF183
:101C9000D0C1EAF10101F16BF06BEF6BD8C1EEF14D
:101CA0000001D1DD03C0D3F102C0D2F101C0D1F1F6
:101CB00000C0D0F155C0EDF154C0ECF153C0EBF1D0
:101CC00052C0EAF10101F16BF06BEF6B320EEE6F77
:101CD0000001B9DD03C0DCF102C0DBF101C0DAF1C3
:101CE00000C0D9F1000E5AB8010E0101DD6F00C02D
:101CF000DEF1DF6F0001E8DD01C0D8F155C0D7F19A
:101D000054C0D6F153C0D5F152C0D4F1D7C1E5F1DA
:101D1000D6C1E4F1D5C1E3F1D4C1E2F10101E96B2F
:101D2000E86BE76B22C0E6F1000156EC0AF003C055
:101D3000D7F102C0D6F101C0D5F100C0D4F1D7C1AE
:101D4000E5F1D6C1E4F1D5C1E3F1D4C1E2F101017D
:101D5000E96BE86B3FC1E7F13EC1E6F1000156ECEB
:101D60000AF003C0D7F102C0D6F101C0D5F100C01E
:101D7000D4F1D7C1EDF1D6C1ECF1D5C1EBF1D4C1AD
:101D8000EAF10101F16BF06BEF6B320EEE6F0001C7
:101D90005ADD03C0D7F102C0D6F101C0D5F100C0B1
:101DA000D4F1D7C1EDF1D6C1ECF1D5C1EBF1D4C17D
:101DB000EAF10101F16BF06BEF6BD8C1EEF10001BC
:101DC00042DD03C0D7F102C0D6F101C0D5F100C099
:101DD000D4F10101D451D025006ED551D121016E2D
:101DE000D651D221026ED751D321036E0001FAEFF2
:101DF0000EF0D3D603C0CFF102C0CEF101C0CDF1B9
:101E000000C0CCF114BE0BD0148ECFC143F1CEC1B3
:101E100042F1CDC141F1CCC140F133D010D0149E7C
:101E200001014051CC274151CD234251CE23435192
:101E3000CF23D890CF33CE33CD33CC33000114AC85
:101E400020D00101CF5309E1CE5307E13D51CD5DD3
:101E500008E303E1CC513C5D04E2CDC13DF1CCC1CE
:101E60003CF1CC513627CD513723CE513823CF51B9
:101E700039233A2BD8B43B2B3A5303E13B5301E1CE
:101E8000149C000191EF11F014A405D0149405885E
:101E900076EC02F007D0285202E1305202E002D084
:101EA00001D005980EEF11F0FF0E0101D56FD46F30
:101EB000D36BD351030827E3D890D335036A610F5E
:101EC000E96E000E0320EA6EECCFD8F1ED52EFCFB1
:101ED000D7F1D851D55D15E303E1D451D75D11E2B7
:101EE000D890D335036A610FE96E000E0320EA6EC5
:101EF000ECCF03F0ED52EFCFD4F103C0D5F1D3C155
:101F0000D6F1D32BD6D7D890D635036A610FE96EB8
:101F1000000E0320EA6E6AC0ECFFED5269C0EFFFCD
:101F20005F50030801E35F2A5F50030802E314A631
:101F300005D06CC06EF06BC06DF014860001A5EF8B
:101F400010F051C0E5F150C0E4F14FC0E3F14EC0D4
:101F5000E2F10101E96BE86BE76B21C0E6F10001FA
:101F600056EC0AF003C0D6F102C0D5F101C0D4F19D
:101F700000C0D3F155C0E5F154C0E4F153C0E3F122
:101F800052C0E2F10101E96BE86BE76B22C0E6F1B8
:101F9000000156EC0AF000500101D325CC6F01502E
:101FA000D421CD6F0250D521CE6F0350D621CF6FF3
:101FB000CF530AE1CE5308E1CD51490808E2FF0AA8
:101FC00003E1CC51380803E2030ED06F35D0215223
:101FD0000EE0215001080EE2CF530CE1CE530AE18E
:101FE000CD51200807E303E1CC51070803E3010EBC
:101FF000D06F22D0215002080BE2CF5309E1CE531B
:1020000007E1CD51400804E312E1CC510F080FE283
:10201000215001080FE3CF530AE1CE5308E1CD511F
:10202000240808E2FF0A03E1CC511C0803E2020E77
:10203000D06F02D021C0D0F1CF530AE1CE5308E1D6
:10204000CD51490808E2FF0A03E1CC51380803E208
:10205000030ED16F35D022520EE0225001080EE25D
:10206000CF530CE1CE530AE1CD51200807E303E141
:10207000CC51070803E3010ED16F22D02250020891
:102080000BE2CF5309E1CE5307E1CD51400804E301
:1020900012E1CC510F080FE2225001080FE3CF5399
:1020A0000AE1CE5308E1CD51240808E2FF0A03E11A
:1020B000CC511C0803E2020ED16F02D022C0D1F134
:1020C000D051D15D03E2D0C1D1F102D0D1C1D0F164
:1020D000D051215C03E3D151225C39E2D26BD25161
:1020E000020816E3D051215C13E2036AD251060FB5
:1020F000E96E000E0320EA6EEF501E1407E1D2C114
:10210000D7F100013FEC02F00101D007D22BE7D755
:10211000030ED26FD251050816E3D151225C13E2AF
:10212000036AD251060FE96E000E0320EA6EEF50EB
:102130001E1407E1D2C1D7F100013FEC02F001010A
:10214000D107D22BE7D70001AFD642D0010114B698
:102150003BD02150D05D03E32250D15D35E2020E29
:10216000D26FD25316E02150D05D13E2036AD251F0
:10217000060FE96E000E0320EA6EEF501F1407E011
:10218000D2C1D7F100010AEC04F00101D02BD20733
:10219000E8D7060ED26FD251030816E22250D15D65
:1021A00013E2036AD251060FE96E000E0320EA6EB5
:1021B000EF501F1407E0D2C1D7F100010AEC04F080
:1021C0000101D12BD207E7D7000102D076EC02F053
:1021D0000EEF11F0059080AC058005B004D005B479
:1021E00002D005A605D005A202D076EC02F016D0EA
:1021F000215204E0225202E05A5205E005A202D028
:1022000076EC02F00BD0285202E1305201E006D009
:1022100014B402D005A801D037D693D692EF11F0AE
:10222000F86AD09EEA6AE96AC150C00B0F09C16E14
:10223000070EB46E056A010E066E020E076E040EDE
:10224000086E100E096E200E0A6E400E0B6E0C6AA0
:10225000010E0D6E0E6E020E0F6E010E106E020E4E
:10226000116E126E030E136E176A186A196A1A6AD3
:10227000316A326A336A346A356A366A010E6F6EC1
:10228000040E706E010E716E726E040E736E010E8E
:10229000746E756E040E766E776E030E786E796EC0
:1022A000040E7A6E7B6E7C6E010E7D6E040E7E6E69
:1022B000010E7F6E040E806F816F060E826F010E1D
:1022C000836F050E846F040E856F050E866F040EF6
:1022D000876FCE6B0101406B416B426B436B00011A
:1022E000B6EF01F09BEF09F014B81DD004009EACCE
:1022F00002D016EF0AF0F2A402D080EC09F09EA200
:1023000002D0BCEC03F09EA602D040EC09F014A26F
:1023100002D083EF0AF014A005D0149085EC09F0E8
:0E23200068D558D7E1D7F29E00EF18F0030001
:1030000039DBA4D90101C4919EA003D000012BDBC0
:1030100001019EA603D00001B6DA01010400F4D735
:043020000001000C9F
:08310000000000EF18F0000CC4
:103200000101CB51AD0801E012D0F86A020181C280
:10321000F7FF80C2F6FF0400940EA66E550EA76E4F
:10322000AA0EA76EA682A694A6980400010100012A
:10323000000CF86A02018FC2F7FF8EC2F6FF936B93
:103240009251935D1FE20400810EA66E090091C2A7
:1032500003F09051902BD8B4912BE96E03C0EAFF94
:10326000F5CFEFFF090091C203F09051902BD8B435
:10327000912BE96E03C0EAFFF5CFEFFF0400020EC9
:103280009327DED70001000C0101CB51BE0801E0FD
:1032900040D002017A513F0B0AE1AD0E0101CB6F24
:1032A0007BC281F27AC280F20001AADF0201F86AD1
:1032B0007BC2F7FF7AC2F6FF0A007F6B7E517F5D0B
:1032C0000EE27DC203F07C517C2BD8B47D2BE96EDD
:1032D00003C0EAFFEFCFF5FF0F007F2BEFD77E5142
:1032E0007A25806F000E7B21816F80511F0B826FCA
:1032F000836B82530DE183530BE10400840EA66EB1
:10330000550EA76EAA0EA76EA6820000A694040012
:1033100001010001000CC7B0FED7C69EC9C1C9FF9C
:10332000C6BEFBD700000000000000000000C688F9
:103330000101C4A105D0C951AA0802E10400FFD7C8
:10334000510EC96FC86BC56B0001000C02018F6B79
:103350008E6B010E916F440E906F400E926F0001C4
:1033600068DF310E02018F6F8E6B010E916F440E7C
:10337000906F060E926F00015CDFBE0E0101CB6FF5
:1033800002017B6B7A6B010E7D6F440E7C6F200E09
:103390007E6F000179DFBE0E0101CB6F02017B6BF6
:1033A000200E7A6F010E7D6F640E7C6F200E7E6F93
:1033B00000016ADFDE0E0101CB6F0001000C02018B
:1033C0008C6B8B6B8A6B8C512F0821E38CC28FF234
:1033D0008BC28EF2020E916F7A0E906F100E926F6A
:1033E000000127DF02018D6B8D510F080BE3036A8B
:1033F0008D517A0FE96E020E0320EA6EEF508A2794
:103400008D2BF2D7100E8B27000E8C23DCD78AC2AF
:1034100001F00001000C0201786B796B7951010118
:10342000C85D0CE3036A02017951440FE96E010E95
:103430000320EA6EEF507827792BF0D702017853FA
:1034400005E0550E0101C96F79D002010101475114
:10345000000103E0010A3CE06DD045C1C7F146C15F
:10346000C6F10101C7531CE1C6513F0819E3840EA0
:10347000C62502017A6F010E0101C72102017B6F8F
:10348000EA6E7AC2E9FF010EE26E480EE16E0101BA
:103490004451016E04E0E6CFEEFF012EFCD715D0BB
:1034A000C7512F0812E3BE0ECB6FC7C17BF2C6C156
:1034B0007AF2010E02017D6F480E7C6F44C17EF2EC
:1034C0000001E2DEDE0E0101CB6FAA0EC96F36D01D
:1034D000BE0E0101CB6F02017B6B7A6B010E7D6F1B
:1034E000840E7C6F200E7E6F0001CEDEBE0E0101C9
:1034F000CB6F02017B6B200E7A6F010E7D6FA40EE5
:103500007C6F200E7E6F0001BFDEDE0E0101CB6FEF
:10351000000155DF015206E1AA0E0101C96FC48105
:1035200008D00001550E0101C96FC49100010EDFE2
:10353000010104D0520E0101C96F00D0C86BC56BE8
:103540000001000CC69A300EC86E360EC66EC56AF3
:10355000C79EC79C0101C86BC56B510EC96FCA6B72
:103560000001000CC6A802D0C6AC09D00101CA2BCC
:10357000CA51050803E10001E5DF010102D00101A4
:10358000CA6B0001000CC7CF76F20000C9CF77F2FA
:103590009E960101CA6BC6AC04D00001D3DF38D0BF
:1035A000010102017651250B010A00010BE0200AFE
:1035B0000AE0250A27E0010A25E0210A23E0040A9F
:1035C00023E023D025D00101C8513F0817E3036A47
:1035D000C851440FE96E010E0320EA6E77C2EFFF77
:1035E000C85303E177C2C5F107D0040EC525C85DF5
:1035F00003E1000110DF0101C82B02D05A0EC96F90
:10360000000106D088DE04D003D0C69A9BDF00D02C
:10361000000C9B6A700ED36E140E0201766FD350AD
:103620007C0804E0765302E07607F9D70001000C2D
:103630007F0E806E896E926E0B0EC16EFF0E816ED4
:103640008A6EF18EEF0E936EFF0E826E8B6E946E0D
:10365000836E8C6E810E956E070E846E8D6E966EE7
:103660007E0E8312000C3C0ECF6EB00ECE6E7ADF53
:103670009E90000CF29ECDDFDE0E0101CB6F0001AB
:10368000D7DFA50ECD6E3C0ECF6EB00ECE6E5ADFDC
:02369000000C2C
:020000040030CA
:0E00000000080E17008581000FC00FE00F40B2
:00000001FF
;PIC18F4420
